{
	"contracts/DigitalSignatures.sol": {
		"WhitelistMint": {
			"abi": [
				{
					"inputs": [],
					"stateMutability": "nonpayable",
					"type": "constructor"
				},
				{
					"anonymous": false,
					"inputs": [
						{
							"indexed": true,
							"internalType": "address",
							"name": "minter",
							"type": "address"
						}
					],
					"name": "Minted",
					"type": "event"
				},
				{
					"inputs": [
						{
							"internalType": "bytes32",
							"name": "_messageHash",
							"type": "bytes32"
						}
					],
					"name": "getEthSignedMessageHash",
					"outputs": [
						{
							"internalType": "bytes32",
							"name": "",
							"type": "bytes32"
						}
					],
					"stateMutability": "pure",
					"type": "function"
				},
				{
					"inputs": [
						{
							"internalType": "address",
							"name": "_minter",
							"type": "address"
						}
					],
					"name": "getMessageHash",
					"outputs": [
						{
							"internalType": "bytes32",
							"name": "",
							"type": "bytes32"
						}
					],
					"stateMutability": "pure",
					"type": "function"
				},
				{
					"inputs": [
						{
							"internalType": "address",
							"name": "",
							"type": "address"
						}
					],
					"name": "hasMinted",
					"outputs": [
						{
							"internalType": "bool",
							"name": "",
							"type": "bool"
						}
					],
					"stateMutability": "view",
					"type": "function"
				},
				{
					"inputs": [
						{
							"internalType": "uint8",
							"name": "_v",
							"type": "uint8"
						},
						{
							"internalType": "bytes32",
							"name": "_r",
							"type": "bytes32"
						},
						{
							"internalType": "bytes32",
							"name": "_s",
							"type": "bytes32"
						}
					],
					"name": "mint",
					"outputs": [],
					"stateMutability": "nonpayable",
					"type": "function"
				},
				{
					"inputs": [],
					"name": "owner",
					"outputs": [
						{
							"internalType": "address",
							"name": "",
							"type": "address"
						}
					],
					"stateMutability": "view",
					"type": "function"
				},
				{
					"inputs": [
						{
							"internalType": "address",
							"name": "_signer",
							"type": "address"
						},
						{
							"internalType": "address",
							"name": "_minter",
							"type": "address"
						},
						{
							"internalType": "uint8",
							"name": "_v",
							"type": "uint8"
						},
						{
							"internalType": "bytes32",
							"name": "_r",
							"type": "bytes32"
						},
						{
							"internalType": "bytes32",
							"name": "_s",
							"type": "bytes32"
						}
					],
					"name": "verify",
					"outputs": [
						{
							"internalType": "bool",
							"name": "",
							"type": "bool"
						}
					],
					"stateMutability": "pure",
					"type": "function"
				}
			],
			"devdoc": {
				"kind": "dev",
				"methods": {},
				"version": 1
			},
			"evm": {
				"assembly": "    /* \"contracts/DigitalSignatures.sol\":60:1331  contract WhitelistMint {... */\n  mstore(0x40, 0x80)\n    /* \"contracts/DigitalSignatures.sol\":169:220  constructor() {... */\n  callvalue\n  dup1\n  iszero\n  tag_1\n  jumpi\n  0x00\n  dup1\n  revert\ntag_1:\n  pop\n    /* \"contracts/DigitalSignatures.sol\":202:212  msg.sender */\n  caller\n    /* \"contracts/DigitalSignatures.sol\":194:199  owner */\n  0x00\n  dup1\n    /* \"contracts/DigitalSignatures.sol\":194:212  owner = msg.sender */\n  0x0100\n  exp\n  dup2\n  sload\n  dup2\n  0xffffffffffffffffffffffffffffffffffffffff\n  mul\n  not\n  and\n  swap1\n  dup4\n  0xffffffffffffffffffffffffffffffffffffffff\n  and\n  mul\n  or\n  swap1\n  sstore\n  pop\n    /* \"contracts/DigitalSignatures.sol\":60:1331  contract WhitelistMint {... */\n  dataSize(sub_0)\n  dup1\n  dataOffset(sub_0)\n  0x00\n  codecopy\n  0x00\n  return\nstop\n\nsub_0: assembly {\n        /* \"contracts/DigitalSignatures.sol\":60:1331  contract WhitelistMint {... */\n      mstore(0x40, 0x80)\n      callvalue\n      dup1\n      iszero\n      tag_1\n      jumpi\n      0x00\n      dup1\n      revert\n    tag_1:\n      pop\n      jumpi(tag_2, lt(calldatasize, 0x04))\n      shr(0xe0, calldataload(0x00))\n      dup1\n      0x1f5ac1b2\n      eq\n      tag_3\n      jumpi\n      dup1\n      0x38e21cce\n      eq\n      tag_4\n      jumpi\n      dup1\n      0x8da5cb5b\n      eq\n      tag_5\n      jumpi\n      dup1\n      0x99dfdb3e\n      eq\n      tag_6\n      jumpi\n      dup1\n      0x9c89b89f\n      eq\n      tag_7\n      jumpi\n      dup1\n      0xfa540801\n      eq\n      tag_8\n      jumpi\n    tag_2:\n      0x00\n      dup1\n      revert\n        /* \"contracts/DigitalSignatures.sol\":271:404  function getMessageHash(address _minter) public pure returns (bytes32) {... */\n    tag_3:\n      tag_9\n      0x04\n      dup1\n      calldatasize\n      sub\n      dup2\n      add\n      swap1\n      tag_10\n      swap2\n      swap1\n      tag_11\n      jump\t// in\n    tag_10:\n      tag_12\n      jump\t// in\n    tag_9:\n      mload(0x40)\n      tag_13\n      swap2\n      swap1\n      tag_14\n      jump\t// in\n    tag_13:\n      mload(0x40)\n      dup1\n      swap2\n      sub\n      swap1\n      return\n        /* \"contracts/DigitalSignatures.sol\":118:159  mapping(address => bool) public hasMinted */\n    tag_4:\n      tag_15\n      0x04\n      dup1\n      calldatasize\n      sub\n      dup2\n      add\n      swap1\n      tag_16\n      swap2\n      swap1\n      tag_11\n      jump\t// in\n    tag_16:\n      tag_17\n      jump\t// in\n    tag_15:\n      mload(0x40)\n      tag_18\n      swap2\n      swap1\n      tag_19\n      jump\t// in\n    tag_18:\n      mload(0x40)\n      dup1\n      swap2\n      sub\n      swap1\n      return\n        /* \"contracts/DigitalSignatures.sol\":90:110  address public owner */\n    tag_5:\n      tag_20\n      tag_21\n      jump\t// in\n    tag_20:\n      mload(0x40)\n      tag_22\n      swap2\n      swap1\n      tag_23\n      jump\t// in\n    tag_22:\n      mload(0x40)\n      dup1\n      swap2\n      sub\n      swap1\n      return\n        /* \"contracts/DigitalSignatures.sol\":998:1328  function mint(... */\n    tag_6:\n      tag_24\n      0x04\n      dup1\n      calldatasize\n      sub\n      dup2\n      add\n      swap1\n      tag_25\n      swap2\n      swap1\n      tag_26\n      jump\t// in\n    tag_25:\n      tag_27\n      jump\t// in\n    tag_24:\n      stop\n        /* \"contracts/DigitalSignatures.sol\":610:989  function verify(... */\n    tag_7:\n      tag_28\n      0x04\n      dup1\n      calldatasize\n      sub\n      dup2\n      add\n      swap1\n      tag_29\n      swap2\n      swap1\n      tag_30\n      jump\t// in\n    tag_29:\n      tag_31\n      jump\t// in\n    tag_28:\n      mload(0x40)\n      tag_32\n      swap2\n      swap1\n      tag_19\n      jump\t// in\n    tag_32:\n      mload(0x40)\n      dup1\n      swap2\n      sub\n      swap1\n      return\n        /* \"contracts/DigitalSignatures.sol\":413:601  function getEthSignedMessageHash(bytes32 _messageHash) public pure returns (bytes32) {... */\n    tag_8:\n      tag_33\n      0x04\n      dup1\n      calldatasize\n      sub\n      dup2\n      add\n      swap1\n      tag_34\n      swap2\n      swap1\n      tag_35\n      jump\t// in\n    tag_34:\n      tag_36\n      jump\t// in\n    tag_33:\n      mload(0x40)\n      tag_37\n      swap2\n      swap1\n      tag_14\n      jump\t// in\n    tag_37:\n      mload(0x40)\n      dup1\n      swap2\n      sub\n      swap1\n      return\n        /* \"contracts/DigitalSignatures.sol\":271:404  function getMessageHash(address _minter) public pure returns (bytes32) {... */\n    tag_12:\n        /* \"contracts/DigitalSignatures.sol\":333:340  bytes32 */\n      0x00\n        /* \"contracts/DigitalSignatures.sol\":387:394  _minter */\n      dup2\n        /* \"contracts/DigitalSignatures.sol\":370:395  abi.encodePacked(_minter) */\n      add(0x20, mload(0x40))\n      tag_39\n      swap2\n      swap1\n      tag_40\n      jump\t// in\n    tag_39:\n      mload(0x40)\n      0x20\n      dup2\n      dup4\n      sub\n      sub\n      dup2\n      mstore\n      swap1\n      0x40\n      mstore\n        /* \"contracts/DigitalSignatures.sol\":360:396  keccak256(abi.encodePacked(_minter)) */\n      dup1\n      mload\n      swap1\n      0x20\n      add\n      keccak256\n        /* \"contracts/DigitalSignatures.sol\":353:396  return keccak256(abi.encodePacked(_minter)) */\n      swap1\n      pop\n        /* \"contracts/DigitalSignatures.sol\":271:404  function getMessageHash(address _minter) public pure returns (bytes32) {... */\n      swap2\n      swap1\n      pop\n      jump\t// out\n        /* \"contracts/DigitalSignatures.sol\":118:159  mapping(address => bool) public hasMinted */\n    tag_17:\n      mstore(0x20, 0x01)\n      dup1\n      0x00\n      mstore\n      keccak256(0x00, 0x40)\n      0x00\n      swap2\n      pop\n      sload\n      swap1\n      0x0100\n      exp\n      swap1\n      div\n      0xff\n      and\n      dup2\n      jump\t// out\n        /* \"contracts/DigitalSignatures.sol\":90:110  address public owner */\n    tag_21:\n      0x00\n      dup1\n      sload\n      swap1\n      0x0100\n      exp\n      swap1\n      div\n      0xffffffffffffffffffffffffffffffffffffffff\n      and\n      dup2\n      jump\t// out\n        /* \"contracts/DigitalSignatures.sol\":998:1328  function mint(... */\n    tag_27:\n        /* \"contracts/DigitalSignatures.sol\":1109:1118  hasMinted */\n      0x01\n        /* \"contracts/DigitalSignatures.sol\":1109:1130  hasMinted[msg.sender] */\n      0x00\n        /* \"contracts/DigitalSignatures.sol\":1119:1129  msg.sender */\n      caller\n        /* \"contracts/DigitalSignatures.sol\":1109:1130  hasMinted[msg.sender] */\n      0xffffffffffffffffffffffffffffffffffffffff\n      and\n      0xffffffffffffffffffffffffffffffffffffffff\n      and\n      dup2\n      mstore\n      0x20\n      add\n      swap1\n      dup2\n      mstore\n      0x20\n      add\n      0x00\n      keccak256\n      0x00\n      swap1\n      sload\n      swap1\n      0x0100\n      exp\n      swap1\n      div\n      0xff\n      and\n        /* \"contracts/DigitalSignatures.sol\":1108:1130  !hasMinted[msg.sender] */\n      iszero\n        /* \"contracts/DigitalSignatures.sol\":1100:1150  require(!hasMinted[msg.sender], \"Already minted!\") */\n      tag_42\n      jumpi\n      mload(0x40)\n      0x08c379a000000000000000000000000000000000000000000000000000000000\n      dup2\n      mstore\n      0x04\n      add\n      tag_43\n      swap1\n      tag_44\n      jump\t// in\n    tag_43:\n      mload(0x40)\n      dup1\n      swap2\n      sub\n      swap1\n      revert\n    tag_42:\n        /* \"contracts/DigitalSignatures.sol\":1171:1208  verify(owner, msg.sender, _v, _r, _s) */\n      tag_45\n        /* \"contracts/DigitalSignatures.sol\":1178:1183  owner */\n      0x00\n      dup1\n      sload\n      swap1\n      0x0100\n      exp\n      swap1\n      div\n      0xffffffffffffffffffffffffffffffffffffffff\n      and\n        /* \"contracts/DigitalSignatures.sol\":1185:1195  msg.sender */\n      caller\n        /* \"contracts/DigitalSignatures.sol\":1197:1199  _v */\n      dup6\n        /* \"contracts/DigitalSignatures.sol\":1201:1203  _r */\n      dup6\n        /* \"contracts/DigitalSignatures.sol\":1205:1207  _s */\n      dup6\n        /* \"contracts/DigitalSignatures.sol\":1171:1177  verify */\n      tag_31\n        /* \"contracts/DigitalSignatures.sol\":1171:1208  verify(owner, msg.sender, _v, _r, _s) */\n      jump\t// in\n    tag_45:\n        /* \"contracts/DigitalSignatures.sol\":1162:1233  require( verify(owner, msg.sender, _v, _r, _s),  \"Invalid signature!\" ) */\n      tag_46\n      jumpi\n      mload(0x40)\n      0x08c379a000000000000000000000000000000000000000000000000000000000\n      dup2\n      mstore\n      0x04\n      add\n      tag_47\n      swap1\n      tag_48\n      jump\t// in\n    tag_47:\n      mload(0x40)\n      dup1\n      swap2\n      sub\n      swap1\n      revert\n    tag_46:\n        /* \"contracts/DigitalSignatures.sol\":1280:1284  true */\n      0x01\n        /* \"contracts/DigitalSignatures.sol\":1256:1265  hasMinted */\n      dup1\n        /* \"contracts/DigitalSignatures.sol\":1256:1277  hasMinted[msg.sender] */\n      0x00\n        /* \"contracts/DigitalSignatures.sol\":1266:1276  msg.sender */\n      caller\n        /* \"contracts/DigitalSignatures.sol\":1256:1277  hasMinted[msg.sender] */\n      0xffffffffffffffffffffffffffffffffffffffff\n      and\n      0xffffffffffffffffffffffffffffffffffffffff\n      and\n      dup2\n      mstore\n      0x20\n      add\n      swap1\n      dup2\n      mstore\n      0x20\n      add\n      0x00\n      keccak256\n      0x00\n        /* \"contracts/DigitalSignatures.sol\":1256:1284  hasMinted[msg.sender] = true */\n      0x0100\n      exp\n      dup2\n      sload\n      dup2\n      0xff\n      mul\n      not\n      and\n      swap1\n      dup4\n      iszero\n      iszero\n      mul\n      or\n      swap1\n      sstore\n      pop\n        /* \"contracts/DigitalSignatures.sol\":1308:1318  msg.sender */\n      caller\n        /* \"contracts/DigitalSignatures.sol\":1301:1319  Minted(msg.sender) */\n      0xffffffffffffffffffffffffffffffffffffffff\n      and\n      0x90ddedd5a25821bba11fbb98de02ec1f75c1be90ae147d6450ce873e7b78b5d8\n      mload(0x40)\n      mload(0x40)\n      dup1\n      swap2\n      sub\n      swap1\n      log2\n        /* \"contracts/DigitalSignatures.sol\":998:1328  function mint(... */\n      pop\n      pop\n      pop\n      jump\t// out\n        /* \"contracts/DigitalSignatures.sol\":610:989  function verify(... */\n    tag_31:\n        /* \"contracts/DigitalSignatures.sol\":767:771  bool */\n      0x00\n        /* \"contracts/DigitalSignatures.sol\":784:803  bytes32 messageHash */\n      dup1\n        /* \"contracts/DigitalSignatures.sol\":806:829  getMessageHash(_minter) */\n      tag_50\n        /* \"contracts/DigitalSignatures.sol\":821:828  _minter */\n      dup7\n        /* \"contracts/DigitalSignatures.sol\":806:820  getMessageHash */\n      tag_12\n        /* \"contracts/DigitalSignatures.sol\":806:829  getMessageHash(_minter) */\n      jump\t// in\n    tag_50:\n        /* \"contracts/DigitalSignatures.sol\":784:829  bytes32 messageHash = getMessageHash(_minter) */\n      swap1\n      pop\n        /* \"contracts/DigitalSignatures.sol\":840:868  bytes32 ethSignedMessageHash */\n      0x00\n        /* \"contracts/DigitalSignatures.sol\":871:907  getEthSignedMessageHash(messageHash) */\n      tag_51\n        /* \"contracts/DigitalSignatures.sol\":895:906  messageHash */\n      dup3\n        /* \"contracts/DigitalSignatures.sol\":871:894  getEthSignedMessageHash */\n      tag_36\n        /* \"contracts/DigitalSignatures.sol\":871:907  getEthSignedMessageHash(messageHash) */\n      jump\t// in\n    tag_51:\n        /* \"contracts/DigitalSignatures.sol\":840:907  bytes32 ethSignedMessageHash = getEthSignedMessageHash(messageHash) */\n      swap1\n      pop\n        /* \"contracts/DigitalSignatures.sol\":974:981  _signer */\n      dup8\n        /* \"contracts/DigitalSignatures.sol\":927:981  ecrecover(ethSignedMessageHash, _v, _r, _s) == _signer */\n      0xffffffffffffffffffffffffffffffffffffffff\n      and\n        /* \"contracts/DigitalSignatures.sol\":927:970  ecrecover(ethSignedMessageHash, _v, _r, _s) */\n      0x01\n        /* \"contracts/DigitalSignatures.sol\":937:957  ethSignedMessageHash */\n      dup3\n        /* \"contracts/DigitalSignatures.sol\":959:961  _v */\n      dup9\n        /* \"contracts/DigitalSignatures.sol\":963:965  _r */\n      dup9\n        /* \"contracts/DigitalSignatures.sol\":967:969  _s */\n      dup9\n        /* \"contracts/DigitalSignatures.sol\":927:970  ecrecover(ethSignedMessageHash, _v, _r, _s) */\n      mload(0x40)\n      0x00\n      dup2\n      mstore\n      0x20\n      add\n      0x40\n      mstore\n      mload(0x40)\n      tag_52\n      swap5\n      swap4\n      swap3\n      swap2\n      swap1\n      tag_53\n      jump\t// in\n    tag_52:\n      0x20\n      mload(0x40)\n      0x20\n      dup2\n      sub\n      swap1\n      dup1\n      dup5\n      sub\n      swap1\n      dup6\n      gas\n      staticcall\n      iszero\n      dup1\n      iszero\n      tag_55\n      jumpi\n      returndatasize\n      0x00\n      dup1\n      returndatacopy\n      revert(0x00, returndatasize)\n    tag_55:\n      pop\n      pop\n      pop\n      mload(sub(mload(0x40), 0x20))\n        /* \"contracts/DigitalSignatures.sol\":927:981  ecrecover(ethSignedMessageHash, _v, _r, _s) == _signer */\n      0xffffffffffffffffffffffffffffffffffffffff\n      and\n      eq\n        /* \"contracts/DigitalSignatures.sol\":920:981  return ecrecover(ethSignedMessageHash, _v, _r, _s) == _signer */\n      swap3\n      pop\n      pop\n      pop\n        /* \"contracts/DigitalSignatures.sol\":610:989  function verify(... */\n      swap6\n      swap5\n      pop\n      pop\n      pop\n      pop\n      pop\n      jump\t// out\n        /* \"contracts/DigitalSignatures.sol\":413:601  function getEthSignedMessageHash(bytes32 _messageHash) public pure returns (bytes32) {... */\n    tag_36:\n        /* \"contracts/DigitalSignatures.sol\":489:496  bytes32 */\n      0x00\n        /* \"contracts/DigitalSignatures.sol\":579:591  _messageHash */\n      dup2\n        /* \"contracts/DigitalSignatures.sol\":526:592  abi.encodePacked(\"\\x19Ethereum Signed Message:\\n32\", _messageHash) */\n      add(0x20, mload(0x40))\n      tag_57\n      swap2\n      swap1\n      tag_58\n      jump\t// in\n    tag_57:\n      mload(0x40)\n      0x20\n      dup2\n      dup4\n      sub\n      sub\n      dup2\n      mstore\n      swap1\n      0x40\n      mstore\n        /* \"contracts/DigitalSignatures.sol\":516:593  keccak256(abi.encodePacked(\"\\x19Ethereum Signed Message:\\n32\", _messageHash)) */\n      dup1\n      mload\n      swap1\n      0x20\n      add\n      keccak256\n        /* \"contracts/DigitalSignatures.sol\":509:593  return keccak256(abi.encodePacked(\"\\x19Ethereum Signed Message:\\n32\", _messageHash)) */\n      swap1\n      pop\n        /* \"contracts/DigitalSignatures.sol\":413:601  function getEthSignedMessageHash(bytes32 _messageHash) public pure returns (bytes32) {... */\n      swap2\n      swap1\n      pop\n      jump\t// out\n        /* \"#utility.yul\":88:205   */\n    tag_60:\n        /* \"#utility.yul\":197:198   */\n      0x00\n        /* \"#utility.yul\":194:195   */\n      dup1\n        /* \"#utility.yul\":187:199   */\n      revert\n        /* \"#utility.yul\":334:460   */\n    tag_62:\n        /* \"#utility.yul\":371:378   */\n      0x00\n        /* \"#utility.yul\":411:453   */\n      0xffffffffffffffffffffffffffffffffffffffff\n        /* \"#utility.yul\":404:409   */\n      dup3\n        /* \"#utility.yul\":400:454   */\n      and\n        /* \"#utility.yul\":389:454   */\n      swap1\n      pop\n        /* \"#utility.yul\":334:460   */\n      swap2\n      swap1\n      pop\n      jump\t// out\n        /* \"#utility.yul\":466:562   */\n    tag_63:\n        /* \"#utility.yul\":503:510   */\n      0x00\n        /* \"#utility.yul\":532:556   */\n      tag_97\n        /* \"#utility.yul\":550:555   */\n      dup3\n        /* \"#utility.yul\":532:556   */\n      tag_62\n      jump\t// in\n    tag_97:\n        /* \"#utility.yul\":521:556   */\n      swap1\n      pop\n        /* \"#utility.yul\":466:562   */\n      swap2\n      swap1\n      pop\n      jump\t// out\n        /* \"#utility.yul\":568:690   */\n    tag_64:\n        /* \"#utility.yul\":641:665   */\n      tag_99\n        /* \"#utility.yul\":659:664   */\n      dup2\n        /* \"#utility.yul\":641:665   */\n      tag_63\n      jump\t// in\n    tag_99:\n        /* \"#utility.yul\":634:639   */\n      dup2\n        /* \"#utility.yul\":631:666   */\n      eq\n        /* \"#utility.yul\":621:684   */\n      tag_100\n      jumpi\n        /* \"#utility.yul\":680:681   */\n      0x00\n        /* \"#utility.yul\":677:678   */\n      dup1\n        /* \"#utility.yul\":670:682   */\n      revert\n        /* \"#utility.yul\":621:684   */\n    tag_100:\n        /* \"#utility.yul\":568:690   */\n      pop\n      jump\t// out\n        /* \"#utility.yul\":696:835   */\n    tag_65:\n        /* \"#utility.yul\":742:747   */\n      0x00\n        /* \"#utility.yul\":780:786   */\n      dup2\n        /* \"#utility.yul\":767:787   */\n      calldataload\n        /* \"#utility.yul\":758:787   */\n      swap1\n      pop\n        /* \"#utility.yul\":796:829   */\n      tag_102\n        /* \"#utility.yul\":823:828   */\n      dup2\n        /* \"#utility.yul\":796:829   */\n      tag_64\n      jump\t// in\n    tag_102:\n        /* \"#utility.yul\":696:835   */\n      swap3\n      swap2\n      pop\n      pop\n      jump\t// out\n        /* \"#utility.yul\":841:1170   */\n    tag_11:\n        /* \"#utility.yul\":900:906   */\n      0x00\n        /* \"#utility.yul\":949:951   */\n      0x20\n        /* \"#utility.yul\":937:946   */\n      dup3\n        /* \"#utility.yul\":928:935   */\n      dup5\n        /* \"#utility.yul\":924:947   */\n      sub\n        /* \"#utility.yul\":920:952   */\n      slt\n        /* \"#utility.yul\":917:1036   */\n      iszero\n      tag_104\n      jumpi\n        /* \"#utility.yul\":955:1034   */\n      tag_105\n      tag_60\n      jump\t// in\n    tag_105:\n        /* \"#utility.yul\":917:1036   */\n    tag_104:\n        /* \"#utility.yul\":1075:1076   */\n      0x00\n        /* \"#utility.yul\":1100:1153   */\n      tag_106\n        /* \"#utility.yul\":1145:1152   */\n      dup5\n        /* \"#utility.yul\":1136:1142   */\n      dup3\n        /* \"#utility.yul\":1125:1134   */\n      dup6\n        /* \"#utility.yul\":1121:1143   */\n      add\n        /* \"#utility.yul\":1100:1153   */\n      tag_65\n      jump\t// in\n    tag_106:\n        /* \"#utility.yul\":1090:1153   */\n      swap2\n      pop\n        /* \"#utility.yul\":1046:1163   */\n      pop\n        /* \"#utility.yul\":841:1170   */\n      swap3\n      swap2\n      pop\n      pop\n      jump\t// out\n        /* \"#utility.yul\":1176:1253   */\n    tag_66:\n        /* \"#utility.yul\":1213:1220   */\n      0x00\n        /* \"#utility.yul\":1242:1247   */\n      dup2\n        /* \"#utility.yul\":1231:1247   */\n      swap1\n      pop\n        /* \"#utility.yul\":1176:1253   */\n      swap2\n      swap1\n      pop\n      jump\t// out\n        /* \"#utility.yul\":1259:1377   */\n    tag_67:\n        /* \"#utility.yul\":1346:1370   */\n      tag_109\n        /* \"#utility.yul\":1364:1369   */\n      dup2\n        /* \"#utility.yul\":1346:1370   */\n      tag_66\n      jump\t// in\n    tag_109:\n        /* \"#utility.yul\":1341:1344   */\n      dup3\n        /* \"#utility.yul\":1334:1371   */\n      mstore\n        /* \"#utility.yul\":1259:1377   */\n      pop\n      pop\n      jump\t// out\n        /* \"#utility.yul\":1383:1605   */\n    tag_14:\n        /* \"#utility.yul\":1476:1480   */\n      0x00\n        /* \"#utility.yul\":1514:1516   */\n      0x20\n        /* \"#utility.yul\":1503:1512   */\n      dup3\n        /* \"#utility.yul\":1499:1517   */\n      add\n        /* \"#utility.yul\":1491:1517   */\n      swap1\n      pop\n        /* \"#utility.yul\":1527:1598   */\n      tag_111\n        /* \"#utility.yul\":1595:1596   */\n      0x00\n        /* \"#utility.yul\":1584:1593   */\n      dup4\n        /* \"#utility.yul\":1580:1597   */\n      add\n        /* \"#utility.yul\":1571:1577   */\n      dup5\n        /* \"#utility.yul\":1527:1598   */\n      tag_67\n      jump\t// in\n    tag_111:\n        /* \"#utility.yul\":1383:1605   */\n      swap3\n      swap2\n      pop\n      pop\n      jump\t// out\n        /* \"#utility.yul\":1611:1701   */\n    tag_68:\n        /* \"#utility.yul\":1645:1652   */\n      0x00\n        /* \"#utility.yul\":1688:1693   */\n      dup2\n        /* \"#utility.yul\":1681:1694   */\n      iszero\n        /* \"#utility.yul\":1674:1695   */\n      iszero\n        /* \"#utility.yul\":1663:1695   */\n      swap1\n      pop\n        /* \"#utility.yul\":1611:1701   */\n      swap2\n      swap1\n      pop\n      jump\t// out\n        /* \"#utility.yul\":1707:1816   */\n    tag_69:\n        /* \"#utility.yul\":1788:1809   */\n      tag_114\n        /* \"#utility.yul\":1803:1808   */\n      dup2\n        /* \"#utility.yul\":1788:1809   */\n      tag_68\n      jump\t// in\n    tag_114:\n        /* \"#utility.yul\":1783:1786   */\n      dup3\n        /* \"#utility.yul\":1776:1810   */\n      mstore\n        /* \"#utility.yul\":1707:1816   */\n      pop\n      pop\n      jump\t// out\n        /* \"#utility.yul\":1822:2032   */\n    tag_19:\n        /* \"#utility.yul\":1909:1913   */\n      0x00\n        /* \"#utility.yul\":1947:1949   */\n      0x20\n        /* \"#utility.yul\":1936:1945   */\n      dup3\n        /* \"#utility.yul\":1932:1950   */\n      add\n        /* \"#utility.yul\":1924:1950   */\n      swap1\n      pop\n        /* \"#utility.yul\":1960:2025   */\n      tag_116\n        /* \"#utility.yul\":2022:2023   */\n      0x00\n        /* \"#utility.yul\":2011:2020   */\n      dup4\n        /* \"#utility.yul\":2007:2024   */\n      add\n        /* \"#utility.yul\":1998:2004   */\n      dup5\n        /* \"#utility.yul\":1960:2025   */\n      tag_69\n      jump\t// in\n    tag_116:\n        /* \"#utility.yul\":1822:2032   */\n      swap3\n      swap2\n      pop\n      pop\n      jump\t// out\n        /* \"#utility.yul\":2038:2156   */\n    tag_70:\n        /* \"#utility.yul\":2125:2149   */\n      tag_118\n        /* \"#utility.yul\":2143:2148   */\n      dup2\n        /* \"#utility.yul\":2125:2149   */\n      tag_63\n      jump\t// in\n    tag_118:\n        /* \"#utility.yul\":2120:2123   */\n      dup3\n        /* \"#utility.yul\":2113:2150   */\n      mstore\n        /* \"#utility.yul\":2038:2156   */\n      pop\n      pop\n      jump\t// out\n        /* \"#utility.yul\":2162:2384   */\n    tag_23:\n        /* \"#utility.yul\":2255:2259   */\n      0x00\n        /* \"#utility.yul\":2293:2295   */\n      0x20\n        /* \"#utility.yul\":2282:2291   */\n      dup3\n        /* \"#utility.yul\":2278:2296   */\n      add\n        /* \"#utility.yul\":2270:2296   */\n      swap1\n      pop\n        /* \"#utility.yul\":2306:2377   */\n      tag_120\n        /* \"#utility.yul\":2374:2375   */\n      0x00\n        /* \"#utility.yul\":2363:2372   */\n      dup4\n        /* \"#utility.yul\":2359:2376   */\n      add\n        /* \"#utility.yul\":2350:2356   */\n      dup5\n        /* \"#utility.yul\":2306:2377   */\n      tag_70\n      jump\t// in\n    tag_120:\n        /* \"#utility.yul\":2162:2384   */\n      swap3\n      swap2\n      pop\n      pop\n      jump\t// out\n        /* \"#utility.yul\":2390:2476   */\n    tag_71:\n        /* \"#utility.yul\":2425:2432   */\n      0x00\n        /* \"#utility.yul\":2465:2469   */\n      0xff\n        /* \"#utility.yul\":2458:2463   */\n      dup3\n        /* \"#utility.yul\":2454:2470   */\n      and\n        /* \"#utility.yul\":2443:2470   */\n      swap1\n      pop\n        /* \"#utility.yul\":2390:2476   */\n      swap2\n      swap1\n      pop\n      jump\t// out\n        /* \"#utility.yul\":2482:2600   */\n    tag_72:\n        /* \"#utility.yul\":2553:2575   */\n      tag_123\n        /* \"#utility.yul\":2569:2574   */\n      dup2\n        /* \"#utility.yul\":2553:2575   */\n      tag_71\n      jump\t// in\n    tag_123:\n        /* \"#utility.yul\":2546:2551   */\n      dup2\n        /* \"#utility.yul\":2543:2576   */\n      eq\n        /* \"#utility.yul\":2533:2594   */\n      tag_124\n      jumpi\n        /* \"#utility.yul\":2590:2591   */\n      0x00\n        /* \"#utility.yul\":2587:2588   */\n      dup1\n        /* \"#utility.yul\":2580:2592   */\n      revert\n        /* \"#utility.yul\":2533:2594   */\n    tag_124:\n        /* \"#utility.yul\":2482:2600   */\n      pop\n      jump\t// out\n        /* \"#utility.yul\":2606:2741   */\n    tag_73:\n        /* \"#utility.yul\":2650:2655   */\n      0x00\n        /* \"#utility.yul\":2688:2694   */\n      dup2\n        /* \"#utility.yul\":2675:2695   */\n      calldataload\n        /* \"#utility.yul\":2666:2695   */\n      swap1\n      pop\n        /* \"#utility.yul\":2704:2735   */\n      tag_126\n        /* \"#utility.yul\":2729:2734   */\n      dup2\n        /* \"#utility.yul\":2704:2735   */\n      tag_72\n      jump\t// in\n    tag_126:\n        /* \"#utility.yul\":2606:2741   */\n      swap3\n      swap2\n      pop\n      pop\n      jump\t// out\n        /* \"#utility.yul\":2747:2869   */\n    tag_74:\n        /* \"#utility.yul\":2820:2844   */\n      tag_128\n        /* \"#utility.yul\":2838:2843   */\n      dup2\n        /* \"#utility.yul\":2820:2844   */\n      tag_66\n      jump\t// in\n    tag_128:\n        /* \"#utility.yul\":2813:2818   */\n      dup2\n        /* \"#utility.yul\":2810:2845   */\n      eq\n        /* \"#utility.yul\":2800:2863   */\n      tag_129\n      jumpi\n        /* \"#utility.yul\":2859:2860   */\n      0x00\n        /* \"#utility.yul\":2856:2857   */\n      dup1\n        /* \"#utility.yul\":2849:2861   */\n      revert\n        /* \"#utility.yul\":2800:2863   */\n    tag_129:\n        /* \"#utility.yul\":2747:2869   */\n      pop\n      jump\t// out\n        /* \"#utility.yul\":2875:3014   */\n    tag_75:\n        /* \"#utility.yul\":2921:2926   */\n      0x00\n        /* \"#utility.yul\":2959:2965   */\n      dup2\n        /* \"#utility.yul\":2946:2966   */\n      calldataload\n        /* \"#utility.yul\":2937:2966   */\n      swap1\n      pop\n        /* \"#utility.yul\":2975:3008   */\n      tag_131\n        /* \"#utility.yul\":3002:3007   */\n      dup2\n        /* \"#utility.yul\":2975:3008   */\n      tag_74\n      jump\t// in\n    tag_131:\n        /* \"#utility.yul\":2875:3014   */\n      swap3\n      swap2\n      pop\n      pop\n      jump\t// out\n        /* \"#utility.yul\":3020:3635   */\n    tag_26:\n        /* \"#utility.yul\":3095:3101   */\n      0x00\n        /* \"#utility.yul\":3103:3109   */\n      dup1\n        /* \"#utility.yul\":3111:3117   */\n      0x00\n        /* \"#utility.yul\":3160:3162   */\n      0x60\n        /* \"#utility.yul\":3148:3157   */\n      dup5\n        /* \"#utility.yul\":3139:3146   */\n      dup7\n        /* \"#utility.yul\":3135:3158   */\n      sub\n        /* \"#utility.yul\":3131:3163   */\n      slt\n        /* \"#utility.yul\":3128:3247   */\n      iszero\n      tag_133\n      jumpi\n        /* \"#utility.yul\":3166:3245   */\n      tag_134\n      tag_60\n      jump\t// in\n    tag_134:\n        /* \"#utility.yul\":3128:3247   */\n    tag_133:\n        /* \"#utility.yul\":3286:3287   */\n      0x00\n        /* \"#utility.yul\":3311:3362   */\n      tag_135\n        /* \"#utility.yul\":3354:3361   */\n      dup7\n        /* \"#utility.yul\":3345:3351   */\n      dup3\n        /* \"#utility.yul\":3334:3343   */\n      dup8\n        /* \"#utility.yul\":3330:3352   */\n      add\n        /* \"#utility.yul\":3311:3362   */\n      tag_73\n      jump\t// in\n    tag_135:\n        /* \"#utility.yul\":3301:3362   */\n      swap4\n      pop\n        /* \"#utility.yul\":3257:3372   */\n      pop\n        /* \"#utility.yul\":3411:3413   */\n      0x20\n        /* \"#utility.yul\":3437:3490   */\n      tag_136\n        /* \"#utility.yul\":3482:3489   */\n      dup7\n        /* \"#utility.yul\":3473:3479   */\n      dup3\n        /* \"#utility.yul\":3462:3471   */\n      dup8\n        /* \"#utility.yul\":3458:3480   */\n      add\n        /* \"#utility.yul\":3437:3490   */\n      tag_75\n      jump\t// in\n    tag_136:\n        /* \"#utility.yul\":3427:3490   */\n      swap3\n      pop\n        /* \"#utility.yul\":3382:3500   */\n      pop\n        /* \"#utility.yul\":3539:3541   */\n      0x40\n        /* \"#utility.yul\":3565:3618   */\n      tag_137\n        /* \"#utility.yul\":3610:3617   */\n      dup7\n        /* \"#utility.yul\":3601:3607   */\n      dup3\n        /* \"#utility.yul\":3590:3599   */\n      dup8\n        /* \"#utility.yul\":3586:3608   */\n      add\n        /* \"#utility.yul\":3565:3618   */\n      tag_75\n      jump\t// in\n    tag_137:\n        /* \"#utility.yul\":3555:3618   */\n      swap2\n      pop\n        /* \"#utility.yul\":3510:3628   */\n      pop\n        /* \"#utility.yul\":3020:3635   */\n      swap3\n      pop\n      swap3\n      pop\n      swap3\n      jump\t// out\n        /* \"#utility.yul\":3641:4548   */\n    tag_30:\n        /* \"#utility.yul\":3734:3740   */\n      0x00\n        /* \"#utility.yul\":3742:3748   */\n      dup1\n        /* \"#utility.yul\":3750:3756   */\n      0x00\n        /* \"#utility.yul\":3758:3764   */\n      dup1\n        /* \"#utility.yul\":3766:3772   */\n      0x00\n        /* \"#utility.yul\":3815:3818   */\n      0xa0\n        /* \"#utility.yul\":3803:3812   */\n      dup7\n        /* \"#utility.yul\":3794:3801   */\n      dup9\n        /* \"#utility.yul\":3790:3813   */\n      sub\n        /* \"#utility.yul\":3786:3819   */\n      slt\n        /* \"#utility.yul\":3783:3903   */\n      iszero\n      tag_139\n      jumpi\n        /* \"#utility.yul\":3822:3901   */\n      tag_140\n      tag_60\n      jump\t// in\n    tag_140:\n        /* \"#utility.yul\":3783:3903   */\n    tag_139:\n        /* \"#utility.yul\":3942:3943   */\n      0x00\n        /* \"#utility.yul\":3967:4020   */\n      tag_141\n        /* \"#utility.yul\":4012:4019   */\n      dup9\n        /* \"#utility.yul\":4003:4009   */\n      dup3\n        /* \"#utility.yul\":3992:4001   */\n      dup10\n        /* \"#utility.yul\":3988:4010   */\n      add\n        /* \"#utility.yul\":3967:4020   */\n      tag_65\n      jump\t// in\n    tag_141:\n        /* \"#utility.yul\":3957:4020   */\n      swap6\n      pop\n        /* \"#utility.yul\":3913:4030   */\n      pop\n        /* \"#utility.yul\":4069:4071   */\n      0x20\n        /* \"#utility.yul\":4095:4148   */\n      tag_142\n        /* \"#utility.yul\":4140:4147   */\n      dup9\n        /* \"#utility.yul\":4131:4137   */\n      dup3\n        /* \"#utility.yul\":4120:4129   */\n      dup10\n        /* \"#utility.yul\":4116:4138   */\n      add\n        /* \"#utility.yul\":4095:4148   */\n      tag_65\n      jump\t// in\n    tag_142:\n        /* \"#utility.yul\":4085:4148   */\n      swap5\n      pop\n        /* \"#utility.yul\":4040:4158   */\n      pop\n        /* \"#utility.yul\":4197:4199   */\n      0x40\n        /* \"#utility.yul\":4223:4274   */\n      tag_143\n        /* \"#utility.yul\":4266:4273   */\n      dup9\n        /* \"#utility.yul\":4257:4263   */\n      dup3\n        /* \"#utility.yul\":4246:4255   */\n      dup10\n        /* \"#utility.yul\":4242:4264   */\n      add\n        /* \"#utility.yul\":4223:4274   */\n      tag_73\n      jump\t// in\n    tag_143:\n        /* \"#utility.yul\":4213:4274   */\n      swap4\n      pop\n        /* \"#utility.yul\":4168:4284   */\n      pop\n        /* \"#utility.yul\":4323:4325   */\n      0x60\n        /* \"#utility.yul\":4349:4402   */\n      tag_144\n        /* \"#utility.yul\":4394:4401   */\n      dup9\n        /* \"#utility.yul\":4385:4391   */\n      dup3\n        /* \"#utility.yul\":4374:4383   */\n      dup10\n        /* \"#utility.yul\":4370:4392   */\n      add\n        /* \"#utility.yul\":4349:4402   */\n      tag_75\n      jump\t// in\n    tag_144:\n        /* \"#utility.yul\":4339:4402   */\n      swap3\n      pop\n        /* \"#utility.yul\":4294:4412   */\n      pop\n        /* \"#utility.yul\":4451:4454   */\n      0x80\n        /* \"#utility.yul\":4478:4531   */\n      tag_145\n        /* \"#utility.yul\":4523:4530   */\n      dup9\n        /* \"#utility.yul\":4514:4520   */\n      dup3\n        /* \"#utility.yul\":4503:4512   */\n      dup10\n        /* \"#utility.yul\":4499:4521   */\n      add\n        /* \"#utility.yul\":4478:4531   */\n      tag_75\n      jump\t// in\n    tag_145:\n        /* \"#utility.yul\":4468:4531   */\n      swap2\n      pop\n        /* \"#utility.yul\":4422:4541   */\n      pop\n        /* \"#utility.yul\":3641:4548   */\n      swap3\n      swap6\n      pop\n      swap3\n      swap6\n      swap1\n      swap4\n      pop\n      jump\t// out\n        /* \"#utility.yul\":4554:4883   */\n    tag_35:\n        /* \"#utility.yul\":4613:4619   */\n      0x00\n        /* \"#utility.yul\":4662:4664   */\n      0x20\n        /* \"#utility.yul\":4650:4659   */\n      dup3\n        /* \"#utility.yul\":4641:4648   */\n      dup5\n        /* \"#utility.yul\":4637:4660   */\n      sub\n        /* \"#utility.yul\":4633:4665   */\n      slt\n        /* \"#utility.yul\":4630:4749   */\n      iszero\n      tag_147\n      jumpi\n        /* \"#utility.yul\":4668:4747   */\n      tag_148\n      tag_60\n      jump\t// in\n    tag_148:\n        /* \"#utility.yul\":4630:4749   */\n    tag_147:\n        /* \"#utility.yul\":4788:4789   */\n      0x00\n        /* \"#utility.yul\":4813:4866   */\n      tag_149\n        /* \"#utility.yul\":4858:4865   */\n      dup5\n        /* \"#utility.yul\":4849:4855   */\n      dup3\n        /* \"#utility.yul\":4838:4847   */\n      dup6\n        /* \"#utility.yul\":4834:4856   */\n      add\n        /* \"#utility.yul\":4813:4866   */\n      tag_75\n      jump\t// in\n    tag_149:\n        /* \"#utility.yul\":4803:4866   */\n      swap2\n      pop\n        /* \"#utility.yul\":4759:4876   */\n      pop\n        /* \"#utility.yul\":4554:4883   */\n      swap3\n      swap2\n      pop\n      pop\n      jump\t// out\n        /* \"#utility.yul\":4889:4983   */\n    tag_76:\n        /* \"#utility.yul\":4922:4930   */\n      0x00\n        /* \"#utility.yul\":4970:4975   */\n      dup2\n        /* \"#utility.yul\":4966:4968   */\n      0x60\n        /* \"#utility.yul\":4962:4976   */\n      shl\n        /* \"#utility.yul\":4941:4976   */\n      swap1\n      pop\n        /* \"#utility.yul\":4889:4983   */\n      swap2\n      swap1\n      pop\n      jump\t// out\n        /* \"#utility.yul\":4989:5083   */\n    tag_77:\n        /* \"#utility.yul\":5028:5035   */\n      0x00\n        /* \"#utility.yul\":5057:5077   */\n      tag_152\n        /* \"#utility.yul\":5071:5076   */\n      dup3\n        /* \"#utility.yul\":5057:5077   */\n      tag_76\n      jump\t// in\n    tag_152:\n        /* \"#utility.yul\":5046:5077   */\n      swap1\n      pop\n        /* \"#utility.yul\":4989:5083   */\n      swap2\n      swap1\n      pop\n      jump\t// out\n        /* \"#utility.yul\":5089:5189   */\n    tag_78:\n        /* \"#utility.yul\":5128:5135   */\n      0x00\n        /* \"#utility.yul\":5157:5183   */\n      tag_154\n        /* \"#utility.yul\":5177:5182   */\n      dup3\n        /* \"#utility.yul\":5157:5183   */\n      tag_77\n      jump\t// in\n    tag_154:\n        /* \"#utility.yul\":5146:5183   */\n      swap1\n      pop\n        /* \"#utility.yul\":5089:5189   */\n      swap2\n      swap1\n      pop\n      jump\t// out\n        /* \"#utility.yul\":5195:5352   */\n    tag_79:\n        /* \"#utility.yul\":5300:5345   */\n      tag_156\n        /* \"#utility.yul\":5320:5344   */\n      tag_157\n        /* \"#utility.yul\":5338:5343   */\n      dup3\n        /* \"#utility.yul\":5320:5344   */\n      tag_63\n      jump\t// in\n    tag_157:\n        /* \"#utility.yul\":5300:5345   */\n      tag_78\n      jump\t// in\n    tag_156:\n        /* \"#utility.yul\":5295:5298   */\n      dup3\n        /* \"#utility.yul\":5288:5346   */\n      mstore\n        /* \"#utility.yul\":5195:5352   */\n      pop\n      pop\n      jump\t// out\n        /* \"#utility.yul\":5358:5614   */\n    tag_40:\n        /* \"#utility.yul\":5470:5473   */\n      0x00\n        /* \"#utility.yul\":5485:5560   */\n      tag_159\n        /* \"#utility.yul\":5556:5559   */\n      dup3\n        /* \"#utility.yul\":5547:5553   */\n      dup5\n        /* \"#utility.yul\":5485:5560   */\n      tag_79\n      jump\t// in\n    tag_159:\n        /* \"#utility.yul\":5585:5587   */\n      0x14\n        /* \"#utility.yul\":5580:5583   */\n      dup3\n        /* \"#utility.yul\":5576:5588   */\n      add\n        /* \"#utility.yul\":5569:5588   */\n      swap2\n      pop\n        /* \"#utility.yul\":5605:5608   */\n      dup2\n        /* \"#utility.yul\":5598:5608   */\n      swap1\n      pop\n        /* \"#utility.yul\":5358:5614   */\n      swap3\n      swap2\n      pop\n      pop\n      jump\t// out\n        /* \"#utility.yul\":5620:5789   */\n    tag_80:\n        /* \"#utility.yul\":5704:5715   */\n      0x00\n        /* \"#utility.yul\":5738:5744   */\n      dup3\n        /* \"#utility.yul\":5733:5736   */\n      dup3\n        /* \"#utility.yul\":5726:5745   */\n      mstore\n        /* \"#utility.yul\":5778:5782   */\n      0x20\n        /* \"#utility.yul\":5773:5776   */\n      dup3\n        /* \"#utility.yul\":5769:5783   */\n      add\n        /* \"#utility.yul\":5754:5783   */\n      swap1\n      pop\n        /* \"#utility.yul\":5620:5789   */\n      swap3\n      swap2\n      pop\n      pop\n      jump\t// out\n        /* \"#utility.yul\":5795:5960   */\n    tag_81:\n        /* \"#utility.yul\":5935:5952   */\n      0x416c7265616479206d696e746564210000000000000000000000000000000000\n        /* \"#utility.yul\":5931:5932   */\n      0x00\n        /* \"#utility.yul\":5923:5929   */\n      dup3\n        /* \"#utility.yul\":5919:5933   */\n      add\n        /* \"#utility.yul\":5912:5953   */\n      mstore\n        /* \"#utility.yul\":5795:5960   */\n      pop\n      jump\t// out\n        /* \"#utility.yul\":5966:6332   */\n    tag_82:\n        /* \"#utility.yul\":6108:6111   */\n      0x00\n        /* \"#utility.yul\":6129:6196   */\n      tag_163\n        /* \"#utility.yul\":6193:6195   */\n      0x0f\n        /* \"#utility.yul\":6188:6191   */\n      dup4\n        /* \"#utility.yul\":6129:6196   */\n      tag_80\n      jump\t// in\n    tag_163:\n        /* \"#utility.yul\":6122:6196   */\n      swap2\n      pop\n        /* \"#utility.yul\":6205:6298   */\n      tag_164\n        /* \"#utility.yul\":6294:6297   */\n      dup3\n        /* \"#utility.yul\":6205:6298   */\n      tag_81\n      jump\t// in\n    tag_164:\n        /* \"#utility.yul\":6323:6325   */\n      0x20\n        /* \"#utility.yul\":6318:6321   */\n      dup3\n        /* \"#utility.yul\":6314:6326   */\n      add\n        /* \"#utility.yul\":6307:6326   */\n      swap1\n      pop\n        /* \"#utility.yul\":5966:6332   */\n      swap2\n      swap1\n      pop\n      jump\t// out\n        /* \"#utility.yul\":6338:6757   */\n    tag_44:\n        /* \"#utility.yul\":6504:6508   */\n      0x00\n        /* \"#utility.yul\":6542:6544   */\n      0x20\n        /* \"#utility.yul\":6531:6540   */\n      dup3\n        /* \"#utility.yul\":6527:6545   */\n      add\n        /* \"#utility.yul\":6519:6545   */\n      swap1\n      pop\n        /* \"#utility.yul\":6591:6600   */\n      dup2\n        /* \"#utility.yul\":6585:6589   */\n      dup2\n        /* \"#utility.yul\":6581:6601   */\n      sub\n        /* \"#utility.yul\":6577:6578   */\n      0x00\n        /* \"#utility.yul\":6566:6575   */\n      dup4\n        /* \"#utility.yul\":6562:6579   */\n      add\n        /* \"#utility.yul\":6555:6602   */\n      mstore\n        /* \"#utility.yul\":6619:6750   */\n      tag_166\n        /* \"#utility.yul\":6745:6749   */\n      dup2\n        /* \"#utility.yul\":6619:6750   */\n      tag_82\n      jump\t// in\n    tag_166:\n        /* \"#utility.yul\":6611:6750   */\n      swap1\n      pop\n        /* \"#utility.yul\":6338:6757   */\n      swap2\n      swap1\n      pop\n      jump\t// out\n        /* \"#utility.yul\":6763:6931   */\n    tag_83:\n        /* \"#utility.yul\":6903:6923   */\n      0x496e76616c6964207369676e6174757265210000000000000000000000000000\n        /* \"#utility.yul\":6899:6900   */\n      0x00\n        /* \"#utility.yul\":6891:6897   */\n      dup3\n        /* \"#utility.yul\":6887:6901   */\n      add\n        /* \"#utility.yul\":6880:6924   */\n      mstore\n        /* \"#utility.yul\":6763:6931   */\n      pop\n      jump\t// out\n        /* \"#utility.yul\":6937:7303   */\n    tag_84:\n        /* \"#utility.yul\":7079:7082   */\n      0x00\n        /* \"#utility.yul\":7100:7167   */\n      tag_169\n        /* \"#utility.yul\":7164:7166   */\n      0x12\n        /* \"#utility.yul\":7159:7162   */\n      dup4\n        /* \"#utility.yul\":7100:7167   */\n      tag_80\n      jump\t// in\n    tag_169:\n        /* \"#utility.yul\":7093:7167   */\n      swap2\n      pop\n        /* \"#utility.yul\":7176:7269   */\n      tag_170\n        /* \"#utility.yul\":7265:7268   */\n      dup3\n        /* \"#utility.yul\":7176:7269   */\n      tag_83\n      jump\t// in\n    tag_170:\n        /* \"#utility.yul\":7294:7296   */\n      0x20\n        /* \"#utility.yul\":7289:7292   */\n      dup3\n        /* \"#utility.yul\":7285:7297   */\n      add\n        /* \"#utility.yul\":7278:7297   */\n      swap1\n      pop\n        /* \"#utility.yul\":6937:7303   */\n      swap2\n      swap1\n      pop\n      jump\t// out\n        /* \"#utility.yul\":7309:7728   */\n    tag_48:\n        /* \"#utility.yul\":7475:7479   */\n      0x00\n        /* \"#utility.yul\":7513:7515   */\n      0x20\n        /* \"#utility.yul\":7502:7511   */\n      dup3\n        /* \"#utility.yul\":7498:7516   */\n      add\n        /* \"#utility.yul\":7490:7516   */\n      swap1\n      pop\n        /* \"#utility.yul\":7562:7571   */\n      dup2\n        /* \"#utility.yul\":7556:7560   */\n      dup2\n        /* \"#utility.yul\":7552:7572   */\n      sub\n        /* \"#utility.yul\":7548:7549   */\n      0x00\n        /* \"#utility.yul\":7537:7546   */\n      dup4\n        /* \"#utility.yul\":7533:7550   */\n      add\n        /* \"#utility.yul\":7526:7573   */\n      mstore\n        /* \"#utility.yul\":7590:7721   */\n      tag_172\n        /* \"#utility.yul\":7716:7720   */\n      dup2\n        /* \"#utility.yul\":7590:7721   */\n      tag_84\n      jump\t// in\n    tag_172:\n        /* \"#utility.yul\":7582:7721   */\n      swap1\n      pop\n        /* \"#utility.yul\":7309:7728   */\n      swap2\n      swap1\n      pop\n      jump\t// out\n        /* \"#utility.yul\":7734:7846   */\n    tag_85:\n        /* \"#utility.yul\":7817:7839   */\n      tag_174\n        /* \"#utility.yul\":7833:7838   */\n      dup2\n        /* \"#utility.yul\":7817:7839   */\n      tag_71\n      jump\t// in\n    tag_174:\n        /* \"#utility.yul\":7812:7815   */\n      dup3\n        /* \"#utility.yul\":7805:7840   */\n      mstore\n        /* \"#utility.yul\":7734:7846   */\n      pop\n      pop\n      jump\t// out\n        /* \"#utility.yul\":7852:8397   */\n    tag_53:\n        /* \"#utility.yul\":8025:8029   */\n      0x00\n        /* \"#utility.yul\":8063:8066   */\n      0x80\n        /* \"#utility.yul\":8052:8061   */\n      dup3\n        /* \"#utility.yul\":8048:8067   */\n      add\n        /* \"#utility.yul\":8040:8067   */\n      swap1\n      pop\n        /* \"#utility.yul\":8077:8148   */\n      tag_176\n        /* \"#utility.yul\":8145:8146   */\n      0x00\n        /* \"#utility.yul\":8134:8143   */\n      dup4\n        /* \"#utility.yul\":8130:8147   */\n      add\n        /* \"#utility.yul\":8121:8127   */\n      dup8\n        /* \"#utility.yul\":8077:8148   */\n      tag_67\n      jump\t// in\n    tag_176:\n        /* \"#utility.yul\":8158:8226   */\n      tag_177\n        /* \"#utility.yul\":8222:8224   */\n      0x20\n        /* \"#utility.yul\":8211:8220   */\n      dup4\n        /* \"#utility.yul\":8207:8225   */\n      add\n        /* \"#utility.yul\":8198:8204   */\n      dup7\n        /* \"#utility.yul\":8158:8226   */\n      tag_85\n      jump\t// in\n    tag_177:\n        /* \"#utility.yul\":8236:8308   */\n      tag_178\n        /* \"#utility.yul\":8304:8306   */\n      0x40\n        /* \"#utility.yul\":8293:8302   */\n      dup4\n        /* \"#utility.yul\":8289:8307   */\n      add\n        /* \"#utility.yul\":8280:8286   */\n      dup6\n        /* \"#utility.yul\":8236:8308   */\n      tag_67\n      jump\t// in\n    tag_178:\n        /* \"#utility.yul\":8318:8390   */\n      tag_179\n        /* \"#utility.yul\":8386:8388   */\n      0x60\n        /* \"#utility.yul\":8375:8384   */\n      dup4\n        /* \"#utility.yul\":8371:8389   */\n      add\n        /* \"#utility.yul\":8362:8368   */\n      dup5\n        /* \"#utility.yul\":8318:8390   */\n      tag_67\n      jump\t// in\n    tag_179:\n        /* \"#utility.yul\":7852:8397   */\n      swap6\n      swap5\n      pop\n      pop\n      pop\n      pop\n      pop\n      jump\t// out\n        /* \"#utility.yul\":8403:8551   */\n    tag_86:\n        /* \"#utility.yul\":8505:8516   */\n      0x00\n        /* \"#utility.yul\":8542:8545   */\n      dup2\n        /* \"#utility.yul\":8527:8545   */\n      swap1\n      pop\n        /* \"#utility.yul\":8403:8551   */\n      swap3\n      swap2\n      pop\n      pop\n      jump\t// out\n        /* \"#utility.yul\":8557:8771   */\n    tag_87:\n        /* \"#utility.yul\":8697:8763   */\n      0x19457468657265756d205369676e6564204d6573736167653a0a333200000000\n        /* \"#utility.yul\":8693:8694   */\n      0x00\n        /* \"#utility.yul\":8685:8691   */\n      dup3\n        /* \"#utility.yul\":8681:8695   */\n      add\n        /* \"#utility.yul\":8674:8764   */\n      mstore\n        /* \"#utility.yul\":8557:8771   */\n      pop\n      jump\t// out\n        /* \"#utility.yul\":8777:9179   */\n    tag_88:\n        /* \"#utility.yul\":8937:8940   */\n      0x00\n        /* \"#utility.yul\":8958:9043   */\n      tag_183\n        /* \"#utility.yul\":9040:9042   */\n      0x1c\n        /* \"#utility.yul\":9035:9038   */\n      dup4\n        /* \"#utility.yul\":8958:9043   */\n      tag_86\n      jump\t// in\n    tag_183:\n        /* \"#utility.yul\":8951:9043   */\n      swap2\n      pop\n        /* \"#utility.yul\":9052:9145   */\n      tag_184\n        /* \"#utility.yul\":9141:9144   */\n      dup3\n        /* \"#utility.yul\":9052:9145   */\n      tag_87\n      jump\t// in\n    tag_184:\n        /* \"#utility.yul\":9170:9172   */\n      0x1c\n        /* \"#utility.yul\":9165:9168   */\n      dup3\n        /* \"#utility.yul\":9161:9173   */\n      add\n        /* \"#utility.yul\":9154:9173   */\n      swap1\n      pop\n        /* \"#utility.yul\":8777:9179   */\n      swap2\n      swap1\n      pop\n      jump\t// out\n        /* \"#utility.yul\":9185:9264   */\n    tag_89:\n        /* \"#utility.yul\":9224:9231   */\n      0x00\n        /* \"#utility.yul\":9253:9258   */\n      dup2\n        /* \"#utility.yul\":9242:9258   */\n      swap1\n      pop\n        /* \"#utility.yul\":9185:9264   */\n      swap2\n      swap1\n      pop\n      jump\t// out\n        /* \"#utility.yul\":9270:9427   */\n    tag_90:\n        /* \"#utility.yul\":9375:9420   */\n      tag_187\n        /* \"#utility.yul\":9395:9419   */\n      tag_188\n        /* \"#utility.yul\":9413:9418   */\n      dup3\n        /* \"#utility.yul\":9395:9419   */\n      tag_66\n      jump\t// in\n    tag_188:\n        /* \"#utility.yul\":9375:9420   */\n      tag_89\n      jump\t// in\n    tag_187:\n        /* \"#utility.yul\":9370:9373   */\n      dup3\n        /* \"#utility.yul\":9363:9421   */\n      mstore\n        /* \"#utility.yul\":9270:9427   */\n      pop\n      pop\n      jump\t// out\n        /* \"#utility.yul\":9433:9955   */\n    tag_58:\n        /* \"#utility.yul\":9646:9649   */\n      0x00\n        /* \"#utility.yul\":9668:9816   */\n      tag_190\n        /* \"#utility.yul\":9812:9815   */\n      dup3\n        /* \"#utility.yul\":9668:9816   */\n      tag_88\n      jump\t// in\n    tag_190:\n        /* \"#utility.yul\":9661:9816   */\n      swap2\n      pop\n        /* \"#utility.yul\":9826:9901   */\n      tag_191\n        /* \"#utility.yul\":9897:9900   */\n      dup3\n        /* \"#utility.yul\":9888:9894   */\n      dup5\n        /* \"#utility.yul\":9826:9901   */\n      tag_90\n      jump\t// in\n    tag_191:\n        /* \"#utility.yul\":9926:9928   */\n      0x20\n        /* \"#utility.yul\":9921:9924   */\n      dup3\n        /* \"#utility.yul\":9917:9929   */\n      add\n        /* \"#utility.yul\":9910:9929   */\n      swap2\n      pop\n        /* \"#utility.yul\":9946:9949   */\n      dup2\n        /* \"#utility.yul\":9939:9949   */\n      swap1\n      pop\n        /* \"#utility.yul\":9433:9955   */\n      swap3\n      swap2\n      pop\n      pop\n      jump\t// out\n\n    auxdata: 0xa2646970667358221220fe0964c7c6b0c8ada64b138c2197ffd38d44fdbd591631f6fe545cc06732256e64736f6c634300081a0033\n}\n",
				"bytecode": {
					"linkReferences": {},
					"object": "6080604052348015600e575f80fd5b50335f806101000a81548173ffffffffffffffffffffffffffffffffffffffff021916908373ffffffffffffffffffffffffffffffffffffffff1602179055506108f48061005b5f395ff3fe608060405234801561000f575f80fd5b5060043610610060575f3560e01c80631f5ac1b21461006457806338e21cce146100945780638da5cb5b146100c457806399dfdb3e146100e25780639c89b89f146100fe578063fa5408011461012e575b5f80fd5b61007e6004803603810190610079919061048b565b61015e565b60405161008b91906104ce565b60405180910390f35b6100ae60048036038101906100a9919061048b565b61018d565b6040516100bb9190610501565b60405180910390f35b6100cc6101aa565b6040516100d99190610529565b60405180910390f35b6100fc60048036038101906100f791906105a2565b6101cd565b005b610118600480360381019061011391906105f2565b61035e565b6040516101259190610501565b60405180910390f35b61014860048036038101906101439190610669565b6103fe565b60405161015591906104ce565b60405180910390f35b5f8160405160200161017091906106d9565b604051602081830303815290604052805190602001209050919050565b6001602052805f5260405f205f915054906101000a900460ff1681565b5f8054906101000a900473ffffffffffffffffffffffffffffffffffffffff1681565b60015f3373ffffffffffffffffffffffffffffffffffffffff1673ffffffffffffffffffffffffffffffffffffffff1681526020019081526020015f205f9054906101000a900460ff1615610257576040517f08c379a000000000000000000000000000000000000000000000000000000000815260040161024e9061074d565b60405180910390fd5b6102835f8054906101000a900473ffffffffffffffffffffffffffffffffffffffff163385858561035e565b6102c2576040517f08c379a00000000000000000000000000000000000000000000000000000000081526004016102b9906107b5565b60405180910390fd5b6001805f3373ffffffffffffffffffffffffffffffffffffffff1673ffffffffffffffffffffffffffffffffffffffff1681526020019081526020015f205f6101000a81548160ff0219169083151502179055503373ffffffffffffffffffffffffffffffffffffffff167f90ddedd5a25821bba11fbb98de02ec1f75c1be90ae147d6450ce873e7b78b5d860405160405180910390a2505050565b5f806103698661015e565b90505f610375826103fe565b90508773ffffffffffffffffffffffffffffffffffffffff166001828888886040515f81526020016040526040516103b094939291906107e2565b6020604051602081039080840390855afa1580156103d0573d5f803e3d5ffd5b5050506020604051035173ffffffffffffffffffffffffffffffffffffffff16149250505095945050505050565b5f816040516020016104109190610899565b604051602081830303815290604052805190602001209050919050565b5f80fd5b5f73ffffffffffffffffffffffffffffffffffffffff82169050919050565b5f61045a82610431565b9050919050565b61046a81610450565b8114610474575f80fd5b50565b5f8135905061048581610461565b92915050565b5f602082840312156104a05761049f61042d565b5b5f6104ad84828501610477565b91505092915050565b5f819050919050565b6104c8816104b6565b82525050565b5f6020820190506104e15f8301846104bf565b92915050565b5f8115159050919050565b6104fb816104e7565b82525050565b5f6020820190506105145f8301846104f2565b92915050565b61052381610450565b82525050565b5f60208201905061053c5f83018461051a565b92915050565b5f60ff82169050919050565b61055781610542565b8114610561575f80fd5b50565b5f813590506105728161054e565b92915050565b610581816104b6565b811461058b575f80fd5b50565b5f8135905061059c81610578565b92915050565b5f805f606084860312156105b9576105b861042d565b5b5f6105c686828701610564565b93505060206105d78682870161058e565b92505060406105e88682870161058e565b9150509250925092565b5f805f805f60a0868803121561060b5761060a61042d565b5b5f61061888828901610477565b955050602061062988828901610477565b945050604061063a88828901610564565b935050606061064b8882890161058e565b925050608061065c8882890161058e565b9150509295509295909350565b5f6020828403121561067e5761067d61042d565b5b5f61068b8482850161058e565b91505092915050565b5f8160601b9050919050565b5f6106aa82610694565b9050919050565b5f6106bb826106a0565b9050919050565b6106d36106ce82610450565b6106b1565b82525050565b5f6106e482846106c2565b60148201915081905092915050565b5f82825260208201905092915050565b7f416c7265616479206d696e7465642100000000000000000000000000000000005f82015250565b5f610737600f836106f3565b915061074282610703565b602082019050919050565b5f6020820190508181035f8301526107648161072b565b9050919050565b7f496e76616c6964207369676e61747572652100000000000000000000000000005f82015250565b5f61079f6012836106f3565b91506107aa8261076b565b602082019050919050565b5f6020820190508181035f8301526107cc81610793565b9050919050565b6107dc81610542565b82525050565b5f6080820190506107f55f8301876104bf565b61080260208301866107d3565b61080f60408301856104bf565b61081c60608301846104bf565b95945050505050565b5f81905092915050565b7f19457468657265756d205369676e6564204d6573736167653a0a3332000000005f82015250565b5f610863601c83610825565b915061086e8261082f565b601c82019050919050565b5f819050919050565b61089361088e826104b6565b610879565b82525050565b5f6108a382610857565b91506108af8284610882565b6020820191508190509291505056fea2646970667358221220fe0964c7c6b0c8ada64b138c2197ffd38d44fdbd591631f6fe545cc06732256e64736f6c634300081a0033",
					"opcodes": "PUSH1 0x80 PUSH1 0x40 MSTORE CALLVALUE DUP1 ISZERO PUSH1 0xE JUMPI PUSH0 DUP1 REVERT JUMPDEST POP CALLER PUSH0 DUP1 PUSH2 0x100 EXP DUP2 SLOAD DUP2 PUSH20 0xFFFFFFFFFFFFFFFFFFFFFFFFFFFFFFFFFFFFFFFF MUL NOT AND SWAP1 DUP4 PUSH20 0xFFFFFFFFFFFFFFFFFFFFFFFFFFFFFFFFFFFFFFFF AND MUL OR SWAP1 SSTORE POP PUSH2 0x8F4 DUP1 PUSH2 0x5B PUSH0 CODECOPY PUSH0 RETURN INVALID PUSH1 0x80 PUSH1 0x40 MSTORE CALLVALUE DUP1 ISZERO PUSH2 0xF JUMPI PUSH0 DUP1 REVERT JUMPDEST POP PUSH1 0x4 CALLDATASIZE LT PUSH2 0x60 JUMPI PUSH0 CALLDATALOAD PUSH1 0xE0 SHR DUP1 PUSH4 0x1F5AC1B2 EQ PUSH2 0x64 JUMPI DUP1 PUSH4 0x38E21CCE EQ PUSH2 0x94 JUMPI DUP1 PUSH4 0x8DA5CB5B EQ PUSH2 0xC4 JUMPI DUP1 PUSH4 0x99DFDB3E EQ PUSH2 0xE2 JUMPI DUP1 PUSH4 0x9C89B89F EQ PUSH2 0xFE JUMPI DUP1 PUSH4 0xFA540801 EQ PUSH2 0x12E JUMPI JUMPDEST PUSH0 DUP1 REVERT JUMPDEST PUSH2 0x7E PUSH1 0x4 DUP1 CALLDATASIZE SUB DUP2 ADD SWAP1 PUSH2 0x79 SWAP2 SWAP1 PUSH2 0x48B JUMP JUMPDEST PUSH2 0x15E JUMP JUMPDEST PUSH1 0x40 MLOAD PUSH2 0x8B SWAP2 SWAP1 PUSH2 0x4CE JUMP JUMPDEST PUSH1 0x40 MLOAD DUP1 SWAP2 SUB SWAP1 RETURN JUMPDEST PUSH2 0xAE PUSH1 0x4 DUP1 CALLDATASIZE SUB DUP2 ADD SWAP1 PUSH2 0xA9 SWAP2 SWAP1 PUSH2 0x48B JUMP JUMPDEST PUSH2 0x18D JUMP JUMPDEST PUSH1 0x40 MLOAD PUSH2 0xBB SWAP2 SWAP1 PUSH2 0x501 JUMP JUMPDEST PUSH1 0x40 MLOAD DUP1 SWAP2 SUB SWAP1 RETURN JUMPDEST PUSH2 0xCC PUSH2 0x1AA JUMP JUMPDEST PUSH1 0x40 MLOAD PUSH2 0xD9 SWAP2 SWAP1 PUSH2 0x529 JUMP JUMPDEST PUSH1 0x40 MLOAD DUP1 SWAP2 SUB SWAP1 RETURN JUMPDEST PUSH2 0xFC PUSH1 0x4 DUP1 CALLDATASIZE SUB DUP2 ADD SWAP1 PUSH2 0xF7 SWAP2 SWAP1 PUSH2 0x5A2 JUMP JUMPDEST PUSH2 0x1CD JUMP JUMPDEST STOP JUMPDEST PUSH2 0x118 PUSH1 0x4 DUP1 CALLDATASIZE SUB DUP2 ADD SWAP1 PUSH2 0x113 SWAP2 SWAP1 PUSH2 0x5F2 JUMP JUMPDEST PUSH2 0x35E JUMP JUMPDEST PUSH1 0x40 MLOAD PUSH2 0x125 SWAP2 SWAP1 PUSH2 0x501 JUMP JUMPDEST PUSH1 0x40 MLOAD DUP1 SWAP2 SUB SWAP1 RETURN JUMPDEST PUSH2 0x148 PUSH1 0x4 DUP1 CALLDATASIZE SUB DUP2 ADD SWAP1 PUSH2 0x143 SWAP2 SWAP1 PUSH2 0x669 JUMP JUMPDEST PUSH2 0x3FE JUMP JUMPDEST PUSH1 0x40 MLOAD PUSH2 0x155 SWAP2 SWAP1 PUSH2 0x4CE JUMP JUMPDEST PUSH1 0x40 MLOAD DUP1 SWAP2 SUB SWAP1 RETURN JUMPDEST PUSH0 DUP2 PUSH1 0x40 MLOAD PUSH1 0x20 ADD PUSH2 0x170 SWAP2 SWAP1 PUSH2 0x6D9 JUMP JUMPDEST PUSH1 0x40 MLOAD PUSH1 0x20 DUP2 DUP4 SUB SUB DUP2 MSTORE SWAP1 PUSH1 0x40 MSTORE DUP1 MLOAD SWAP1 PUSH1 0x20 ADD KECCAK256 SWAP1 POP SWAP2 SWAP1 POP JUMP JUMPDEST PUSH1 0x1 PUSH1 0x20 MSTORE DUP1 PUSH0 MSTORE PUSH1 0x40 PUSH0 KECCAK256 PUSH0 SWAP2 POP SLOAD SWAP1 PUSH2 0x100 EXP SWAP1 DIV PUSH1 0xFF AND DUP2 JUMP JUMPDEST PUSH0 DUP1 SLOAD SWAP1 PUSH2 0x100 EXP SWAP1 DIV PUSH20 0xFFFFFFFFFFFFFFFFFFFFFFFFFFFFFFFFFFFFFFFF AND DUP2 JUMP JUMPDEST PUSH1 0x1 PUSH0 CALLER PUSH20 0xFFFFFFFFFFFFFFFFFFFFFFFFFFFFFFFFFFFFFFFF AND PUSH20 0xFFFFFFFFFFFFFFFFFFFFFFFFFFFFFFFFFFFFFFFF AND DUP2 MSTORE PUSH1 0x20 ADD SWAP1 DUP2 MSTORE PUSH1 0x20 ADD PUSH0 KECCAK256 PUSH0 SWAP1 SLOAD SWAP1 PUSH2 0x100 EXP SWAP1 DIV PUSH1 0xFF AND ISZERO PUSH2 0x257 JUMPI PUSH1 0x40 MLOAD PUSH32 0x8C379A000000000000000000000000000000000000000000000000000000000 DUP2 MSTORE PUSH1 0x4 ADD PUSH2 0x24E SWAP1 PUSH2 0x74D JUMP JUMPDEST PUSH1 0x40 MLOAD DUP1 SWAP2 SUB SWAP1 REVERT JUMPDEST PUSH2 0x283 PUSH0 DUP1 SLOAD SWAP1 PUSH2 0x100 EXP SWAP1 DIV PUSH20 0xFFFFFFFFFFFFFFFFFFFFFFFFFFFFFFFFFFFFFFFF AND CALLER DUP6 DUP6 DUP6 PUSH2 0x35E JUMP JUMPDEST PUSH2 0x2C2 JUMPI PUSH1 0x40 MLOAD PUSH32 0x8C379A000000000000000000000000000000000000000000000000000000000 DUP2 MSTORE PUSH1 0x4 ADD PUSH2 0x2B9 SWAP1 PUSH2 0x7B5 JUMP JUMPDEST PUSH1 0x40 MLOAD DUP1 SWAP2 SUB SWAP1 REVERT JUMPDEST PUSH1 0x1 DUP1 PUSH0 CALLER PUSH20 0xFFFFFFFFFFFFFFFFFFFFFFFFFFFFFFFFFFFFFFFF AND PUSH20 0xFFFFFFFFFFFFFFFFFFFFFFFFFFFFFFFFFFFFFFFF AND DUP2 MSTORE PUSH1 0x20 ADD SWAP1 DUP2 MSTORE PUSH1 0x20 ADD PUSH0 KECCAK256 PUSH0 PUSH2 0x100 EXP DUP2 SLOAD DUP2 PUSH1 0xFF MUL NOT AND SWAP1 DUP4 ISZERO ISZERO MUL OR SWAP1 SSTORE POP CALLER PUSH20 0xFFFFFFFFFFFFFFFFFFFFFFFFFFFFFFFFFFFFFFFF AND PUSH32 0x90DDEDD5A25821BBA11FBB98DE02EC1F75C1BE90AE147D6450CE873E7B78B5D8 PUSH1 0x40 MLOAD PUSH1 0x40 MLOAD DUP1 SWAP2 SUB SWAP1 LOG2 POP POP POP JUMP JUMPDEST PUSH0 DUP1 PUSH2 0x369 DUP7 PUSH2 0x15E JUMP JUMPDEST SWAP1 POP PUSH0 PUSH2 0x375 DUP3 PUSH2 0x3FE JUMP JUMPDEST SWAP1 POP DUP8 PUSH20 0xFFFFFFFFFFFFFFFFFFFFFFFFFFFFFFFFFFFFFFFF AND PUSH1 0x1 DUP3 DUP9 DUP9 DUP9 PUSH1 0x40 MLOAD PUSH0 DUP2 MSTORE PUSH1 0x20 ADD PUSH1 0x40 MSTORE PUSH1 0x40 MLOAD PUSH2 0x3B0 SWAP5 SWAP4 SWAP3 SWAP2 SWAP1 PUSH2 0x7E2 JUMP JUMPDEST PUSH1 0x20 PUSH1 0x40 MLOAD PUSH1 0x20 DUP2 SUB SWAP1 DUP1 DUP5 SUB SWAP1 DUP6 GAS STATICCALL ISZERO DUP1 ISZERO PUSH2 0x3D0 JUMPI RETURNDATASIZE PUSH0 DUP1 RETURNDATACOPY RETURNDATASIZE PUSH0 REVERT JUMPDEST POP POP POP PUSH1 0x20 PUSH1 0x40 MLOAD SUB MLOAD PUSH20 0xFFFFFFFFFFFFFFFFFFFFFFFFFFFFFFFFFFFFFFFF AND EQ SWAP3 POP POP POP SWAP6 SWAP5 POP POP POP POP POP JUMP JUMPDEST PUSH0 DUP2 PUSH1 0x40 MLOAD PUSH1 0x20 ADD PUSH2 0x410 SWAP2 SWAP1 PUSH2 0x899 JUMP JUMPDEST PUSH1 0x40 MLOAD PUSH1 0x20 DUP2 DUP4 SUB SUB DUP2 MSTORE SWAP1 PUSH1 0x40 MSTORE DUP1 MLOAD SWAP1 PUSH1 0x20 ADD KECCAK256 SWAP1 POP SWAP2 SWAP1 POP JUMP JUMPDEST PUSH0 DUP1 REVERT JUMPDEST PUSH0 PUSH20 0xFFFFFFFFFFFFFFFFFFFFFFFFFFFFFFFFFFFFFFFF DUP3 AND SWAP1 POP SWAP2 SWAP1 POP JUMP JUMPDEST PUSH0 PUSH2 0x45A DUP3 PUSH2 0x431 JUMP JUMPDEST SWAP1 POP SWAP2 SWAP1 POP JUMP JUMPDEST PUSH2 0x46A DUP2 PUSH2 0x450 JUMP JUMPDEST DUP2 EQ PUSH2 0x474 JUMPI PUSH0 DUP1 REVERT JUMPDEST POP JUMP JUMPDEST PUSH0 DUP2 CALLDATALOAD SWAP1 POP PUSH2 0x485 DUP2 PUSH2 0x461 JUMP JUMPDEST SWAP3 SWAP2 POP POP JUMP JUMPDEST PUSH0 PUSH1 0x20 DUP3 DUP5 SUB SLT ISZERO PUSH2 0x4A0 JUMPI PUSH2 0x49F PUSH2 0x42D JUMP JUMPDEST JUMPDEST PUSH0 PUSH2 0x4AD DUP5 DUP3 DUP6 ADD PUSH2 0x477 JUMP JUMPDEST SWAP2 POP POP SWAP3 SWAP2 POP POP JUMP JUMPDEST PUSH0 DUP2 SWAP1 POP SWAP2 SWAP1 POP JUMP JUMPDEST PUSH2 0x4C8 DUP2 PUSH2 0x4B6 JUMP JUMPDEST DUP3 MSTORE POP POP JUMP JUMPDEST PUSH0 PUSH1 0x20 DUP3 ADD SWAP1 POP PUSH2 0x4E1 PUSH0 DUP4 ADD DUP5 PUSH2 0x4BF JUMP JUMPDEST SWAP3 SWAP2 POP POP JUMP JUMPDEST PUSH0 DUP2 ISZERO ISZERO SWAP1 POP SWAP2 SWAP1 POP JUMP JUMPDEST PUSH2 0x4FB DUP2 PUSH2 0x4E7 JUMP JUMPDEST DUP3 MSTORE POP POP JUMP JUMPDEST PUSH0 PUSH1 0x20 DUP3 ADD SWAP1 POP PUSH2 0x514 PUSH0 DUP4 ADD DUP5 PUSH2 0x4F2 JUMP JUMPDEST SWAP3 SWAP2 POP POP JUMP JUMPDEST PUSH2 0x523 DUP2 PUSH2 0x450 JUMP JUMPDEST DUP3 MSTORE POP POP JUMP JUMPDEST PUSH0 PUSH1 0x20 DUP3 ADD SWAP1 POP PUSH2 0x53C PUSH0 DUP4 ADD DUP5 PUSH2 0x51A JUMP JUMPDEST SWAP3 SWAP2 POP POP JUMP JUMPDEST PUSH0 PUSH1 0xFF DUP3 AND SWAP1 POP SWAP2 SWAP1 POP JUMP JUMPDEST PUSH2 0x557 DUP2 PUSH2 0x542 JUMP JUMPDEST DUP2 EQ PUSH2 0x561 JUMPI PUSH0 DUP1 REVERT JUMPDEST POP JUMP JUMPDEST PUSH0 DUP2 CALLDATALOAD SWAP1 POP PUSH2 0x572 DUP2 PUSH2 0x54E JUMP JUMPDEST SWAP3 SWAP2 POP POP JUMP JUMPDEST PUSH2 0x581 DUP2 PUSH2 0x4B6 JUMP JUMPDEST DUP2 EQ PUSH2 0x58B JUMPI PUSH0 DUP1 REVERT JUMPDEST POP JUMP JUMPDEST PUSH0 DUP2 CALLDATALOAD SWAP1 POP PUSH2 0x59C DUP2 PUSH2 0x578 JUMP JUMPDEST SWAP3 SWAP2 POP POP JUMP JUMPDEST PUSH0 DUP1 PUSH0 PUSH1 0x60 DUP5 DUP7 SUB SLT ISZERO PUSH2 0x5B9 JUMPI PUSH2 0x5B8 PUSH2 0x42D JUMP JUMPDEST JUMPDEST PUSH0 PUSH2 0x5C6 DUP7 DUP3 DUP8 ADD PUSH2 0x564 JUMP JUMPDEST SWAP4 POP POP PUSH1 0x20 PUSH2 0x5D7 DUP7 DUP3 DUP8 ADD PUSH2 0x58E JUMP JUMPDEST SWAP3 POP POP PUSH1 0x40 PUSH2 0x5E8 DUP7 DUP3 DUP8 ADD PUSH2 0x58E JUMP JUMPDEST SWAP2 POP POP SWAP3 POP SWAP3 POP SWAP3 JUMP JUMPDEST PUSH0 DUP1 PUSH0 DUP1 PUSH0 PUSH1 0xA0 DUP7 DUP9 SUB SLT ISZERO PUSH2 0x60B JUMPI PUSH2 0x60A PUSH2 0x42D JUMP JUMPDEST JUMPDEST PUSH0 PUSH2 0x618 DUP9 DUP3 DUP10 ADD PUSH2 0x477 JUMP JUMPDEST SWAP6 POP POP PUSH1 0x20 PUSH2 0x629 DUP9 DUP3 DUP10 ADD PUSH2 0x477 JUMP JUMPDEST SWAP5 POP POP PUSH1 0x40 PUSH2 0x63A DUP9 DUP3 DUP10 ADD PUSH2 0x564 JUMP JUMPDEST SWAP4 POP POP PUSH1 0x60 PUSH2 0x64B DUP9 DUP3 DUP10 ADD PUSH2 0x58E JUMP JUMPDEST SWAP3 POP POP PUSH1 0x80 PUSH2 0x65C DUP9 DUP3 DUP10 ADD PUSH2 0x58E JUMP JUMPDEST SWAP2 POP POP SWAP3 SWAP6 POP SWAP3 SWAP6 SWAP1 SWAP4 POP JUMP JUMPDEST PUSH0 PUSH1 0x20 DUP3 DUP5 SUB SLT ISZERO PUSH2 0x67E JUMPI PUSH2 0x67D PUSH2 0x42D JUMP JUMPDEST JUMPDEST PUSH0 PUSH2 0x68B DUP5 DUP3 DUP6 ADD PUSH2 0x58E JUMP JUMPDEST SWAP2 POP POP SWAP3 SWAP2 POP POP JUMP JUMPDEST PUSH0 DUP2 PUSH1 0x60 SHL SWAP1 POP SWAP2 SWAP1 POP JUMP JUMPDEST PUSH0 PUSH2 0x6AA DUP3 PUSH2 0x694 JUMP JUMPDEST SWAP1 POP SWAP2 SWAP1 POP JUMP JUMPDEST PUSH0 PUSH2 0x6BB DUP3 PUSH2 0x6A0 JUMP JUMPDEST SWAP1 POP SWAP2 SWAP1 POP JUMP JUMPDEST PUSH2 0x6D3 PUSH2 0x6CE DUP3 PUSH2 0x450 JUMP JUMPDEST PUSH2 0x6B1 JUMP JUMPDEST DUP3 MSTORE POP POP JUMP JUMPDEST PUSH0 PUSH2 0x6E4 DUP3 DUP5 PUSH2 0x6C2 JUMP JUMPDEST PUSH1 0x14 DUP3 ADD SWAP2 POP DUP2 SWAP1 POP SWAP3 SWAP2 POP POP JUMP JUMPDEST PUSH0 DUP3 DUP3 MSTORE PUSH1 0x20 DUP3 ADD SWAP1 POP SWAP3 SWAP2 POP POP JUMP JUMPDEST PUSH32 0x416C7265616479206D696E746564210000000000000000000000000000000000 PUSH0 DUP3 ADD MSTORE POP JUMP JUMPDEST PUSH0 PUSH2 0x737 PUSH1 0xF DUP4 PUSH2 0x6F3 JUMP JUMPDEST SWAP2 POP PUSH2 0x742 DUP3 PUSH2 0x703 JUMP JUMPDEST PUSH1 0x20 DUP3 ADD SWAP1 POP SWAP2 SWAP1 POP JUMP JUMPDEST PUSH0 PUSH1 0x20 DUP3 ADD SWAP1 POP DUP2 DUP2 SUB PUSH0 DUP4 ADD MSTORE PUSH2 0x764 DUP2 PUSH2 0x72B JUMP JUMPDEST SWAP1 POP SWAP2 SWAP1 POP JUMP JUMPDEST PUSH32 0x496E76616C6964207369676E6174757265210000000000000000000000000000 PUSH0 DUP3 ADD MSTORE POP JUMP JUMPDEST PUSH0 PUSH2 0x79F PUSH1 0x12 DUP4 PUSH2 0x6F3 JUMP JUMPDEST SWAP2 POP PUSH2 0x7AA DUP3 PUSH2 0x76B JUMP JUMPDEST PUSH1 0x20 DUP3 ADD SWAP1 POP SWAP2 SWAP1 POP JUMP JUMPDEST PUSH0 PUSH1 0x20 DUP3 ADD SWAP1 POP DUP2 DUP2 SUB PUSH0 DUP4 ADD MSTORE PUSH2 0x7CC DUP2 PUSH2 0x793 JUMP JUMPDEST SWAP1 POP SWAP2 SWAP1 POP JUMP JUMPDEST PUSH2 0x7DC DUP2 PUSH2 0x542 JUMP JUMPDEST DUP3 MSTORE POP POP JUMP JUMPDEST PUSH0 PUSH1 0x80 DUP3 ADD SWAP1 POP PUSH2 0x7F5 PUSH0 DUP4 ADD DUP8 PUSH2 0x4BF JUMP JUMPDEST PUSH2 0x802 PUSH1 0x20 DUP4 ADD DUP7 PUSH2 0x7D3 JUMP JUMPDEST PUSH2 0x80F PUSH1 0x40 DUP4 ADD DUP6 PUSH2 0x4BF JUMP JUMPDEST PUSH2 0x81C PUSH1 0x60 DUP4 ADD DUP5 PUSH2 0x4BF JUMP JUMPDEST SWAP6 SWAP5 POP POP POP POP POP JUMP JUMPDEST PUSH0 DUP2 SWAP1 POP SWAP3 SWAP2 POP POP JUMP JUMPDEST PUSH32 0x19457468657265756D205369676E6564204D6573736167653A0A333200000000 PUSH0 DUP3 ADD MSTORE POP JUMP JUMPDEST PUSH0 PUSH2 0x863 PUSH1 0x1C DUP4 PUSH2 0x825 JUMP JUMPDEST SWAP2 POP PUSH2 0x86E DUP3 PUSH2 0x82F JUMP JUMPDEST PUSH1 0x1C DUP3 ADD SWAP1 POP SWAP2 SWAP1 POP JUMP JUMPDEST PUSH0 DUP2 SWAP1 POP SWAP2 SWAP1 POP JUMP JUMPDEST PUSH2 0x893 PUSH2 0x88E DUP3 PUSH2 0x4B6 JUMP JUMPDEST PUSH2 0x879 JUMP JUMPDEST DUP3 MSTORE POP POP JUMP JUMPDEST PUSH0 PUSH2 0x8A3 DUP3 PUSH2 0x857 JUMP JUMPDEST SWAP2 POP PUSH2 0x8AF DUP3 DUP5 PUSH2 0x882 JUMP JUMPDEST PUSH1 0x20 DUP3 ADD SWAP2 POP DUP2 SWAP1 POP SWAP3 SWAP2 POP POP JUMP INVALID LOG2 PUSH5 0x6970667358 0x22 SLT KECCAK256 INVALID MULMOD PUSH5 0xC7C6B0C8AD 0xA6 0x4B SGT DUP13 0x21 SWAP8 SELFDESTRUCT 0xD3 DUP14 PREVRANDAO REVERT 0xBD MSIZE AND BALANCE 0xF6 INVALID SLOAD TLOAD 0xC0 PUSH8 0x32256E64736F6C63 NUMBER STOP ADDMOD BYTE STOP CALLER "
				},
				"gasEstimates": {
					"creation": {
						"codeDepositCost": "458400",
						"executionCost": "24756",
						"totalCost": "483156"
					},
					"external": {
						"getEthSignedMessageHash(bytes32)": "infinite",
						"getMessageHash(address)": "infinite",
						"hasMinted(address)": "2833",
						"mint(uint8,bytes32,bytes32)": "infinite",
						"owner()": "2527",
						"verify(address,address,uint8,bytes32,bytes32)": "infinite"
					}
				},
				"methodIdentifiers": {
					"getEthSignedMessageHash(bytes32)": "fa540801",
					"getMessageHash(address)": "1f5ac1b2",
					"hasMinted(address)": "38e21cce",
					"mint(uint8,bytes32,bytes32)": "99dfdb3e",
					"owner()": "8da5cb5b",
					"verify(address,address,uint8,bytes32,bytes32)": "9c89b89f"
				}
			},
			"storageLayout": {
				"storage": [
					{
						"astId": 3,
						"contract": "contracts/DigitalSignatures.sol:WhitelistMint",
						"label": "owner",
						"offset": 0,
						"slot": "0",
						"type": "t_address"
					},
					{
						"astId": 7,
						"contract": "contracts/DigitalSignatures.sol:WhitelistMint",
						"label": "hasMinted",
						"offset": 0,
						"slot": "1",
						"type": "t_mapping(t_address,t_bool)"
					}
				],
				"types": {
					"t_address": {
						"encoding": "inplace",
						"label": "address",
						"numberOfBytes": "20"
					},
					"t_bool": {
						"encoding": "inplace",
						"label": "bool",
						"numberOfBytes": "1"
					},
					"t_mapping(t_address,t_bool)": {
						"encoding": "mapping",
						"key": "t_address",
						"label": "mapping(address => bool)",
						"numberOfBytes": "32",
						"value": "t_bool"
					}
				}
			},
			"userdoc": {
				"kind": "user",
				"methods": {},
				"version": 1
			}
		}
	}
}