{
	"contracts/control.sol": {
		"FunctionControlDemo": {
			"abi": [
				{
					"inputs": [
						{
							"internalType": "uint256",
							"name": "start",
							"type": "uint256"
						}
					],
					"name": "countDown",
					"outputs": [
						{
							"internalType": "uint256",
							"name": "",
							"type": "uint256"
						}
					],
					"stateMutability": "pure",
					"type": "function"
				},
				{
					"inputs": [
						{
							"internalType": "uint256[]",
							"name": "numbers",
							"type": "uint256[]"
						}
					],
					"name": "findFirstEven",
					"outputs": [
						{
							"internalType": "uint256",
							"name": "",
							"type": "uint256"
						}
					],
					"stateMutability": "pure",
					"type": "function"
				},
				{
					"inputs": [
						{
							"internalType": "uint256",
							"name": "number",
							"type": "uint256"
						}
					],
					"name": "isEven",
					"outputs": [
						{
							"internalType": "string",
							"name": "",
							"type": "string"
						}
					],
					"stateMutability": "pure",
					"type": "function"
				},
				{
					"inputs": [
						{
							"internalType": "uint256",
							"name": "n",
							"type": "uint256"
						}
					],
					"name": "storeSum",
					"outputs": [],
					"stateMutability": "nonpayable",
					"type": "function"
				},
				{
					"inputs": [],
					"name": "storedResult",
					"outputs": [
						{
							"internalType": "uint256",
							"name": "",
							"type": "uint256"
						}
					],
					"stateMutability": "view",
					"type": "function"
				},
				{
					"inputs": [
						{
							"internalType": "uint256[]",
							"name": "numbers",
							"type": "uint256[]"
						}
					],
					"name": "sumNonZero",
					"outputs": [
						{
							"internalType": "uint256",
							"name": "",
							"type": "uint256"
						}
					],
					"stateMutability": "pure",
					"type": "function"
				},
				{
					"inputs": [
						{
							"internalType": "uint256",
							"name": "n",
							"type": "uint256"
						}
					],
					"name": "sumUpTo",
					"outputs": [
						{
							"internalType": "uint256",
							"name": "",
							"type": "uint256"
						}
					],
					"stateMutability": "pure",
					"type": "function"
				}
			],
			"devdoc": {
				"kind": "dev",
				"methods": {},
				"version": 1
			},
			"evm": {
				"assembly": "    /* \"contracts/control.sol\":247:2157  contract FunctionControlDemo {... */\n  mstore(0x40, 0x80)\n  callvalue\n  dup1\n  iszero\n  tag_1\n  jumpi\n  0x00\n  dup1\n  revert\ntag_1:\n  pop\n  dataSize(sub_0)\n  dup1\n  dataOffset(sub_0)\n  0x00\n  codecopy\n  0x00\n  return\nstop\n\nsub_0: assembly {\n        /* \"contracts/control.sol\":247:2157  contract FunctionControlDemo {... */\n      mstore(0x40, 0x80)\n      callvalue\n      dup1\n      iszero\n      tag_1\n      jumpi\n      0x00\n      dup1\n      revert\n    tag_1:\n      pop\n      jumpi(tag_2, lt(calldatasize, 0x04))\n      shr(0xe0, calldataload(0x00))\n      dup1\n      0x4d1a82b7\n      gt\n      tag_10\n      jumpi\n      dup1\n      0x4d1a82b7\n      eq\n      tag_6\n      jumpi\n      dup1\n      0xb9d0f03b\n      eq\n      tag_7\n      jumpi\n      dup1\n      0xe1bf15c4\n      eq\n      tag_8\n      jumpi\n      dup1\n      0xfc4bc4d7\n      eq\n      tag_9\n      jumpi\n      jump(tag_2)\n    tag_10:\n      dup1\n      0x2a2e1320\n      eq\n      tag_3\n      jumpi\n      dup1\n      0x3b396421\n      eq\n      tag_4\n      jumpi\n      dup1\n      0x4bedd12d\n      eq\n      tag_5\n      jumpi\n    tag_2:\n      0x00\n      dup1\n      revert\n        /* \"contracts/control.sol\":402:591  function isEven(uint number) public pure returns (string memory) {... */\n    tag_3:\n      tag_11\n      0x04\n      dup1\n      calldatasize\n      sub\n      dup2\n      add\n      swap1\n      tag_12\n      swap2\n      swap1\n      tag_13\n      jump\t// in\n    tag_12:\n      tag_14\n      jump\t// in\n    tag_11:\n      mload(0x40)\n      tag_15\n      swap2\n      swap1\n      tag_16\n      jump\t// in\n    tag_15:\n      mload(0x40)\n      dup1\n      swap2\n      sub\n      swap1\n      return\n        /* \"contracts/control.sol\":1758:1940  function countDown(uint start) public pure returns (uint) {... */\n    tag_4:\n      tag_17\n      0x04\n      dup1\n      calldatasize\n      sub\n      dup2\n      add\n      swap1\n      tag_18\n      swap2\n      swap1\n      tag_13\n      jump\t// in\n    tag_18:\n      tag_19\n      jump\t// in\n    tag_17:\n      mload(0x40)\n      tag_20\n      swap2\n      swap1\n      tag_21\n      jump\t// in\n    tag_20:\n      mload(0x40)\n      dup1\n      swap2\n      sub\n      swap1\n      return\n        /* \"contracts/control.sol\":675:854  function sumUpTo(uint n) public pure returns (uint) {... */\n    tag_5:\n      tag_22\n      0x04\n      dup1\n      calldatasize\n      sub\n      dup2\n      add\n      swap1\n      tag_23\n      swap2\n      swap1\n      tag_13\n      jump\t// in\n    tag_23:\n      tag_24\n      jump\t// in\n    tag_22:\n      mload(0x40)\n      tag_25\n      swap2\n      swap1\n      tag_21\n      jump\t// in\n    tag_25:\n      mload(0x40)\n      dup1\n      swap2\n      sub\n      swap1\n      return\n        /* \"contracts/control.sol\":289:313  uint public storedResult */\n    tag_6:\n      tag_26\n      tag_27\n      jump\t// in\n    tag_26:\n      mload(0x40)\n      tag_28\n      swap2\n      swap1\n      tag_21\n      jump\t// in\n    tag_28:\n      mload(0x40)\n      dup1\n      swap2\n      sub\n      swap1\n      return\n        /* \"contracts/control.sol\":948:1288  function findFirstEven(uint[] memory numbers) public pure returns (uint) {... */\n    tag_7:\n      tag_29\n      0x04\n      dup1\n      calldatasize\n      sub\n      dup2\n      add\n      swap1\n      tag_30\n      swap2\n      swap1\n      tag_31\n      jump\t// in\n    tag_30:\n      tag_32\n      jump\t// in\n    tag_29:\n      mload(0x40)\n      tag_33\n      swap2\n      swap1\n      tag_21\n      jump\t// in\n    tag_33:\n      mload(0x40)\n      dup1\n      swap2\n      sub\n      swap1\n      return\n        /* \"contracts/control.sol\":2025:2154  function storeSum(uint n) public {... */\n    tag_8:\n      tag_34\n      0x04\n      dup1\n      calldatasize\n      sub\n      dup2\n      add\n      swap1\n      tag_35\n      swap2\n      swap1\n      tag_13\n      jump\t// in\n    tag_35:\n      tag_36\n      jump\t// in\n    tag_34:\n      stop\n        /* \"contracts/control.sol\":1384:1680  function sumNonZero(uint[] memory numbers) public pure returns (uint) {... */\n    tag_9:\n      tag_37\n      0x04\n      dup1\n      calldatasize\n      sub\n      dup2\n      add\n      swap1\n      tag_38\n      swap2\n      swap1\n      tag_31\n      jump\t// in\n    tag_38:\n      tag_39\n      jump\t// in\n    tag_37:\n      mload(0x40)\n      tag_40\n      swap2\n      swap1\n      tag_21\n      jump\t// in\n    tag_40:\n      mload(0x40)\n      dup1\n      swap2\n      sub\n      swap1\n      return\n        /* \"contracts/control.sol\":402:591  function isEven(uint number) public pure returns (string memory) {... */\n    tag_14:\n        /* \"contracts/control.sol\":452:465  string memory */\n      0x60\n        /* \"contracts/control.sol\":496:497  0 */\n      0x00\n        /* \"contracts/control.sol\":491:492  2 */\n      0x02\n        /* \"contracts/control.sol\":482:488  number */\n      dup4\n        /* \"contracts/control.sol\":482:492  number % 2 */\n      tag_42\n      swap2\n      swap1\n      tag_43\n      jump\t// in\n    tag_42:\n        /* \"contracts/control.sol\":482:497  number % 2 == 0 */\n      sub\n        /* \"contracts/control.sol\":478:584  if (number % 2 == 0) {... */\n      tag_44\n      jumpi\n        /* \"contracts/control.sol\":514:527  return \"Even\" */\n      mload(0x40)\n      dup1\n      0x40\n      add\n      0x40\n      mstore\n      dup1\n      0x04\n      dup2\n      mstore\n      0x20\n      add\n      0x4576656e00000000000000000000000000000000000000000000000000000000\n      dup2\n      mstore\n      pop\n      swap1\n      pop\n      jump(tag_41)\n        /* \"contracts/control.sol\":478:584  if (number % 2 == 0) {... */\n    tag_44:\n        /* \"contracts/control.sol\":560:572  return \"Odd\" */\n      mload(0x40)\n      dup1\n      0x40\n      add\n      0x40\n      mstore\n      dup1\n      0x03\n      dup2\n      mstore\n      0x20\n      add\n      0x4f64640000000000000000000000000000000000000000000000000000000000\n      dup2\n      mstore\n      pop\n      swap1\n      pop\n        /* \"contracts/control.sol\":402:591  function isEven(uint number) public pure returns (string memory) {... */\n    tag_41:\n      swap2\n      swap1\n      pop\n      jump\t// out\n        /* \"contracts/control.sol\":1758:1940  function countDown(uint start) public pure returns (uint) {... */\n    tag_19:\n        /* \"contracts/control.sol\":1810:1814  uint */\n      0x00\n        /* \"contracts/control.sol\":1827:1837  uint count */\n      dup1\n        /* \"contracts/control.sol\":1840:1845  start */\n      dup3\n        /* \"contracts/control.sol\":1827:1845  uint count = start */\n      swap1\n      pop\n        /* \"contracts/control.sol\":1856:1909  while (count > 0) {... */\n    tag_47:\n        /* \"contracts/control.sol\":1871:1872  0 */\n      0x00\n        /* \"contracts/control.sol\":1863:1868  count */\n      dup2\n        /* \"contracts/control.sol\":1863:1872  count > 0 */\n      gt\n        /* \"contracts/control.sol\":1856:1909  while (count > 0) {... */\n      iszero\n      tag_48\n      jumpi\n        /* \"contracts/control.sol\":1889:1896  count-- */\n      dup1\n      dup1\n      tag_49\n      swap1\n      tag_50\n      jump\t// in\n    tag_49:\n      swap2\n      pop\n      pop\n        /* \"contracts/control.sol\":1856:1909  while (count > 0) {... */\n      jump(tag_47)\n    tag_48:\n        /* \"contracts/control.sol\":1926:1931  count */\n      dup1\n        /* \"contracts/control.sol\":1919:1931  return count */\n      swap2\n      pop\n      pop\n        /* \"contracts/control.sol\":1758:1940  function countDown(uint start) public pure returns (uint) {... */\n      swap2\n      swap1\n      pop\n      jump\t// out\n        /* \"contracts/control.sol\":675:854  function sumUpTo(uint n) public pure returns (uint) {... */\n    tag_24:\n        /* \"contracts/control.sol\":721:725  uint */\n      0x00\n        /* \"contracts/control.sol\":738:746  uint sum */\n      dup1\n        /* \"contracts/control.sol\":749:750  0 */\n      0x00\n        /* \"contracts/control.sol\":738:750  uint sum = 0 */\n      swap1\n      pop\n        /* \"contracts/control.sol\":766:772  uint i */\n      0x00\n        /* \"contracts/control.sol\":775:776  1 */\n      0x01\n        /* \"contracts/control.sol\":766:776  uint i = 1 */\n      swap1\n      pop\n        /* \"contracts/control.sol\":761:826  for (uint i = 1; i <= n; i++) {... */\n    tag_52:\n        /* \"contracts/control.sol\":783:784  n */\n      dup4\n        /* \"contracts/control.sol\":778:779  i */\n      dup2\n        /* \"contracts/control.sol\":778:784  i <= n */\n      gt\n        /* \"contracts/control.sol\":761:826  for (uint i = 1; i <= n; i++) {... */\n      tag_53\n      jumpi\n        /* \"contracts/control.sol\":813:814  i */\n      dup1\n        /* \"contracts/control.sol\":806:814  sum += i */\n      dup3\n      tag_55\n      swap2\n      swap1\n      tag_56\n      jump\t// in\n    tag_55:\n      swap2\n      pop\n        /* \"contracts/control.sol\":786:789  i++ */\n      dup1\n      dup1\n      tag_57\n      swap1\n      tag_58\n      jump\t// in\n    tag_57:\n      swap2\n      pop\n      pop\n        /* \"contracts/control.sol\":761:826  for (uint i = 1; i <= n; i++) {... */\n      jump(tag_52)\n    tag_53:\n      pop\n        /* \"contracts/control.sol\":843:846  sum */\n      dup1\n        /* \"contracts/control.sol\":836:846  return sum */\n      swap2\n      pop\n      pop\n        /* \"contracts/control.sol\":675:854  function sumUpTo(uint n) public pure returns (uint) {... */\n      swap2\n      swap1\n      pop\n      jump\t// out\n        /* \"contracts/control.sol\":289:313  uint public storedResult */\n    tag_27:\n      sload(0x00)\n      dup2\n      jump\t// out\n        /* \"contracts/control.sol\":948:1288  function findFirstEven(uint[] memory numbers) public pure returns (uint) {... */\n    tag_32:\n        /* \"contracts/control.sol\":1015:1019  uint */\n      0x00\n        /* \"contracts/control.sol\":1037:1043  uint i */\n      dup1\n        /* \"contracts/control.sol\":1046:1047  0 */\n      0x00\n        /* \"contracts/control.sol\":1037:1047  uint i = 0 */\n      swap1\n      pop\n        /* \"contracts/control.sol\":1032:1223  for (uint i = 0; i < numbers.length; i++) {... */\n    tag_60:\n        /* \"contracts/control.sol\":1053:1060  numbers */\n      dup3\n        /* \"contracts/control.sol\":1053:1067  numbers.length */\n      mload\n        /* \"contracts/control.sol\":1049:1050  i */\n      dup2\n        /* \"contracts/control.sol\":1049:1067  i < numbers.length */\n      lt\n        /* \"contracts/control.sol\":1032:1223  for (uint i = 0; i < numbers.length; i++) {... */\n      iszero\n      tag_61\n      jumpi\n        /* \"contracts/control.sol\":1111:1112  0 */\n      0x00\n        /* \"contracts/control.sol\":1106:1107  2 */\n      0x02\n        /* \"contracts/control.sol\":1093:1100  numbers */\n      dup5\n        /* \"contracts/control.sol\":1101:1102  i */\n      dup4\n        /* \"contracts/control.sol\":1093:1103  numbers[i] */\n      dup2\n      mload\n      dup2\n      lt\n      tag_63\n      jumpi\n      tag_64\n      tag_65\n      jump\t// in\n    tag_64:\n    tag_63:\n      0x20\n      mul\n      0x20\n      add\n      add\n      mload\n        /* \"contracts/control.sol\":1093:1107  numbers[i] % 2 */\n      tag_66\n      swap2\n      swap1\n      tag_43\n      jump\t// in\n    tag_66:\n        /* \"contracts/control.sol\":1093:1112  numbers[i] % 2 == 0 */\n      sub\n        /* \"contracts/control.sol\":1089:1212  if (numbers[i] % 2 == 0) {... */\n      tag_67\n      jumpi\n        /* \"contracts/control.sol\":1140:1147  numbers */\n      dup3\n        /* \"contracts/control.sol\":1148:1149  i */\n      dup2\n        /* \"contracts/control.sol\":1140:1150  numbers[i] */\n      dup2\n      mload\n      dup2\n      lt\n      tag_68\n      jumpi\n      tag_69\n      tag_65\n      jump\t// in\n    tag_69:\n    tag_68:\n      0x20\n      mul\n      0x20\n      add\n      add\n      mload\n        /* \"contracts/control.sol\":1133:1150  return numbers[i] */\n      swap2\n      pop\n      pop\n      jump(tag_59)\n        /* \"contracts/control.sol\":1089:1212  if (numbers[i] % 2 == 0) {... */\n    tag_67:\n        /* \"contracts/control.sol\":1069:1072  i++ */\n      dup1\n      dup1\n      0x01\n      add\n      swap2\n      pop\n      pop\n        /* \"contracts/control.sol\":1032:1223  for (uint i = 0; i < numbers.length; i++) {... */\n      jump(tag_60)\n    tag_61:\n      pop\n        /* \"contracts/control.sol\":1240:1241  0 */\n      0x00\n        /* \"contracts/control.sol\":1233:1241  return 0 */\n      swap1\n      pop\n        /* \"contracts/control.sol\":948:1288  function findFirstEven(uint[] memory numbers) public pure returns (uint) {... */\n    tag_59:\n      swap2\n      swap1\n      pop\n      jump\t// out\n        /* \"contracts/control.sol\":2025:2154  function storeSum(uint n) public {... */\n    tag_36:\n        /* \"contracts/control.sol\":2084:2094  sumUpTo(n) */\n      tag_71\n        /* \"contracts/control.sol\":2092:2093  n */\n      dup2\n        /* \"contracts/control.sol\":2084:2091  sumUpTo */\n      tag_24\n        /* \"contracts/control.sol\":2084:2094  sumUpTo(n) */\n      jump\t// in\n    tag_71:\n        /* \"contracts/control.sol\":2069:2081  storedResult */\n      0x00\n        /* \"contracts/control.sol\":2069:2094  storedResult = sumUpTo(n) */\n      dup2\n      swap1\n      sstore\n      pop\n        /* \"contracts/control.sol\":2025:2154  function storeSum(uint n) public {... */\n      pop\n      jump\t// out\n        /* \"contracts/control.sol\":1384:1680  function sumNonZero(uint[] memory numbers) public pure returns (uint) {... */\n    tag_39:\n        /* \"contracts/control.sol\":1448:1452  uint */\n      0x00\n        /* \"contracts/control.sol\":1465:1473  uint sum */\n      dup1\n        /* \"contracts/control.sol\":1476:1477  0 */\n      0x00\n        /* \"contracts/control.sol\":1465:1477  uint sum = 0 */\n      swap1\n      pop\n        /* \"contracts/control.sol\":1493:1499  uint i */\n      0x00\n        /* \"contracts/control.sol\":1488:1652  for (uint i = 0; i < numbers.length; i++) {... */\n    tag_73:\n        /* \"contracts/control.sol\":1509:1516  numbers */\n      dup4\n        /* \"contracts/control.sol\":1509:1523  numbers.length */\n      mload\n        /* \"contracts/control.sol\":1505:1506  i */\n      dup2\n        /* \"contracts/control.sol\":1505:1523  i < numbers.length */\n      lt\n        /* \"contracts/control.sol\":1488:1652  for (uint i = 0; i < numbers.length; i++) {... */\n      iszero\n      tag_74\n      jumpi\n        /* \"contracts/control.sol\":1563:1564  0 */\n      0x00\n        /* \"contracts/control.sol\":1549:1556  numbers */\n      dup5\n        /* \"contracts/control.sol\":1557:1558  i */\n      dup3\n        /* \"contracts/control.sol\":1549:1559  numbers[i] */\n      dup2\n      mload\n      dup2\n      lt\n      tag_76\n      jumpi\n      tag_77\n      tag_65\n      jump\t// in\n    tag_77:\n    tag_76:\n      0x20\n      mul\n      0x20\n      add\n      add\n      mload\n        /* \"contracts/control.sol\":1549:1564  numbers[i] == 0 */\n      sub\n        /* \"contracts/control.sol\":1545:1609  if (numbers[i] == 0) {... */\n      iszero\n        /* \"contracts/control.sol\":1585:1593  continue */\n      tag_75\n        /* \"contracts/control.sol\":1545:1609  if (numbers[i] == 0) {... */\n      jumpi\n        /* \"contracts/control.sol\":1630:1637  numbers */\n      dup4\n        /* \"contracts/control.sol\":1638:1639  i */\n      dup2\n        /* \"contracts/control.sol\":1630:1640  numbers[i] */\n      dup2\n      mload\n      dup2\n      lt\n      tag_79\n      jumpi\n      tag_80\n      tag_65\n      jump\t// in\n    tag_80:\n    tag_79:\n      0x20\n      mul\n      0x20\n      add\n      add\n      mload\n        /* \"contracts/control.sol\":1623:1640  sum += numbers[i] */\n      dup3\n      tag_81\n      swap2\n      swap1\n      tag_56\n      jump\t// in\n    tag_81:\n      swap2\n      pop\n        /* \"contracts/control.sol\":1488:1652  for (uint i = 0; i < numbers.length; i++) {... */\n    tag_75:\n        /* \"contracts/control.sol\":1525:1528  i++ */\n      dup1\n      dup1\n      0x01\n      add\n      swap2\n      pop\n      pop\n        /* \"contracts/control.sol\":1488:1652  for (uint i = 0; i < numbers.length; i++) {... */\n      jump(tag_73)\n    tag_74:\n      pop\n        /* \"contracts/control.sol\":1669:1672  sum */\n      dup1\n        /* \"contracts/control.sol\":1662:1672  return sum */\n      swap2\n      pop\n      pop\n        /* \"contracts/control.sol\":1384:1680  function sumNonZero(uint[] memory numbers) public pure returns (uint) {... */\n      swap2\n      swap1\n      pop\n      jump\t// out\n        /* \"#utility.yul\":7:82   */\n    tag_82:\n        /* \"#utility.yul\":40:46   */\n      0x00\n        /* \"#utility.yul\":73:75   */\n      0x40\n        /* \"#utility.yul\":67:76   */\n      mload\n        /* \"#utility.yul\":57:76   */\n      swap1\n      pop\n        /* \"#utility.yul\":7:82   */\n      swap1\n      jump\t// out\n        /* \"#utility.yul\":88:205   */\n    tag_83:\n        /* \"#utility.yul\":197:198   */\n      0x00\n        /* \"#utility.yul\":194:195   */\n      dup1\n        /* \"#utility.yul\":187:199   */\n      revert\n        /* \"#utility.yul\":211:328   */\n    tag_84:\n        /* \"#utility.yul\":320:321   */\n      0x00\n        /* \"#utility.yul\":317:318   */\n      dup1\n        /* \"#utility.yul\":310:322   */\n      revert\n        /* \"#utility.yul\":334:411   */\n    tag_85:\n        /* \"#utility.yul\":371:378   */\n      0x00\n        /* \"#utility.yul\":400:405   */\n      dup2\n        /* \"#utility.yul\":389:405   */\n      swap1\n      pop\n        /* \"#utility.yul\":334:411   */\n      swap2\n      swap1\n      pop\n      jump\t// out\n        /* \"#utility.yul\":417:539   */\n    tag_86:\n        /* \"#utility.yul\":490:514   */\n      tag_110\n        /* \"#utility.yul\":508:513   */\n      dup2\n        /* \"#utility.yul\":490:514   */\n      tag_85\n      jump\t// in\n    tag_110:\n        /* \"#utility.yul\":483:488   */\n      dup2\n        /* \"#utility.yul\":480:515   */\n      eq\n        /* \"#utility.yul\":470:533   */\n      tag_111\n      jumpi\n        /* \"#utility.yul\":529:530   */\n      0x00\n        /* \"#utility.yul\":526:527   */\n      dup1\n        /* \"#utility.yul\":519:531   */\n      revert\n        /* \"#utility.yul\":470:533   */\n    tag_111:\n        /* \"#utility.yul\":417:539   */\n      pop\n      jump\t// out\n        /* \"#utility.yul\":545:684   */\n    tag_87:\n        /* \"#utility.yul\":591:596   */\n      0x00\n        /* \"#utility.yul\":629:635   */\n      dup2\n        /* \"#utility.yul\":616:636   */\n      calldataload\n        /* \"#utility.yul\":607:636   */\n      swap1\n      pop\n        /* \"#utility.yul\":645:678   */\n      tag_113\n        /* \"#utility.yul\":672:677   */\n      dup2\n        /* \"#utility.yul\":645:678   */\n      tag_86\n      jump\t// in\n    tag_113:\n        /* \"#utility.yul\":545:684   */\n      swap3\n      swap2\n      pop\n      pop\n      jump\t// out\n        /* \"#utility.yul\":690:1019   */\n    tag_13:\n        /* \"#utility.yul\":749:755   */\n      0x00\n        /* \"#utility.yul\":798:800   */\n      0x20\n        /* \"#utility.yul\":786:795   */\n      dup3\n        /* \"#utility.yul\":777:784   */\n      dup5\n        /* \"#utility.yul\":773:796   */\n      sub\n        /* \"#utility.yul\":769:801   */\n      slt\n        /* \"#utility.yul\":766:885   */\n      iszero\n      tag_115\n      jumpi\n        /* \"#utility.yul\":804:883   */\n      tag_116\n      tag_83\n      jump\t// in\n    tag_116:\n        /* \"#utility.yul\":766:885   */\n    tag_115:\n        /* \"#utility.yul\":924:925   */\n      0x00\n        /* \"#utility.yul\":949:1002   */\n      tag_117\n        /* \"#utility.yul\":994:1001   */\n      dup5\n        /* \"#utility.yul\":985:991   */\n      dup3\n        /* \"#utility.yul\":974:983   */\n      dup6\n        /* \"#utility.yul\":970:992   */\n      add\n        /* \"#utility.yul\":949:1002   */\n      tag_87\n      jump\t// in\n    tag_117:\n        /* \"#utility.yul\":939:1002   */\n      swap2\n      pop\n        /* \"#utility.yul\":895:1012   */\n      pop\n        /* \"#utility.yul\":690:1019   */\n      swap3\n      swap2\n      pop\n      pop\n      jump\t// out\n        /* \"#utility.yul\":1025:1124   */\n    tag_88:\n        /* \"#utility.yul\":1077:1083   */\n      0x00\n        /* \"#utility.yul\":1111:1116   */\n      dup2\n        /* \"#utility.yul\":1105:1117   */\n      mload\n        /* \"#utility.yul\":1095:1117   */\n      swap1\n      pop\n        /* \"#utility.yul\":1025:1124   */\n      swap2\n      swap1\n      pop\n      jump\t// out\n        /* \"#utility.yul\":1130:1299   */\n    tag_89:\n        /* \"#utility.yul\":1214:1225   */\n      0x00\n        /* \"#utility.yul\":1248:1254   */\n      dup3\n        /* \"#utility.yul\":1243:1246   */\n      dup3\n        /* \"#utility.yul\":1236:1255   */\n      mstore\n        /* \"#utility.yul\":1288:1292   */\n      0x20\n        /* \"#utility.yul\":1283:1286   */\n      dup3\n        /* \"#utility.yul\":1279:1293   */\n      add\n        /* \"#utility.yul\":1264:1293   */\n      swap1\n      pop\n        /* \"#utility.yul\":1130:1299   */\n      swap3\n      swap2\n      pop\n      pop\n      jump\t// out\n        /* \"#utility.yul\":1305:1444   */\n    tag_90:\n        /* \"#utility.yul\":1394:1400   */\n      dup3\n        /* \"#utility.yul\":1389:1392   */\n      dup2\n        /* \"#utility.yul\":1384:1387   */\n      dup4\n        /* \"#utility.yul\":1378:1401   */\n      mcopy\n        /* \"#utility.yul\":1435:1436   */\n      0x00\n        /* \"#utility.yul\":1426:1432   */\n      dup4\n        /* \"#utility.yul\":1421:1424   */\n      dup4\n        /* \"#utility.yul\":1417:1433   */\n      add\n        /* \"#utility.yul\":1410:1437   */\n      mstore\n        /* \"#utility.yul\":1305:1444   */\n      pop\n      pop\n      pop\n      jump\t// out\n        /* \"#utility.yul\":1450:1552   */\n    tag_91:\n        /* \"#utility.yul\":1491:1497   */\n      0x00\n        /* \"#utility.yul\":1542:1544   */\n      0x1f\n        /* \"#utility.yul\":1538:1545   */\n      not\n        /* \"#utility.yul\":1533:1535   */\n      0x1f\n        /* \"#utility.yul\":1526:1531   */\n      dup4\n        /* \"#utility.yul\":1522:1536   */\n      add\n        /* \"#utility.yul\":1518:1546   */\n      and\n        /* \"#utility.yul\":1508:1546   */\n      swap1\n      pop\n        /* \"#utility.yul\":1450:1552   */\n      swap2\n      swap1\n      pop\n      jump\t// out\n        /* \"#utility.yul\":1558:1935   */\n    tag_92:\n        /* \"#utility.yul\":1646:1649   */\n      0x00\n        /* \"#utility.yul\":1674:1713   */\n      tag_123\n        /* \"#utility.yul\":1707:1712   */\n      dup3\n        /* \"#utility.yul\":1674:1713   */\n      tag_88\n      jump\t// in\n    tag_123:\n        /* \"#utility.yul\":1729:1800   */\n      tag_124\n        /* \"#utility.yul\":1793:1799   */\n      dup2\n        /* \"#utility.yul\":1788:1791   */\n      dup6\n        /* \"#utility.yul\":1729:1800   */\n      tag_89\n      jump\t// in\n    tag_124:\n        /* \"#utility.yul\":1722:1800   */\n      swap4\n      pop\n        /* \"#utility.yul\":1809:1874   */\n      tag_125\n        /* \"#utility.yul\":1867:1873   */\n      dup2\n        /* \"#utility.yul\":1862:1865   */\n      dup6\n        /* \"#utility.yul\":1855:1859   */\n      0x20\n        /* \"#utility.yul\":1848:1853   */\n      dup7\n        /* \"#utility.yul\":1844:1860   */\n      add\n        /* \"#utility.yul\":1809:1874   */\n      tag_90\n      jump\t// in\n    tag_125:\n        /* \"#utility.yul\":1899:1928   */\n      tag_126\n        /* \"#utility.yul\":1921:1927   */\n      dup2\n        /* \"#utility.yul\":1899:1928   */\n      tag_91\n      jump\t// in\n    tag_126:\n        /* \"#utility.yul\":1894:1897   */\n      dup5\n        /* \"#utility.yul\":1890:1929   */\n      add\n        /* \"#utility.yul\":1883:1929   */\n      swap2\n      pop\n        /* \"#utility.yul\":1650:1935   */\n      pop\n        /* \"#utility.yul\":1558:1935   */\n      swap3\n      swap2\n      pop\n      pop\n      jump\t// out\n        /* \"#utility.yul\":1941:2254   */\n    tag_16:\n        /* \"#utility.yul\":2054:2058   */\n      0x00\n        /* \"#utility.yul\":2092:2094   */\n      0x20\n        /* \"#utility.yul\":2081:2090   */\n      dup3\n        /* \"#utility.yul\":2077:2095   */\n      add\n        /* \"#utility.yul\":2069:2095   */\n      swap1\n      pop\n        /* \"#utility.yul\":2141:2150   */\n      dup2\n        /* \"#utility.yul\":2135:2139   */\n      dup2\n        /* \"#utility.yul\":2131:2151   */\n      sub\n        /* \"#utility.yul\":2127:2128   */\n      0x00\n        /* \"#utility.yul\":2116:2125   */\n      dup4\n        /* \"#utility.yul\":2112:2129   */\n      add\n        /* \"#utility.yul\":2105:2152   */\n      mstore\n        /* \"#utility.yul\":2169:2247   */\n      tag_128\n        /* \"#utility.yul\":2242:2246   */\n      dup2\n        /* \"#utility.yul\":2233:2239   */\n      dup5\n        /* \"#utility.yul\":2169:2247   */\n      tag_92\n      jump\t// in\n    tag_128:\n        /* \"#utility.yul\":2161:2247   */\n      swap1\n      pop\n        /* \"#utility.yul\":1941:2254   */\n      swap3\n      swap2\n      pop\n      pop\n      jump\t// out\n        /* \"#utility.yul\":2260:2378   */\n    tag_93:\n        /* \"#utility.yul\":2347:2371   */\n      tag_130\n        /* \"#utility.yul\":2365:2370   */\n      dup2\n        /* \"#utility.yul\":2347:2371   */\n      tag_85\n      jump\t// in\n    tag_130:\n        /* \"#utility.yul\":2342:2345   */\n      dup3\n        /* \"#utility.yul\":2335:2372   */\n      mstore\n        /* \"#utility.yul\":2260:2378   */\n      pop\n      pop\n      jump\t// out\n        /* \"#utility.yul\":2384:2606   */\n    tag_21:\n        /* \"#utility.yul\":2477:2481   */\n      0x00\n        /* \"#utility.yul\":2515:2517   */\n      0x20\n        /* \"#utility.yul\":2504:2513   */\n      dup3\n        /* \"#utility.yul\":2500:2518   */\n      add\n        /* \"#utility.yul\":2492:2518   */\n      swap1\n      pop\n        /* \"#utility.yul\":2528:2599   */\n      tag_132\n        /* \"#utility.yul\":2596:2597   */\n      0x00\n        /* \"#utility.yul\":2585:2594   */\n      dup4\n        /* \"#utility.yul\":2581:2598   */\n      add\n        /* \"#utility.yul\":2572:2578   */\n      dup5\n        /* \"#utility.yul\":2528:2599   */\n      tag_93\n      jump\t// in\n    tag_132:\n        /* \"#utility.yul\":2384:2606   */\n      swap3\n      swap2\n      pop\n      pop\n      jump\t// out\n        /* \"#utility.yul\":2612:2729   */\n    tag_94:\n        /* \"#utility.yul\":2721:2722   */\n      0x00\n        /* \"#utility.yul\":2718:2719   */\n      dup1\n        /* \"#utility.yul\":2711:2723   */\n      revert\n        /* \"#utility.yul\":2735:2915   */\n    tag_95:\n        /* \"#utility.yul\":2783:2860   */\n      0x4e487b7100000000000000000000000000000000000000000000000000000000\n        /* \"#utility.yul\":2780:2781   */\n      0x00\n        /* \"#utility.yul\":2773:2861   */\n      mstore\n        /* \"#utility.yul\":2880:2884   */\n      0x41\n        /* \"#utility.yul\":2877:2878   */\n      0x04\n        /* \"#utility.yul\":2870:2885   */\n      mstore\n        /* \"#utility.yul\":2904:2908   */\n      0x24\n        /* \"#utility.yul\":2901:2902   */\n      0x00\n        /* \"#utility.yul\":2894:2909   */\n      revert\n        /* \"#utility.yul\":2921:3202   */\n    tag_96:\n        /* \"#utility.yul\":3004:3031   */\n      tag_136\n        /* \"#utility.yul\":3026:3030   */\n      dup3\n        /* \"#utility.yul\":3004:3031   */\n      tag_91\n      jump\t// in\n    tag_136:\n        /* \"#utility.yul\":2996:3002   */\n      dup2\n        /* \"#utility.yul\":2992:3032   */\n      add\n        /* \"#utility.yul\":3134:3140   */\n      dup2\n        /* \"#utility.yul\":3122:3132   */\n      dup2\n        /* \"#utility.yul\":3119:3141   */\n      lt\n        /* \"#utility.yul\":3098:3116   */\n      0xffffffffffffffff\n        /* \"#utility.yul\":3086:3096   */\n      dup3\n        /* \"#utility.yul\":3083:3117   */\n      gt\n        /* \"#utility.yul\":3080:3142   */\n      or\n        /* \"#utility.yul\":3077:3165   */\n      iszero\n      tag_137\n      jumpi\n        /* \"#utility.yul\":3145:3163   */\n      tag_138\n      tag_95\n      jump\t// in\n    tag_138:\n        /* \"#utility.yul\":3077:3165   */\n    tag_137:\n        /* \"#utility.yul\":3185:3195   */\n      dup1\n        /* \"#utility.yul\":3181:3183   */\n      0x40\n        /* \"#utility.yul\":3174:3196   */\n      mstore\n        /* \"#utility.yul\":2964:3202   */\n      pop\n        /* \"#utility.yul\":2921:3202   */\n      pop\n      pop\n      jump\t// out\n        /* \"#utility.yul\":3208:3337   */\n    tag_97:\n        /* \"#utility.yul\":3242:3248   */\n      0x00\n        /* \"#utility.yul\":3269:3289   */\n      tag_140\n      tag_82\n      jump\t// in\n    tag_140:\n        /* \"#utility.yul\":3259:3289   */\n      swap1\n      pop\n        /* \"#utility.yul\":3298:3331   */\n      tag_141\n        /* \"#utility.yul\":3326:3330   */\n      dup3\n        /* \"#utility.yul\":3318:3324   */\n      dup3\n        /* \"#utility.yul\":3298:3331   */\n      tag_96\n      jump\t// in\n    tag_141:\n        /* \"#utility.yul\":3208:3337   */\n      swap2\n      swap1\n      pop\n      jump\t// out\n        /* \"#utility.yul\":3343:3654   */\n    tag_98:\n        /* \"#utility.yul\":3420:3424   */\n      0x00\n        /* \"#utility.yul\":3510:3528   */\n      0xffffffffffffffff\n        /* \"#utility.yul\":3502:3508   */\n      dup3\n        /* \"#utility.yul\":3499:3529   */\n      gt\n        /* \"#utility.yul\":3496:3552   */\n      iszero\n      tag_143\n      jumpi\n        /* \"#utility.yul\":3532:3550   */\n      tag_144\n      tag_95\n      jump\t// in\n    tag_144:\n        /* \"#utility.yul\":3496:3552   */\n    tag_143:\n        /* \"#utility.yul\":3582:3586   */\n      0x20\n        /* \"#utility.yul\":3574:3580   */\n      dup3\n        /* \"#utility.yul\":3570:3587   */\n      mul\n        /* \"#utility.yul\":3562:3587   */\n      swap1\n      pop\n        /* \"#utility.yul\":3642:3646   */\n      0x20\n        /* \"#utility.yul\":3636:3640   */\n      dup2\n        /* \"#utility.yul\":3632:3647   */\n      add\n        /* \"#utility.yul\":3624:3647   */\n      swap1\n      pop\n        /* \"#utility.yul\":3343:3654   */\n      swap2\n      swap1\n      pop\n      jump\t// out\n        /* \"#utility.yul\":3660:3777   */\n    tag_99:\n        /* \"#utility.yul\":3769:3770   */\n      0x00\n        /* \"#utility.yul\":3766:3767   */\n      dup1\n        /* \"#utility.yul\":3759:3771   */\n      revert\n        /* \"#utility.yul\":3800:4510   */\n    tag_100:\n        /* \"#utility.yul\":3896:3901   */\n      0x00\n        /* \"#utility.yul\":3921:4002   */\n      tag_147\n        /* \"#utility.yul\":3937:4001   */\n      tag_148\n        /* \"#utility.yul\":3994:4000   */\n      dup5\n        /* \"#utility.yul\":3937:4001   */\n      tag_98\n      jump\t// in\n    tag_148:\n        /* \"#utility.yul\":3921:4002   */\n      tag_97\n      jump\t// in\n    tag_147:\n        /* \"#utility.yul\":3912:4002   */\n      swap1\n      pop\n        /* \"#utility.yul\":4022:4027   */\n      dup1\n        /* \"#utility.yul\":4051:4057   */\n      dup4\n        /* \"#utility.yul\":4044:4049   */\n      dup3\n        /* \"#utility.yul\":4037:4058   */\n      mstore\n        /* \"#utility.yul\":4085:4089   */\n      0x20\n        /* \"#utility.yul\":4078:4083   */\n      dup3\n        /* \"#utility.yul\":4074:4090   */\n      add\n        /* \"#utility.yul\":4067:4090   */\n      swap1\n      pop\n        /* \"#utility.yul\":4138:4142   */\n      0x20\n        /* \"#utility.yul\":4130:4136   */\n      dup5\n        /* \"#utility.yul\":4126:4143   */\n      mul\n        /* \"#utility.yul\":4118:4124   */\n      dup4\n        /* \"#utility.yul\":4114:4144   */\n      add\n        /* \"#utility.yul\":4167:4170   */\n      dup6\n        /* \"#utility.yul\":4159:4165   */\n      dup2\n        /* \"#utility.yul\":4156:4171   */\n      gt\n        /* \"#utility.yul\":4153:4275   */\n      iszero\n      tag_149\n      jumpi\n        /* \"#utility.yul\":4186:4265   */\n      tag_150\n      tag_99\n      jump\t// in\n    tag_150:\n        /* \"#utility.yul\":4153:4275   */\n    tag_149:\n        /* \"#utility.yul\":4301:4307   */\n      dup4\n        /* \"#utility.yul\":4284:4504   */\n    tag_151:\n        /* \"#utility.yul\":4318:4324   */\n      dup2\n        /* \"#utility.yul\":4313:4316   */\n      dup2\n        /* \"#utility.yul\":4310:4325   */\n      lt\n        /* \"#utility.yul\":4284:4504   */\n      iszero\n      tag_153\n      jumpi\n        /* \"#utility.yul\":4393:4396   */\n      dup1\n        /* \"#utility.yul\":4422:4459   */\n      tag_154\n        /* \"#utility.yul\":4455:4458   */\n      dup9\n        /* \"#utility.yul\":4443:4453   */\n      dup3\n        /* \"#utility.yul\":4422:4459   */\n      tag_87\n      jump\t// in\n    tag_154:\n        /* \"#utility.yul\":4417:4420   */\n      dup5\n        /* \"#utility.yul\":4410:4460   */\n      mstore\n        /* \"#utility.yul\":4489:4493   */\n      0x20\n        /* \"#utility.yul\":4484:4487   */\n      dup5\n        /* \"#utility.yul\":4480:4494   */\n      add\n        /* \"#utility.yul\":4473:4494   */\n      swap4\n      pop\n        /* \"#utility.yul\":4360:4504   */\n      pop\n        /* \"#utility.yul\":4344:4348   */\n      0x20\n        /* \"#utility.yul\":4339:4342   */\n      dup2\n        /* \"#utility.yul\":4335:4349   */\n      add\n        /* \"#utility.yul\":4328:4349   */\n      swap1\n      pop\n        /* \"#utility.yul\":4284:4504   */\n      jump(tag_151)\n    tag_153:\n        /* \"#utility.yul\":4288:4309   */\n      pop\n        /* \"#utility.yul\":3902:4510   */\n      pop\n      pop\n        /* \"#utility.yul\":3800:4510   */\n      swap4\n      swap3\n      pop\n      pop\n      pop\n      jump\t// out\n        /* \"#utility.yul\":4533:4903   */\n    tag_101:\n        /* \"#utility.yul\":4604:4609   */\n      0x00\n        /* \"#utility.yul\":4653:4656   */\n      dup3\n        /* \"#utility.yul\":4646:4650   */\n      0x1f\n        /* \"#utility.yul\":4638:4644   */\n      dup4\n        /* \"#utility.yul\":4634:4651   */\n      add\n        /* \"#utility.yul\":4630:4657   */\n      slt\n        /* \"#utility.yul\":4620:4742   */\n      tag_156\n      jumpi\n        /* \"#utility.yul\":4661:4740   */\n      tag_157\n      tag_94\n      jump\t// in\n    tag_157:\n        /* \"#utility.yul\":4620:4742   */\n    tag_156:\n        /* \"#utility.yul\":4778:4784   */\n      dup2\n        /* \"#utility.yul\":4765:4785   */\n      calldataload\n        /* \"#utility.yul\":4803:4897   */\n      tag_158\n        /* \"#utility.yul\":4893:4896   */\n      dup5\n        /* \"#utility.yul\":4885:4891   */\n      dup3\n        /* \"#utility.yul\":4878:4882   */\n      0x20\n        /* \"#utility.yul\":4870:4876   */\n      dup7\n        /* \"#utility.yul\":4866:4883   */\n      add\n        /* \"#utility.yul\":4803:4897   */\n      tag_100\n      jump\t// in\n    tag_158:\n        /* \"#utility.yul\":4794:4897   */\n      swap2\n      pop\n        /* \"#utility.yul\":4610:4903   */\n      pop\n        /* \"#utility.yul\":4533:4903   */\n      swap3\n      swap2\n      pop\n      pop\n      jump\t// out\n        /* \"#utility.yul\":4909:5448   */\n    tag_31:\n        /* \"#utility.yul\":4993:4999   */\n      0x00\n        /* \"#utility.yul\":5042:5044   */\n      0x20\n        /* \"#utility.yul\":5030:5039   */\n      dup3\n        /* \"#utility.yul\":5021:5028   */\n      dup5\n        /* \"#utility.yul\":5017:5040   */\n      sub\n        /* \"#utility.yul\":5013:5045   */\n      slt\n        /* \"#utility.yul\":5010:5129   */\n      iszero\n      tag_160\n      jumpi\n        /* \"#utility.yul\":5048:5127   */\n      tag_161\n      tag_83\n      jump\t// in\n    tag_161:\n        /* \"#utility.yul\":5010:5129   */\n    tag_160:\n        /* \"#utility.yul\":5196:5197   */\n      0x00\n        /* \"#utility.yul\":5185:5194   */\n      dup3\n        /* \"#utility.yul\":5181:5198   */\n      add\n        /* \"#utility.yul\":5168:5199   */\n      calldataload\n        /* \"#utility.yul\":5226:5244   */\n      0xffffffffffffffff\n        /* \"#utility.yul\":5218:5224   */\n      dup2\n        /* \"#utility.yul\":5215:5245   */\n      gt\n        /* \"#utility.yul\":5212:5329   */\n      iszero\n      tag_162\n      jumpi\n        /* \"#utility.yul\":5248:5327   */\n      tag_163\n      tag_84\n      jump\t// in\n    tag_163:\n        /* \"#utility.yul\":5212:5329   */\n    tag_162:\n        /* \"#utility.yul\":5353:5431   */\n      tag_164\n        /* \"#utility.yul\":5423:5430   */\n      dup5\n        /* \"#utility.yul\":5414:5420   */\n      dup3\n        /* \"#utility.yul\":5403:5412   */\n      dup6\n        /* \"#utility.yul\":5399:5421   */\n      add\n        /* \"#utility.yul\":5353:5431   */\n      tag_101\n      jump\t// in\n    tag_164:\n        /* \"#utility.yul\":5343:5431   */\n      swap2\n      pop\n        /* \"#utility.yul\":5139:5441   */\n      pop\n        /* \"#utility.yul\":4909:5448   */\n      swap3\n      swap2\n      pop\n      pop\n      jump\t// out\n        /* \"#utility.yul\":5454:5634   */\n    tag_102:\n        /* \"#utility.yul\":5502:5579   */\n      0x4e487b7100000000000000000000000000000000000000000000000000000000\n        /* \"#utility.yul\":5499:5500   */\n      0x00\n        /* \"#utility.yul\":5492:5580   */\n      mstore\n        /* \"#utility.yul\":5599:5603   */\n      0x12\n        /* \"#utility.yul\":5596:5597   */\n      0x04\n        /* \"#utility.yul\":5589:5604   */\n      mstore\n        /* \"#utility.yul\":5623:5627   */\n      0x24\n        /* \"#utility.yul\":5620:5621   */\n      0x00\n        /* \"#utility.yul\":5613:5628   */\n      revert\n        /* \"#utility.yul\":5640:5816   */\n    tag_43:\n        /* \"#utility.yul\":5672:5673   */\n      0x00\n        /* \"#utility.yul\":5689:5709   */\n      tag_167\n        /* \"#utility.yul\":5707:5708   */\n      dup3\n        /* \"#utility.yul\":5689:5709   */\n      tag_85\n      jump\t// in\n    tag_167:\n        /* \"#utility.yul\":5684:5709   */\n      swap2\n      pop\n        /* \"#utility.yul\":5723:5743   */\n      tag_168\n        /* \"#utility.yul\":5741:5742   */\n      dup4\n        /* \"#utility.yul\":5723:5743   */\n      tag_85\n      jump\t// in\n    tag_168:\n        /* \"#utility.yul\":5718:5743   */\n      swap3\n      pop\n        /* \"#utility.yul\":5762:5763   */\n      dup3\n        /* \"#utility.yul\":5752:5787   */\n      tag_169\n      jumpi\n        /* \"#utility.yul\":5767:5785   */\n      tag_170\n      tag_102\n      jump\t// in\n    tag_170:\n        /* \"#utility.yul\":5752:5787   */\n    tag_169:\n        /* \"#utility.yul\":5808:5809   */\n      dup3\n        /* \"#utility.yul\":5805:5806   */\n      dup3\n        /* \"#utility.yul\":5801:5810   */\n      mod\n        /* \"#utility.yul\":5796:5810   */\n      swap1\n      pop\n        /* \"#utility.yul\":5640:5816   */\n      swap3\n      swap2\n      pop\n      pop\n      jump\t// out\n        /* \"#utility.yul\":5822:6002   */\n    tag_103:\n        /* \"#utility.yul\":5870:5947   */\n      0x4e487b7100000000000000000000000000000000000000000000000000000000\n        /* \"#utility.yul\":5867:5868   */\n      0x00\n        /* \"#utility.yul\":5860:5948   */\n      mstore\n        /* \"#utility.yul\":5967:5971   */\n      0x11\n        /* \"#utility.yul\":5964:5965   */\n      0x04\n        /* \"#utility.yul\":5957:5972   */\n      mstore\n        /* \"#utility.yul\":5991:5995   */\n      0x24\n        /* \"#utility.yul\":5988:5989   */\n      0x00\n        /* \"#utility.yul\":5981:5996   */\n      revert\n        /* \"#utility.yul\":6008:6179   */\n    tag_50:\n        /* \"#utility.yul\":6047:6050   */\n      0x00\n        /* \"#utility.yul\":6070:6094   */\n      tag_173\n        /* \"#utility.yul\":6088:6093   */\n      dup3\n        /* \"#utility.yul\":6070:6094   */\n      tag_85\n      jump\t// in\n    tag_173:\n        /* \"#utility.yul\":6061:6094   */\n      swap2\n      pop\n        /* \"#utility.yul\":6116:6120   */\n      0x00\n        /* \"#utility.yul\":6109:6114   */\n      dup3\n        /* \"#utility.yul\":6106:6121   */\n      sub\n        /* \"#utility.yul\":6103:6144   */\n      tag_174\n      jumpi\n        /* \"#utility.yul\":6124:6142   */\n      tag_175\n      tag_103\n      jump\t// in\n    tag_175:\n        /* \"#utility.yul\":6103:6144   */\n    tag_174:\n        /* \"#utility.yul\":6171:6172   */\n      0x01\n        /* \"#utility.yul\":6164:6169   */\n      dup3\n        /* \"#utility.yul\":6160:6173   */\n      sub\n        /* \"#utility.yul\":6153:6173   */\n      swap1\n      pop\n        /* \"#utility.yul\":6008:6179   */\n      swap2\n      swap1\n      pop\n      jump\t// out\n        /* \"#utility.yul\":6185:6376   */\n    tag_56:\n        /* \"#utility.yul\":6225:6228   */\n      0x00\n        /* \"#utility.yul\":6244:6264   */\n      tag_177\n        /* \"#utility.yul\":6262:6263   */\n      dup3\n        /* \"#utility.yul\":6244:6264   */\n      tag_85\n      jump\t// in\n    tag_177:\n        /* \"#utility.yul\":6239:6264   */\n      swap2\n      pop\n        /* \"#utility.yul\":6278:6298   */\n      tag_178\n        /* \"#utility.yul\":6296:6297   */\n      dup4\n        /* \"#utility.yul\":6278:6298   */\n      tag_85\n      jump\t// in\n    tag_178:\n        /* \"#utility.yul\":6273:6298   */\n      swap3\n      pop\n        /* \"#utility.yul\":6321:6322   */\n      dup3\n        /* \"#utility.yul\":6318:6319   */\n      dup3\n        /* \"#utility.yul\":6314:6323   */\n      add\n        /* \"#utility.yul\":6307:6323   */\n      swap1\n      pop\n        /* \"#utility.yul\":6342:6345   */\n      dup1\n        /* \"#utility.yul\":6339:6340   */\n      dup3\n        /* \"#utility.yul\":6336:6346   */\n      gt\n        /* \"#utility.yul\":6333:6369   */\n      iszero\n      tag_179\n      jumpi\n        /* \"#utility.yul\":6349:6367   */\n      tag_180\n      tag_103\n      jump\t// in\n    tag_180:\n        /* \"#utility.yul\":6333:6369   */\n    tag_179:\n        /* \"#utility.yul\":6185:6376   */\n      swap3\n      swap2\n      pop\n      pop\n      jump\t// out\n        /* \"#utility.yul\":6382:6615   */\n    tag_58:\n        /* \"#utility.yul\":6421:6424   */\n      0x00\n        /* \"#utility.yul\":6444:6468   */\n      tag_182\n        /* \"#utility.yul\":6462:6467   */\n      dup3\n        /* \"#utility.yul\":6444:6468   */\n      tag_85\n      jump\t// in\n    tag_182:\n        /* \"#utility.yul\":6435:6468   */\n      swap2\n      pop\n        /* \"#utility.yul\":6490:6556   */\n      0xffffffffffffffffffffffffffffffffffffffffffffffffffffffffffffffff\n        /* \"#utility.yul\":6483:6488   */\n      dup3\n        /* \"#utility.yul\":6480:6557   */\n      sub\n        /* \"#utility.yul\":6477:6580   */\n      tag_183\n      jumpi\n        /* \"#utility.yul\":6560:6578   */\n      tag_184\n      tag_103\n      jump\t// in\n    tag_184:\n        /* \"#utility.yul\":6477:6580   */\n    tag_183:\n        /* \"#utility.yul\":6607:6608   */\n      0x01\n        /* \"#utility.yul\":6600:6605   */\n      dup3\n        /* \"#utility.yul\":6596:6609   */\n      add\n        /* \"#utility.yul\":6589:6609   */\n      swap1\n      pop\n        /* \"#utility.yul\":6382:6615   */\n      swap2\n      swap1\n      pop\n      jump\t// out\n        /* \"#utility.yul\":6621:6801   */\n    tag_65:\n        /* \"#utility.yul\":6669:6746   */\n      0x4e487b7100000000000000000000000000000000000000000000000000000000\n        /* \"#utility.yul\":6666:6667   */\n      0x00\n        /* \"#utility.yul\":6659:6747   */\n      mstore\n        /* \"#utility.yul\":6766:6770   */\n      0x32\n        /* \"#utility.yul\":6763:6764   */\n      0x04\n        /* \"#utility.yul\":6756:6771   */\n      mstore\n        /* \"#utility.yul\":6790:6794   */\n      0x24\n        /* \"#utility.yul\":6787:6788   */\n      0x00\n        /* \"#utility.yul\":6780:6795   */\n      revert\n\n    auxdata: 0xa2646970667358221220ba70f82a4fac01676cace87ad1b4079bd25e812b580b26d4b1731284832042b464736f6c634300081a0033\n}\n",
				"bytecode": {
					"linkReferences": {},
					"object": "6080604052348015600e575f80fd5b506107da8061001c5f395ff3fe608060405234801561000f575f80fd5b506004361061007b575f3560e01c80634d1a82b7116100595780634d1a82b71461010f578063b9d0f03b1461012d578063e1bf15c41461015d578063fc4bc4d7146101795761007b565b80632a2e13201461007f5780633b396421146100af5780634bedd12d146100df575b5f80fd5b610099600480360381019061009491906103e2565b6101a9565b6040516100a6919061047d565b60405180910390f35b6100c960048036038101906100c491906103e2565b610239565b6040516100d691906104ac565b60405180910390f35b6100f960048036038101906100f491906103e2565b610263565b60405161010691906104ac565b60405180910390f35b6101176102a0565b60405161012491906104ac565b60405180910390f35b61014760048036038101906101429190610605565b6102a5565b60405161015491906104ac565b60405180910390f35b610177600480360381019061017291906103e2565b61031b565b005b610193600480360381019061018e9190610605565b61032c565b6040516101a091906104ac565b60405180910390f35b60605f6002836101b99190610679565b036101fb576040518060400160405280600481526020017f4576656e000000000000000000000000000000000000000000000000000000008152509050610234565b6040518060400160405280600381526020017f4f6464000000000000000000000000000000000000000000000000000000000081525090505b919050565b5f808290505b5f81111561025a578080610252906106d6565b91505061023f565b80915050919050565b5f805f90505f600190505b83811161029657808261028191906106fd565b9150808061028e90610730565b91505061026e565b5080915050919050565b5f5481565b5f805f90505b8251811015610311575f60028483815181106102ca576102c9610777565b5b60200260200101516102dc9190610679565b03610304578281815181106102f4576102f3610777565b5b6020026020010151915050610316565b80806001019150506102ab565b505f90505b919050565b61032481610263565b5f8190555050565b5f805f90505f5b8351811015610394575f8482815181106103505761034f610777565b5b602002602001015103156103875783818151811061037157610370610777565b5b60200260200101518261038491906106fd565b91505b8080600101915050610333565b5080915050919050565b5f604051905090565b5f80fd5b5f80fd5b5f819050919050565b6103c1816103af565b81146103cb575f80fd5b50565b5f813590506103dc816103b8565b92915050565b5f602082840312156103f7576103f66103a7565b5b5f610404848285016103ce565b91505092915050565b5f81519050919050565b5f82825260208201905092915050565b8281835e5f83830152505050565b5f601f19601f8301169050919050565b5f61044f8261040d565b6104598185610417565b9350610469818560208601610427565b61047281610435565b840191505092915050565b5f6020820190508181035f8301526104958184610445565b905092915050565b6104a6816103af565b82525050565b5f6020820190506104bf5f83018461049d565b92915050565b5f80fd5b7f4e487b71000000000000000000000000000000000000000000000000000000005f52604160045260245ffd5b6104ff82610435565b810181811067ffffffffffffffff8211171561051e5761051d6104c9565b5b80604052505050565b5f61053061039e565b905061053c82826104f6565b919050565b5f67ffffffffffffffff82111561055b5761055a6104c9565b5b602082029050602081019050919050565b5f80fd5b5f61058261057d84610541565b610527565b905080838252602082019050602084028301858111156105a5576105a461056c565b5b835b818110156105ce57806105ba88826103ce565b8452602084019350506020810190506105a7565b5050509392505050565b5f82601f8301126105ec576105eb6104c5565b5b81356105fc848260208601610570565b91505092915050565b5f6020828403121561061a576106196103a7565b5b5f82013567ffffffffffffffff811115610637576106366103ab565b5b610643848285016105d8565b91505092915050565b7f4e487b71000000000000000000000000000000000000000000000000000000005f52601260045260245ffd5b5f610683826103af565b915061068e836103af565b92508261069e5761069d61064c565b5b828206905092915050565b7f4e487b71000000000000000000000000000000000000000000000000000000005f52601160045260245ffd5b5f6106e0826103af565b91505f82036106f2576106f16106a9565b5b600182039050919050565b5f610707826103af565b9150610712836103af565b925082820190508082111561072a576107296106a9565b5b92915050565b5f61073a826103af565b91507fffffffffffffffffffffffffffffffffffffffffffffffffffffffffffffffff820361076c5761076b6106a9565b5b600182019050919050565b7f4e487b71000000000000000000000000000000000000000000000000000000005f52603260045260245ffdfea2646970667358221220ba70f82a4fac01676cace87ad1b4079bd25e812b580b26d4b1731284832042b464736f6c634300081a0033",
					"opcodes": "PUSH1 0x80 PUSH1 0x40 MSTORE CALLVALUE DUP1 ISZERO PUSH1 0xE JUMPI PUSH0 DUP1 REVERT JUMPDEST POP PUSH2 0x7DA DUP1 PUSH2 0x1C PUSH0 CODECOPY PUSH0 RETURN INVALID PUSH1 0x80 PUSH1 0x40 MSTORE CALLVALUE DUP1 ISZERO PUSH2 0xF JUMPI PUSH0 DUP1 REVERT JUMPDEST POP PUSH1 0x4 CALLDATASIZE LT PUSH2 0x7B JUMPI PUSH0 CALLDATALOAD PUSH1 0xE0 SHR DUP1 PUSH4 0x4D1A82B7 GT PUSH2 0x59 JUMPI DUP1 PUSH4 0x4D1A82B7 EQ PUSH2 0x10F JUMPI DUP1 PUSH4 0xB9D0F03B EQ PUSH2 0x12D JUMPI DUP1 PUSH4 0xE1BF15C4 EQ PUSH2 0x15D JUMPI DUP1 PUSH4 0xFC4BC4D7 EQ PUSH2 0x179 JUMPI PUSH2 0x7B JUMP JUMPDEST DUP1 PUSH4 0x2A2E1320 EQ PUSH2 0x7F JUMPI DUP1 PUSH4 0x3B396421 EQ PUSH2 0xAF JUMPI DUP1 PUSH4 0x4BEDD12D EQ PUSH2 0xDF JUMPI JUMPDEST PUSH0 DUP1 REVERT JUMPDEST PUSH2 0x99 PUSH1 0x4 DUP1 CALLDATASIZE SUB DUP2 ADD SWAP1 PUSH2 0x94 SWAP2 SWAP1 PUSH2 0x3E2 JUMP JUMPDEST PUSH2 0x1A9 JUMP JUMPDEST PUSH1 0x40 MLOAD PUSH2 0xA6 SWAP2 SWAP1 PUSH2 0x47D JUMP JUMPDEST PUSH1 0x40 MLOAD DUP1 SWAP2 SUB SWAP1 RETURN JUMPDEST PUSH2 0xC9 PUSH1 0x4 DUP1 CALLDATASIZE SUB DUP2 ADD SWAP1 PUSH2 0xC4 SWAP2 SWAP1 PUSH2 0x3E2 JUMP JUMPDEST PUSH2 0x239 JUMP JUMPDEST PUSH1 0x40 MLOAD PUSH2 0xD6 SWAP2 SWAP1 PUSH2 0x4AC JUMP JUMPDEST PUSH1 0x40 MLOAD DUP1 SWAP2 SUB SWAP1 RETURN JUMPDEST PUSH2 0xF9 PUSH1 0x4 DUP1 CALLDATASIZE SUB DUP2 ADD SWAP1 PUSH2 0xF4 SWAP2 SWAP1 PUSH2 0x3E2 JUMP JUMPDEST PUSH2 0x263 JUMP JUMPDEST PUSH1 0x40 MLOAD PUSH2 0x106 SWAP2 SWAP1 PUSH2 0x4AC JUMP JUMPDEST PUSH1 0x40 MLOAD DUP1 SWAP2 SUB SWAP1 RETURN JUMPDEST PUSH2 0x117 PUSH2 0x2A0 JUMP JUMPDEST PUSH1 0x40 MLOAD PUSH2 0x124 SWAP2 SWAP1 PUSH2 0x4AC JUMP JUMPDEST PUSH1 0x40 MLOAD DUP1 SWAP2 SUB SWAP1 RETURN JUMPDEST PUSH2 0x147 PUSH1 0x4 DUP1 CALLDATASIZE SUB DUP2 ADD SWAP1 PUSH2 0x142 SWAP2 SWAP1 PUSH2 0x605 JUMP JUMPDEST PUSH2 0x2A5 JUMP JUMPDEST PUSH1 0x40 MLOAD PUSH2 0x154 SWAP2 SWAP1 PUSH2 0x4AC JUMP JUMPDEST PUSH1 0x40 MLOAD DUP1 SWAP2 SUB SWAP1 RETURN JUMPDEST PUSH2 0x177 PUSH1 0x4 DUP1 CALLDATASIZE SUB DUP2 ADD SWAP1 PUSH2 0x172 SWAP2 SWAP1 PUSH2 0x3E2 JUMP JUMPDEST PUSH2 0x31B JUMP JUMPDEST STOP JUMPDEST PUSH2 0x193 PUSH1 0x4 DUP1 CALLDATASIZE SUB DUP2 ADD SWAP1 PUSH2 0x18E SWAP2 SWAP1 PUSH2 0x605 JUMP JUMPDEST PUSH2 0x32C JUMP JUMPDEST PUSH1 0x40 MLOAD PUSH2 0x1A0 SWAP2 SWAP1 PUSH2 0x4AC JUMP JUMPDEST PUSH1 0x40 MLOAD DUP1 SWAP2 SUB SWAP1 RETURN JUMPDEST PUSH1 0x60 PUSH0 PUSH1 0x2 DUP4 PUSH2 0x1B9 SWAP2 SWAP1 PUSH2 0x679 JUMP JUMPDEST SUB PUSH2 0x1FB JUMPI PUSH1 0x40 MLOAD DUP1 PUSH1 0x40 ADD PUSH1 0x40 MSTORE DUP1 PUSH1 0x4 DUP2 MSTORE PUSH1 0x20 ADD PUSH32 0x4576656E00000000000000000000000000000000000000000000000000000000 DUP2 MSTORE POP SWAP1 POP PUSH2 0x234 JUMP JUMPDEST PUSH1 0x40 MLOAD DUP1 PUSH1 0x40 ADD PUSH1 0x40 MSTORE DUP1 PUSH1 0x3 DUP2 MSTORE PUSH1 0x20 ADD PUSH32 0x4F64640000000000000000000000000000000000000000000000000000000000 DUP2 MSTORE POP SWAP1 POP JUMPDEST SWAP2 SWAP1 POP JUMP JUMPDEST PUSH0 DUP1 DUP3 SWAP1 POP JUMPDEST PUSH0 DUP2 GT ISZERO PUSH2 0x25A JUMPI DUP1 DUP1 PUSH2 0x252 SWAP1 PUSH2 0x6D6 JUMP JUMPDEST SWAP2 POP POP PUSH2 0x23F JUMP JUMPDEST DUP1 SWAP2 POP POP SWAP2 SWAP1 POP JUMP JUMPDEST PUSH0 DUP1 PUSH0 SWAP1 POP PUSH0 PUSH1 0x1 SWAP1 POP JUMPDEST DUP4 DUP2 GT PUSH2 0x296 JUMPI DUP1 DUP3 PUSH2 0x281 SWAP2 SWAP1 PUSH2 0x6FD JUMP JUMPDEST SWAP2 POP DUP1 DUP1 PUSH2 0x28E SWAP1 PUSH2 0x730 JUMP JUMPDEST SWAP2 POP POP PUSH2 0x26E JUMP JUMPDEST POP DUP1 SWAP2 POP POP SWAP2 SWAP1 POP JUMP JUMPDEST PUSH0 SLOAD DUP2 JUMP JUMPDEST PUSH0 DUP1 PUSH0 SWAP1 POP JUMPDEST DUP3 MLOAD DUP2 LT ISZERO PUSH2 0x311 JUMPI PUSH0 PUSH1 0x2 DUP5 DUP4 DUP2 MLOAD DUP2 LT PUSH2 0x2CA JUMPI PUSH2 0x2C9 PUSH2 0x777 JUMP JUMPDEST JUMPDEST PUSH1 0x20 MUL PUSH1 0x20 ADD ADD MLOAD PUSH2 0x2DC SWAP2 SWAP1 PUSH2 0x679 JUMP JUMPDEST SUB PUSH2 0x304 JUMPI DUP3 DUP2 DUP2 MLOAD DUP2 LT PUSH2 0x2F4 JUMPI PUSH2 0x2F3 PUSH2 0x777 JUMP JUMPDEST JUMPDEST PUSH1 0x20 MUL PUSH1 0x20 ADD ADD MLOAD SWAP2 POP POP PUSH2 0x316 JUMP JUMPDEST DUP1 DUP1 PUSH1 0x1 ADD SWAP2 POP POP PUSH2 0x2AB JUMP JUMPDEST POP PUSH0 SWAP1 POP JUMPDEST SWAP2 SWAP1 POP JUMP JUMPDEST PUSH2 0x324 DUP2 PUSH2 0x263 JUMP JUMPDEST PUSH0 DUP2 SWAP1 SSTORE POP POP JUMP JUMPDEST PUSH0 DUP1 PUSH0 SWAP1 POP PUSH0 JUMPDEST DUP4 MLOAD DUP2 LT ISZERO PUSH2 0x394 JUMPI PUSH0 DUP5 DUP3 DUP2 MLOAD DUP2 LT PUSH2 0x350 JUMPI PUSH2 0x34F PUSH2 0x777 JUMP JUMPDEST JUMPDEST PUSH1 0x20 MUL PUSH1 0x20 ADD ADD MLOAD SUB ISZERO PUSH2 0x387 JUMPI DUP4 DUP2 DUP2 MLOAD DUP2 LT PUSH2 0x371 JUMPI PUSH2 0x370 PUSH2 0x777 JUMP JUMPDEST JUMPDEST PUSH1 0x20 MUL PUSH1 0x20 ADD ADD MLOAD DUP3 PUSH2 0x384 SWAP2 SWAP1 PUSH2 0x6FD JUMP JUMPDEST SWAP2 POP JUMPDEST DUP1 DUP1 PUSH1 0x1 ADD SWAP2 POP POP PUSH2 0x333 JUMP JUMPDEST POP DUP1 SWAP2 POP POP SWAP2 SWAP1 POP JUMP JUMPDEST PUSH0 PUSH1 0x40 MLOAD SWAP1 POP SWAP1 JUMP JUMPDEST PUSH0 DUP1 REVERT JUMPDEST PUSH0 DUP1 REVERT JUMPDEST PUSH0 DUP2 SWAP1 POP SWAP2 SWAP1 POP JUMP JUMPDEST PUSH2 0x3C1 DUP2 PUSH2 0x3AF JUMP JUMPDEST DUP2 EQ PUSH2 0x3CB JUMPI PUSH0 DUP1 REVERT JUMPDEST POP JUMP JUMPDEST PUSH0 DUP2 CALLDATALOAD SWAP1 POP PUSH2 0x3DC DUP2 PUSH2 0x3B8 JUMP JUMPDEST SWAP3 SWAP2 POP POP JUMP JUMPDEST PUSH0 PUSH1 0x20 DUP3 DUP5 SUB SLT ISZERO PUSH2 0x3F7 JUMPI PUSH2 0x3F6 PUSH2 0x3A7 JUMP JUMPDEST JUMPDEST PUSH0 PUSH2 0x404 DUP5 DUP3 DUP6 ADD PUSH2 0x3CE JUMP JUMPDEST SWAP2 POP POP SWAP3 SWAP2 POP POP JUMP JUMPDEST PUSH0 DUP2 MLOAD SWAP1 POP SWAP2 SWAP1 POP JUMP JUMPDEST PUSH0 DUP3 DUP3 MSTORE PUSH1 0x20 DUP3 ADD SWAP1 POP SWAP3 SWAP2 POP POP JUMP JUMPDEST DUP3 DUP2 DUP4 MCOPY PUSH0 DUP4 DUP4 ADD MSTORE POP POP POP JUMP JUMPDEST PUSH0 PUSH1 0x1F NOT PUSH1 0x1F DUP4 ADD AND SWAP1 POP SWAP2 SWAP1 POP JUMP JUMPDEST PUSH0 PUSH2 0x44F DUP3 PUSH2 0x40D JUMP JUMPDEST PUSH2 0x459 DUP2 DUP6 PUSH2 0x417 JUMP JUMPDEST SWAP4 POP PUSH2 0x469 DUP2 DUP6 PUSH1 0x20 DUP7 ADD PUSH2 0x427 JUMP JUMPDEST PUSH2 0x472 DUP2 PUSH2 0x435 JUMP JUMPDEST DUP5 ADD SWAP2 POP POP SWAP3 SWAP2 POP POP JUMP JUMPDEST PUSH0 PUSH1 0x20 DUP3 ADD SWAP1 POP DUP2 DUP2 SUB PUSH0 DUP4 ADD MSTORE PUSH2 0x495 DUP2 DUP5 PUSH2 0x445 JUMP JUMPDEST SWAP1 POP SWAP3 SWAP2 POP POP JUMP JUMPDEST PUSH2 0x4A6 DUP2 PUSH2 0x3AF JUMP JUMPDEST DUP3 MSTORE POP POP JUMP JUMPDEST PUSH0 PUSH1 0x20 DUP3 ADD SWAP1 POP PUSH2 0x4BF PUSH0 DUP4 ADD DUP5 PUSH2 0x49D JUMP JUMPDEST SWAP3 SWAP2 POP POP JUMP JUMPDEST PUSH0 DUP1 REVERT JUMPDEST PUSH32 0x4E487B7100000000000000000000000000000000000000000000000000000000 PUSH0 MSTORE PUSH1 0x41 PUSH1 0x4 MSTORE PUSH1 0x24 PUSH0 REVERT JUMPDEST PUSH2 0x4FF DUP3 PUSH2 0x435 JUMP JUMPDEST DUP2 ADD DUP2 DUP2 LT PUSH8 0xFFFFFFFFFFFFFFFF DUP3 GT OR ISZERO PUSH2 0x51E JUMPI PUSH2 0x51D PUSH2 0x4C9 JUMP JUMPDEST JUMPDEST DUP1 PUSH1 0x40 MSTORE POP POP POP JUMP JUMPDEST PUSH0 PUSH2 0x530 PUSH2 0x39E JUMP JUMPDEST SWAP1 POP PUSH2 0x53C DUP3 DUP3 PUSH2 0x4F6 JUMP JUMPDEST SWAP2 SWAP1 POP JUMP JUMPDEST PUSH0 PUSH8 0xFFFFFFFFFFFFFFFF DUP3 GT ISZERO PUSH2 0x55B JUMPI PUSH2 0x55A PUSH2 0x4C9 JUMP JUMPDEST JUMPDEST PUSH1 0x20 DUP3 MUL SWAP1 POP PUSH1 0x20 DUP2 ADD SWAP1 POP SWAP2 SWAP1 POP JUMP JUMPDEST PUSH0 DUP1 REVERT JUMPDEST PUSH0 PUSH2 0x582 PUSH2 0x57D DUP5 PUSH2 0x541 JUMP JUMPDEST PUSH2 0x527 JUMP JUMPDEST SWAP1 POP DUP1 DUP4 DUP3 MSTORE PUSH1 0x20 DUP3 ADD SWAP1 POP PUSH1 0x20 DUP5 MUL DUP4 ADD DUP6 DUP2 GT ISZERO PUSH2 0x5A5 JUMPI PUSH2 0x5A4 PUSH2 0x56C JUMP JUMPDEST JUMPDEST DUP4 JUMPDEST DUP2 DUP2 LT ISZERO PUSH2 0x5CE JUMPI DUP1 PUSH2 0x5BA DUP9 DUP3 PUSH2 0x3CE JUMP JUMPDEST DUP5 MSTORE PUSH1 0x20 DUP5 ADD SWAP4 POP POP PUSH1 0x20 DUP2 ADD SWAP1 POP PUSH2 0x5A7 JUMP JUMPDEST POP POP POP SWAP4 SWAP3 POP POP POP JUMP JUMPDEST PUSH0 DUP3 PUSH1 0x1F DUP4 ADD SLT PUSH2 0x5EC JUMPI PUSH2 0x5EB PUSH2 0x4C5 JUMP JUMPDEST JUMPDEST DUP2 CALLDATALOAD PUSH2 0x5FC DUP5 DUP3 PUSH1 0x20 DUP7 ADD PUSH2 0x570 JUMP JUMPDEST SWAP2 POP POP SWAP3 SWAP2 POP POP JUMP JUMPDEST PUSH0 PUSH1 0x20 DUP3 DUP5 SUB SLT ISZERO PUSH2 0x61A JUMPI PUSH2 0x619 PUSH2 0x3A7 JUMP JUMPDEST JUMPDEST PUSH0 DUP3 ADD CALLDATALOAD PUSH8 0xFFFFFFFFFFFFFFFF DUP2 GT ISZERO PUSH2 0x637 JUMPI PUSH2 0x636 PUSH2 0x3AB JUMP JUMPDEST JUMPDEST PUSH2 0x643 DUP5 DUP3 DUP6 ADD PUSH2 0x5D8 JUMP JUMPDEST SWAP2 POP POP SWAP3 SWAP2 POP POP JUMP JUMPDEST PUSH32 0x4E487B7100000000000000000000000000000000000000000000000000000000 PUSH0 MSTORE PUSH1 0x12 PUSH1 0x4 MSTORE PUSH1 0x24 PUSH0 REVERT JUMPDEST PUSH0 PUSH2 0x683 DUP3 PUSH2 0x3AF JUMP JUMPDEST SWAP2 POP PUSH2 0x68E DUP4 PUSH2 0x3AF JUMP JUMPDEST SWAP3 POP DUP3 PUSH2 0x69E JUMPI PUSH2 0x69D PUSH2 0x64C JUMP JUMPDEST JUMPDEST DUP3 DUP3 MOD SWAP1 POP SWAP3 SWAP2 POP POP JUMP JUMPDEST PUSH32 0x4E487B7100000000000000000000000000000000000000000000000000000000 PUSH0 MSTORE PUSH1 0x11 PUSH1 0x4 MSTORE PUSH1 0x24 PUSH0 REVERT JUMPDEST PUSH0 PUSH2 0x6E0 DUP3 PUSH2 0x3AF JUMP JUMPDEST SWAP2 POP PUSH0 DUP3 SUB PUSH2 0x6F2 JUMPI PUSH2 0x6F1 PUSH2 0x6A9 JUMP JUMPDEST JUMPDEST PUSH1 0x1 DUP3 SUB SWAP1 POP SWAP2 SWAP1 POP JUMP JUMPDEST PUSH0 PUSH2 0x707 DUP3 PUSH2 0x3AF JUMP JUMPDEST SWAP2 POP PUSH2 0x712 DUP4 PUSH2 0x3AF JUMP JUMPDEST SWAP3 POP DUP3 DUP3 ADD SWAP1 POP DUP1 DUP3 GT ISZERO PUSH2 0x72A JUMPI PUSH2 0x729 PUSH2 0x6A9 JUMP JUMPDEST JUMPDEST SWAP3 SWAP2 POP POP JUMP JUMPDEST PUSH0 PUSH2 0x73A DUP3 PUSH2 0x3AF JUMP JUMPDEST SWAP2 POP PUSH32 0xFFFFFFFFFFFFFFFFFFFFFFFFFFFFFFFFFFFFFFFFFFFFFFFFFFFFFFFFFFFFFFFF DUP3 SUB PUSH2 0x76C JUMPI PUSH2 0x76B PUSH2 0x6A9 JUMP JUMPDEST JUMPDEST PUSH1 0x1 DUP3 ADD SWAP1 POP SWAP2 SWAP1 POP JUMP JUMPDEST PUSH32 0x4E487B7100000000000000000000000000000000000000000000000000000000 PUSH0 MSTORE PUSH1 0x32 PUSH1 0x4 MSTORE PUSH1 0x24 PUSH0 REVERT INVALID LOG2 PUSH5 0x6970667358 0x22 SLT KECCAK256 0xBA PUSH17 0xF82A4FAC01676CACE87AD1B4079BD25E81 0x2B PC SIGNEXTEND 0x26 0xD4 0xB1 PUSH20 0x1284832042B464736F6C634300081A0033000000 "
				},
				"gasEstimates": {
					"creation": {
						"codeDepositCost": "402000",
						"executionCost": "434",
						"totalCost": "402434"
					},
					"external": {
						"countDown(uint256)": "infinite",
						"findFirstEven(uint256[])": "infinite",
						"isEven(uint256)": "infinite",
						"storeSum(uint256)": "infinite",
						"storedResult()": "2424",
						"sumNonZero(uint256[])": "infinite",
						"sumUpTo(uint256)": "infinite"
					}
				},
				"methodIdentifiers": {
					"countDown(uint256)": "3b396421",
					"findFirstEven(uint256[])": "b9d0f03b",
					"isEven(uint256)": "2a2e1320",
					"storeSum(uint256)": "e1bf15c4",
					"storedResult()": "4d1a82b7",
					"sumNonZero(uint256[])": "fc4bc4d7",
					"sumUpTo(uint256)": "4bedd12d"
				}
			},
			"storageLayout": {
				"storage": [
					{
						"astId": 4,
						"contract": "contracts/control.sol:FunctionControlDemo",
						"label": "storedResult",
						"offset": 0,
						"slot": "0",
						"type": "t_uint256"
					}
				],
				"types": {
					"t_uint256": {
						"encoding": "inplace",
						"label": "uint256",
						"numberOfBytes": "32"
					}
				}
			},
			"userdoc": {
				"kind": "user",
				"methods": {},
				"notice": "1.conditional statements=if,if-else,else-if statements 2.loops-for,while,do-whlie loops*",
				"version": 1
			}
		}
	}
}