{
	"contracts/first.sol": {
		"VisibilityModifiers": {
			"abi": [
				{
					"inputs": [],
					"name": "externalFunction",
					"outputs": [
						{
							"internalType": "uint256",
							"name": "",
							"type": "uint256"
						}
					],
					"stateMutability": "view",
					"type": "function"
				},
				{
					"inputs": [],
					"name": "publicFunction",
					"outputs": [
						{
							"internalType": "uint256",
							"name": "",
							"type": "uint256"
						}
					],
					"stateMutability": "view",
					"type": "function"
				},
				{
					"inputs": [],
					"name": "publicVariable",
					"outputs": [
						{
							"internalType": "uint256",
							"name": "",
							"type": "uint256"
						}
					],
					"stateMutability": "view",
					"type": "function"
				},
				{
					"inputs": [],
					"name": "testVisibility",
					"outputs": [
						{
							"internalType": "uint256",
							"name": "",
							"type": "uint256"
						}
					],
					"stateMutability": "view",
					"type": "function"
				}
			],
			"devdoc": {
				"kind": "dev",
				"methods": {},
				"version": 1
			},
			"evm": {
				"assembly": "    /* \"contracts/first.sol\":2618:4124  contract VisibilityModifiers {... */\n  mstore(0x40, 0x80)\n    /* \"contracts/first.sol\":2683:2685  10 */\n  0x0a\n    /* \"contracts/first.sol\":2654:2685  uint public publicVariable = 10 */\n  0x00\n  sstore\n    /* \"contracts/first.sol\":2783:2785  20 */\n  0x14\n    /* \"contracts/first.sol\":2750:2785  uint internal internalVariable = 20 */\n  0x01\n  sstore\n    /* \"contracts/first.sol\":2879:2881  30 */\n  0x1e\n    /* \"contracts/first.sol\":2848:2881  uint private privateVariable = 30 */\n  0x02\n  sstore\n    /* \"contracts/first.sol\":2618:4124  contract VisibilityModifiers {... */\n  callvalue\n  dup1\n  iszero\n  tag_1\n  jumpi\n  0x00\n  dup1\n  revert\ntag_1:\n  pop\n  dataSize(sub_0)\n  dup1\n  dataOffset(sub_0)\n  0x00\n  codecopy\n  0x00\n  return\nstop\n\nsub_0: assembly {\n        /* \"contracts/first.sol\":2618:4124  contract VisibilityModifiers {... */\n      mstore(0x40, 0x80)\n      callvalue\n      dup1\n      iszero\n      tag_1\n      jumpi\n      0x00\n      dup1\n      revert\n    tag_1:\n      pop\n      jumpi(tag_2, lt(calldatasize, 0x04))\n      shr(0xe0, calldataload(0x00))\n      dup1\n      0x0dc43068\n      eq\n      tag_3\n      jumpi\n      dup1\n      0x3a32b549\n      eq\n      tag_4\n      jumpi\n      dup1\n      0x77aaa135\n      eq\n      tag_5\n      jumpi\n      dup1\n      0x7b5d520b\n      eq\n      tag_6\n      jumpi\n    tag_2:\n      0x00\n      dup1\n      revert\n        /* \"contracts/first.sol\":3705:4121  function testVisibility() public view returns (uint) {... */\n    tag_3:\n      tag_7\n      tag_8\n      jump\t// in\n    tag_7:\n      mload(0x40)\n      tag_9\n      swap2\n      swap1\n      tag_10\n      jump\t// in\n    tag_9:\n      mload(0x40)\n      dup1\n      swap2\n      sub\n      swap1\n      return\n        /* \"contracts/first.sol\":3517:3614  function externalFunction() external view returns (uint) {... */\n    tag_4:\n      tag_11\n      tag_12\n      jump\t// in\n    tag_11:\n      mload(0x40)\n      tag_13\n      swap2\n      swap1\n      tag_10\n      jump\t// in\n    tag_13:\n      mload(0x40)\n      dup1\n      swap2\n      sub\n      swap1\n      return\n        /* \"contracts/first.sol\":2654:2685  uint public publicVariable = 10 */\n    tag_5:\n      tag_14\n      tag_15\n      jump\t// in\n    tag_14:\n      mload(0x40)\n      tag_16\n      swap2\n      swap1\n      tag_10\n      jump\t// in\n    tag_16:\n      mload(0x40)\n      dup1\n      swap2\n      sub\n      swap1\n      return\n        /* \"contracts/first.sol\":2994:3087  function publicFunction() public view returns (uint) {... */\n    tag_6:\n      tag_17\n      tag_18\n      jump\t// in\n    tag_17:\n      mload(0x40)\n      tag_19\n      swap2\n      swap1\n      tag_10\n      jump\t// in\n    tag_19:\n      mload(0x40)\n      dup1\n      swap2\n      sub\n      swap1\n      return\n        /* \"contracts/first.sol\":3705:4121  function testVisibility() public view returns (uint) {... */\n    tag_8:\n        /* \"contracts/first.sol\":3752:3756  uint */\n      0x00\n        /* \"contracts/first.sol\":3769:3777  uint sum */\n      dup1\n        /* \"contracts/first.sol\":3780:3796  publicFunction() */\n      tag_21\n        /* \"contracts/first.sol\":3780:3794  publicFunction */\n      tag_18\n        /* \"contracts/first.sol\":3780:3796  publicFunction() */\n      jump\t// in\n    tag_21:\n        /* \"contracts/first.sol\":3769:3796  uint sum = publicFunction() */\n      swap1\n      pop\n        /* \"contracts/first.sol\":3858:3876  internalFunction() */\n      tag_22\n        /* \"contracts/first.sol\":3858:3874  internalFunction */\n      tag_23\n        /* \"contracts/first.sol\":3858:3876  internalFunction() */\n      jump\t// in\n    tag_22:\n        /* \"contracts/first.sol\":3851:3876  sum += internalFunction() */\n      dup2\n      tag_24\n      swap2\n      swap1\n      tag_25\n      jump\t// in\n    tag_24:\n      swap1\n      pop\n        /* \"contracts/first.sol\":4110:4113  sum */\n      dup1\n        /* \"contracts/first.sol\":4103:4113  return sum */\n      swap2\n      pop\n      pop\n        /* \"contracts/first.sol\":3705:4121  function testVisibility() public view returns (uint) {... */\n      swap1\n      jump\t// out\n        /* \"contracts/first.sol\":3517:3614  function externalFunction() external view returns (uint) {... */\n    tag_12:\n        /* \"contracts/first.sol\":3568:3572  uint */\n      0x00\n        /* \"contracts/first.sol\":3592:3606  publicVariable */\n      dup1\n      sload\n        /* \"contracts/first.sol\":3585:3606  return publicVariable */\n      swap1\n      pop\n        /* \"contracts/first.sol\":3517:3614  function externalFunction() external view returns (uint) {... */\n      swap1\n      jump\t// out\n        /* \"contracts/first.sol\":2654:2685  uint public publicVariable = 10 */\n    tag_15:\n      sload(0x00)\n      dup2\n      jump\t// out\n        /* \"contracts/first.sol\":2994:3087  function publicFunction() public view returns (uint) {... */\n    tag_18:\n        /* \"contracts/first.sol\":3041:3045  uint */\n      0x00\n        /* \"contracts/first.sol\":3065:3079  publicVariable */\n      dup1\n      sload\n        /* \"contracts/first.sol\":3058:3079  return publicVariable */\n      swap1\n      pop\n        /* \"contracts/first.sol\":2994:3087  function publicFunction() public view returns (uint) {... */\n      swap1\n      jump\t// out\n        /* \"contracts/first.sol\":3176:3275  function internalFunction() internal view returns (uint) {... */\n    tag_23:\n        /* \"contracts/first.sol\":3227:3231  uint */\n      0x00\n        /* \"contracts/first.sol\":3251:3267  internalVariable */\n      sload(0x01)\n        /* \"contracts/first.sol\":3244:3267  return internalVariable */\n      swap1\n      pop\n        /* \"contracts/first.sol\":3176:3275  function internalFunction() internal view returns (uint) {... */\n      swap1\n      jump\t// out\n        /* \"#utility.yul\":7:84   */\n    tag_29:\n        /* \"#utility.yul\":44:51   */\n      0x00\n        /* \"#utility.yul\":73:78   */\n      dup2\n        /* \"#utility.yul\":62:78   */\n      swap1\n      pop\n        /* \"#utility.yul\":7:84   */\n      swap2\n      swap1\n      pop\n      jump\t// out\n        /* \"#utility.yul\":90:208   */\n    tag_30:\n        /* \"#utility.yul\":177:201   */\n      tag_35\n        /* \"#utility.yul\":195:200   */\n      dup2\n        /* \"#utility.yul\":177:201   */\n      tag_29\n      jump\t// in\n    tag_35:\n        /* \"#utility.yul\":172:175   */\n      dup3\n        /* \"#utility.yul\":165:202   */\n      mstore\n        /* \"#utility.yul\":90:208   */\n      pop\n      pop\n      jump\t// out\n        /* \"#utility.yul\":214:436   */\n    tag_10:\n        /* \"#utility.yul\":307:311   */\n      0x00\n        /* \"#utility.yul\":345:347   */\n      0x20\n        /* \"#utility.yul\":334:343   */\n      dup3\n        /* \"#utility.yul\":330:348   */\n      add\n        /* \"#utility.yul\":322:348   */\n      swap1\n      pop\n        /* \"#utility.yul\":358:429   */\n      tag_37\n        /* \"#utility.yul\":426:427   */\n      0x00\n        /* \"#utility.yul\":415:424   */\n      dup4\n        /* \"#utility.yul\":411:428   */\n      add\n        /* \"#utility.yul\":402:408   */\n      dup5\n        /* \"#utility.yul\":358:429   */\n      tag_30\n      jump\t// in\n    tag_37:\n        /* \"#utility.yul\":214:436   */\n      swap3\n      swap2\n      pop\n      pop\n      jump\t// out\n        /* \"#utility.yul\":442:622   */\n    tag_31:\n        /* \"#utility.yul\":490:567   */\n      0x4e487b7100000000000000000000000000000000000000000000000000000000\n        /* \"#utility.yul\":487:488   */\n      0x00\n        /* \"#utility.yul\":480:568   */\n      mstore\n        /* \"#utility.yul\":587:591   */\n      0x11\n        /* \"#utility.yul\":584:585   */\n      0x04\n        /* \"#utility.yul\":577:592   */\n      mstore\n        /* \"#utility.yul\":611:615   */\n      0x24\n        /* \"#utility.yul\":608:609   */\n      0x00\n        /* \"#utility.yul\":601:616   */\n      revert\n        /* \"#utility.yul\":628:819   */\n    tag_25:\n        /* \"#utility.yul\":668:671   */\n      0x00\n        /* \"#utility.yul\":687:707   */\n      tag_40\n        /* \"#utility.yul\":705:706   */\n      dup3\n        /* \"#utility.yul\":687:707   */\n      tag_29\n      jump\t// in\n    tag_40:\n        /* \"#utility.yul\":682:707   */\n      swap2\n      pop\n        /* \"#utility.yul\":721:741   */\n      tag_41\n        /* \"#utility.yul\":739:740   */\n      dup4\n        /* \"#utility.yul\":721:741   */\n      tag_29\n      jump\t// in\n    tag_41:\n        /* \"#utility.yul\":716:741   */\n      swap3\n      pop\n        /* \"#utility.yul\":764:765   */\n      dup3\n        /* \"#utility.yul\":761:762   */\n      dup3\n        /* \"#utility.yul\":757:766   */\n      add\n        /* \"#utility.yul\":750:766   */\n      swap1\n      pop\n        /* \"#utility.yul\":785:788   */\n      dup1\n        /* \"#utility.yul\":782:783   */\n      dup3\n        /* \"#utility.yul\":779:789   */\n      gt\n        /* \"#utility.yul\":776:812   */\n      iszero\n      tag_42\n      jumpi\n        /* \"#utility.yul\":792:810   */\n      tag_43\n      tag_31\n      jump\t// in\n    tag_43:\n        /* \"#utility.yul\":776:812   */\n    tag_42:\n        /* \"#utility.yul\":628:819   */\n      swap3\n      swap2\n      pop\n      pop\n      jump\t// out\n\n    auxdata: 0xa26469706673582212202e8e9c6b6584e1704439bba3d5c859ff4a348755b4f700b393d204b2727e73d664736f6c634300081a0033\n}\n",
				"bytecode": {
					"linkReferences": {},
					"object": "6080604052600a5f556014600155601e600255348015601c575f80fd5b506101d38061002a5f395ff3fe608060405234801561000f575f80fd5b506004361061004a575f3560e01c80630dc430681461004e5780633a32b5491461006c57806377aaa1351461008a5780637b5d520b146100a8575b5f80fd5b6100566100c6565b6040516100639190610124565b60405180910390f35b6100746100ee565b6040516100819190610124565b60405180910390f35b6100926100f6565b60405161009f9190610124565b60405180910390f35b6100b06100fb565b6040516100bd9190610124565b60405180910390f35b5f806100d06100fb565b90506100da610103565b816100e5919061016a565b90508091505090565b5f8054905090565b5f5481565b5f8054905090565b5f600154905090565b5f819050919050565b61011e8161010c565b82525050565b5f6020820190506101375f830184610115565b92915050565b7f4e487b71000000000000000000000000000000000000000000000000000000005f52601160045260245ffd5b5f6101748261010c565b915061017f8361010c565b92508282019050808211156101975761019661013d565b5b9291505056fea26469706673582212202e8e9c6b6584e1704439bba3d5c859ff4a348755b4f700b393d204b2727e73d664736f6c634300081a0033",
					"opcodes": "PUSH1 0x80 PUSH1 0x40 MSTORE PUSH1 0xA PUSH0 SSTORE PUSH1 0x14 PUSH1 0x1 SSTORE PUSH1 0x1E PUSH1 0x2 SSTORE CALLVALUE DUP1 ISZERO PUSH1 0x1C JUMPI PUSH0 DUP1 REVERT JUMPDEST POP PUSH2 0x1D3 DUP1 PUSH2 0x2A PUSH0 CODECOPY PUSH0 RETURN INVALID PUSH1 0x80 PUSH1 0x40 MSTORE CALLVALUE DUP1 ISZERO PUSH2 0xF JUMPI PUSH0 DUP1 REVERT JUMPDEST POP PUSH1 0x4 CALLDATASIZE LT PUSH2 0x4A JUMPI PUSH0 CALLDATALOAD PUSH1 0xE0 SHR DUP1 PUSH4 0xDC43068 EQ PUSH2 0x4E JUMPI DUP1 PUSH4 0x3A32B549 EQ PUSH2 0x6C JUMPI DUP1 PUSH4 0x77AAA135 EQ PUSH2 0x8A JUMPI DUP1 PUSH4 0x7B5D520B EQ PUSH2 0xA8 JUMPI JUMPDEST PUSH0 DUP1 REVERT JUMPDEST PUSH2 0x56 PUSH2 0xC6 JUMP JUMPDEST PUSH1 0x40 MLOAD PUSH2 0x63 SWAP2 SWAP1 PUSH2 0x124 JUMP JUMPDEST PUSH1 0x40 MLOAD DUP1 SWAP2 SUB SWAP1 RETURN JUMPDEST PUSH2 0x74 PUSH2 0xEE JUMP JUMPDEST PUSH1 0x40 MLOAD PUSH2 0x81 SWAP2 SWAP1 PUSH2 0x124 JUMP JUMPDEST PUSH1 0x40 MLOAD DUP1 SWAP2 SUB SWAP1 RETURN JUMPDEST PUSH2 0x92 PUSH2 0xF6 JUMP JUMPDEST PUSH1 0x40 MLOAD PUSH2 0x9F SWAP2 SWAP1 PUSH2 0x124 JUMP JUMPDEST PUSH1 0x40 MLOAD DUP1 SWAP2 SUB SWAP1 RETURN JUMPDEST PUSH2 0xB0 PUSH2 0xFB JUMP JUMPDEST PUSH1 0x40 MLOAD PUSH2 0xBD SWAP2 SWAP1 PUSH2 0x124 JUMP JUMPDEST PUSH1 0x40 MLOAD DUP1 SWAP2 SUB SWAP1 RETURN JUMPDEST PUSH0 DUP1 PUSH2 0xD0 PUSH2 0xFB JUMP JUMPDEST SWAP1 POP PUSH2 0xDA PUSH2 0x103 JUMP JUMPDEST DUP2 PUSH2 0xE5 SWAP2 SWAP1 PUSH2 0x16A JUMP JUMPDEST SWAP1 POP DUP1 SWAP2 POP POP SWAP1 JUMP JUMPDEST PUSH0 DUP1 SLOAD SWAP1 POP SWAP1 JUMP JUMPDEST PUSH0 SLOAD DUP2 JUMP JUMPDEST PUSH0 DUP1 SLOAD SWAP1 POP SWAP1 JUMP JUMPDEST PUSH0 PUSH1 0x1 SLOAD SWAP1 POP SWAP1 JUMP JUMPDEST PUSH0 DUP2 SWAP1 POP SWAP2 SWAP1 POP JUMP JUMPDEST PUSH2 0x11E DUP2 PUSH2 0x10C JUMP JUMPDEST DUP3 MSTORE POP POP JUMP JUMPDEST PUSH0 PUSH1 0x20 DUP3 ADD SWAP1 POP PUSH2 0x137 PUSH0 DUP4 ADD DUP5 PUSH2 0x115 JUMP JUMPDEST SWAP3 SWAP2 POP POP JUMP JUMPDEST PUSH32 0x4E487B7100000000000000000000000000000000000000000000000000000000 PUSH0 MSTORE PUSH1 0x11 PUSH1 0x4 MSTORE PUSH1 0x24 PUSH0 REVERT JUMPDEST PUSH0 PUSH2 0x174 DUP3 PUSH2 0x10C JUMP JUMPDEST SWAP2 POP PUSH2 0x17F DUP4 PUSH2 0x10C JUMP JUMPDEST SWAP3 POP DUP3 DUP3 ADD SWAP1 POP DUP1 DUP3 GT ISZERO PUSH2 0x197 JUMPI PUSH2 0x196 PUSH2 0x13D JUMP JUMPDEST JUMPDEST SWAP3 SWAP2 POP POP JUMP INVALID LOG2 PUSH5 0x6970667358 0x22 SLT KECCAK256 0x2E DUP15 SWAP13 PUSH12 0x6584E1704439BBA3D5C859FF BLOBBASEFEE CALLVALUE DUP8 SSTORE 0xB4 0xF7 STOP 0xB3 SWAP4 0xD2 DIV 0xB2 PUSH19 0x7E73D664736F6C634300081A00330000000000 "
				},
				"gasEstimates": {
					"creation": {
						"codeDepositCost": "93400",
						"executionCost": "66456",
						"totalCost": "159856"
					},
					"external": {
						"externalFunction()": "2432",
						"publicFunction()": "2476",
						"publicVariable()": "2446",
						"testVisibility()": "infinite"
					},
					"internal": {
						"internalFunction()": "2122",
						"privateFunction()": "infinite"
					}
				},
				"methodIdentifiers": {
					"externalFunction()": "3a32b549",
					"publicFunction()": "7b5d520b",
					"publicVariable()": "77aaa135",
					"testVisibility()": "0dc43068"
				}
			},
			"storageLayout": {
				"storage": [
					{
						"astId": 79,
						"contract": "contracts/first.sol:VisibilityModifiers",
						"label": "publicVariable",
						"offset": 0,
						"slot": "0",
						"type": "t_uint256"
					},
					{
						"astId": 82,
						"contract": "contracts/first.sol:VisibilityModifiers",
						"label": "internalVariable",
						"offset": 0,
						"slot": "1",
						"type": "t_uint256"
					},
					{
						"astId": 85,
						"contract": "contracts/first.sol:VisibilityModifiers",
						"label": "privateVariable",
						"offset": 0,
						"slot": "2",
						"type": "t_uint256"
					}
				],
				"types": {
					"t_uint256": {
						"encoding": "inplace",
						"label": "uint256",
						"numberOfBytes": "32"
					}
				}
			},
			"userdoc": {
				"kind": "user",
				"methods": {},
				"notice": "1.public= accessible by any contract 2.External= can only be called from the outside of the contract and cannot be called internally without using (this) 3.Internal= only accessible within the contract and by derived contracts(inherited contracts) 4.Private= Accessible only within the contract where it is declared.*",
				"version": 1
			}
		}
	}
}