{
	"contracts/first.sol": {
		"VariableExamples": {
			"abi": [
				{
					"inputs": [],
					"stateMutability": "nonpayable",
					"type": "constructor"
				},
				{
					"inputs": [],
					"name": "CONSTANT_VARIABLE",
					"outputs": [
						{
							"internalType": "uint256",
							"name": "",
							"type": "uint256"
						}
					],
					"stateMutability": "view",
					"type": "function"
				},
				{
					"inputs": [],
					"name": "owner",
					"outputs": [
						{
							"internalType": "address",
							"name": "",
							"type": "address"
						}
					],
					"stateMutability": "view",
					"type": "function"
				},
				{
					"inputs": [],
					"name": "stateVariable",
					"outputs": [
						{
							"internalType": "uint256",
							"name": "",
							"type": "uint256"
						}
					],
					"stateMutability": "view",
					"type": "function"
				},
				{
					"inputs": [
						{
							"internalType": "uint256",
							"name": "number",
							"type": "uint256"
						}
					],
					"name": "sumWithConstant",
					"outputs": [
						{
							"internalType": "uint256",
							"name": "",
							"type": "uint256"
						}
					],
					"stateMutability": "view",
					"type": "function"
				}
			],
			"devdoc": {
				"kind": "dev",
				"methods": {},
				"version": 1
			},
			"evm": {
				"assembly": "    /* \"contracts/first.sol\":1092:2174  contract VariableExamples {... */\n  mstore(0x40, 0x80)\n    /* \"contracts/first.sol\":1203:1206  100 */\n  0x64\n    /* \"contracts/first.sol\":1175:1206  uint public stateVariable = 100 */\n  0x00\n  sstore\n    /* \"contracts/first.sol\":1488:1614  constructor() {... */\n  callvalue\n  dup1\n  iszero\n  tag_1\n  jumpi\n  0x00\n  dup1\n  revert\ntag_1:\n  pop\n    /* \"contracts/first.sol\":1521:1531  msg.sender */\n  caller\n    /* \"contracts/first.sol\":1513:1518  owner */\n  0x01\n  0x00\n    /* \"contracts/first.sol\":1513:1531  owner = msg.sender */\n  0x0100\n  exp\n  dup2\n  sload\n  dup2\n  0xffffffffffffffffffffffffffffffffffffffff\n  mul\n  not\n  and\n  swap1\n  dup4\n  0xffffffffffffffffffffffffffffffffffffffff\n  and\n  mul\n  or\n  swap1\n  sstore\n  pop\n    /* \"contracts/first.sol\":1092:2174  contract VariableExamples {... */\n  dataSize(sub_0)\n  dup1\n  dataOffset(sub_0)\n  0x00\n  codecopy\n  0x00\n  return\nstop\n\nsub_0: assembly {\n        /* \"contracts/first.sol\":1092:2174  contract VariableExamples {... */\n      mstore(0x40, 0x80)\n      callvalue\n      dup1\n      iszero\n      tag_1\n      jumpi\n      0x00\n      dup1\n      revert\n    tag_1:\n      pop\n      jumpi(tag_2, lt(calldatasize, 0x04))\n      shr(0xe0, calldataload(0x00))\n      dup1\n      0x329a9f2e\n      eq\n      tag_3\n      jumpi\n      dup1\n      0x8da5cb5b\n      eq\n      tag_4\n      jumpi\n      dup1\n      0xe1967eae\n      eq\n      tag_5\n      jumpi\n      dup1\n      0xfae3f81b\n      eq\n      tag_6\n      jumpi\n    tag_2:\n      0x00\n      dup1\n      revert\n        /* \"contracts/first.sol\":1691:2171  function sumWithConstant(uint number) public view returns (uint) {... */\n    tag_3:\n      tag_7\n      0x04\n      dup1\n      calldatasize\n      sub\n      dup2\n      add\n      swap1\n      tag_8\n      swap2\n      swap1\n      tag_9\n      jump\t// in\n    tag_8:\n      tag_10\n      jump\t// in\n    tag_7:\n      mload(0x40)\n      tag_11\n      swap2\n      swap1\n      tag_12\n      jump\t// in\n    tag_11:\n      mload(0x40)\n      dup1\n      swap2\n      sub\n      swap1\n      return\n        /* \"contracts/first.sol\":1389:1409  address public owner */\n    tag_4:\n      tag_13\n      tag_14\n      jump\t// in\n    tag_13:\n      mload(0x40)\n      tag_15\n      swap2\n      swap1\n      tag_16\n      jump\t// in\n    tag_15:\n      mload(0x40)\n      dup1\n      swap2\n      sub\n      swap1\n      return\n        /* \"contracts/first.sol\":1175:1206  uint public stateVariable = 100 */\n    tag_5:\n      tag_17\n      tag_18\n      jump\t// in\n    tag_17:\n      mload(0x40)\n      tag_19\n      swap2\n      swap1\n      tag_12\n      jump\t// in\n    tag_19:\n      mload(0x40)\n      dup1\n      swap2\n      sub\n      swap1\n      return\n        /* \"contracts/first.sol\":1280:1323  uint public constant CONSTANT_VARIABLE = 50 */\n    tag_6:\n      tag_20\n      tag_21\n      jump\t// in\n    tag_20:\n      mload(0x40)\n      tag_22\n      swap2\n      swap1\n      tag_12\n      jump\t// in\n    tag_22:\n      mload(0x40)\n      dup1\n      swap2\n      sub\n      swap1\n      return\n        /* \"contracts/first.sol\":1691:2171  function sumWithConstant(uint number) public view returns (uint) {... */\n    tag_10:\n        /* \"contracts/first.sol\":1750:1754  uint */\n      0x00\n        /* \"contracts/first.sol\":1833:1851  uint localVariable */\n      dup1\n        /* \"contracts/first.sol\":1854:1856  10 */\n      0x0a\n        /* \"contracts/first.sol\":1833:1856  uint localVariable = 10 */\n      swap1\n      pop\n        /* \"contracts/first.sol\":1957:1978  uint currentTimestamp */\n      0x00\n        /* \"contracts/first.sol\":1981:1996  block.timestamp */\n      timestamp\n        /* \"contracts/first.sol\":1957:1996  uint currentTimestamp = block.timestamp */\n      swap1\n      pop\n        /* \"contracts/first.sol\":2147:2163  currentTimestamp */\n      dup1\n        /* \"contracts/first.sol\":2138:2144  number */\n      dup5\n        /* \"contracts/first.sol\":1321:1323  50 */\n      0x32\n        /* \"contracts/first.sol\":2102:2115  stateVariable */\n      sload(0x00)\n        /* \"contracts/first.sol\":2086:2099  localVariable */\n      dup6\n        /* \"contracts/first.sol\":2086:2115  localVariable + stateVariable */\n      tag_24\n      swap2\n      swap1\n      tag_25\n      jump\t// in\n    tag_24:\n        /* \"contracts/first.sol\":2086:2135  localVariable + stateVariable + CONSTANT_VARIABLE */\n      tag_26\n      swap2\n      swap1\n      tag_25\n      jump\t// in\n    tag_26:\n        /* \"contracts/first.sol\":2086:2144  localVariable + stateVariable + CONSTANT_VARIABLE + number */\n      tag_27\n      swap2\n      swap1\n      tag_25\n      jump\t// in\n    tag_27:\n        /* \"contracts/first.sol\":2086:2163  localVariable + stateVariable + CONSTANT_VARIABLE + number + currentTimestamp */\n      tag_28\n      swap2\n      swap1\n      tag_25\n      jump\t// in\n    tag_28:\n        /* \"contracts/first.sol\":2079:2163  return localVariable + stateVariable + CONSTANT_VARIABLE + number + currentTimestamp */\n      swap3\n      pop\n      pop\n      pop\n        /* \"contracts/first.sol\":1691:2171  function sumWithConstant(uint number) public view returns (uint) {... */\n      swap2\n      swap1\n      pop\n      jump\t// out\n        /* \"contracts/first.sol\":1389:1409  address public owner */\n    tag_14:\n      0x01\n      0x00\n      swap1\n      sload\n      swap1\n      0x0100\n      exp\n      swap1\n      div\n      0xffffffffffffffffffffffffffffffffffffffff\n      and\n      dup2\n      jump\t// out\n        /* \"contracts/first.sol\":1175:1206  uint public stateVariable = 100 */\n    tag_18:\n      sload(0x00)\n      dup2\n      jump\t// out\n        /* \"contracts/first.sol\":1280:1323  uint public constant CONSTANT_VARIABLE = 50 */\n    tag_21:\n        /* \"contracts/first.sol\":1321:1323  50 */\n      0x32\n        /* \"contracts/first.sol\":1280:1323  uint public constant CONSTANT_VARIABLE = 50 */\n      dup2\n      jump\t// out\n        /* \"#utility.yul\":88:205   */\n    tag_30:\n        /* \"#utility.yul\":197:198   */\n      0x00\n        /* \"#utility.yul\":194:195   */\n      dup1\n        /* \"#utility.yul\":187:199   */\n      revert\n        /* \"#utility.yul\":334:411   */\n    tag_32:\n        /* \"#utility.yul\":371:378   */\n      0x00\n        /* \"#utility.yul\":400:405   */\n      dup2\n        /* \"#utility.yul\":389:405   */\n      swap1\n      pop\n        /* \"#utility.yul\":334:411   */\n      swap2\n      swap1\n      pop\n      jump\t// out\n        /* \"#utility.yul\":417:539   */\n    tag_33:\n        /* \"#utility.yul\":490:514   */\n      tag_46\n        /* \"#utility.yul\":508:513   */\n      dup2\n        /* \"#utility.yul\":490:514   */\n      tag_32\n      jump\t// in\n    tag_46:\n        /* \"#utility.yul\":483:488   */\n      dup2\n        /* \"#utility.yul\":480:515   */\n      eq\n        /* \"#utility.yul\":470:533   */\n      tag_47\n      jumpi\n        /* \"#utility.yul\":529:530   */\n      0x00\n        /* \"#utility.yul\":526:527   */\n      dup1\n        /* \"#utility.yul\":519:531   */\n      revert\n        /* \"#utility.yul\":470:533   */\n    tag_47:\n        /* \"#utility.yul\":417:539   */\n      pop\n      jump\t// out\n        /* \"#utility.yul\":545:684   */\n    tag_34:\n        /* \"#utility.yul\":591:596   */\n      0x00\n        /* \"#utility.yul\":629:635   */\n      dup2\n        /* \"#utility.yul\":616:636   */\n      calldataload\n        /* \"#utility.yul\":607:636   */\n      swap1\n      pop\n        /* \"#utility.yul\":645:678   */\n      tag_49\n        /* \"#utility.yul\":672:677   */\n      dup2\n        /* \"#utility.yul\":645:678   */\n      tag_33\n      jump\t// in\n    tag_49:\n        /* \"#utility.yul\":545:684   */\n      swap3\n      swap2\n      pop\n      pop\n      jump\t// out\n        /* \"#utility.yul\":690:1019   */\n    tag_9:\n        /* \"#utility.yul\":749:755   */\n      0x00\n        /* \"#utility.yul\":798:800   */\n      0x20\n        /* \"#utility.yul\":786:795   */\n      dup3\n        /* \"#utility.yul\":777:784   */\n      dup5\n        /* \"#utility.yul\":773:796   */\n      sub\n        /* \"#utility.yul\":769:801   */\n      slt\n        /* \"#utility.yul\":766:885   */\n      iszero\n      tag_51\n      jumpi\n        /* \"#utility.yul\":804:883   */\n      tag_52\n      tag_30\n      jump\t// in\n    tag_52:\n        /* \"#utility.yul\":766:885   */\n    tag_51:\n        /* \"#utility.yul\":924:925   */\n      0x00\n        /* \"#utility.yul\":949:1002   */\n      tag_53\n        /* \"#utility.yul\":994:1001   */\n      dup5\n        /* \"#utility.yul\":985:991   */\n      dup3\n        /* \"#utility.yul\":974:983   */\n      dup6\n        /* \"#utility.yul\":970:992   */\n      add\n        /* \"#utility.yul\":949:1002   */\n      tag_34\n      jump\t// in\n    tag_53:\n        /* \"#utility.yul\":939:1002   */\n      swap2\n      pop\n        /* \"#utility.yul\":895:1012   */\n      pop\n        /* \"#utility.yul\":690:1019   */\n      swap3\n      swap2\n      pop\n      pop\n      jump\t// out\n        /* \"#utility.yul\":1025:1143   */\n    tag_35:\n        /* \"#utility.yul\":1112:1136   */\n      tag_55\n        /* \"#utility.yul\":1130:1135   */\n      dup2\n        /* \"#utility.yul\":1112:1136   */\n      tag_32\n      jump\t// in\n    tag_55:\n        /* \"#utility.yul\":1107:1110   */\n      dup3\n        /* \"#utility.yul\":1100:1137   */\n      mstore\n        /* \"#utility.yul\":1025:1143   */\n      pop\n      pop\n      jump\t// out\n        /* \"#utility.yul\":1149:1371   */\n    tag_12:\n        /* \"#utility.yul\":1242:1246   */\n      0x00\n        /* \"#utility.yul\":1280:1282   */\n      0x20\n        /* \"#utility.yul\":1269:1278   */\n      dup3\n        /* \"#utility.yul\":1265:1283   */\n      add\n        /* \"#utility.yul\":1257:1283   */\n      swap1\n      pop\n        /* \"#utility.yul\":1293:1364   */\n      tag_57\n        /* \"#utility.yul\":1361:1362   */\n      0x00\n        /* \"#utility.yul\":1350:1359   */\n      dup4\n        /* \"#utility.yul\":1346:1363   */\n      add\n        /* \"#utility.yul\":1337:1343   */\n      dup5\n        /* \"#utility.yul\":1293:1364   */\n      tag_35\n      jump\t// in\n    tag_57:\n        /* \"#utility.yul\":1149:1371   */\n      swap3\n      swap2\n      pop\n      pop\n      jump\t// out\n        /* \"#utility.yul\":1377:1503   */\n    tag_36:\n        /* \"#utility.yul\":1414:1421   */\n      0x00\n        /* \"#utility.yul\":1454:1496   */\n      0xffffffffffffffffffffffffffffffffffffffff\n        /* \"#utility.yul\":1447:1452   */\n      dup3\n        /* \"#utility.yul\":1443:1497   */\n      and\n        /* \"#utility.yul\":1432:1497   */\n      swap1\n      pop\n        /* \"#utility.yul\":1377:1503   */\n      swap2\n      swap1\n      pop\n      jump\t// out\n        /* \"#utility.yul\":1509:1605   */\n    tag_37:\n        /* \"#utility.yul\":1546:1553   */\n      0x00\n        /* \"#utility.yul\":1575:1599   */\n      tag_60\n        /* \"#utility.yul\":1593:1598   */\n      dup3\n        /* \"#utility.yul\":1575:1599   */\n      tag_36\n      jump\t// in\n    tag_60:\n        /* \"#utility.yul\":1564:1599   */\n      swap1\n      pop\n        /* \"#utility.yul\":1509:1605   */\n      swap2\n      swap1\n      pop\n      jump\t// out\n        /* \"#utility.yul\":1611:1729   */\n    tag_38:\n        /* \"#utility.yul\":1698:1722   */\n      tag_62\n        /* \"#utility.yul\":1716:1721   */\n      dup2\n        /* \"#utility.yul\":1698:1722   */\n      tag_37\n      jump\t// in\n    tag_62:\n        /* \"#utility.yul\":1693:1696   */\n      dup3\n        /* \"#utility.yul\":1686:1723   */\n      mstore\n        /* \"#utility.yul\":1611:1729   */\n      pop\n      pop\n      jump\t// out\n        /* \"#utility.yul\":1735:1957   */\n    tag_16:\n        /* \"#utility.yul\":1828:1832   */\n      0x00\n        /* \"#utility.yul\":1866:1868   */\n      0x20\n        /* \"#utility.yul\":1855:1864   */\n      dup3\n        /* \"#utility.yul\":1851:1869   */\n      add\n        /* \"#utility.yul\":1843:1869   */\n      swap1\n      pop\n        /* \"#utility.yul\":1879:1950   */\n      tag_64\n        /* \"#utility.yul\":1947:1948   */\n      0x00\n        /* \"#utility.yul\":1936:1945   */\n      dup4\n        /* \"#utility.yul\":1932:1949   */\n      add\n        /* \"#utility.yul\":1923:1929   */\n      dup5\n        /* \"#utility.yul\":1879:1950   */\n      tag_38\n      jump\t// in\n    tag_64:\n        /* \"#utility.yul\":1735:1957   */\n      swap3\n      swap2\n      pop\n      pop\n      jump\t// out\n        /* \"#utility.yul\":1963:2143   */\n    tag_39:\n        /* \"#utility.yul\":2011:2088   */\n      0x4e487b7100000000000000000000000000000000000000000000000000000000\n        /* \"#utility.yul\":2008:2009   */\n      0x00\n        /* \"#utility.yul\":2001:2089   */\n      mstore\n        /* \"#utility.yul\":2108:2112   */\n      0x11\n        /* \"#utility.yul\":2105:2106   */\n      0x04\n        /* \"#utility.yul\":2098:2113   */\n      mstore\n        /* \"#utility.yul\":2132:2136   */\n      0x24\n        /* \"#utility.yul\":2129:2130   */\n      0x00\n        /* \"#utility.yul\":2122:2137   */\n      revert\n        /* \"#utility.yul\":2149:2340   */\n    tag_25:\n        /* \"#utility.yul\":2189:2192   */\n      0x00\n        /* \"#utility.yul\":2208:2228   */\n      tag_67\n        /* \"#utility.yul\":2226:2227   */\n      dup3\n        /* \"#utility.yul\":2208:2228   */\n      tag_32\n      jump\t// in\n    tag_67:\n        /* \"#utility.yul\":2203:2228   */\n      swap2\n      pop\n        /* \"#utility.yul\":2242:2262   */\n      tag_68\n        /* \"#utility.yul\":2260:2261   */\n      dup4\n        /* \"#utility.yul\":2242:2262   */\n      tag_32\n      jump\t// in\n    tag_68:\n        /* \"#utility.yul\":2237:2262   */\n      swap3\n      pop\n        /* \"#utility.yul\":2285:2286   */\n      dup3\n        /* \"#utility.yul\":2282:2283   */\n      dup3\n        /* \"#utility.yul\":2278:2287   */\n      add\n        /* \"#utility.yul\":2271:2287   */\n      swap1\n      pop\n        /* \"#utility.yul\":2306:2309   */\n      dup1\n        /* \"#utility.yul\":2303:2304   */\n      dup3\n        /* \"#utility.yul\":2300:2310   */\n      gt\n        /* \"#utility.yul\":2297:2333   */\n      iszero\n      tag_69\n      jumpi\n        /* \"#utility.yul\":2313:2331   */\n      tag_70\n      tag_39\n      jump\t// in\n    tag_70:\n        /* \"#utility.yul\":2297:2333   */\n    tag_69:\n        /* \"#utility.yul\":2149:2340   */\n      swap3\n      swap2\n      pop\n      pop\n      jump\t// out\n\n    auxdata: 0xa2646970667358221220aa72ca6e6deea687f650716870a63b1b535f5d3be0a15712935a85d03da1f07564736f6c634300081a0033\n}\n",
				"bytecode": {
					"linkReferences": {},
					"object": "608060405260645f553480156012575f80fd5b503360015f6101000a81548173ffffffffffffffffffffffffffffffffffffffff021916908373ffffffffffffffffffffffffffffffffffffffff1602179055506102c1806100605f395ff3fe608060405234801561000f575f80fd5b506004361061004a575f3560e01c8063329a9f2e1461004e5780638da5cb5b1461007e578063e1967eae1461009c578063fae3f81b146100ba575b5f80fd5b61006860048036038101906100639190610180565b6100d8565b60405161007591906101ba565b60405180910390f35b61008661011a565b6040516100939190610212565b60405180910390f35b6100a461013f565b6040516100b191906101ba565b60405180910390f35b6100c2610144565b6040516100cf91906101ba565b60405180910390f35b5f80600a90505f429050808460325f54856100f39190610258565b6100fd9190610258565b6101079190610258565b6101119190610258565b92505050919050565b60015f9054906101000a900473ffffffffffffffffffffffffffffffffffffffff1681565b5f5481565b603281565b5f80fd5b5f819050919050565b61015f8161014d565b8114610169575f80fd5b50565b5f8135905061017a81610156565b92915050565b5f6020828403121561019557610194610149565b5b5f6101a28482850161016c565b91505092915050565b6101b48161014d565b82525050565b5f6020820190506101cd5f8301846101ab565b92915050565b5f73ffffffffffffffffffffffffffffffffffffffff82169050919050565b5f6101fc826101d3565b9050919050565b61020c816101f2565b82525050565b5f6020820190506102255f830184610203565b92915050565b7f4e487b71000000000000000000000000000000000000000000000000000000005f52601160045260245ffd5b5f6102628261014d565b915061026d8361014d565b92508282019050808211156102855761028461022b565b5b9291505056fea2646970667358221220aa72ca6e6deea687f650716870a63b1b535f5d3be0a15712935a85d03da1f07564736f6c634300081a0033",
					"opcodes": "PUSH1 0x80 PUSH1 0x40 MSTORE PUSH1 0x64 PUSH0 SSTORE CALLVALUE DUP1 ISZERO PUSH1 0x12 JUMPI PUSH0 DUP1 REVERT JUMPDEST POP CALLER PUSH1 0x1 PUSH0 PUSH2 0x100 EXP DUP2 SLOAD DUP2 PUSH20 0xFFFFFFFFFFFFFFFFFFFFFFFFFFFFFFFFFFFFFFFF MUL NOT AND SWAP1 DUP4 PUSH20 0xFFFFFFFFFFFFFFFFFFFFFFFFFFFFFFFFFFFFFFFF AND MUL OR SWAP1 SSTORE POP PUSH2 0x2C1 DUP1 PUSH2 0x60 PUSH0 CODECOPY PUSH0 RETURN INVALID PUSH1 0x80 PUSH1 0x40 MSTORE CALLVALUE DUP1 ISZERO PUSH2 0xF JUMPI PUSH0 DUP1 REVERT JUMPDEST POP PUSH1 0x4 CALLDATASIZE LT PUSH2 0x4A JUMPI PUSH0 CALLDATALOAD PUSH1 0xE0 SHR DUP1 PUSH4 0x329A9F2E EQ PUSH2 0x4E JUMPI DUP1 PUSH4 0x8DA5CB5B EQ PUSH2 0x7E JUMPI DUP1 PUSH4 0xE1967EAE EQ PUSH2 0x9C JUMPI DUP1 PUSH4 0xFAE3F81B EQ PUSH2 0xBA JUMPI JUMPDEST PUSH0 DUP1 REVERT JUMPDEST PUSH2 0x68 PUSH1 0x4 DUP1 CALLDATASIZE SUB DUP2 ADD SWAP1 PUSH2 0x63 SWAP2 SWAP1 PUSH2 0x180 JUMP JUMPDEST PUSH2 0xD8 JUMP JUMPDEST PUSH1 0x40 MLOAD PUSH2 0x75 SWAP2 SWAP1 PUSH2 0x1BA JUMP JUMPDEST PUSH1 0x40 MLOAD DUP1 SWAP2 SUB SWAP1 RETURN JUMPDEST PUSH2 0x86 PUSH2 0x11A JUMP JUMPDEST PUSH1 0x40 MLOAD PUSH2 0x93 SWAP2 SWAP1 PUSH2 0x212 JUMP JUMPDEST PUSH1 0x40 MLOAD DUP1 SWAP2 SUB SWAP1 RETURN JUMPDEST PUSH2 0xA4 PUSH2 0x13F JUMP JUMPDEST PUSH1 0x40 MLOAD PUSH2 0xB1 SWAP2 SWAP1 PUSH2 0x1BA JUMP JUMPDEST PUSH1 0x40 MLOAD DUP1 SWAP2 SUB SWAP1 RETURN JUMPDEST PUSH2 0xC2 PUSH2 0x144 JUMP JUMPDEST PUSH1 0x40 MLOAD PUSH2 0xCF SWAP2 SWAP1 PUSH2 0x1BA JUMP JUMPDEST PUSH1 0x40 MLOAD DUP1 SWAP2 SUB SWAP1 RETURN JUMPDEST PUSH0 DUP1 PUSH1 0xA SWAP1 POP PUSH0 TIMESTAMP SWAP1 POP DUP1 DUP5 PUSH1 0x32 PUSH0 SLOAD DUP6 PUSH2 0xF3 SWAP2 SWAP1 PUSH2 0x258 JUMP JUMPDEST PUSH2 0xFD SWAP2 SWAP1 PUSH2 0x258 JUMP JUMPDEST PUSH2 0x107 SWAP2 SWAP1 PUSH2 0x258 JUMP JUMPDEST PUSH2 0x111 SWAP2 SWAP1 PUSH2 0x258 JUMP JUMPDEST SWAP3 POP POP POP SWAP2 SWAP1 POP JUMP JUMPDEST PUSH1 0x1 PUSH0 SWAP1 SLOAD SWAP1 PUSH2 0x100 EXP SWAP1 DIV PUSH20 0xFFFFFFFFFFFFFFFFFFFFFFFFFFFFFFFFFFFFFFFF AND DUP2 JUMP JUMPDEST PUSH0 SLOAD DUP2 JUMP JUMPDEST PUSH1 0x32 DUP2 JUMP JUMPDEST PUSH0 DUP1 REVERT JUMPDEST PUSH0 DUP2 SWAP1 POP SWAP2 SWAP1 POP JUMP JUMPDEST PUSH2 0x15F DUP2 PUSH2 0x14D JUMP JUMPDEST DUP2 EQ PUSH2 0x169 JUMPI PUSH0 DUP1 REVERT JUMPDEST POP JUMP JUMPDEST PUSH0 DUP2 CALLDATALOAD SWAP1 POP PUSH2 0x17A DUP2 PUSH2 0x156 JUMP JUMPDEST SWAP3 SWAP2 POP POP JUMP JUMPDEST PUSH0 PUSH1 0x20 DUP3 DUP5 SUB SLT ISZERO PUSH2 0x195 JUMPI PUSH2 0x194 PUSH2 0x149 JUMP JUMPDEST JUMPDEST PUSH0 PUSH2 0x1A2 DUP5 DUP3 DUP6 ADD PUSH2 0x16C JUMP JUMPDEST SWAP2 POP POP SWAP3 SWAP2 POP POP JUMP JUMPDEST PUSH2 0x1B4 DUP2 PUSH2 0x14D JUMP JUMPDEST DUP3 MSTORE POP POP JUMP JUMPDEST PUSH0 PUSH1 0x20 DUP3 ADD SWAP1 POP PUSH2 0x1CD PUSH0 DUP4 ADD DUP5 PUSH2 0x1AB JUMP JUMPDEST SWAP3 SWAP2 POP POP JUMP JUMPDEST PUSH0 PUSH20 0xFFFFFFFFFFFFFFFFFFFFFFFFFFFFFFFFFFFFFFFF DUP3 AND SWAP1 POP SWAP2 SWAP1 POP JUMP JUMPDEST PUSH0 PUSH2 0x1FC DUP3 PUSH2 0x1D3 JUMP JUMPDEST SWAP1 POP SWAP2 SWAP1 POP JUMP JUMPDEST PUSH2 0x20C DUP2 PUSH2 0x1F2 JUMP JUMPDEST DUP3 MSTORE POP POP JUMP JUMPDEST PUSH0 PUSH1 0x20 DUP3 ADD SWAP1 POP PUSH2 0x225 PUSH0 DUP4 ADD DUP5 PUSH2 0x203 JUMP JUMPDEST SWAP3 SWAP2 POP POP JUMP JUMPDEST PUSH32 0x4E487B7100000000000000000000000000000000000000000000000000000000 PUSH0 MSTORE PUSH1 0x11 PUSH1 0x4 MSTORE PUSH1 0x24 PUSH0 REVERT JUMPDEST PUSH0 PUSH2 0x262 DUP3 PUSH2 0x14D JUMP JUMPDEST SWAP2 POP PUSH2 0x26D DUP4 PUSH2 0x14D JUMP JUMPDEST SWAP3 POP DUP3 DUP3 ADD SWAP1 POP DUP1 DUP3 GT ISZERO PUSH2 0x285 JUMPI PUSH2 0x284 PUSH2 0x22B JUMP JUMPDEST JUMPDEST SWAP3 SWAP2 POP POP JUMP INVALID LOG2 PUSH5 0x6970667358 0x22 SLT KECCAK256 0xAA PUSH19 0xCA6E6DEEA687F650716870A63B1B535F5D3BE0 LOG1 JUMPI SLT SWAP4 GAS DUP6 0xD0 RETURNDATASIZE LOG1 CREATE PUSH22 0x64736F6C634300081A00330000000000000000000000 "
				},
				"gasEstimates": {
					"creation": {
						"codeDepositCost": "141000",
						"executionCost": "46558",
						"totalCost": "187558"
					},
					"external": {
						"CONSTANT_VARIABLE()": "369",
						"owner()": "2508",
						"stateVariable()": "2446",
						"sumWithConstant(uint256)": "infinite"
					}
				},
				"methodIdentifiers": {
					"CONSTANT_VARIABLE()": "fae3f81b",
					"owner()": "8da5cb5b",
					"stateVariable()": "e1967eae",
					"sumWithConstant(uint256)": "329a9f2e"
				}
			},
			"storageLayout": {
				"storage": [
					{
						"astId": 33,
						"contract": "contracts/first.sol:VariableExamples",
						"label": "stateVariable",
						"offset": 0,
						"slot": "0",
						"type": "t_uint256"
					},
					{
						"astId": 38,
						"contract": "contracts/first.sol:VariableExamples",
						"label": "owner",
						"offset": 0,
						"slot": "1",
						"type": "t_address"
					}
				],
				"types": {
					"t_address": {
						"encoding": "inplace",
						"label": "address",
						"numberOfBytes": "20"
					},
					"t_uint256": {
						"encoding": "inplace",
						"label": "uint256",
						"numberOfBytes": "32"
					}
				}
			},
			"userdoc": {
				"kind": "user",
				"methods": {},
				"notice": "1.state variable=variables stored on the blockchain 2.local variables= defined inside the function and only accessible during the function execution 3.global variables= are special variables provided by solidity that contain information about the blockchain and the current transactions*",
				"version": 1
			}
		}
	}
}