{
	"contracts/Bookstore.sol": {
		"Bookstore": {
			"abi": [
				{
					"inputs": [],
					"stateMutability": "nonpayable",
					"type": "constructor"
				},
				{
					"inputs": [
						{
							"internalType": "string",
							"name": "_title",
							"type": "string"
						},
						{
							"internalType": "string",
							"name": "_author",
							"type": "string"
						},
						{
							"internalType": "uint256",
							"name": "_price",
							"type": "uint256"
						},
						{
							"internalType": "uint256",
							"name": "_stock",
							"type": "uint256"
						}
					],
					"name": "addBook",
					"outputs": [],
					"stateMutability": "nonpayable",
					"type": "function"
				},
				{
					"inputs": [],
					"name": "bookCount",
					"outputs": [
						{
							"internalType": "uint256",
							"name": "",
							"type": "uint256"
						}
					],
					"stateMutability": "view",
					"type": "function"
				},
				{
					"inputs": [
						{
							"internalType": "uint256",
							"name": "",
							"type": "uint256"
						}
					],
					"name": "books",
					"outputs": [
						{
							"internalType": "string",
							"name": "title",
							"type": "string"
						},
						{
							"internalType": "string",
							"name": "author",
							"type": "string"
						},
						{
							"internalType": "uint256",
							"name": "price",
							"type": "uint256"
						},
						{
							"internalType": "uint256",
							"name": "stock",
							"type": "uint256"
						},
						{
							"internalType": "bool",
							"name": "isAvailable",
							"type": "bool"
						}
					],
					"stateMutability": "view",
					"type": "function"
				},
				{
					"inputs": [],
					"name": "getAllBooks",
					"outputs": [
						{
							"components": [
								{
									"internalType": "string",
									"name": "title",
									"type": "string"
								},
								{
									"internalType": "string",
									"name": "author",
									"type": "string"
								},
								{
									"internalType": "uint256",
									"name": "price",
									"type": "uint256"
								},
								{
									"internalType": "uint256",
									"name": "stock",
									"type": "uint256"
								},
								{
									"internalType": "bool",
									"name": "isAvailable",
									"type": "bool"
								}
							],
							"internalType": "struct Bookstore.Book[]",
							"name": "",
							"type": "tuple[]"
						}
					],
					"stateMutability": "view",
					"type": "function"
				},
				{
					"inputs": [
						{
							"internalType": "uint256",
							"name": "_bookId",
							"type": "uint256"
						}
					],
					"name": "getBookDetails",
					"outputs": [
						{
							"internalType": "string",
							"name": "",
							"type": "string"
						},
						{
							"internalType": "string",
							"name": "",
							"type": "string"
						},
						{
							"internalType": "uint256",
							"name": "",
							"type": "uint256"
						},
						{
							"internalType": "uint256",
							"name": "",
							"type": "uint256"
						},
						{
							"internalType": "bool",
							"name": "",
							"type": "bool"
						}
					],
					"stateMutability": "view",
					"type": "function"
				},
				{
					"inputs": [],
					"name": "getOwnerBalance",
					"outputs": [
						{
							"internalType": "uint256",
							"name": "",
							"type": "uint256"
						}
					],
					"stateMutability": "view",
					"type": "function"
				},
				{
					"inputs": [],
					"name": "owner",
					"outputs": [
						{
							"internalType": "address",
							"name": "",
							"type": "address"
						}
					],
					"stateMutability": "view",
					"type": "function"
				},
				{
					"inputs": [
						{
							"internalType": "uint256",
							"name": "_bookId",
							"type": "uint256"
						}
					],
					"name": "purchaseBook",
					"outputs": [],
					"stateMutability": "payable",
					"type": "function"
				},
				{
					"inputs": [],
					"name": "removeAllBooks",
					"outputs": [],
					"stateMutability": "nonpayable",
					"type": "function"
				},
				{
					"inputs": [
						{
							"internalType": "uint256",
							"name": "_bookId",
							"type": "uint256"
						}
					],
					"name": "removeBook",
					"outputs": [],
					"stateMutability": "nonpayable",
					"type": "function"
				},
				{
					"inputs": [],
					"name": "totalBooksSold",
					"outputs": [
						{
							"internalType": "uint256",
							"name": "",
							"type": "uint256"
						}
					],
					"stateMutability": "view",
					"type": "function"
				},
				{
					"inputs": [
						{
							"internalType": "uint256",
							"name": "_bookId",
							"type": "uint256"
						},
						{
							"internalType": "uint256",
							"name": "_newStock",
							"type": "uint256"
						}
					],
					"name": "updateStock",
					"outputs": [],
					"stateMutability": "nonpayable",
					"type": "function"
				}
			],
			"devdoc": {
				"kind": "dev",
				"methods": {},
				"version": 1
			},
			"evm": {
				"assembly": "    /* \"contracts/Bookstore.sol\":73:3591  contract Bookstore {... */\n  mstore(0x40, 0x80)\n    /* \"contracts/Bookstore.sol\":374:375  0 */\n  0x00\n    /* \"contracts/Bookstore.sol\":347:375  uint256 public bookCount = 0 */\n  0x01\n  sstore\n    /* \"contracts/Bookstore.sol\":484:485  0 */\n  0x00\n    /* \"contracts/Bookstore.sol\":452:485  uint256 public totalBooksSold = 0 */\n  0x02\n  sstore\n    /* \"contracts/Bookstore.sol\":802:853  constructor() {... */\n  callvalue\n  dup1\n  iszero\n  tag_1\n  jumpi\n  0x00\n  dup1\n  revert\ntag_1:\n  pop\n    /* \"contracts/Bookstore.sol\":835:845  msg.sender */\n  caller\n    /* \"contracts/Bookstore.sol\":827:832  owner */\n  0x03\n  0x00\n    /* \"contracts/Bookstore.sol\":827:845  owner = msg.sender */\n  0x0100\n  exp\n  dup2\n  sload\n  dup2\n  0xffffffffffffffffffffffffffffffffffffffff\n  mul\n  not\n  and\n  swap1\n  dup4\n  0xffffffffffffffffffffffffffffffffffffffff\n  and\n  mul\n  or\n  swap1\n  sstore\n  pop\n    /* \"contracts/Bookstore.sol\":73:3591  contract Bookstore {... */\n  dataSize(sub_0)\n  dup1\n  dataOffset(sub_0)\n  0x00\n  codecopy\n  0x00\n  return\nstop\n\nsub_0: assembly {\n        /* \"contracts/Bookstore.sol\":73:3591  contract Bookstore {... */\n      mstore(0x40, 0x80)\n      jumpi(tag_1, lt(calldatasize, 0x04))\n      shr(0xe0, calldataload(0x00))\n      dup1\n      0x8da5cb5b\n      gt\n      tag_14\n      jumpi\n      dup1\n      0x8da5cb5b\n      eq\n      tag_8\n      jumpi\n      dup1\n      0x8ef17fc3\n      eq\n      tag_9\n      jumpi\n      dup1\n      0x9dfc3dd1\n      eq\n      tag_10\n      jumpi\n      dup1\n      0xb905ad78\n      eq\n      tag_11\n      jumpi\n      dup1\n      0xbec0d799\n      eq\n      tag_12\n      jumpi\n      dup1\n      0xd4c6758b\n      eq\n      tag_13\n      jumpi\n      jump(tag_1)\n    tag_14:\n      dup1\n      0x1c555f47\n      eq\n      tag_2\n      jumpi\n      dup1\n      0x354528e8\n      eq\n      tag_3\n      jumpi\n      dup1\n      0x3899637f\n      eq\n      tag_4\n      jumpi\n      dup1\n      0x590791f2\n      eq\n      tag_5\n      jumpi\n      dup1\n      0x68744046\n      eq\n      tag_6\n      jumpi\n      dup1\n      0x74ff4818\n      eq\n      tag_7\n      jumpi\n    tag_1:\n      0x00\n      dup1\n      revert\n        /* \"contracts/Bookstore.sol\":1687:2241  function purchaseBook(uint256 _bookId) public payable {... */\n    tag_2:\n      tag_15\n      0x04\n      dup1\n      calldatasize\n      sub\n      dup2\n      add\n      swap1\n      tag_16\n      swap2\n      swap1\n      tag_17\n      jump\t// in\n    tag_16:\n      tag_18\n      jump\t// in\n    tag_15:\n      stop\n        /* \"contracts/Bookstore.sol\":2664:2918  function getAllBooks() public view returns (Book[] memory) {... */\n    tag_3:\n      callvalue\n      dup1\n      iszero\n      tag_19\n      jumpi\n      0x00\n      dup1\n      revert\n    tag_19:\n      pop\n      tag_20\n      tag_21\n      jump\t// in\n    tag_20:\n      mload(0x40)\n      tag_22\n      swap2\n      swap1\n      tag_23\n      jump\t// in\n    tag_22:\n      mload(0x40)\n      dup1\n      swap2\n      sub\n      swap1\n      return\n        /* \"contracts/Bookstore.sol\":452:485  uint256 public totalBooksSold = 0 */\n    tag_4:\n      callvalue\n      dup1\n      iszero\n      tag_24\n      jumpi\n      0x00\n      dup1\n      revert\n    tag_24:\n      pop\n      tag_25\n      tag_26\n      jump\t// in\n    tag_25:\n      mload(0x40)\n      tag_27\n      swap2\n      swap1\n      tag_28\n      jump\t// in\n    tag_27:\n      mload(0x40)\n      dup1\n      swap2\n      sub\n      swap1\n      return\n        /* \"contracts/Bookstore.sol\":3483:3588  function getOwnerBalance() public view returns (uint256) {... */\n    tag_5:\n      callvalue\n      dup1\n      iszero\n      tag_29\n      jumpi\n      0x00\n      dup1\n      revert\n    tag_29:\n      pop\n      tag_30\n      tag_31\n      jump\t// in\n    tag_30:\n      mload(0x40)\n      tag_32\n      swap2\n      swap1\n      tag_28\n      jump\t// in\n    tag_32:\n      mload(0x40)\n      dup1\n      swap2\n      sub\n      swap1\n      return\n        /* \"contracts/Bookstore.sol\":303:340  mapping(uint256 => Book) public books */\n    tag_6:\n      callvalue\n      dup1\n      iszero\n      tag_33\n      jumpi\n      0x00\n      dup1\n      revert\n    tag_33:\n      pop\n      tag_34\n      0x04\n      dup1\n      calldatasize\n      sub\n      dup2\n      add\n      swap1\n      tag_35\n      swap2\n      swap1\n      tag_17\n      jump\t// in\n    tag_35:\n      tag_36\n      jump\t// in\n    tag_34:\n      mload(0x40)\n      tag_37\n      swap6\n      swap5\n      swap4\n      swap3\n      swap2\n      swap1\n      tag_38\n      jump\t// in\n    tag_37:\n      mload(0x40)\n      dup1\n      swap2\n      sub\n      swap1\n      return\n        /* \"contracts/Bookstore.sol\":2295:2622  function getBookDetails(uint256 _bookId) public view returns (string memory, string memory, uint256, uint256, bool) {... */\n    tag_7:\n      callvalue\n      dup1\n      iszero\n      tag_39\n      jumpi\n      0x00\n      dup1\n      revert\n    tag_39:\n      pop\n      tag_40\n      0x04\n      dup1\n      calldatasize\n      sub\n      dup2\n      add\n      swap1\n      tag_41\n      swap2\n      swap1\n      tag_17\n      jump\t// in\n    tag_41:\n      tag_42\n      jump\t// in\n    tag_40:\n      mload(0x40)\n      tag_43\n      swap6\n      swap5\n      swap4\n      swap3\n      swap2\n      swap1\n      tag_38\n      jump\t// in\n    tag_43:\n      mload(0x40)\n      dup1\n      swap2\n      sub\n      swap1\n      return\n        /* \"contracts/Bookstore.sol\":524:544  address public owner */\n    tag_8:\n      callvalue\n      dup1\n      iszero\n      tag_44\n      jumpi\n      0x00\n      dup1\n      revert\n    tag_44:\n      pop\n      tag_45\n      tag_46\n      jump\t// in\n    tag_45:\n      mload(0x40)\n      tag_47\n      swap2\n      swap1\n      tag_48\n      jump\t// in\n    tag_47:\n      mload(0x40)\n      dup1\n      swap2\n      sub\n      swap1\n      return\n        /* \"contracts/Bookstore.sol\":3271:3429  function removeAllBooks() public onlyOwner {... */\n    tag_9:\n      callvalue\n      dup1\n      iszero\n      tag_49\n      jumpi\n      0x00\n      dup1\n      revert\n    tag_49:\n      pop\n      tag_50\n      tag_51\n      jump\t// in\n    tag_50:\n      stop\n        /* \"contracts/Bookstore.sol\":1301:1643  function updateStock(uint256 _bookId, uint256 _newStock) public onlyOwner {... */\n    tag_10:\n      callvalue\n      dup1\n      iszero\n      tag_52\n      jumpi\n      0x00\n      dup1\n      revert\n    tag_52:\n      pop\n      tag_53\n      0x04\n      dup1\n      calldatasize\n      sub\n      dup2\n      add\n      swap1\n      tag_54\n      swap2\n      swap1\n      tag_55\n      jump\t// in\n    tag_54:\n      tag_56\n      jump\t// in\n    tag_53:\n      stop\n        /* \"contracts/Bookstore.sol\":347:375  uint256 public bookCount = 0 */\n    tag_11:\n      callvalue\n      dup1\n      iszero\n      tag_57\n      jumpi\n      0x00\n      dup1\n      revert\n    tag_57:\n      pop\n      tag_58\n      tag_59\n      jump\t// in\n    tag_58:\n      mload(0x40)\n      tag_60\n      swap2\n      swap1\n      tag_28\n      jump\t// in\n    tag_60:\n      mload(0x40)\n      dup1\n      swap2\n      sub\n      swap1\n      return\n        /* \"contracts/Bookstore.sol\":2969:3226  function removeBook(uint256 _bookId) public onlyOwner {... */\n    tag_12:\n      callvalue\n      dup1\n      iszero\n      tag_61\n      jumpi\n      0x00\n      dup1\n      revert\n    tag_61:\n      pop\n      tag_62\n      0x04\n      dup1\n      calldatasize\n      sub\n      dup2\n      add\n      swap1\n      tag_63\n      swap2\n      swap1\n      tag_17\n      jump\t// in\n    tag_63:\n      tag_64\n      jump\t// in\n    tag_62:\n      stop\n        /* \"contracts/Bookstore.sol\":896:1246  function addBook(string memory _title, string memory _author, uint256 _price, uint256 _stock) public onlyOwner {... */\n    tag_13:\n      callvalue\n      dup1\n      iszero\n      tag_65\n      jumpi\n      0x00\n      dup1\n      revert\n    tag_65:\n      pop\n      tag_66\n      0x04\n      dup1\n      calldatasize\n      sub\n      dup2\n      add\n      swap1\n      tag_67\n      swap2\n      swap1\n      tag_68\n      jump\t// in\n    tag_67:\n      tag_69\n      jump\t// in\n    tag_66:\n      stop\n        /* \"contracts/Bookstore.sol\":1687:2241  function purchaseBook(uint256 _bookId) public payable {... */\n    tag_18:\n        /* \"contracts/Bookstore.sol\":1770:1771  0 */\n      0x00\n        /* \"contracts/Bookstore.sol\":1760:1767  _bookId */\n      dup2\n        /* \"contracts/Bookstore.sol\":1760:1771  _bookId > 0 */\n      gt\n        /* \"contracts/Bookstore.sol\":1760:1795  _bookId > 0 && _bookId <= bookCount */\n      dup1\n      iszero\n      tag_71\n      jumpi\n      pop\n        /* \"contracts/Bookstore.sol\":1786:1795  bookCount */\n      sload(0x01)\n        /* \"contracts/Bookstore.sol\":1775:1782  _bookId */\n      dup2\n        /* \"contracts/Bookstore.sol\":1775:1795  _bookId <= bookCount */\n      gt\n      iszero\n        /* \"contracts/Bookstore.sol\":1760:1795  _bookId > 0 && _bookId <= bookCount */\n    tag_71:\n        /* \"contracts/Bookstore.sol\":1752:1815  require(_bookId > 0 && _bookId <= bookCount, \"Invalid book ID\") */\n      tag_72\n      jumpi\n      mload(0x40)\n      0x08c379a000000000000000000000000000000000000000000000000000000000\n      dup2\n      mstore\n      0x04\n      add\n      tag_73\n      swap1\n      tag_74\n      jump\t// in\n    tag_73:\n      mload(0x40)\n      dup1\n      swap2\n      sub\n      swap1\n      revert\n    tag_72:\n        /* \"contracts/Bookstore.sol\":1826:1843  Book storage book */\n      0x00\n        /* \"contracts/Bookstore.sol\":1846:1851  books */\n      dup1\n        /* \"contracts/Bookstore.sol\":1846:1860  books[_bookId] */\n      0x00\n        /* \"contracts/Bookstore.sol\":1852:1859  _bookId */\n      dup4\n        /* \"contracts/Bookstore.sol\":1846:1860  books[_bookId] */\n      dup2\n      mstore\n      0x20\n      add\n      swap1\n      dup2\n      mstore\n      0x20\n      add\n      0x00\n      keccak256\n        /* \"contracts/Bookstore.sol\":1826:1860  Book storage book = books[_bookId] */\n      swap1\n      pop\n        /* \"contracts/Bookstore.sol\":1879:1883  book */\n      dup1\n        /* \"contracts/Bookstore.sol\":1879:1895  book.isAvailable */\n      0x04\n      add\n      0x00\n      swap1\n      sload\n      swap1\n      0x0100\n      exp\n      swap1\n      div\n      0xff\n      and\n        /* \"contracts/Bookstore.sol\":1871:1921  require(book.isAvailable, \"Book is not available\") */\n      tag_75\n      jumpi\n      mload(0x40)\n      0x08c379a000000000000000000000000000000000000000000000000000000000\n      dup2\n      mstore\n      0x04\n      add\n      tag_76\n      swap1\n      tag_77\n      jump\t// in\n    tag_76:\n      mload(0x40)\n      dup1\n      swap2\n      sub\n      swap1\n      revert\n    tag_75:\n        /* \"contracts/Bookstore.sol\":1953:1954  0 */\n      0x00\n        /* \"contracts/Bookstore.sol\":1940:1944  book */\n      dup2\n        /* \"contracts/Bookstore.sol\":1940:1950  book.stock */\n      0x03\n      add\n      sload\n        /* \"contracts/Bookstore.sol\":1940:1954  book.stock > 0 */\n      gt\n        /* \"contracts/Bookstore.sol\":1932:1976  require(book.stock > 0, \"Book out of stock\") */\n      tag_78\n      jumpi\n      mload(0x40)\n      0x08c379a000000000000000000000000000000000000000000000000000000000\n      dup2\n      mstore\n      0x04\n      add\n      tag_79\n      swap1\n      tag_80\n      jump\t// in\n    tag_79:\n      mload(0x40)\n      dup1\n      swap2\n      sub\n      swap1\n      revert\n    tag_78:\n        /* \"contracts/Bookstore.sol\":2008:2012  book */\n      dup1\n        /* \"contracts/Bookstore.sol\":2008:2018  book.price */\n      0x02\n      add\n      sload\n        /* \"contracts/Bookstore.sol\":1995:2004  msg.value */\n      callvalue\n        /* \"contracts/Bookstore.sol\":1995:2018  msg.value == book.price */\n      eq\n        /* \"contracts/Bookstore.sol\":1987:2047  require(msg.value == book.price, \"Incorrect payment amount\") */\n      tag_81\n      jumpi\n      mload(0x40)\n      0x08c379a000000000000000000000000000000000000000000000000000000000\n      dup2\n      mstore\n      0x04\n      add\n      tag_82\n      swap1\n      tag_83\n      jump\t// in\n    tag_82:\n      mload(0x40)\n      dup1\n      swap2\n      sub\n      swap1\n      revert\n    tag_81:\n        /* \"contracts/Bookstore.sol\":2060:2064  book */\n      dup1\n        /* \"contracts/Bookstore.sol\":2060:2070  book.stock */\n      0x03\n      add\n      0x00\n        /* \"contracts/Bookstore.sol\":2060:2072  book.stock-- */\n      dup2\n      sload\n      dup1\n      swap3\n      swap2\n      swap1\n      tag_84\n      swap1\n      tag_85\n      jump\t// in\n    tag_84:\n      swap2\n      swap1\n      pop\n      sstore\n      pop\n        /* \"contracts/Bookstore.sol\":2083:2097  totalBooksSold */\n      0x02\n      0x00\n        /* \"contracts/Bookstore.sol\":2083:2099  totalBooksSold++ */\n      dup2\n      sload\n      dup1\n      swap3\n      swap2\n      swap1\n      tag_86\n      swap1\n      tag_87\n      jump\t// in\n    tag_86:\n      swap2\n      swap1\n      pop\n      sstore\n      pop\n        /* \"contracts/Bookstore.sol\":2207:2212  owner */\n      0x03\n      0x00\n      swap1\n      sload\n      swap1\n      0x0100\n      exp\n      swap1\n      div\n      0xffffffffffffffffffffffffffffffffffffffff\n      and\n        /* \"contracts/Bookstore.sol\":2199:2222  payable(owner).transfer */\n      0xffffffffffffffffffffffffffffffffffffffff\n      and\n        /* \"contracts/Bookstore.sol\":2199:2233  payable(owner).transfer(msg.value) */\n      0x08fc\n        /* \"contracts/Bookstore.sol\":2223:2232  msg.value */\n      callvalue\n        /* \"contracts/Bookstore.sol\":2199:2233  payable(owner).transfer(msg.value) */\n      swap1\n      dup2\n      iszero\n      mul\n      swap1\n      mload(0x40)\n      0x00\n      mload(0x40)\n      dup1\n      dup4\n      sub\n      dup2\n      dup6\n      dup9\n      dup9\n      call\n      swap4\n      pop\n      pop\n      pop\n      pop\n      iszero\n      dup1\n      iszero\n      tag_89\n      jumpi\n      returndatasize\n      0x00\n      dup1\n      returndatacopy\n      revert(0x00, returndatasize)\n    tag_89:\n      pop\n        /* \"contracts/Bookstore.sol\":1741:2241  {... */\n      pop\n        /* \"contracts/Bookstore.sol\":1687:2241  function purchaseBook(uint256 _bookId) public payable {... */\n      pop\n      jump\t// out\n        /* \"contracts/Bookstore.sol\":2664:2918  function getAllBooks() public view returns (Book[] memory) {... */\n    tag_21:\n        /* \"contracts/Bookstore.sol\":2708:2721  Book[] memory */\n      0x60\n        /* \"contracts/Bookstore.sol\":2734:2756  Book[] memory allBooks */\n      0x00\n        /* \"contracts/Bookstore.sol\":2770:2779  bookCount */\n      sload(0x01)\n        /* \"contracts/Bookstore.sol\":2759:2780  new Book[](bookCount) */\n      0xffffffffffffffff\n      dup2\n      gt\n      iszero\n      tag_91\n      jumpi\n      tag_92\n      tag_93\n      jump\t// in\n    tag_92:\n    tag_91:\n      mload(0x40)\n      swap1\n      dup1\n      dup3\n      mstore\n      dup1\n      0x20\n      mul\n      0x20\n      add\n      dup3\n      add\n      0x40\n      mstore\n      dup1\n      iszero\n      tag_94\n      jumpi\n      dup2\n      0x20\n      add\n    tag_95:\n      tag_96\n      tag_97\n      jump\t// in\n    tag_96:\n      dup2\n      mstore\n      0x20\n      add\n      swap1\n      0x01\n      swap1\n      sub\n      swap1\n      dup2\n      tag_95\n      jumpi\n      swap1\n      pop\n    tag_94:\n      pop\n        /* \"contracts/Bookstore.sol\":2734:2780  Book[] memory allBooks = new Book[](bookCount) */\n      swap1\n      pop\n        /* \"contracts/Bookstore.sol\":2796:2805  uint256 i */\n      0x00\n        /* \"contracts/Bookstore.sol\":2808:2809  1 */\n      0x01\n        /* \"contracts/Bookstore.sol\":2796:2809  uint256 i = 1 */\n      swap1\n      pop\n        /* \"contracts/Bookstore.sol\":2791:2885  for (uint256 i = 1; i <= bookCount; i++) {... */\n    tag_98:\n        /* \"contracts/Bookstore.sol\":2816:2825  bookCount */\n      sload(0x01)\n        /* \"contracts/Bookstore.sol\":2811:2812  i */\n      dup2\n        /* \"contracts/Bookstore.sol\":2811:2825  i <= bookCount */\n      gt\n        /* \"contracts/Bookstore.sol\":2791:2885  for (uint256 i = 1; i <= bookCount; i++) {... */\n      tag_99\n      jumpi\n        /* \"contracts/Bookstore.sol\":2865:2870  books */\n      0x00\n        /* \"contracts/Bookstore.sol\":2865:2873  books[i] */\n      dup1\n        /* \"contracts/Bookstore.sol\":2871:2872  i */\n      dup3\n        /* \"contracts/Bookstore.sol\":2865:2873  books[i] */\n      dup2\n      mstore\n      0x20\n      add\n      swap1\n      dup2\n      mstore\n      0x20\n      add\n      0x00\n      keccak256\n        /* \"contracts/Bookstore.sol\":2847:2873  allBooks[i - 1] = books[i] */\n      mload(0x40)\n      dup1\n      0xa0\n      add\n      0x40\n      mstore\n      swap1\n      dup2\n      0x00\n      dup3\n      add\n      dup1\n      sload\n      tag_101\n      swap1\n      tag_102\n      jump\t// in\n    tag_101:\n      dup1\n      0x1f\n      add\n      0x20\n      dup1\n      swap2\n      div\n      mul\n      0x20\n      add\n      mload(0x40)\n      swap1\n      dup2\n      add\n      0x40\n      mstore\n      dup1\n      swap3\n      swap2\n      swap1\n      dup2\n      dup2\n      mstore\n      0x20\n      add\n      dup3\n      dup1\n      sload\n      tag_103\n      swap1\n      tag_102\n      jump\t// in\n    tag_103:\n      dup1\n      iszero\n      tag_104\n      jumpi\n      dup1\n      0x1f\n      lt\n      tag_105\n      jumpi\n      0x0100\n      dup1\n      dup4\n      sload\n      div\n      mul\n      dup4\n      mstore\n      swap2\n      0x20\n      add\n      swap2\n      jump(tag_104)\n    tag_105:\n      dup3\n      add\n      swap2\n      swap1\n      0x00\n      mstore\n      keccak256(0x00, 0x20)\n      swap1\n    tag_106:\n      dup2\n      sload\n      dup2\n      mstore\n      swap1\n      0x01\n      add\n      swap1\n      0x20\n      add\n      dup1\n      dup4\n      gt\n      tag_106\n      jumpi\n      dup3\n      swap1\n      sub\n      0x1f\n      and\n      dup3\n      add\n      swap2\n    tag_104:\n      pop\n      pop\n      pop\n      pop\n      pop\n      dup2\n      mstore\n      0x20\n      add\n      0x01\n      dup3\n      add\n      dup1\n      sload\n      tag_107\n      swap1\n      tag_102\n      jump\t// in\n    tag_107:\n      dup1\n      0x1f\n      add\n      0x20\n      dup1\n      swap2\n      div\n      mul\n      0x20\n      add\n      mload(0x40)\n      swap1\n      dup2\n      add\n      0x40\n      mstore\n      dup1\n      swap3\n      swap2\n      swap1\n      dup2\n      dup2\n      mstore\n      0x20\n      add\n      dup3\n      dup1\n      sload\n      tag_108\n      swap1\n      tag_102\n      jump\t// in\n    tag_108:\n      dup1\n      iszero\n      tag_109\n      jumpi\n      dup1\n      0x1f\n      lt\n      tag_110\n      jumpi\n      0x0100\n      dup1\n      dup4\n      sload\n      div\n      mul\n      dup4\n      mstore\n      swap2\n      0x20\n      add\n      swap2\n      jump(tag_109)\n    tag_110:\n      dup3\n      add\n      swap2\n      swap1\n      0x00\n      mstore\n      keccak256(0x00, 0x20)\n      swap1\n    tag_111:\n      dup2\n      sload\n      dup2\n      mstore\n      swap1\n      0x01\n      add\n      swap1\n      0x20\n      add\n      dup1\n      dup4\n      gt\n      tag_111\n      jumpi\n      dup3\n      swap1\n      sub\n      0x1f\n      and\n      dup3\n      add\n      swap2\n    tag_109:\n      pop\n      pop\n      pop\n      pop\n      pop\n      dup2\n      mstore\n      0x20\n      add\n      0x02\n      dup3\n      add\n      sload\n      dup2\n      mstore\n      0x20\n      add\n      0x03\n      dup3\n      add\n      sload\n      dup2\n      mstore\n      0x20\n      add\n      0x04\n      dup3\n      add\n      0x00\n      swap1\n      sload\n      swap1\n      0x0100\n      exp\n      swap1\n      div\n      0xff\n      and\n      iszero\n      iszero\n      iszero\n      iszero\n      dup2\n      mstore\n      pop\n      pop\n        /* \"contracts/Bookstore.sol\":2847:2855  allBooks */\n      dup3\n        /* \"contracts/Bookstore.sol\":2860:2861  1 */\n      0x01\n        /* \"contracts/Bookstore.sol\":2856:2857  i */\n      dup4\n        /* \"contracts/Bookstore.sol\":2856:2861  i - 1 */\n      tag_112\n      swap2\n      swap1\n      tag_113\n      jump\t// in\n    tag_112:\n        /* \"contracts/Bookstore.sol\":2847:2862  allBooks[i - 1] */\n      dup2\n      mload\n      dup2\n      lt\n      tag_114\n      jumpi\n      tag_115\n      tag_116\n      jump\t// in\n    tag_115:\n    tag_114:\n      0x20\n      mul\n      0x20\n      add\n      add\n        /* \"contracts/Bookstore.sol\":2847:2873  allBooks[i - 1] = books[i] */\n      dup2\n      swap1\n      mstore\n      pop\n        /* \"contracts/Bookstore.sol\":2827:2830  i++ */\n      dup1\n      dup1\n      tag_117\n      swap1\n      tag_87\n      jump\t// in\n    tag_117:\n      swap2\n      pop\n      pop\n        /* \"contracts/Bookstore.sol\":2791:2885  for (uint256 i = 1; i <= bookCount; i++) {... */\n      jump(tag_98)\n    tag_99:\n      pop\n        /* \"contracts/Bookstore.sol\":2902:2910  allBooks */\n      dup1\n        /* \"contracts/Bookstore.sol\":2895:2910  return allBooks */\n      swap2\n      pop\n      pop\n        /* \"contracts/Bookstore.sol\":2664:2918  function getAllBooks() public view returns (Book[] memory) {... */\n      swap1\n      jump\t// out\n        /* \"contracts/Bookstore.sol\":452:485  uint256 public totalBooksSold = 0 */\n    tag_26:\n      sload(0x02)\n      dup2\n      jump\t// out\n        /* \"contracts/Bookstore.sol\":3483:3588  function getOwnerBalance() public view returns (uint256) {... */\n    tag_31:\n        /* \"contracts/Bookstore.sol\":3531:3538  uint256 */\n      0x00\n        /* \"contracts/Bookstore.sol\":3566:3571  owner */\n      0x03\n      0x00\n      swap1\n      sload\n      swap1\n      0x0100\n      exp\n      swap1\n      div\n      0xffffffffffffffffffffffffffffffffffffffff\n      and\n        /* \"contracts/Bookstore.sol\":3558:3580  address(owner).balance */\n      0xffffffffffffffffffffffffffffffffffffffff\n      and\n      balance\n        /* \"contracts/Bookstore.sol\":3551:3580  return address(owner).balance */\n      swap1\n      pop\n        /* \"contracts/Bookstore.sol\":3483:3588  function getOwnerBalance() public view returns (uint256) {... */\n      swap1\n      jump\t// out\n        /* \"contracts/Bookstore.sol\":303:340  mapping(uint256 => Book) public books */\n    tag_36:\n      mstore(0x20, 0x00)\n      dup1\n      0x00\n      mstore\n      keccak256(0x00, 0x40)\n      0x00\n      swap2\n      pop\n      swap1\n      pop\n      dup1\n      0x00\n      add\n      dup1\n      sload\n      tag_119\n      swap1\n      tag_102\n      jump\t// in\n    tag_119:\n      dup1\n      0x1f\n      add\n      0x20\n      dup1\n      swap2\n      div\n      mul\n      0x20\n      add\n      mload(0x40)\n      swap1\n      dup2\n      add\n      0x40\n      mstore\n      dup1\n      swap3\n      swap2\n      swap1\n      dup2\n      dup2\n      mstore\n      0x20\n      add\n      dup3\n      dup1\n      sload\n      tag_120\n      swap1\n      tag_102\n      jump\t// in\n    tag_120:\n      dup1\n      iszero\n      tag_121\n      jumpi\n      dup1\n      0x1f\n      lt\n      tag_122\n      jumpi\n      0x0100\n      dup1\n      dup4\n      sload\n      div\n      mul\n      dup4\n      mstore\n      swap2\n      0x20\n      add\n      swap2\n      jump(tag_121)\n    tag_122:\n      dup3\n      add\n      swap2\n      swap1\n      0x00\n      mstore\n      keccak256(0x00, 0x20)\n      swap1\n    tag_123:\n      dup2\n      sload\n      dup2\n      mstore\n      swap1\n      0x01\n      add\n      swap1\n      0x20\n      add\n      dup1\n      dup4\n      gt\n      tag_123\n      jumpi\n      dup3\n      swap1\n      sub\n      0x1f\n      and\n      dup3\n      add\n      swap2\n    tag_121:\n      pop\n      pop\n      pop\n      pop\n      pop\n      swap1\n      dup1\n      0x01\n      add\n      dup1\n      sload\n      tag_124\n      swap1\n      tag_102\n      jump\t// in\n    tag_124:\n      dup1\n      0x1f\n      add\n      0x20\n      dup1\n      swap2\n      div\n      mul\n      0x20\n      add\n      mload(0x40)\n      swap1\n      dup2\n      add\n      0x40\n      mstore\n      dup1\n      swap3\n      swap2\n      swap1\n      dup2\n      dup2\n      mstore\n      0x20\n      add\n      dup3\n      dup1\n      sload\n      tag_125\n      swap1\n      tag_102\n      jump\t// in\n    tag_125:\n      dup1\n      iszero\n      tag_126\n      jumpi\n      dup1\n      0x1f\n      lt\n      tag_127\n      jumpi\n      0x0100\n      dup1\n      dup4\n      sload\n      div\n      mul\n      dup4\n      mstore\n      swap2\n      0x20\n      add\n      swap2\n      jump(tag_126)\n    tag_127:\n      dup3\n      add\n      swap2\n      swap1\n      0x00\n      mstore\n      keccak256(0x00, 0x20)\n      swap1\n    tag_128:\n      dup2\n      sload\n      dup2\n      mstore\n      swap1\n      0x01\n      add\n      swap1\n      0x20\n      add\n      dup1\n      dup4\n      gt\n      tag_128\n      jumpi\n      dup3\n      swap1\n      sub\n      0x1f\n      and\n      dup3\n      add\n      swap2\n    tag_126:\n      pop\n      pop\n      pop\n      pop\n      pop\n      swap1\n      dup1\n      0x02\n      add\n      sload\n      swap1\n      dup1\n      0x03\n      add\n      sload\n      swap1\n      dup1\n      0x04\n      add\n      0x00\n      swap1\n      sload\n      swap1\n      0x0100\n      exp\n      swap1\n      div\n      0xff\n      and\n      swap1\n      pop\n      dup6\n      jump\t// out\n        /* \"contracts/Bookstore.sol\":2295:2622  function getBookDetails(uint256 _bookId) public view returns (string memory, string memory, uint256, uint256, bool) {... */\n    tag_42:\n        /* \"contracts/Bookstore.sol\":2357:2370  string memory */\n      0x60\n        /* \"contracts/Bookstore.sol\":2372:2385  string memory */\n      dup1\n        /* \"contracts/Bookstore.sol\":2387:2394  uint256 */\n      0x00\n        /* \"contracts/Bookstore.sol\":2396:2403  uint256 */\n      dup1\n        /* \"contracts/Bookstore.sol\":2405:2409  bool */\n      0x00\n        /* \"contracts/Bookstore.sol\":2440:2441  0 */\n      dup1\n        /* \"contracts/Bookstore.sol\":2430:2437  _bookId */\n      dup7\n        /* \"contracts/Bookstore.sol\":2430:2441  _bookId > 0 */\n      gt\n        /* \"contracts/Bookstore.sol\":2430:2465  _bookId > 0 && _bookId <= bookCount */\n      dup1\n      iszero\n      tag_130\n      jumpi\n      pop\n        /* \"contracts/Bookstore.sol\":2456:2465  bookCount */\n      sload(0x01)\n        /* \"contracts/Bookstore.sol\":2445:2452  _bookId */\n      dup7\n        /* \"contracts/Bookstore.sol\":2445:2465  _bookId <= bookCount */\n      gt\n      iszero\n        /* \"contracts/Bookstore.sol\":2430:2465  _bookId > 0 && _bookId <= bookCount */\n    tag_130:\n        /* \"contracts/Bookstore.sol\":2422:2485  require(_bookId > 0 && _bookId <= bookCount, \"Invalid book ID\") */\n      tag_131\n      jumpi\n      mload(0x40)\n      0x08c379a000000000000000000000000000000000000000000000000000000000\n      dup2\n      mstore\n      0x04\n      add\n      tag_132\n      swap1\n      tag_74\n      jump\t// in\n    tag_132:\n      mload(0x40)\n      dup1\n      swap2\n      sub\n      swap1\n      revert\n    tag_131:\n        /* \"contracts/Bookstore.sol\":2496:2512  Book memory book */\n      0x00\n        /* \"contracts/Bookstore.sol\":2515:2520  books */\n      dup1\n        /* \"contracts/Bookstore.sol\":2515:2529  books[_bookId] */\n      0x00\n        /* \"contracts/Bookstore.sol\":2521:2528  _bookId */\n      dup9\n        /* \"contracts/Bookstore.sol\":2515:2529  books[_bookId] */\n      dup2\n      mstore\n      0x20\n      add\n      swap1\n      dup2\n      mstore\n      0x20\n      add\n      0x00\n      keccak256\n        /* \"contracts/Bookstore.sol\":2496:2529  Book memory book = books[_bookId] */\n      mload(0x40)\n      dup1\n      0xa0\n      add\n      0x40\n      mstore\n      swap1\n      dup2\n      0x00\n      dup3\n      add\n      dup1\n      sload\n      tag_133\n      swap1\n      tag_102\n      jump\t// in\n    tag_133:\n      dup1\n      0x1f\n      add\n      0x20\n      dup1\n      swap2\n      div\n      mul\n      0x20\n      add\n      mload(0x40)\n      swap1\n      dup2\n      add\n      0x40\n      mstore\n      dup1\n      swap3\n      swap2\n      swap1\n      dup2\n      dup2\n      mstore\n      0x20\n      add\n      dup3\n      dup1\n      sload\n      tag_134\n      swap1\n      tag_102\n      jump\t// in\n    tag_134:\n      dup1\n      iszero\n      tag_135\n      jumpi\n      dup1\n      0x1f\n      lt\n      tag_136\n      jumpi\n      0x0100\n      dup1\n      dup4\n      sload\n      div\n      mul\n      dup4\n      mstore\n      swap2\n      0x20\n      add\n      swap2\n      jump(tag_135)\n    tag_136:\n      dup3\n      add\n      swap2\n      swap1\n      0x00\n      mstore\n      keccak256(0x00, 0x20)\n      swap1\n    tag_137:\n      dup2\n      sload\n      dup2\n      mstore\n      swap1\n      0x01\n      add\n      swap1\n      0x20\n      add\n      dup1\n      dup4\n      gt\n      tag_137\n      jumpi\n      dup3\n      swap1\n      sub\n      0x1f\n      and\n      dup3\n      add\n      swap2\n    tag_135:\n      pop\n      pop\n      pop\n      pop\n      pop\n      dup2\n      mstore\n      0x20\n      add\n      0x01\n      dup3\n      add\n      dup1\n      sload\n      tag_138\n      swap1\n      tag_102\n      jump\t// in\n    tag_138:\n      dup1\n      0x1f\n      add\n      0x20\n      dup1\n      swap2\n      div\n      mul\n      0x20\n      add\n      mload(0x40)\n      swap1\n      dup2\n      add\n      0x40\n      mstore\n      dup1\n      swap3\n      swap2\n      swap1\n      dup2\n      dup2\n      mstore\n      0x20\n      add\n      dup3\n      dup1\n      sload\n      tag_139\n      swap1\n      tag_102\n      jump\t// in\n    tag_139:\n      dup1\n      iszero\n      tag_140\n      jumpi\n      dup1\n      0x1f\n      lt\n      tag_141\n      jumpi\n      0x0100\n      dup1\n      dup4\n      sload\n      div\n      mul\n      dup4\n      mstore\n      swap2\n      0x20\n      add\n      swap2\n      jump(tag_140)\n    tag_141:\n      dup3\n      add\n      swap2\n      swap1\n      0x00\n      mstore\n      keccak256(0x00, 0x20)\n      swap1\n    tag_142:\n      dup2\n      sload\n      dup2\n      mstore\n      swap1\n      0x01\n      add\n      swap1\n      0x20\n      add\n      dup1\n      dup4\n      gt\n      tag_142\n      jumpi\n      dup3\n      swap1\n      sub\n      0x1f\n      and\n      dup3\n      add\n      swap2\n    tag_140:\n      pop\n      pop\n      pop\n      pop\n      pop\n      dup2\n      mstore\n      0x20\n      add\n      0x02\n      dup3\n      add\n      sload\n      dup2\n      mstore\n      0x20\n      add\n      0x03\n      dup3\n      add\n      sload\n      dup2\n      mstore\n      0x20\n      add\n      0x04\n      dup3\n      add\n      0x00\n      swap1\n      sload\n      swap1\n      0x0100\n      exp\n      swap1\n      div\n      0xff\n      and\n      iszero\n      iszero\n      iszero\n      iszero\n      dup2\n      mstore\n      pop\n      pop\n      swap1\n      pop\n        /* \"contracts/Bookstore.sol\":2548:2552  book */\n      dup1\n        /* \"contracts/Bookstore.sol\":2548:2558  book.title */\n      0x00\n      add\n      mload\n        /* \"contracts/Bookstore.sol\":2560:2564  book */\n      dup2\n        /* \"contracts/Bookstore.sol\":2560:2571  book.author */\n      0x20\n      add\n      mload\n        /* \"contracts/Bookstore.sol\":2573:2577  book */\n      dup3\n        /* \"contracts/Bookstore.sol\":2573:2583  book.price */\n      0x40\n      add\n      mload\n        /* \"contracts/Bookstore.sol\":2585:2589  book */\n      dup4\n        /* \"contracts/Bookstore.sol\":2585:2595  book.stock */\n      0x60\n      add\n      mload\n        /* \"contracts/Bookstore.sol\":2597:2601  book */\n      dup5\n        /* \"contracts/Bookstore.sol\":2597:2613  book.isAvailable */\n      0x80\n      add\n      mload\n        /* \"contracts/Bookstore.sol\":2540:2614  return (book.title, book.author, book.price, book.stock, book.isAvailable) */\n      swap6\n      pop\n      swap6\n      pop\n      swap6\n      pop\n      swap6\n      pop\n      swap6\n      pop\n      pop\n        /* \"contracts/Bookstore.sol\":2295:2622  function getBookDetails(uint256 _bookId) public view returns (string memory, string memory, uint256, uint256, bool) {... */\n      swap2\n      swap4\n      swap6\n      swap1\n      swap3\n      swap5\n      pop\n      jump\t// out\n        /* \"contracts/Bookstore.sol\":524:544  address public owner */\n    tag_46:\n      0x03\n      0x00\n      swap1\n      sload\n      swap1\n      0x0100\n      exp\n      swap1\n      div\n      0xffffffffffffffffffffffffffffffffffffffff\n      and\n      dup2\n      jump\t// out\n        /* \"contracts/Bookstore.sol\":3271:3429  function removeAllBooks() public onlyOwner {... */\n    tag_51:\n        /* \"contracts/Bookstore.sol\":664:669  owner */\n      0x03\n      0x00\n      swap1\n      sload\n      swap1\n      0x0100\n      exp\n      swap1\n      div\n      0xffffffffffffffffffffffffffffffffffffffff\n      and\n        /* \"contracts/Bookstore.sol\":650:669  msg.sender == owner */\n      0xffffffffffffffffffffffffffffffffffffffff\n      and\n        /* \"contracts/Bookstore.sol\":650:660  msg.sender */\n      caller\n        /* \"contracts/Bookstore.sol\":650:669  msg.sender == owner */\n      0xffffffffffffffffffffffffffffffffffffffff\n      and\n      eq\n        /* \"contracts/Bookstore.sol\":642:712  require(msg.sender == owner, \"Only the owner can perform this action\") */\n      tag_144\n      jumpi\n      mload(0x40)\n      0x08c379a000000000000000000000000000000000000000000000000000000000\n      dup2\n      mstore\n      0x04\n      add\n      tag_145\n      swap1\n      tag_146\n      jump\t// in\n    tag_145:\n      mload(0x40)\n      dup1\n      swap2\n      sub\n      swap1\n      revert\n    tag_144:\n        /* \"contracts/Bookstore.sol\":3330:3339  uint256 i */\n      0x00\n        /* \"contracts/Bookstore.sol\":3342:3343  1 */\n      0x01\n        /* \"contracts/Bookstore.sol\":3330:3343  uint256 i = 1 */\n      swap1\n      pop\n        /* \"contracts/Bookstore.sol\":3325:3422  for (uint256 i = 1; i <= bookCount; i++) {... */\n    tag_148:\n        /* \"contracts/Bookstore.sol\":3350:3359  bookCount */\n      sload(0x01)\n        /* \"contracts/Bookstore.sol\":3345:3346  i */\n      dup2\n        /* \"contracts/Bookstore.sol\":3345:3359  i <= bookCount */\n      gt\n        /* \"contracts/Bookstore.sol\":3325:3422  for (uint256 i = 1; i <= bookCount; i++) {... */\n      tag_149\n      jumpi\n        /* \"contracts/Bookstore.sol\":3404:3409  false */\n      0x00\n        /* \"contracts/Bookstore.sol\":3381:3386  books */\n      dup1\n        /* \"contracts/Bookstore.sol\":3381:3389  books[i] */\n      0x00\n        /* \"contracts/Bookstore.sol\":3387:3388  i */\n      dup4\n        /* \"contracts/Bookstore.sol\":3381:3389  books[i] */\n      dup2\n      mstore\n      0x20\n      add\n      swap1\n      dup2\n      mstore\n      0x20\n      add\n      0x00\n      keccak256\n        /* \"contracts/Bookstore.sol\":3381:3401  books[i].isAvailable */\n      0x04\n      add\n      0x00\n        /* \"contracts/Bookstore.sol\":3381:3409  books[i].isAvailable = false */\n      0x0100\n      exp\n      dup2\n      sload\n      dup2\n      0xff\n      mul\n      not\n      and\n      swap1\n      dup4\n      iszero\n      iszero\n      mul\n      or\n      swap1\n      sstore\n      pop\n        /* \"contracts/Bookstore.sol\":3361:3364  i++ */\n      dup1\n      dup1\n      tag_151\n      swap1\n      tag_87\n      jump\t// in\n    tag_151:\n      swap2\n      pop\n      pop\n        /* \"contracts/Bookstore.sol\":3325:3422  for (uint256 i = 1; i <= bookCount; i++) {... */\n      jump(tag_148)\n    tag_149:\n      pop\n        /* \"contracts/Bookstore.sol\":3271:3429  function removeAllBooks() public onlyOwner {... */\n      jump\t// out\n        /* \"contracts/Bookstore.sol\":1301:1643  function updateStock(uint256 _bookId, uint256 _newStock) public onlyOwner {... */\n    tag_56:\n        /* \"contracts/Bookstore.sol\":664:669  owner */\n      0x03\n      0x00\n      swap1\n      sload\n      swap1\n      0x0100\n      exp\n      swap1\n      div\n      0xffffffffffffffffffffffffffffffffffffffff\n      and\n        /* \"contracts/Bookstore.sol\":650:669  msg.sender == owner */\n      0xffffffffffffffffffffffffffffffffffffffff\n      and\n        /* \"contracts/Bookstore.sol\":650:660  msg.sender */\n      caller\n        /* \"contracts/Bookstore.sol\":650:669  msg.sender == owner */\n      0xffffffffffffffffffffffffffffffffffffffff\n      and\n      eq\n        /* \"contracts/Bookstore.sol\":642:712  require(msg.sender == owner, \"Only the owner can perform this action\") */\n      tag_153\n      jumpi\n      mload(0x40)\n      0x08c379a000000000000000000000000000000000000000000000000000000000\n      dup2\n      mstore\n      0x04\n      add\n      tag_154\n      swap1\n      tag_146\n      jump\t// in\n    tag_154:\n      mload(0x40)\n      dup1\n      swap2\n      sub\n      swap1\n      revert\n    tag_153:\n        /* \"contracts/Bookstore.sol\":1404:1405  0 */\n      0x00\n        /* \"contracts/Bookstore.sol\":1394:1401  _bookId */\n      dup3\n        /* \"contracts/Bookstore.sol\":1394:1405  _bookId > 0 */\n      gt\n        /* \"contracts/Bookstore.sol\":1394:1429  _bookId > 0 && _bookId <= bookCount */\n      dup1\n      iszero\n      tag_156\n      jumpi\n      pop\n        /* \"contracts/Bookstore.sol\":1420:1429  bookCount */\n      sload(0x01)\n        /* \"contracts/Bookstore.sol\":1409:1416  _bookId */\n      dup3\n        /* \"contracts/Bookstore.sol\":1409:1429  _bookId <= bookCount */\n      gt\n      iszero\n        /* \"contracts/Bookstore.sol\":1394:1429  _bookId > 0 && _bookId <= bookCount */\n    tag_156:\n        /* \"contracts/Bookstore.sol\":1386:1449  require(_bookId > 0 && _bookId <= bookCount, \"Invalid book ID\") */\n      tag_157\n      jumpi\n      mload(0x40)\n      0x08c379a000000000000000000000000000000000000000000000000000000000\n      dup2\n      mstore\n      0x04\n      add\n      tag_158\n      swap1\n      tag_74\n      jump\t// in\n    tag_158:\n      mload(0x40)\n      dup1\n      swap2\n      sub\n      swap1\n      revert\n    tag_157:\n        /* \"contracts/Bookstore.sol\":1480:1481  0 */\n      0x00\n        /* \"contracts/Bookstore.sol\":1468:1477  _newStock */\n      dup2\n        /* \"contracts/Bookstore.sol\":1468:1481  _newStock > 0 */\n      gt\n        /* \"contracts/Bookstore.sol\":1460:1519  require(_newStock > 0, \"Stock should be greater than zero\") */\n      tag_159\n      jumpi\n      mload(0x40)\n      0x08c379a000000000000000000000000000000000000000000000000000000000\n      dup2\n      mstore\n      0x04\n      add\n      tag_160\n      swap1\n      tag_161\n      jump\t// in\n    tag_160:\n      mload(0x40)\n      dup1\n      swap2\n      sub\n      swap1\n      revert\n    tag_159:\n        /* \"contracts/Bookstore.sol\":1538:1543  books */\n      0x00\n        /* \"contracts/Bookstore.sol\":1538:1552  books[_bookId] */\n      dup1\n        /* \"contracts/Bookstore.sol\":1544:1551  _bookId */\n      dup4\n        /* \"contracts/Bookstore.sol\":1538:1552  books[_bookId] */\n      dup2\n      mstore\n      0x20\n      add\n      swap1\n      dup2\n      mstore\n      0x20\n      add\n      0x00\n      keccak256\n        /* \"contracts/Bookstore.sol\":1538:1564  books[_bookId].isAvailable */\n      0x04\n      add\n      0x00\n      swap1\n      sload\n      swap1\n      0x0100\n      exp\n      swap1\n      div\n      0xff\n      and\n        /* \"contracts/Bookstore.sol\":1530:1590  require(books[_bookId].isAvailable, \"Book is not available\") */\n      tag_162\n      jumpi\n      mload(0x40)\n      0x08c379a000000000000000000000000000000000000000000000000000000000\n      dup2\n      mstore\n      0x04\n      add\n      tag_163\n      swap1\n      tag_77\n      jump\t// in\n    tag_163:\n      mload(0x40)\n      dup1\n      swap2\n      sub\n      swap1\n      revert\n    tag_162:\n        /* \"contracts/Bookstore.sol\":1626:1635  _newStock */\n      dup1\n        /* \"contracts/Bookstore.sol\":1603:1608  books */\n      0x00\n        /* \"contracts/Bookstore.sol\":1603:1617  books[_bookId] */\n      dup1\n        /* \"contracts/Bookstore.sol\":1609:1616  _bookId */\n      dup5\n        /* \"contracts/Bookstore.sol\":1603:1617  books[_bookId] */\n      dup2\n      mstore\n      0x20\n      add\n      swap1\n      dup2\n      mstore\n      0x20\n      add\n      0x00\n      keccak256\n        /* \"contracts/Bookstore.sol\":1603:1623  books[_bookId].stock */\n      0x03\n      add\n        /* \"contracts/Bookstore.sol\":1603:1635  books[_bookId].stock = _newStock */\n      dup2\n      swap1\n      sstore\n      pop\n        /* \"contracts/Bookstore.sol\":1301:1643  function updateStock(uint256 _bookId, uint256 _newStock) public onlyOwner {... */\n      pop\n      pop\n      jump\t// out\n        /* \"contracts/Bookstore.sol\":347:375  uint256 public bookCount = 0 */\n    tag_59:\n      sload(0x01)\n      dup2\n      jump\t// out\n        /* \"contracts/Bookstore.sol\":2969:3226  function removeBook(uint256 _bookId) public onlyOwner {... */\n    tag_64:\n        /* \"contracts/Bookstore.sol\":664:669  owner */\n      0x03\n      0x00\n      swap1\n      sload\n      swap1\n      0x0100\n      exp\n      swap1\n      div\n      0xffffffffffffffffffffffffffffffffffffffff\n      and\n        /* \"contracts/Bookstore.sol\":650:669  msg.sender == owner */\n      0xffffffffffffffffffffffffffffffffffffffff\n      and\n        /* \"contracts/Bookstore.sol\":650:660  msg.sender */\n      caller\n        /* \"contracts/Bookstore.sol\":650:669  msg.sender == owner */\n      0xffffffffffffffffffffffffffffffffffffffff\n      and\n      eq\n        /* \"contracts/Bookstore.sol\":642:712  require(msg.sender == owner, \"Only the owner can perform this action\") */\n      tag_165\n      jumpi\n      mload(0x40)\n      0x08c379a000000000000000000000000000000000000000000000000000000000\n      dup2\n      mstore\n      0x04\n      add\n      tag_166\n      swap1\n      tag_146\n      jump\t// in\n    tag_166:\n      mload(0x40)\n      dup1\n      swap2\n      sub\n      swap1\n      revert\n    tag_165:\n        /* \"contracts/Bookstore.sol\":3052:3053  0 */\n      0x00\n        /* \"contracts/Bookstore.sol\":3042:3049  _bookId */\n      dup2\n        /* \"contracts/Bookstore.sol\":3042:3053  _bookId > 0 */\n      gt\n        /* \"contracts/Bookstore.sol\":3042:3077  _bookId > 0 && _bookId <= bookCount */\n      dup1\n      iszero\n      tag_168\n      jumpi\n      pop\n        /* \"contracts/Bookstore.sol\":3068:3077  bookCount */\n      sload(0x01)\n        /* \"contracts/Bookstore.sol\":3057:3064  _bookId */\n      dup2\n        /* \"contracts/Bookstore.sol\":3057:3077  _bookId <= bookCount */\n      gt\n      iszero\n        /* \"contracts/Bookstore.sol\":3042:3077  _bookId > 0 && _bookId <= bookCount */\n    tag_168:\n        /* \"contracts/Bookstore.sol\":3034:3097  require(_bookId > 0 && _bookId <= bookCount, \"Invalid book ID\") */\n      tag_169\n      jumpi\n      mload(0x40)\n      0x08c379a000000000000000000000000000000000000000000000000000000000\n      dup2\n      mstore\n      0x04\n      add\n      tag_170\n      swap1\n      tag_74\n      jump\t// in\n    tag_170:\n      mload(0x40)\n      dup1\n      swap2\n      sub\n      swap1\n      revert\n    tag_169:\n        /* \"contracts/Bookstore.sol\":3116:3121  books */\n      0x00\n        /* \"contracts/Bookstore.sol\":3116:3130  books[_bookId] */\n      dup1\n        /* \"contracts/Bookstore.sol\":3122:3129  _bookId */\n      dup3\n        /* \"contracts/Bookstore.sol\":3116:3130  books[_bookId] */\n      dup2\n      mstore\n      0x20\n      add\n      swap1\n      dup2\n      mstore\n      0x20\n      add\n      0x00\n      keccak256\n        /* \"contracts/Bookstore.sol\":3116:3142  books[_bookId].isAvailable */\n      0x04\n      add\n      0x00\n      swap1\n      sload\n      swap1\n      0x0100\n      exp\n      swap1\n      div\n      0xff\n      and\n        /* \"contracts/Bookstore.sol\":3108:3170  require(books[_bookId].isAvailable, \"Book is already removed\") */\n      tag_171\n      jumpi\n      mload(0x40)\n      0x08c379a000000000000000000000000000000000000000000000000000000000\n      dup2\n      mstore\n      0x04\n      add\n      tag_172\n      swap1\n      tag_173\n      jump\t// in\n    tag_172:\n      mload(0x40)\n      dup1\n      swap2\n      sub\n      swap1\n      revert\n    tag_171:\n        /* \"contracts/Bookstore.sol\":3212:3217  false */\n      0x00\n        /* \"contracts/Bookstore.sol\":3183:3188  books */\n      dup1\n        /* \"contracts/Bookstore.sol\":3183:3197  books[_bookId] */\n      0x00\n        /* \"contracts/Bookstore.sol\":3189:3196  _bookId */\n      dup4\n        /* \"contracts/Bookstore.sol\":3183:3197  books[_bookId] */\n      dup2\n      mstore\n      0x20\n      add\n      swap1\n      dup2\n      mstore\n      0x20\n      add\n      0x00\n      keccak256\n        /* \"contracts/Bookstore.sol\":3183:3209  books[_bookId].isAvailable */\n      0x04\n      add\n      0x00\n        /* \"contracts/Bookstore.sol\":3183:3217  books[_bookId].isAvailable = false */\n      0x0100\n      exp\n      dup2\n      sload\n      dup2\n      0xff\n      mul\n      not\n      and\n      swap1\n      dup4\n      iszero\n      iszero\n      mul\n      or\n      swap1\n      sstore\n      pop\n        /* \"contracts/Bookstore.sol\":2969:3226  function removeBook(uint256 _bookId) public onlyOwner {... */\n      pop\n      jump\t// out\n        /* \"contracts/Bookstore.sol\":896:1246  function addBook(string memory _title, string memory _author, uint256 _price, uint256 _stock) public onlyOwner {... */\n    tag_69:\n        /* \"contracts/Bookstore.sol\":664:669  owner */\n      0x03\n      0x00\n      swap1\n      sload\n      swap1\n      0x0100\n      exp\n      swap1\n      div\n      0xffffffffffffffffffffffffffffffffffffffff\n      and\n        /* \"contracts/Bookstore.sol\":650:669  msg.sender == owner */\n      0xffffffffffffffffffffffffffffffffffffffff\n      and\n        /* \"contracts/Bookstore.sol\":650:660  msg.sender */\n      caller\n        /* \"contracts/Bookstore.sol\":650:669  msg.sender == owner */\n      0xffffffffffffffffffffffffffffffffffffffff\n      and\n      eq\n        /* \"contracts/Bookstore.sol\":642:712  require(msg.sender == owner, \"Only the owner can perform this action\") */\n      tag_175\n      jumpi\n      mload(0x40)\n      0x08c379a000000000000000000000000000000000000000000000000000000000\n      dup2\n      mstore\n      0x04\n      add\n      tag_176\n      swap1\n      tag_146\n      jump\t// in\n    tag_176:\n      mload(0x40)\n      dup1\n      swap2\n      sub\n      swap1\n      revert\n    tag_175:\n        /* \"contracts/Bookstore.sol\":1035:1036  0 */\n      0x00\n        /* \"contracts/Bookstore.sol\":1026:1032  _price */\n      dup3\n        /* \"contracts/Bookstore.sol\":1026:1036  _price > 0 */\n      gt\n        /* \"contracts/Bookstore.sol\":1018:1074  require(_price > 0, \"Price should be greater than zero\") */\n      tag_178\n      jumpi\n      mload(0x40)\n      0x08c379a000000000000000000000000000000000000000000000000000000000\n      dup2\n      mstore\n      0x04\n      add\n      tag_179\n      swap1\n      tag_180\n      jump\t// in\n    tag_179:\n      mload(0x40)\n      dup1\n      swap2\n      sub\n      swap1\n      revert\n    tag_178:\n        /* \"contracts/Bookstore.sol\":1102:1103  0 */\n      0x00\n        /* \"contracts/Bookstore.sol\":1093:1099  _stock */\n      dup2\n        /* \"contracts/Bookstore.sol\":1093:1103  _stock > 0 */\n      gt\n        /* \"contracts/Bookstore.sol\":1085:1141  require(_stock > 0, \"Stock should be greater than zero\") */\n      tag_181\n      jumpi\n      mload(0x40)\n      0x08c379a000000000000000000000000000000000000000000000000000000000\n      dup2\n      mstore\n      0x04\n      add\n      tag_182\n      swap1\n      tag_161\n      jump\t// in\n    tag_182:\n      mload(0x40)\n      dup1\n      swap2\n      sub\n      swap1\n      revert\n    tag_181:\n        /* \"contracts/Bookstore.sol\":1154:1163  bookCount */\n      0x01\n      0x00\n        /* \"contracts/Bookstore.sol\":1154:1165  bookCount++ */\n      dup2\n      sload\n      dup1\n      swap3\n      swap2\n      swap1\n      tag_183\n      swap1\n      tag_87\n      jump\t// in\n    tag_183:\n      swap2\n      swap1\n      pop\n      sstore\n      pop\n        /* \"contracts/Bookstore.sol\":1195:1238  Book(_title, _author, _price, _stock, true) */\n      mload(0x40)\n      dup1\n      0xa0\n      add\n      0x40\n      mstore\n      dup1\n        /* \"contracts/Bookstore.sol\":1200:1206  _title */\n      dup6\n        /* \"contracts/Bookstore.sol\":1195:1238  Book(_title, _author, _price, _stock, true) */\n      dup2\n      mstore\n      0x20\n      add\n        /* \"contracts/Bookstore.sol\":1208:1215  _author */\n      dup5\n        /* \"contracts/Bookstore.sol\":1195:1238  Book(_title, _author, _price, _stock, true) */\n      dup2\n      mstore\n      0x20\n      add\n        /* \"contracts/Bookstore.sol\":1217:1223  _price */\n      dup4\n        /* \"contracts/Bookstore.sol\":1195:1238  Book(_title, _author, _price, _stock, true) */\n      dup2\n      mstore\n      0x20\n      add\n        /* \"contracts/Bookstore.sol\":1225:1231  _stock */\n      dup3\n        /* \"contracts/Bookstore.sol\":1195:1238  Book(_title, _author, _price, _stock, true) */\n      dup2\n      mstore\n      0x20\n      add\n        /* \"contracts/Bookstore.sol\":1233:1237  true */\n      0x01\n        /* \"contracts/Bookstore.sol\":1195:1238  Book(_title, _author, _price, _stock, true) */\n      iszero\n      iszero\n      dup2\n      mstore\n      pop\n        /* \"contracts/Bookstore.sol\":1176:1181  books */\n      0x00\n        /* \"contracts/Bookstore.sol\":1176:1192  books[bookCount] */\n      dup1\n        /* \"contracts/Bookstore.sol\":1182:1191  bookCount */\n      sload(0x01)\n        /* \"contracts/Bookstore.sol\":1176:1192  books[bookCount] */\n      dup2\n      mstore\n      0x20\n      add\n      swap1\n      dup2\n      mstore\n      0x20\n      add\n      0x00\n      keccak256\n        /* \"contracts/Bookstore.sol\":1176:1238  books[bookCount] = Book(_title, _author, _price, _stock, true) */\n      0x00\n      dup3\n      add\n      mload\n      dup2\n      0x00\n      add\n      swap1\n      dup2\n      tag_184\n      swap2\n      swap1\n      tag_185\n      jump\t// in\n    tag_184:\n      pop\n      0x20\n      dup3\n      add\n      mload\n      dup2\n      0x01\n      add\n      swap1\n      dup2\n      tag_186\n      swap2\n      swap1\n      tag_185\n      jump\t// in\n    tag_186:\n      pop\n      0x40\n      dup3\n      add\n      mload\n      dup2\n      0x02\n      add\n      sstore\n      0x60\n      dup3\n      add\n      mload\n      dup2\n      0x03\n      add\n      sstore\n      0x80\n      dup3\n      add\n      mload\n      dup2\n      0x04\n      add\n      exp(0x0100, 0x00)\n      dup2\n      sload\n      dup2\n      0xff\n      mul\n      not\n      and\n      swap1\n      dup4\n      iszero\n      iszero\n      mul\n      or\n      swap1\n      sstore\n      pop\n      swap1\n      pop\n      pop\n        /* \"contracts/Bookstore.sol\":896:1246  function addBook(string memory _title, string memory _author, uint256 _price, uint256 _stock) public onlyOwner {... */\n      pop\n      pop\n      pop\n      pop\n      jump\t// out\n    tag_97:\n      mload(0x40)\n      dup1\n      0xa0\n      add\n      0x40\n      mstore\n      dup1\n      0x60\n      dup2\n      mstore\n      0x20\n      add\n      0x60\n      dup2\n      mstore\n      0x20\n      add\n      0x00\n      dup2\n      mstore\n      0x20\n      add\n      0x00\n      dup2\n      mstore\n      0x20\n      add\n      iszero(iszero(0x00))\n      dup2\n      mstore\n      pop\n      swap1\n      jump\t// out\n        /* \"#utility.yul\":7:82   */\n    tag_187:\n        /* \"#utility.yul\":40:46   */\n      0x00\n        /* \"#utility.yul\":73:75   */\n      0x40\n        /* \"#utility.yul\":67:76   */\n      mload\n        /* \"#utility.yul\":57:76   */\n      swap1\n      pop\n        /* \"#utility.yul\":7:82   */\n      swap1\n      jump\t// out\n        /* \"#utility.yul\":88:205   */\n    tag_188:\n        /* \"#utility.yul\":197:198   */\n      0x00\n        /* \"#utility.yul\":194:195   */\n      dup1\n        /* \"#utility.yul\":187:199   */\n      revert\n        /* \"#utility.yul\":211:328   */\n    tag_189:\n        /* \"#utility.yul\":320:321   */\n      0x00\n        /* \"#utility.yul\":317:318   */\n      dup1\n        /* \"#utility.yul\":310:322   */\n      revert\n        /* \"#utility.yul\":334:411   */\n    tag_190:\n        /* \"#utility.yul\":371:378   */\n      0x00\n        /* \"#utility.yul\":400:405   */\n      dup2\n        /* \"#utility.yul\":389:405   */\n      swap1\n      pop\n        /* \"#utility.yul\":334:411   */\n      swap2\n      swap1\n      pop\n      jump\t// out\n        /* \"#utility.yul\":417:539   */\n    tag_191:\n        /* \"#utility.yul\":490:514   */\n      tag_262\n        /* \"#utility.yul\":508:513   */\n      dup2\n        /* \"#utility.yul\":490:514   */\n      tag_190\n      jump\t// in\n    tag_262:\n        /* \"#utility.yul\":483:488   */\n      dup2\n        /* \"#utility.yul\":480:515   */\n      eq\n        /* \"#utility.yul\":470:533   */\n      tag_263\n      jumpi\n        /* \"#utility.yul\":529:530   */\n      0x00\n        /* \"#utility.yul\":526:527   */\n      dup1\n        /* \"#utility.yul\":519:531   */\n      revert\n        /* \"#utility.yul\":470:533   */\n    tag_263:\n        /* \"#utility.yul\":417:539   */\n      pop\n      jump\t// out\n        /* \"#utility.yul\":545:684   */\n    tag_192:\n        /* \"#utility.yul\":591:596   */\n      0x00\n        /* \"#utility.yul\":629:635   */\n      dup2\n        /* \"#utility.yul\":616:636   */\n      calldataload\n        /* \"#utility.yul\":607:636   */\n      swap1\n      pop\n        /* \"#utility.yul\":645:678   */\n      tag_265\n        /* \"#utility.yul\":672:677   */\n      dup2\n        /* \"#utility.yul\":645:678   */\n      tag_191\n      jump\t// in\n    tag_265:\n        /* \"#utility.yul\":545:684   */\n      swap3\n      swap2\n      pop\n      pop\n      jump\t// out\n        /* \"#utility.yul\":690:1019   */\n    tag_17:\n        /* \"#utility.yul\":749:755   */\n      0x00\n        /* \"#utility.yul\":798:800   */\n      0x20\n        /* \"#utility.yul\":786:795   */\n      dup3\n        /* \"#utility.yul\":777:784   */\n      dup5\n        /* \"#utility.yul\":773:796   */\n      sub\n        /* \"#utility.yul\":769:801   */\n      slt\n        /* \"#utility.yul\":766:885   */\n      iszero\n      tag_267\n      jumpi\n        /* \"#utility.yul\":804:883   */\n      tag_268\n      tag_188\n      jump\t// in\n    tag_268:\n        /* \"#utility.yul\":766:885   */\n    tag_267:\n        /* \"#utility.yul\":924:925   */\n      0x00\n        /* \"#utility.yul\":949:1002   */\n      tag_269\n        /* \"#utility.yul\":994:1001   */\n      dup5\n        /* \"#utility.yul\":985:991   */\n      dup3\n        /* \"#utility.yul\":974:983   */\n      dup6\n        /* \"#utility.yul\":970:992   */\n      add\n        /* \"#utility.yul\":949:1002   */\n      tag_192\n      jump\t// in\n    tag_269:\n        /* \"#utility.yul\":939:1002   */\n      swap2\n      pop\n        /* \"#utility.yul\":895:1012   */\n      pop\n        /* \"#utility.yul\":690:1019   */\n      swap3\n      swap2\n      pop\n      pop\n      jump\t// out\n        /* \"#utility.yul\":1025:1159   */\n    tag_193:\n        /* \"#utility.yul\":1112:1118   */\n      0x00\n        /* \"#utility.yul\":1146:1151   */\n      dup2\n        /* \"#utility.yul\":1140:1152   */\n      mload\n        /* \"#utility.yul\":1130:1152   */\n      swap1\n      pop\n        /* \"#utility.yul\":1025:1159   */\n      swap2\n      swap1\n      pop\n      jump\t// out\n        /* \"#utility.yul\":1165:1369   */\n    tag_194:\n        /* \"#utility.yul\":1284:1295   */\n      0x00\n        /* \"#utility.yul\":1318:1324   */\n      dup3\n        /* \"#utility.yul\":1313:1316   */\n      dup3\n        /* \"#utility.yul\":1306:1325   */\n      mstore\n        /* \"#utility.yul\":1358:1362   */\n      0x20\n        /* \"#utility.yul\":1353:1356   */\n      dup3\n        /* \"#utility.yul\":1349:1363   */\n      add\n        /* \"#utility.yul\":1334:1363   */\n      swap1\n      pop\n        /* \"#utility.yul\":1165:1369   */\n      swap3\n      swap2\n      pop\n      pop\n      jump\t// out\n        /* \"#utility.yul\":1375:1527   */\n    tag_195:\n        /* \"#utility.yul\":1462:1466   */\n      0x00\n        /* \"#utility.yul\":1485:1488   */\n      dup2\n        /* \"#utility.yul\":1477:1488   */\n      swap1\n      pop\n        /* \"#utility.yul\":1515:1519   */\n      0x20\n        /* \"#utility.yul\":1510:1513   */\n      dup3\n        /* \"#utility.yul\":1506:1520   */\n      add\n        /* \"#utility.yul\":1498:1520   */\n      swap1\n      pop\n        /* \"#utility.yul\":1375:1527   */\n      swap2\n      swap1\n      pop\n      jump\t// out\n        /* \"#utility.yul\":1533:1632   */\n    tag_196:\n        /* \"#utility.yul\":1585:1591   */\n      0x00\n        /* \"#utility.yul\":1619:1624   */\n      dup2\n        /* \"#utility.yul\":1613:1625   */\n      mload\n        /* \"#utility.yul\":1603:1625   */\n      swap1\n      pop\n        /* \"#utility.yul\":1533:1632   */\n      swap2\n      swap1\n      pop\n      jump\t// out\n        /* \"#utility.yul\":1638:1797   */\n    tag_197:\n        /* \"#utility.yul\":1712:1723   */\n      0x00\n        /* \"#utility.yul\":1746:1752   */\n      dup3\n        /* \"#utility.yul\":1741:1744   */\n      dup3\n        /* \"#utility.yul\":1734:1753   */\n      mstore\n        /* \"#utility.yul\":1786:1790   */\n      0x20\n        /* \"#utility.yul\":1781:1784   */\n      dup3\n        /* \"#utility.yul\":1777:1791   */\n      add\n        /* \"#utility.yul\":1762:1791   */\n      swap1\n      pop\n        /* \"#utility.yul\":1638:1797   */\n      swap3\n      swap2\n      pop\n      pop\n      jump\t// out\n        /* \"#utility.yul\":1803:1942   */\n    tag_198:\n        /* \"#utility.yul\":1892:1898   */\n      dup3\n        /* \"#utility.yul\":1887:1890   */\n      dup2\n        /* \"#utility.yul\":1882:1885   */\n      dup4\n        /* \"#utility.yul\":1876:1899   */\n      mcopy\n        /* \"#utility.yul\":1933:1934   */\n      0x00\n        /* \"#utility.yul\":1924:1930   */\n      dup4\n        /* \"#utility.yul\":1919:1922   */\n      dup4\n        /* \"#utility.yul\":1915:1931   */\n      add\n        /* \"#utility.yul\":1908:1935   */\n      mstore\n        /* \"#utility.yul\":1803:1942   */\n      pop\n      pop\n      pop\n      jump\t// out\n        /* \"#utility.yul\":1948:2050   */\n    tag_199:\n        /* \"#utility.yul\":1989:1995   */\n      0x00\n        /* \"#utility.yul\":2040:2042   */\n      0x1f\n        /* \"#utility.yul\":2036:2043   */\n      not\n        /* \"#utility.yul\":2031:2033   */\n      0x1f\n        /* \"#utility.yul\":2024:2029   */\n      dup4\n        /* \"#utility.yul\":2020:2034   */\n      add\n        /* \"#utility.yul\":2016:2044   */\n      and\n        /* \"#utility.yul\":2006:2044   */\n      swap1\n      pop\n        /* \"#utility.yul\":1948:2050   */\n      swap2\n      swap1\n      pop\n      jump\t// out\n        /* \"#utility.yul\":2056:2413   */\n    tag_200:\n        /* \"#utility.yul\":2134:2137   */\n      0x00\n        /* \"#utility.yul\":2162:2201   */\n      tag_278\n        /* \"#utility.yul\":2195:2200   */\n      dup3\n        /* \"#utility.yul\":2162:2201   */\n      tag_196\n      jump\t// in\n    tag_278:\n        /* \"#utility.yul\":2217:2278   */\n      tag_279\n        /* \"#utility.yul\":2271:2277   */\n      dup2\n        /* \"#utility.yul\":2266:2269   */\n      dup6\n        /* \"#utility.yul\":2217:2278   */\n      tag_197\n      jump\t// in\n    tag_279:\n        /* \"#utility.yul\":2210:2278   */\n      swap4\n      pop\n        /* \"#utility.yul\":2287:2352   */\n      tag_280\n        /* \"#utility.yul\":2345:2351   */\n      dup2\n        /* \"#utility.yul\":2340:2343   */\n      dup6\n        /* \"#utility.yul\":2333:2337   */\n      0x20\n        /* \"#utility.yul\":2326:2331   */\n      dup7\n        /* \"#utility.yul\":2322:2338   */\n      add\n        /* \"#utility.yul\":2287:2352   */\n      tag_198\n      jump\t// in\n    tag_280:\n        /* \"#utility.yul\":2377:2406   */\n      tag_281\n        /* \"#utility.yul\":2399:2405   */\n      dup2\n        /* \"#utility.yul\":2377:2406   */\n      tag_199\n      jump\t// in\n    tag_281:\n        /* \"#utility.yul\":2372:2375   */\n      dup5\n        /* \"#utility.yul\":2368:2407   */\n      add\n        /* \"#utility.yul\":2361:2407   */\n      swap2\n      pop\n        /* \"#utility.yul\":2138:2413   */\n      pop\n        /* \"#utility.yul\":2056:2413   */\n      swap3\n      swap2\n      pop\n      pop\n      jump\t// out\n        /* \"#utility.yul\":2419:2527   */\n    tag_201:\n        /* \"#utility.yul\":2496:2520   */\n      tag_283\n        /* \"#utility.yul\":2514:2519   */\n      dup2\n        /* \"#utility.yul\":2496:2520   */\n      tag_190\n      jump\t// in\n    tag_283:\n        /* \"#utility.yul\":2491:2494   */\n      dup3\n        /* \"#utility.yul\":2484:2521   */\n      mstore\n        /* \"#utility.yul\":2419:2527   */\n      pop\n      pop\n      jump\t// out\n        /* \"#utility.yul\":2533:2623   */\n    tag_202:\n        /* \"#utility.yul\":2567:2574   */\n      0x00\n        /* \"#utility.yul\":2610:2615   */\n      dup2\n        /* \"#utility.yul\":2603:2616   */\n      iszero\n        /* \"#utility.yul\":2596:2617   */\n      iszero\n        /* \"#utility.yul\":2585:2617   */\n      swap1\n      pop\n        /* \"#utility.yul\":2533:2623   */\n      swap2\n      swap1\n      pop\n      jump\t// out\n        /* \"#utility.yul\":2629:2728   */\n    tag_203:\n        /* \"#utility.yul\":2700:2721   */\n      tag_286\n        /* \"#utility.yul\":2715:2720   */\n      dup2\n        /* \"#utility.yul\":2700:2721   */\n      tag_202\n      jump\t// in\n    tag_286:\n        /* \"#utility.yul\":2695:2698   */\n      dup3\n        /* \"#utility.yul\":2688:2722   */\n      mstore\n        /* \"#utility.yul\":2629:2728   */\n      pop\n      pop\n      jump\t// out\n        /* \"#utility.yul\":2788:3973   */\n    tag_204:\n        /* \"#utility.yul\":2887:2890   */\n      0x00\n        /* \"#utility.yul\":2923:2927   */\n      0xa0\n        /* \"#utility.yul\":2918:2921   */\n      dup4\n        /* \"#utility.yul\":2914:2928   */\n      add\n        /* \"#utility.yul\":3011:3015   */\n      0x00\n        /* \"#utility.yul\":3004:3009   */\n      dup4\n        /* \"#utility.yul\":3000:3016   */\n      add\n        /* \"#utility.yul\":2994:3017   */\n      mload\n        /* \"#utility.yul\":3064:3067   */\n      dup5\n        /* \"#utility.yul\":3058:3062   */\n      dup3\n        /* \"#utility.yul\":3054:3068   */\n      sub\n        /* \"#utility.yul\":3047:3051   */\n      0x00\n        /* \"#utility.yul\":3042:3045   */\n      dup7\n        /* \"#utility.yul\":3038:3052   */\n      add\n        /* \"#utility.yul\":3031:3069   */\n      mstore\n        /* \"#utility.yul\":3090:3163   */\n      tag_288\n        /* \"#utility.yul\":3158:3162   */\n      dup3\n        /* \"#utility.yul\":3144:3156   */\n      dup3\n        /* \"#utility.yul\":3090:3163   */\n      tag_200\n      jump\t// in\n    tag_288:\n        /* \"#utility.yul\":3082:3163   */\n      swap2\n      pop\n        /* \"#utility.yul\":2938:3174   */\n      pop\n        /* \"#utility.yul\":3258:3262   */\n      0x20\n        /* \"#utility.yul\":3251:3256   */\n      dup4\n        /* \"#utility.yul\":3247:3263   */\n      add\n        /* \"#utility.yul\":3241:3264   */\n      mload\n        /* \"#utility.yul\":3311:3314   */\n      dup5\n        /* \"#utility.yul\":3305:3309   */\n      dup3\n        /* \"#utility.yul\":3301:3315   */\n      sub\n        /* \"#utility.yul\":3294:3298   */\n      0x20\n        /* \"#utility.yul\":3289:3292   */\n      dup7\n        /* \"#utility.yul\":3285:3299   */\n      add\n        /* \"#utility.yul\":3278:3316   */\n      mstore\n        /* \"#utility.yul\":3337:3410   */\n      tag_289\n        /* \"#utility.yul\":3405:3409   */\n      dup3\n        /* \"#utility.yul\":3391:3403   */\n      dup3\n        /* \"#utility.yul\":3337:3410   */\n      tag_200\n      jump\t// in\n    tag_289:\n        /* \"#utility.yul\":3329:3410   */\n      swap2\n      pop\n        /* \"#utility.yul\":3184:3421   */\n      pop\n        /* \"#utility.yul\":3504:3508   */\n      0x40\n        /* \"#utility.yul\":3497:3502   */\n      dup4\n        /* \"#utility.yul\":3493:3509   */\n      add\n        /* \"#utility.yul\":3487:3510   */\n      mload\n        /* \"#utility.yul\":3523:3586   */\n      tag_290\n        /* \"#utility.yul\":3580:3584   */\n      0x40\n        /* \"#utility.yul\":3575:3578   */\n      dup7\n        /* \"#utility.yul\":3571:3585   */\n      add\n        /* \"#utility.yul\":3557:3569   */\n      dup3\n        /* \"#utility.yul\":3523:3586   */\n      tag_201\n      jump\t// in\n    tag_290:\n        /* \"#utility.yul\":3431:3596   */\n      pop\n        /* \"#utility.yul\":3679:3683   */\n      0x60\n        /* \"#utility.yul\":3672:3677   */\n      dup4\n        /* \"#utility.yul\":3668:3684   */\n      add\n        /* \"#utility.yul\":3662:3685   */\n      mload\n        /* \"#utility.yul\":3698:3761   */\n      tag_291\n        /* \"#utility.yul\":3755:3759   */\n      0x60\n        /* \"#utility.yul\":3750:3753   */\n      dup7\n        /* \"#utility.yul\":3746:3760   */\n      add\n        /* \"#utility.yul\":3732:3744   */\n      dup3\n        /* \"#utility.yul\":3698:3761   */\n      tag_201\n      jump\t// in\n    tag_291:\n        /* \"#utility.yul\":3606:3771   */\n      pop\n        /* \"#utility.yul\":3860:3864   */\n      0x80\n        /* \"#utility.yul\":3853:3858   */\n      dup4\n        /* \"#utility.yul\":3849:3865   */\n      add\n        /* \"#utility.yul\":3843:3866   */\n      mload\n        /* \"#utility.yul\":3879:3936   */\n      tag_292\n        /* \"#utility.yul\":3930:3934   */\n      0x80\n        /* \"#utility.yul\":3925:3928   */\n      dup7\n        /* \"#utility.yul\":3921:3935   */\n      add\n        /* \"#utility.yul\":3907:3919   */\n      dup3\n        /* \"#utility.yul\":3879:3936   */\n      tag_203\n      jump\t// in\n    tag_292:\n        /* \"#utility.yul\":3781:3946   */\n      pop\n        /* \"#utility.yul\":3963:3967   */\n      dup1\n        /* \"#utility.yul\":3956:3967   */\n      swap2\n      pop\n        /* \"#utility.yul\":2892:3973   */\n      pop\n        /* \"#utility.yul\":2788:3973   */\n      swap3\n      swap2\n      pop\n      pop\n      jump\t// out\n        /* \"#utility.yul\":3979:4215   */\n    tag_205:\n        /* \"#utility.yul\":4088:4098   */\n      0x00\n        /* \"#utility.yul\":4123:4209   */\n      tag_294\n        /* \"#utility.yul\":4205:4208   */\n      dup4\n        /* \"#utility.yul\":4197:4203   */\n      dup4\n        /* \"#utility.yul\":4123:4209   */\n      tag_204\n      jump\t// in\n    tag_294:\n        /* \"#utility.yul\":4109:4209   */\n      swap1\n      pop\n        /* \"#utility.yul\":3979:4215   */\n      swap3\n      swap2\n      pop\n      pop\n      jump\t// out\n        /* \"#utility.yul\":4221:4354   */\n    tag_206:\n        /* \"#utility.yul\":4311:4315   */\n      0x00\n        /* \"#utility.yul\":4343:4347   */\n      0x20\n        /* \"#utility.yul\":4338:4341   */\n      dup3\n        /* \"#utility.yul\":4334:4348   */\n      add\n        /* \"#utility.yul\":4326:4348   */\n      swap1\n      pop\n        /* \"#utility.yul\":4221:4354   */\n      swap2\n      swap1\n      pop\n      jump\t// out\n        /* \"#utility.yul\":4418:5489   */\n    tag_207:\n        /* \"#utility.yul\":4577:4580   */\n      0x00\n        /* \"#utility.yul\":4606:4680   */\n      tag_297\n        /* \"#utility.yul\":4674:4679   */\n      dup3\n        /* \"#utility.yul\":4606:4680   */\n      tag_193\n      jump\t// in\n    tag_297:\n        /* \"#utility.yul\":4696:4802   */\n      tag_298\n        /* \"#utility.yul\":4795:4801   */\n      dup2\n        /* \"#utility.yul\":4790:4793   */\n      dup6\n        /* \"#utility.yul\":4696:4802   */\n      tag_194\n      jump\t// in\n    tag_298:\n        /* \"#utility.yul\":4689:4802   */\n      swap4\n      pop\n        /* \"#utility.yul\":4828:4831   */\n      dup4\n        /* \"#utility.yul\":4873:4877   */\n      0x20\n        /* \"#utility.yul\":4865:4871   */\n      dup3\n        /* \"#utility.yul\":4861:4878   */\n      mul\n        /* \"#utility.yul\":4856:4859   */\n      dup6\n        /* \"#utility.yul\":4852:4879   */\n      add\n        /* \"#utility.yul\":4903:4979   */\n      tag_299\n        /* \"#utility.yul\":4973:4978   */\n      dup6\n        /* \"#utility.yul\":4903:4979   */\n      tag_195\n      jump\t// in\n    tag_299:\n        /* \"#utility.yul\":5002:5009   */\n      dup1\n        /* \"#utility.yul\":5033:5034   */\n      0x00\n        /* \"#utility.yul\":5018:5444   */\n    tag_300:\n        /* \"#utility.yul\":5043:5049   */\n      dup6\n        /* \"#utility.yul\":5040:5041   */\n      dup2\n        /* \"#utility.yul\":5037:5050   */\n      lt\n        /* \"#utility.yul\":5018:5444   */\n      iszero\n      tag_302\n      jumpi\n        /* \"#utility.yul\":5114:5123   */\n      dup5\n        /* \"#utility.yul\":5108:5112   */\n      dup5\n        /* \"#utility.yul\":5104:5124   */\n      sub\n        /* \"#utility.yul\":5099:5102   */\n      dup10\n        /* \"#utility.yul\":5092:5125   */\n      mstore\n        /* \"#utility.yul\":5165:5171   */\n      dup2\n        /* \"#utility.yul\":5159:5172   */\n      mload\n        /* \"#utility.yul\":5193:5297   */\n      tag_303\n        /* \"#utility.yul\":5292:5296   */\n      dup6\n        /* \"#utility.yul\":5277:5290   */\n      dup3\n        /* \"#utility.yul\":5193:5297   */\n      tag_205\n      jump\t// in\n    tag_303:\n        /* \"#utility.yul\":5185:5297   */\n      swap5\n      pop\n        /* \"#utility.yul\":5320:5400   */\n      tag_304\n        /* \"#utility.yul\":5393:5399   */\n      dup4\n        /* \"#utility.yul\":5320:5400   */\n      tag_206\n      jump\t// in\n    tag_304:\n        /* \"#utility.yul\":5310:5400   */\n      swap3\n      pop\n        /* \"#utility.yul\":5429:5433   */\n      0x20\n        /* \"#utility.yul\":5424:5427   */\n      dup11\n        /* \"#utility.yul\":5420:5434   */\n      add\n        /* \"#utility.yul\":5413:5434   */\n      swap10\n      pop\n        /* \"#utility.yul\":5078:5444   */\n      pop\n        /* \"#utility.yul\":5065:5066   */\n      0x01\n        /* \"#utility.yul\":5062:5063   */\n      dup2\n        /* \"#utility.yul\":5058:5067   */\n      add\n        /* \"#utility.yul\":5053:5067   */\n      swap1\n      pop\n        /* \"#utility.yul\":5018:5444   */\n      jump(tag_300)\n    tag_302:\n        /* \"#utility.yul\":5022:5036   */\n      pop\n        /* \"#utility.yul\":5460:5464   */\n      dup3\n        /* \"#utility.yul\":5453:5464   */\n      swap8\n      pop\n        /* \"#utility.yul\":5480:5483   */\n      dup8\n        /* \"#utility.yul\":5473:5483   */\n      swap6\n      pop\n        /* \"#utility.yul\":4582:5489   */\n      pop\n      pop\n      pop\n      pop\n      pop\n        /* \"#utility.yul\":4418:5489   */\n      swap3\n      swap2\n      pop\n      pop\n      jump\t// out\n        /* \"#utility.yul\":5495:5948   */\n    tag_23:\n        /* \"#utility.yul\":5678:5682   */\n      0x00\n        /* \"#utility.yul\":5716:5718   */\n      0x20\n        /* \"#utility.yul\":5705:5714   */\n      dup3\n        /* \"#utility.yul\":5701:5719   */\n      add\n        /* \"#utility.yul\":5693:5719   */\n      swap1\n      pop\n        /* \"#utility.yul\":5765:5774   */\n      dup2\n        /* \"#utility.yul\":5759:5763   */\n      dup2\n        /* \"#utility.yul\":5755:5775   */\n      sub\n        /* \"#utility.yul\":5751:5752   */\n      0x00\n        /* \"#utility.yul\":5740:5749   */\n      dup4\n        /* \"#utility.yul\":5736:5753   */\n      add\n        /* \"#utility.yul\":5729:5776   */\n      mstore\n        /* \"#utility.yul\":5793:5941   */\n      tag_306\n        /* \"#utility.yul\":5936:5940   */\n      dup2\n        /* \"#utility.yul\":5927:5933   */\n      dup5\n        /* \"#utility.yul\":5793:5941   */\n      tag_207\n      jump\t// in\n    tag_306:\n        /* \"#utility.yul\":5785:5941   */\n      swap1\n      pop\n        /* \"#utility.yul\":5495:5948   */\n      swap3\n      swap2\n      pop\n      pop\n      jump\t// out\n        /* \"#utility.yul\":5954:6072   */\n    tag_208:\n        /* \"#utility.yul\":6041:6065   */\n      tag_308\n        /* \"#utility.yul\":6059:6064   */\n      dup2\n        /* \"#utility.yul\":6041:6065   */\n      tag_190\n      jump\t// in\n    tag_308:\n        /* \"#utility.yul\":6036:6039   */\n      dup3\n        /* \"#utility.yul\":6029:6066   */\n      mstore\n        /* \"#utility.yul\":5954:6072   */\n      pop\n      pop\n      jump\t// out\n        /* \"#utility.yul\":6078:6300   */\n    tag_28:\n        /* \"#utility.yul\":6171:6175   */\n      0x00\n        /* \"#utility.yul\":6209:6211   */\n      0x20\n        /* \"#utility.yul\":6198:6207   */\n      dup3\n        /* \"#utility.yul\":6194:6212   */\n      add\n        /* \"#utility.yul\":6186:6212   */\n      swap1\n      pop\n        /* \"#utility.yul\":6222:6293   */\n      tag_310\n        /* \"#utility.yul\":6290:6291   */\n      0x00\n        /* \"#utility.yul\":6279:6288   */\n      dup4\n        /* \"#utility.yul\":6275:6292   */\n      add\n        /* \"#utility.yul\":6266:6272   */\n      dup5\n        /* \"#utility.yul\":6222:6293   */\n      tag_208\n      jump\t// in\n    tag_310:\n        /* \"#utility.yul\":6078:6300   */\n      swap3\n      swap2\n      pop\n      pop\n      jump\t// out\n        /* \"#utility.yul\":6306:6475   */\n    tag_209:\n        /* \"#utility.yul\":6390:6401   */\n      0x00\n        /* \"#utility.yul\":6424:6430   */\n      dup3\n        /* \"#utility.yul\":6419:6422   */\n      dup3\n        /* \"#utility.yul\":6412:6431   */\n      mstore\n        /* \"#utility.yul\":6464:6468   */\n      0x20\n        /* \"#utility.yul\":6459:6462   */\n      dup3\n        /* \"#utility.yul\":6455:6469   */\n      add\n        /* \"#utility.yul\":6440:6469   */\n      swap1\n      pop\n        /* \"#utility.yul\":6306:6475   */\n      swap3\n      swap2\n      pop\n      pop\n      jump\t// out\n        /* \"#utility.yul\":6481:6858   */\n    tag_210:\n        /* \"#utility.yul\":6569:6572   */\n      0x00\n        /* \"#utility.yul\":6597:6636   */\n      tag_313\n        /* \"#utility.yul\":6630:6635   */\n      dup3\n        /* \"#utility.yul\":6597:6636   */\n      tag_196\n      jump\t// in\n    tag_313:\n        /* \"#utility.yul\":6652:6723   */\n      tag_314\n        /* \"#utility.yul\":6716:6722   */\n      dup2\n        /* \"#utility.yul\":6711:6714   */\n      dup6\n        /* \"#utility.yul\":6652:6723   */\n      tag_209\n      jump\t// in\n    tag_314:\n        /* \"#utility.yul\":6645:6723   */\n      swap4\n      pop\n        /* \"#utility.yul\":6732:6797   */\n      tag_315\n        /* \"#utility.yul\":6790:6796   */\n      dup2\n        /* \"#utility.yul\":6785:6788   */\n      dup6\n        /* \"#utility.yul\":6778:6782   */\n      0x20\n        /* \"#utility.yul\":6771:6776   */\n      dup7\n        /* \"#utility.yul\":6767:6783   */\n      add\n        /* \"#utility.yul\":6732:6797   */\n      tag_198\n      jump\t// in\n    tag_315:\n        /* \"#utility.yul\":6822:6851   */\n      tag_316\n        /* \"#utility.yul\":6844:6850   */\n      dup2\n        /* \"#utility.yul\":6822:6851   */\n      tag_199\n      jump\t// in\n    tag_316:\n        /* \"#utility.yul\":6817:6820   */\n      dup5\n        /* \"#utility.yul\":6813:6852   */\n      add\n        /* \"#utility.yul\":6806:6852   */\n      swap2\n      pop\n        /* \"#utility.yul\":6573:6858   */\n      pop\n        /* \"#utility.yul\":6481:6858   */\n      swap3\n      swap2\n      pop\n      pop\n      jump\t// out\n        /* \"#utility.yul\":6864:6973   */\n    tag_211:\n        /* \"#utility.yul\":6945:6966   */\n      tag_318\n        /* \"#utility.yul\":6960:6965   */\n      dup2\n        /* \"#utility.yul\":6945:6966   */\n      tag_202\n      jump\t// in\n    tag_318:\n        /* \"#utility.yul\":6940:6943   */\n      dup3\n        /* \"#utility.yul\":6933:6967   */\n      mstore\n        /* \"#utility.yul\":6864:6973   */\n      pop\n      pop\n      jump\t// out\n        /* \"#utility.yul\":6979:7813   */\n    tag_38:\n        /* \"#utility.yul\":7218:7222   */\n      0x00\n        /* \"#utility.yul\":7256:7259   */\n      0xa0\n        /* \"#utility.yul\":7245:7254   */\n      dup3\n        /* \"#utility.yul\":7241:7260   */\n      add\n        /* \"#utility.yul\":7233:7260   */\n      swap1\n      pop\n        /* \"#utility.yul\":7306:7315   */\n      dup2\n        /* \"#utility.yul\":7300:7304   */\n      dup2\n        /* \"#utility.yul\":7296:7316   */\n      sub\n        /* \"#utility.yul\":7292:7293   */\n      0x00\n        /* \"#utility.yul\":7281:7290   */\n      dup4\n        /* \"#utility.yul\":7277:7294   */\n      add\n        /* \"#utility.yul\":7270:7317   */\n      mstore\n        /* \"#utility.yul\":7334:7412   */\n      tag_320\n        /* \"#utility.yul\":7407:7411   */\n      dup2\n        /* \"#utility.yul\":7398:7404   */\n      dup9\n        /* \"#utility.yul\":7334:7412   */\n      tag_210\n      jump\t// in\n    tag_320:\n        /* \"#utility.yul\":7326:7412   */\n      swap1\n      pop\n        /* \"#utility.yul\":7459:7468   */\n      dup2\n        /* \"#utility.yul\":7453:7457   */\n      dup2\n        /* \"#utility.yul\":7449:7469   */\n      sub\n        /* \"#utility.yul\":7444:7446   */\n      0x20\n        /* \"#utility.yul\":7433:7442   */\n      dup4\n        /* \"#utility.yul\":7429:7447   */\n      add\n        /* \"#utility.yul\":7422:7470   */\n      mstore\n        /* \"#utility.yul\":7487:7565   */\n      tag_321\n        /* \"#utility.yul\":7560:7564   */\n      dup2\n        /* \"#utility.yul\":7551:7557   */\n      dup8\n        /* \"#utility.yul\":7487:7565   */\n      tag_210\n      jump\t// in\n    tag_321:\n        /* \"#utility.yul\":7479:7565   */\n      swap1\n      pop\n        /* \"#utility.yul\":7575:7647   */\n      tag_322\n        /* \"#utility.yul\":7643:7645   */\n      0x40\n        /* \"#utility.yul\":7632:7641   */\n      dup4\n        /* \"#utility.yul\":7628:7646   */\n      add\n        /* \"#utility.yul\":7619:7625   */\n      dup7\n        /* \"#utility.yul\":7575:7647   */\n      tag_208\n      jump\t// in\n    tag_322:\n        /* \"#utility.yul\":7657:7729   */\n      tag_323\n        /* \"#utility.yul\":7725:7727   */\n      0x60\n        /* \"#utility.yul\":7714:7723   */\n      dup4\n        /* \"#utility.yul\":7710:7728   */\n      add\n        /* \"#utility.yul\":7701:7707   */\n      dup6\n        /* \"#utility.yul\":7657:7729   */\n      tag_208\n      jump\t// in\n    tag_323:\n        /* \"#utility.yul\":7739:7806   */\n      tag_324\n        /* \"#utility.yul\":7801:7804   */\n      0x80\n        /* \"#utility.yul\":7790:7799   */\n      dup4\n        /* \"#utility.yul\":7786:7805   */\n      add\n        /* \"#utility.yul\":7777:7783   */\n      dup5\n        /* \"#utility.yul\":7739:7806   */\n      tag_211\n      jump\t// in\n    tag_324:\n        /* \"#utility.yul\":6979:7813   */\n      swap7\n      swap6\n      pop\n      pop\n      pop\n      pop\n      pop\n      pop\n      jump\t// out\n        /* \"#utility.yul\":7819:7945   */\n    tag_212:\n        /* \"#utility.yul\":7856:7863   */\n      0x00\n        /* \"#utility.yul\":7896:7938   */\n      0xffffffffffffffffffffffffffffffffffffffff\n        /* \"#utility.yul\":7889:7894   */\n      dup3\n        /* \"#utility.yul\":7885:7939   */\n      and\n        /* \"#utility.yul\":7874:7939   */\n      swap1\n      pop\n        /* \"#utility.yul\":7819:7945   */\n      swap2\n      swap1\n      pop\n      jump\t// out\n        /* \"#utility.yul\":7951:8047   */\n    tag_213:\n        /* \"#utility.yul\":7988:7995   */\n      0x00\n        /* \"#utility.yul\":8017:8041   */\n      tag_327\n        /* \"#utility.yul\":8035:8040   */\n      dup3\n        /* \"#utility.yul\":8017:8041   */\n      tag_212\n      jump\t// in\n    tag_327:\n        /* \"#utility.yul\":8006:8041   */\n      swap1\n      pop\n        /* \"#utility.yul\":7951:8047   */\n      swap2\n      swap1\n      pop\n      jump\t// out\n        /* \"#utility.yul\":8053:8171   */\n    tag_214:\n        /* \"#utility.yul\":8140:8164   */\n      tag_329\n        /* \"#utility.yul\":8158:8163   */\n      dup2\n        /* \"#utility.yul\":8140:8164   */\n      tag_213\n      jump\t// in\n    tag_329:\n        /* \"#utility.yul\":8135:8138   */\n      dup3\n        /* \"#utility.yul\":8128:8165   */\n      mstore\n        /* \"#utility.yul\":8053:8171   */\n      pop\n      pop\n      jump\t// out\n        /* \"#utility.yul\":8177:8399   */\n    tag_48:\n        /* \"#utility.yul\":8270:8274   */\n      0x00\n        /* \"#utility.yul\":8308:8310   */\n      0x20\n        /* \"#utility.yul\":8297:8306   */\n      dup3\n        /* \"#utility.yul\":8293:8311   */\n      add\n        /* \"#utility.yul\":8285:8311   */\n      swap1\n      pop\n        /* \"#utility.yul\":8321:8392   */\n      tag_331\n        /* \"#utility.yul\":8389:8390   */\n      0x00\n        /* \"#utility.yul\":8378:8387   */\n      dup4\n        /* \"#utility.yul\":8374:8391   */\n      add\n        /* \"#utility.yul\":8365:8371   */\n      dup5\n        /* \"#utility.yul\":8321:8392   */\n      tag_214\n      jump\t// in\n    tag_331:\n        /* \"#utility.yul\":8177:8399   */\n      swap3\n      swap2\n      pop\n      pop\n      jump\t// out\n        /* \"#utility.yul\":8405:8879   */\n    tag_55:\n        /* \"#utility.yul\":8473:8479   */\n      0x00\n        /* \"#utility.yul\":8481:8487   */\n      dup1\n        /* \"#utility.yul\":8530:8532   */\n      0x40\n        /* \"#utility.yul\":8518:8527   */\n      dup4\n        /* \"#utility.yul\":8509:8516   */\n      dup6\n        /* \"#utility.yul\":8505:8528   */\n      sub\n        /* \"#utility.yul\":8501:8533   */\n      slt\n        /* \"#utility.yul\":8498:8617   */\n      iszero\n      tag_333\n      jumpi\n        /* \"#utility.yul\":8536:8615   */\n      tag_334\n      tag_188\n      jump\t// in\n    tag_334:\n        /* \"#utility.yul\":8498:8617   */\n    tag_333:\n        /* \"#utility.yul\":8656:8657   */\n      0x00\n        /* \"#utility.yul\":8681:8734   */\n      tag_335\n        /* \"#utility.yul\":8726:8733   */\n      dup6\n        /* \"#utility.yul\":8717:8723   */\n      dup3\n        /* \"#utility.yul\":8706:8715   */\n      dup7\n        /* \"#utility.yul\":8702:8724   */\n      add\n        /* \"#utility.yul\":8681:8734   */\n      tag_192\n      jump\t// in\n    tag_335:\n        /* \"#utility.yul\":8671:8734   */\n      swap3\n      pop\n        /* \"#utility.yul\":8627:8744   */\n      pop\n        /* \"#utility.yul\":8783:8785   */\n      0x20\n        /* \"#utility.yul\":8809:8862   */\n      tag_336\n        /* \"#utility.yul\":8854:8861   */\n      dup6\n        /* \"#utility.yul\":8845:8851   */\n      dup3\n        /* \"#utility.yul\":8834:8843   */\n      dup7\n        /* \"#utility.yul\":8830:8852   */\n      add\n        /* \"#utility.yul\":8809:8862   */\n      tag_192\n      jump\t// in\n    tag_336:\n        /* \"#utility.yul\":8799:8862   */\n      swap2\n      pop\n        /* \"#utility.yul\":8754:8872   */\n      pop\n        /* \"#utility.yul\":8405:8879   */\n      swap3\n      pop\n      swap3\n      swap1\n      pop\n      jump\t// out\n        /* \"#utility.yul\":8885:9002   */\n    tag_215:\n        /* \"#utility.yul\":8994:8995   */\n      0x00\n        /* \"#utility.yul\":8991:8992   */\n      dup1\n        /* \"#utility.yul\":8984:8996   */\n      revert\n        /* \"#utility.yul\":9008:9125   */\n    tag_216:\n        /* \"#utility.yul\":9117:9118   */\n      0x00\n        /* \"#utility.yul\":9114:9115   */\n      dup1\n        /* \"#utility.yul\":9107:9119   */\n      revert\n        /* \"#utility.yul\":9131:9311   */\n    tag_93:\n        /* \"#utility.yul\":9179:9256   */\n      0x4e487b7100000000000000000000000000000000000000000000000000000000\n        /* \"#utility.yul\":9176:9177   */\n      0x00\n        /* \"#utility.yul\":9169:9257   */\n      mstore\n        /* \"#utility.yul\":9276:9280   */\n      0x41\n        /* \"#utility.yul\":9273:9274   */\n      0x04\n        /* \"#utility.yul\":9266:9281   */\n      mstore\n        /* \"#utility.yul\":9300:9304   */\n      0x24\n        /* \"#utility.yul\":9297:9298   */\n      0x00\n        /* \"#utility.yul\":9290:9305   */\n      revert\n        /* \"#utility.yul\":9317:9598   */\n    tag_217:\n        /* \"#utility.yul\":9400:9427   */\n      tag_341\n        /* \"#utility.yul\":9422:9426   */\n      dup3\n        /* \"#utility.yul\":9400:9427   */\n      tag_199\n      jump\t// in\n    tag_341:\n        /* \"#utility.yul\":9392:9398   */\n      dup2\n        /* \"#utility.yul\":9388:9428   */\n      add\n        /* \"#utility.yul\":9530:9536   */\n      dup2\n        /* \"#utility.yul\":9518:9528   */\n      dup2\n        /* \"#utility.yul\":9515:9537   */\n      lt\n        /* \"#utility.yul\":9494:9512   */\n      0xffffffffffffffff\n        /* \"#utility.yul\":9482:9492   */\n      dup3\n        /* \"#utility.yul\":9479:9513   */\n      gt\n        /* \"#utility.yul\":9476:9538   */\n      or\n        /* \"#utility.yul\":9473:9561   */\n      iszero\n      tag_342\n      jumpi\n        /* \"#utility.yul\":9541:9559   */\n      tag_343\n      tag_93\n      jump\t// in\n    tag_343:\n        /* \"#utility.yul\":9473:9561   */\n    tag_342:\n        /* \"#utility.yul\":9581:9591   */\n      dup1\n        /* \"#utility.yul\":9577:9579   */\n      0x40\n        /* \"#utility.yul\":9570:9592   */\n      mstore\n        /* \"#utility.yul\":9360:9598   */\n      pop\n        /* \"#utility.yul\":9317:9598   */\n      pop\n      pop\n      jump\t// out\n        /* \"#utility.yul\":9604:9733   */\n    tag_218:\n        /* \"#utility.yul\":9638:9644   */\n      0x00\n        /* \"#utility.yul\":9665:9685   */\n      tag_345\n      tag_187\n      jump\t// in\n    tag_345:\n        /* \"#utility.yul\":9655:9685   */\n      swap1\n      pop\n        /* \"#utility.yul\":9694:9727   */\n      tag_346\n        /* \"#utility.yul\":9722:9726   */\n      dup3\n        /* \"#utility.yul\":9714:9720   */\n      dup3\n        /* \"#utility.yul\":9694:9727   */\n      tag_217\n      jump\t// in\n    tag_346:\n        /* \"#utility.yul\":9604:9733   */\n      swap2\n      swap1\n      pop\n      jump\t// out\n        /* \"#utility.yul\":9739:10047   */\n    tag_219:\n        /* \"#utility.yul\":9801:9805   */\n      0x00\n        /* \"#utility.yul\":9891:9909   */\n      0xffffffffffffffff\n        /* \"#utility.yul\":9883:9889   */\n      dup3\n        /* \"#utility.yul\":9880:9910   */\n      gt\n        /* \"#utility.yul\":9877:9933   */\n      iszero\n      tag_348\n      jumpi\n        /* \"#utility.yul\":9913:9931   */\n      tag_349\n      tag_93\n      jump\t// in\n    tag_349:\n        /* \"#utility.yul\":9877:9933   */\n    tag_348:\n        /* \"#utility.yul\":9951:9980   */\n      tag_350\n        /* \"#utility.yul\":9973:9979   */\n      dup3\n        /* \"#utility.yul\":9951:9980   */\n      tag_199\n      jump\t// in\n    tag_350:\n        /* \"#utility.yul\":9943:9980   */\n      swap1\n      pop\n        /* \"#utility.yul\":10035:10039   */\n      0x20\n        /* \"#utility.yul\":10029:10033   */\n      dup2\n        /* \"#utility.yul\":10025:10040   */\n      add\n        /* \"#utility.yul\":10017:10040   */\n      swap1\n      pop\n        /* \"#utility.yul\":9739:10047   */\n      swap2\n      swap1\n      pop\n      jump\t// out\n        /* \"#utility.yul\":10053:10201   */\n    tag_220:\n        /* \"#utility.yul\":10151:10157   */\n      dup3\n        /* \"#utility.yul\":10146:10149   */\n      dup2\n        /* \"#utility.yul\":10141:10144   */\n      dup4\n        /* \"#utility.yul\":10128:10158   */\n      calldatacopy\n        /* \"#utility.yul\":10192:10193   */\n      0x00\n        /* \"#utility.yul\":10183:10189   */\n      dup4\n        /* \"#utility.yul\":10178:10181   */\n      dup4\n        /* \"#utility.yul\":10174:10190   */\n      add\n        /* \"#utility.yul\":10167:10194   */\n      mstore\n        /* \"#utility.yul\":10053:10201   */\n      pop\n      pop\n      pop\n      jump\t// out\n        /* \"#utility.yul\":10207:10632   */\n    tag_221:\n        /* \"#utility.yul\":10285:10290   */\n      0x00\n        /* \"#utility.yul\":10310:10376   */\n      tag_353\n        /* \"#utility.yul\":10326:10375   */\n      tag_354\n        /* \"#utility.yul\":10368:10374   */\n      dup5\n        /* \"#utility.yul\":10326:10375   */\n      tag_219\n      jump\t// in\n    tag_354:\n        /* \"#utility.yul\":10310:10376   */\n      tag_218\n      jump\t// in\n    tag_353:\n        /* \"#utility.yul\":10301:10376   */\n      swap1\n      pop\n        /* \"#utility.yul\":10399:10405   */\n      dup3\n        /* \"#utility.yul\":10392:10397   */\n      dup2\n        /* \"#utility.yul\":10385:10406   */\n      mstore\n        /* \"#utility.yul\":10437:10441   */\n      0x20\n        /* \"#utility.yul\":10430:10435   */\n      dup2\n        /* \"#utility.yul\":10426:10442   */\n      add\n        /* \"#utility.yul\":10475:10478   */\n      dup5\n        /* \"#utility.yul\":10466:10472   */\n      dup5\n        /* \"#utility.yul\":10461:10464   */\n      dup5\n        /* \"#utility.yul\":10457:10473   */\n      add\n        /* \"#utility.yul\":10454:10479   */\n      gt\n        /* \"#utility.yul\":10451:10563   */\n      iszero\n      tag_355\n      jumpi\n        /* \"#utility.yul\":10482:10561   */\n      tag_356\n      tag_216\n      jump\t// in\n    tag_356:\n        /* \"#utility.yul\":10451:10563   */\n    tag_355:\n        /* \"#utility.yul\":10572:10626   */\n      tag_357\n        /* \"#utility.yul\":10619:10625   */\n      dup5\n        /* \"#utility.yul\":10614:10617   */\n      dup3\n        /* \"#utility.yul\":10609:10612   */\n      dup6\n        /* \"#utility.yul\":10572:10626   */\n      tag_220\n      jump\t// in\n    tag_357:\n        /* \"#utility.yul\":10291:10632   */\n      pop\n        /* \"#utility.yul\":10207:10632   */\n      swap4\n      swap3\n      pop\n      pop\n      pop\n      jump\t// out\n        /* \"#utility.yul\":10652:10992   */\n    tag_222:\n        /* \"#utility.yul\":10708:10713   */\n      0x00\n        /* \"#utility.yul\":10757:10760   */\n      dup3\n        /* \"#utility.yul\":10750:10754   */\n      0x1f\n        /* \"#utility.yul\":10742:10748   */\n      dup4\n        /* \"#utility.yul\":10738:10755   */\n      add\n        /* \"#utility.yul\":10734:10761   */\n      slt\n        /* \"#utility.yul\":10724:10846   */\n      tag_359\n      jumpi\n        /* \"#utility.yul\":10765:10844   */\n      tag_360\n      tag_215\n      jump\t// in\n    tag_360:\n        /* \"#utility.yul\":10724:10846   */\n    tag_359:\n        /* \"#utility.yul\":10882:10888   */\n      dup2\n        /* \"#utility.yul\":10869:10889   */\n      calldataload\n        /* \"#utility.yul\":10907:10986   */\n      tag_361\n        /* \"#utility.yul\":10982:10985   */\n      dup5\n        /* \"#utility.yul\":10974:10980   */\n      dup3\n        /* \"#utility.yul\":10967:10971   */\n      0x20\n        /* \"#utility.yul\":10959:10965   */\n      dup7\n        /* \"#utility.yul\":10955:10972   */\n      add\n        /* \"#utility.yul\":10907:10986   */\n      tag_221\n      jump\t// in\n    tag_361:\n        /* \"#utility.yul\":10898:10986   */\n      swap2\n      pop\n        /* \"#utility.yul\":10714:10992   */\n      pop\n        /* \"#utility.yul\":10652:10992   */\n      swap3\n      swap2\n      pop\n      pop\n      jump\t// out\n        /* \"#utility.yul\":10998:12123   */\n    tag_68:\n        /* \"#utility.yul\":11104:11110   */\n      0x00\n        /* \"#utility.yul\":11112:11118   */\n      dup1\n        /* \"#utility.yul\":11120:11126   */\n      0x00\n        /* \"#utility.yul\":11128:11134   */\n      dup1\n        /* \"#utility.yul\":11177:11180   */\n      0x80\n        /* \"#utility.yul\":11165:11174   */\n      dup6\n        /* \"#utility.yul\":11156:11163   */\n      dup8\n        /* \"#utility.yul\":11152:11175   */\n      sub\n        /* \"#utility.yul\":11148:11181   */\n      slt\n        /* \"#utility.yul\":11145:11265   */\n      iszero\n      tag_363\n      jumpi\n        /* \"#utility.yul\":11184:11263   */\n      tag_364\n      tag_188\n      jump\t// in\n    tag_364:\n        /* \"#utility.yul\":11145:11265   */\n    tag_363:\n        /* \"#utility.yul\":11332:11333   */\n      0x00\n        /* \"#utility.yul\":11321:11330   */\n      dup6\n        /* \"#utility.yul\":11317:11334   */\n      add\n        /* \"#utility.yul\":11304:11335   */\n      calldataload\n        /* \"#utility.yul\":11362:11380   */\n      0xffffffffffffffff\n        /* \"#utility.yul\":11354:11360   */\n      dup2\n        /* \"#utility.yul\":11351:11381   */\n      gt\n        /* \"#utility.yul\":11348:11465   */\n      iszero\n      tag_365\n      jumpi\n        /* \"#utility.yul\":11384:11463   */\n      tag_366\n      tag_189\n      jump\t// in\n    tag_366:\n        /* \"#utility.yul\":11348:11465   */\n    tag_365:\n        /* \"#utility.yul\":11489:11552   */\n      tag_367\n        /* \"#utility.yul\":11544:11551   */\n      dup8\n        /* \"#utility.yul\":11535:11541   */\n      dup3\n        /* \"#utility.yul\":11524:11533   */\n      dup9\n        /* \"#utility.yul\":11520:11542   */\n      add\n        /* \"#utility.yul\":11489:11552   */\n      tag_222\n      jump\t// in\n    tag_367:\n        /* \"#utility.yul\":11479:11552   */\n      swap5\n      pop\n        /* \"#utility.yul\":11275:11562   */\n      pop\n        /* \"#utility.yul\":11629:11631   */\n      0x20\n        /* \"#utility.yul\":11618:11627   */\n      dup6\n        /* \"#utility.yul\":11614:11632   */\n      add\n        /* \"#utility.yul\":11601:11633   */\n      calldataload\n        /* \"#utility.yul\":11660:11678   */\n      0xffffffffffffffff\n        /* \"#utility.yul\":11652:11658   */\n      dup2\n        /* \"#utility.yul\":11649:11679   */\n      gt\n        /* \"#utility.yul\":11646:11763   */\n      iszero\n      tag_368\n      jumpi\n        /* \"#utility.yul\":11682:11761   */\n      tag_369\n      tag_189\n      jump\t// in\n    tag_369:\n        /* \"#utility.yul\":11646:11763   */\n    tag_368:\n        /* \"#utility.yul\":11787:11850   */\n      tag_370\n        /* \"#utility.yul\":11842:11849   */\n      dup8\n        /* \"#utility.yul\":11833:11839   */\n      dup3\n        /* \"#utility.yul\":11822:11831   */\n      dup9\n        /* \"#utility.yul\":11818:11840   */\n      add\n        /* \"#utility.yul\":11787:11850   */\n      tag_222\n      jump\t// in\n    tag_370:\n        /* \"#utility.yul\":11777:11850   */\n      swap4\n      pop\n        /* \"#utility.yul\":11572:11860   */\n      pop\n        /* \"#utility.yul\":11899:11901   */\n      0x40\n        /* \"#utility.yul\":11925:11978   */\n      tag_371\n        /* \"#utility.yul\":11970:11977   */\n      dup8\n        /* \"#utility.yul\":11961:11967   */\n      dup3\n        /* \"#utility.yul\":11950:11959   */\n      dup9\n        /* \"#utility.yul\":11946:11968   */\n      add\n        /* \"#utility.yul\":11925:11978   */\n      tag_192\n      jump\t// in\n    tag_371:\n        /* \"#utility.yul\":11915:11978   */\n      swap3\n      pop\n        /* \"#utility.yul\":11870:11988   */\n      pop\n        /* \"#utility.yul\":12027:12029   */\n      0x60\n        /* \"#utility.yul\":12053:12106   */\n      tag_372\n        /* \"#utility.yul\":12098:12105   */\n      dup8\n        /* \"#utility.yul\":12089:12095   */\n      dup3\n        /* \"#utility.yul\":12078:12087   */\n      dup9\n        /* \"#utility.yul\":12074:12096   */\n      add\n        /* \"#utility.yul\":12053:12106   */\n      tag_192\n      jump\t// in\n    tag_372:\n        /* \"#utility.yul\":12043:12106   */\n      swap2\n      pop\n        /* \"#utility.yul\":11998:12116   */\n      pop\n        /* \"#utility.yul\":10998:12123   */\n      swap3\n      swap6\n      swap2\n      swap5\n      pop\n      swap3\n      pop\n      jump\t// out\n        /* \"#utility.yul\":12129:12294   */\n    tag_223:\n        /* \"#utility.yul\":12269:12286   */\n      0x496e76616c696420626f6f6b2049440000000000000000000000000000000000\n        /* \"#utility.yul\":12265:12266   */\n      0x00\n        /* \"#utility.yul\":12257:12263   */\n      dup3\n        /* \"#utility.yul\":12253:12267   */\n      add\n        /* \"#utility.yul\":12246:12287   */\n      mstore\n        /* \"#utility.yul\":12129:12294   */\n      pop\n      jump\t// out\n        /* \"#utility.yul\":12300:12666   */\n    tag_224:\n        /* \"#utility.yul\":12442:12445   */\n      0x00\n        /* \"#utility.yul\":12463:12530   */\n      tag_375\n        /* \"#utility.yul\":12527:12529   */\n      0x0f\n        /* \"#utility.yul\":12522:12525   */\n      dup4\n        /* \"#utility.yul\":12463:12530   */\n      tag_209\n      jump\t// in\n    tag_375:\n        /* \"#utility.yul\":12456:12530   */\n      swap2\n      pop\n        /* \"#utility.yul\":12539:12632   */\n      tag_376\n        /* \"#utility.yul\":12628:12631   */\n      dup3\n        /* \"#utility.yul\":12539:12632   */\n      tag_223\n      jump\t// in\n    tag_376:\n        /* \"#utility.yul\":12657:12659   */\n      0x20\n        /* \"#utility.yul\":12652:12655   */\n      dup3\n        /* \"#utility.yul\":12648:12660   */\n      add\n        /* \"#utility.yul\":12641:12660   */\n      swap1\n      pop\n        /* \"#utility.yul\":12300:12666   */\n      swap2\n      swap1\n      pop\n      jump\t// out\n        /* \"#utility.yul\":12672:13091   */\n    tag_74:\n        /* \"#utility.yul\":12838:12842   */\n      0x00\n        /* \"#utility.yul\":12876:12878   */\n      0x20\n        /* \"#utility.yul\":12865:12874   */\n      dup3\n        /* \"#utility.yul\":12861:12879   */\n      add\n        /* \"#utility.yul\":12853:12879   */\n      swap1\n      pop\n        /* \"#utility.yul\":12925:12934   */\n      dup2\n        /* \"#utility.yul\":12919:12923   */\n      dup2\n        /* \"#utility.yul\":12915:12935   */\n      sub\n        /* \"#utility.yul\":12911:12912   */\n      0x00\n        /* \"#utility.yul\":12900:12909   */\n      dup4\n        /* \"#utility.yul\":12896:12913   */\n      add\n        /* \"#utility.yul\":12889:12936   */\n      mstore\n        /* \"#utility.yul\":12953:13084   */\n      tag_378\n        /* \"#utility.yul\":13079:13083   */\n      dup2\n        /* \"#utility.yul\":12953:13084   */\n      tag_224\n      jump\t// in\n    tag_378:\n        /* \"#utility.yul\":12945:13084   */\n      swap1\n      pop\n        /* \"#utility.yul\":12672:13091   */\n      swap2\n      swap1\n      pop\n      jump\t// out\n        /* \"#utility.yul\":13097:13268   */\n    tag_225:\n        /* \"#utility.yul\":13237:13260   */\n      0x426f6f6b206973206e6f7420617661696c61626c650000000000000000000000\n        /* \"#utility.yul\":13233:13234   */\n      0x00\n        /* \"#utility.yul\":13225:13231   */\n      dup3\n        /* \"#utility.yul\":13221:13235   */\n      add\n        /* \"#utility.yul\":13214:13261   */\n      mstore\n        /* \"#utility.yul\":13097:13268   */\n      pop\n      jump\t// out\n        /* \"#utility.yul\":13274:13640   */\n    tag_226:\n        /* \"#utility.yul\":13416:13419   */\n      0x00\n        /* \"#utility.yul\":13437:13504   */\n      tag_381\n        /* \"#utility.yul\":13501:13503   */\n      0x15\n        /* \"#utility.yul\":13496:13499   */\n      dup4\n        /* \"#utility.yul\":13437:13504   */\n      tag_209\n      jump\t// in\n    tag_381:\n        /* \"#utility.yul\":13430:13504   */\n      swap2\n      pop\n        /* \"#utility.yul\":13513:13606   */\n      tag_382\n        /* \"#utility.yul\":13602:13605   */\n      dup3\n        /* \"#utility.yul\":13513:13606   */\n      tag_225\n      jump\t// in\n    tag_382:\n        /* \"#utility.yul\":13631:13633   */\n      0x20\n        /* \"#utility.yul\":13626:13629   */\n      dup3\n        /* \"#utility.yul\":13622:13634   */\n      add\n        /* \"#utility.yul\":13615:13634   */\n      swap1\n      pop\n        /* \"#utility.yul\":13274:13640   */\n      swap2\n      swap1\n      pop\n      jump\t// out\n        /* \"#utility.yul\":13646:14065   */\n    tag_77:\n        /* \"#utility.yul\":13812:13816   */\n      0x00\n        /* \"#utility.yul\":13850:13852   */\n      0x20\n        /* \"#utility.yul\":13839:13848   */\n      dup3\n        /* \"#utility.yul\":13835:13853   */\n      add\n        /* \"#utility.yul\":13827:13853   */\n      swap1\n      pop\n        /* \"#utility.yul\":13899:13908   */\n      dup2\n        /* \"#utility.yul\":13893:13897   */\n      dup2\n        /* \"#utility.yul\":13889:13909   */\n      sub\n        /* \"#utility.yul\":13885:13886   */\n      0x00\n        /* \"#utility.yul\":13874:13883   */\n      dup4\n        /* \"#utility.yul\":13870:13887   */\n      add\n        /* \"#utility.yul\":13863:13910   */\n      mstore\n        /* \"#utility.yul\":13927:14058   */\n      tag_384\n        /* \"#utility.yul\":14053:14057   */\n      dup2\n        /* \"#utility.yul\":13927:14058   */\n      tag_226\n      jump\t// in\n    tag_384:\n        /* \"#utility.yul\":13919:14058   */\n      swap1\n      pop\n        /* \"#utility.yul\":13646:14065   */\n      swap2\n      swap1\n      pop\n      jump\t// out\n        /* \"#utility.yul\":14071:14238   */\n    tag_227:\n        /* \"#utility.yul\":14211:14230   */\n      0x426f6f6b206f7574206f662073746f636b000000000000000000000000000000\n        /* \"#utility.yul\":14207:14208   */\n      0x00\n        /* \"#utility.yul\":14199:14205   */\n      dup3\n        /* \"#utility.yul\":14195:14209   */\n      add\n        /* \"#utility.yul\":14188:14231   */\n      mstore\n        /* \"#utility.yul\":14071:14238   */\n      pop\n      jump\t// out\n        /* \"#utility.yul\":14244:14610   */\n    tag_228:\n        /* \"#utility.yul\":14386:14389   */\n      0x00\n        /* \"#utility.yul\":14407:14474   */\n      tag_387\n        /* \"#utility.yul\":14471:14473   */\n      0x11\n        /* \"#utility.yul\":14466:14469   */\n      dup4\n        /* \"#utility.yul\":14407:14474   */\n      tag_209\n      jump\t// in\n    tag_387:\n        /* \"#utility.yul\":14400:14474   */\n      swap2\n      pop\n        /* \"#utility.yul\":14483:14576   */\n      tag_388\n        /* \"#utility.yul\":14572:14575   */\n      dup3\n        /* \"#utility.yul\":14483:14576   */\n      tag_227\n      jump\t// in\n    tag_388:\n        /* \"#utility.yul\":14601:14603   */\n      0x20\n        /* \"#utility.yul\":14596:14599   */\n      dup3\n        /* \"#utility.yul\":14592:14604   */\n      add\n        /* \"#utility.yul\":14585:14604   */\n      swap1\n      pop\n        /* \"#utility.yul\":14244:14610   */\n      swap2\n      swap1\n      pop\n      jump\t// out\n        /* \"#utility.yul\":14616:15035   */\n    tag_80:\n        /* \"#utility.yul\":14782:14786   */\n      0x00\n        /* \"#utility.yul\":14820:14822   */\n      0x20\n        /* \"#utility.yul\":14809:14818   */\n      dup3\n        /* \"#utility.yul\":14805:14823   */\n      add\n        /* \"#utility.yul\":14797:14823   */\n      swap1\n      pop\n        /* \"#utility.yul\":14869:14878   */\n      dup2\n        /* \"#utility.yul\":14863:14867   */\n      dup2\n        /* \"#utility.yul\":14859:14879   */\n      sub\n        /* \"#utility.yul\":14855:14856   */\n      0x00\n        /* \"#utility.yul\":14844:14853   */\n      dup4\n        /* \"#utility.yul\":14840:14857   */\n      add\n        /* \"#utility.yul\":14833:14880   */\n      mstore\n        /* \"#utility.yul\":14897:15028   */\n      tag_390\n        /* \"#utility.yul\":15023:15027   */\n      dup2\n        /* \"#utility.yul\":14897:15028   */\n      tag_228\n      jump\t// in\n    tag_390:\n        /* \"#utility.yul\":14889:15028   */\n      swap1\n      pop\n        /* \"#utility.yul\":14616:15035   */\n      swap2\n      swap1\n      pop\n      jump\t// out\n        /* \"#utility.yul\":15041:15215   */\n    tag_229:\n        /* \"#utility.yul\":15181:15207   */\n      0x496e636f7272656374207061796d656e7420616d6f756e740000000000000000\n        /* \"#utility.yul\":15177:15178   */\n      0x00\n        /* \"#utility.yul\":15169:15175   */\n      dup3\n        /* \"#utility.yul\":15165:15179   */\n      add\n        /* \"#utility.yul\":15158:15208   */\n      mstore\n        /* \"#utility.yul\":15041:15215   */\n      pop\n      jump\t// out\n        /* \"#utility.yul\":15221:15587   */\n    tag_230:\n        /* \"#utility.yul\":15363:15366   */\n      0x00\n        /* \"#utility.yul\":15384:15451   */\n      tag_393\n        /* \"#utility.yul\":15448:15450   */\n      0x18\n        /* \"#utility.yul\":15443:15446   */\n      dup4\n        /* \"#utility.yul\":15384:15451   */\n      tag_209\n      jump\t// in\n    tag_393:\n        /* \"#utility.yul\":15377:15451   */\n      swap2\n      pop\n        /* \"#utility.yul\":15460:15553   */\n      tag_394\n        /* \"#utility.yul\":15549:15552   */\n      dup3\n        /* \"#utility.yul\":15460:15553   */\n      tag_229\n      jump\t// in\n    tag_394:\n        /* \"#utility.yul\":15578:15580   */\n      0x20\n        /* \"#utility.yul\":15573:15576   */\n      dup3\n        /* \"#utility.yul\":15569:15581   */\n      add\n        /* \"#utility.yul\":15562:15581   */\n      swap1\n      pop\n        /* \"#utility.yul\":15221:15587   */\n      swap2\n      swap1\n      pop\n      jump\t// out\n        /* \"#utility.yul\":15593:16012   */\n    tag_83:\n        /* \"#utility.yul\":15759:15763   */\n      0x00\n        /* \"#utility.yul\":15797:15799   */\n      0x20\n        /* \"#utility.yul\":15786:15795   */\n      dup3\n        /* \"#utility.yul\":15782:15800   */\n      add\n        /* \"#utility.yul\":15774:15800   */\n      swap1\n      pop\n        /* \"#utility.yul\":15846:15855   */\n      dup2\n        /* \"#utility.yul\":15840:15844   */\n      dup2\n        /* \"#utility.yul\":15836:15856   */\n      sub\n        /* \"#utility.yul\":15832:15833   */\n      0x00\n        /* \"#utility.yul\":15821:15830   */\n      dup4\n        /* \"#utility.yul\":15817:15834   */\n      add\n        /* \"#utility.yul\":15810:15857   */\n      mstore\n        /* \"#utility.yul\":15874:16005   */\n      tag_396\n        /* \"#utility.yul\":16000:16004   */\n      dup2\n        /* \"#utility.yul\":15874:16005   */\n      tag_230\n      jump\t// in\n    tag_396:\n        /* \"#utility.yul\":15866:16005   */\n      swap1\n      pop\n        /* \"#utility.yul\":15593:16012   */\n      swap2\n      swap1\n      pop\n      jump\t// out\n        /* \"#utility.yul\":16018:16198   */\n    tag_231:\n        /* \"#utility.yul\":16066:16143   */\n      0x4e487b7100000000000000000000000000000000000000000000000000000000\n        /* \"#utility.yul\":16063:16064   */\n      0x00\n        /* \"#utility.yul\":16056:16144   */\n      mstore\n        /* \"#utility.yul\":16163:16167   */\n      0x11\n        /* \"#utility.yul\":16160:16161   */\n      0x04\n        /* \"#utility.yul\":16153:16168   */\n      mstore\n        /* \"#utility.yul\":16187:16191   */\n      0x24\n        /* \"#utility.yul\":16184:16185   */\n      0x00\n        /* \"#utility.yul\":16177:16192   */\n      revert\n        /* \"#utility.yul\":16204:16375   */\n    tag_85:\n        /* \"#utility.yul\":16243:16246   */\n      0x00\n        /* \"#utility.yul\":16266:16290   */\n      tag_399\n        /* \"#utility.yul\":16284:16289   */\n      dup3\n        /* \"#utility.yul\":16266:16290   */\n      tag_190\n      jump\t// in\n    tag_399:\n        /* \"#utility.yul\":16257:16290   */\n      swap2\n      pop\n        /* \"#utility.yul\":16312:16316   */\n      0x00\n        /* \"#utility.yul\":16305:16310   */\n      dup3\n        /* \"#utility.yul\":16302:16317   */\n      sub\n        /* \"#utility.yul\":16299:16340   */\n      tag_400\n      jumpi\n        /* \"#utility.yul\":16320:16338   */\n      tag_401\n      tag_231\n      jump\t// in\n    tag_401:\n        /* \"#utility.yul\":16299:16340   */\n    tag_400:\n        /* \"#utility.yul\":16367:16368   */\n      0x01\n        /* \"#utility.yul\":16360:16365   */\n      dup3\n        /* \"#utility.yul\":16356:16369   */\n      sub\n        /* \"#utility.yul\":16349:16369   */\n      swap1\n      pop\n        /* \"#utility.yul\":16204:16375   */\n      swap2\n      swap1\n      pop\n      jump\t// out\n        /* \"#utility.yul\":16381:16614   */\n    tag_87:\n        /* \"#utility.yul\":16420:16423   */\n      0x00\n        /* \"#utility.yul\":16443:16467   */\n      tag_403\n        /* \"#utility.yul\":16461:16466   */\n      dup3\n        /* \"#utility.yul\":16443:16467   */\n      tag_190\n      jump\t// in\n    tag_403:\n        /* \"#utility.yul\":16434:16467   */\n      swap2\n      pop\n        /* \"#utility.yul\":16489:16555   */\n      0xffffffffffffffffffffffffffffffffffffffffffffffffffffffffffffffff\n        /* \"#utility.yul\":16482:16487   */\n      dup3\n        /* \"#utility.yul\":16479:16556   */\n      sub\n        /* \"#utility.yul\":16476:16579   */\n      tag_404\n      jumpi\n        /* \"#utility.yul\":16559:16577   */\n      tag_405\n      tag_231\n      jump\t// in\n    tag_405:\n        /* \"#utility.yul\":16476:16579   */\n    tag_404:\n        /* \"#utility.yul\":16606:16607   */\n      0x01\n        /* \"#utility.yul\":16599:16604   */\n      dup3\n        /* \"#utility.yul\":16595:16608   */\n      add\n        /* \"#utility.yul\":16588:16608   */\n      swap1\n      pop\n        /* \"#utility.yul\":16381:16614   */\n      swap2\n      swap1\n      pop\n      jump\t// out\n        /* \"#utility.yul\":16620:16800   */\n    tag_232:\n        /* \"#utility.yul\":16668:16745   */\n      0x4e487b7100000000000000000000000000000000000000000000000000000000\n        /* \"#utility.yul\":16665:16666   */\n      0x00\n        /* \"#utility.yul\":16658:16746   */\n      mstore\n        /* \"#utility.yul\":16765:16769   */\n      0x22\n        /* \"#utility.yul\":16762:16763   */\n      0x04\n        /* \"#utility.yul\":16755:16770   */\n      mstore\n        /* \"#utility.yul\":16789:16793   */\n      0x24\n        /* \"#utility.yul\":16786:16787   */\n      0x00\n        /* \"#utility.yul\":16779:16794   */\n      revert\n        /* \"#utility.yul\":16806:17126   */\n    tag_102:\n        /* \"#utility.yul\":16850:16856   */\n      0x00\n        /* \"#utility.yul\":16887:16888   */\n      0x02\n        /* \"#utility.yul\":16881:16885   */\n      dup3\n        /* \"#utility.yul\":16877:16889   */\n      div\n        /* \"#utility.yul\":16867:16889   */\n      swap1\n      pop\n        /* \"#utility.yul\":16934:16935   */\n      0x01\n        /* \"#utility.yul\":16928:16932   */\n      dup3\n        /* \"#utility.yul\":16924:16936   */\n      and\n        /* \"#utility.yul\":16955:16973   */\n      dup1\n        /* \"#utility.yul\":16945:17026   */\n      tag_408\n      jumpi\n        /* \"#utility.yul\":17011:17015   */\n      0x7f\n        /* \"#utility.yul\":17003:17009   */\n      dup3\n        /* \"#utility.yul\":16999:17016   */\n      and\n        /* \"#utility.yul\":16989:17016   */\n      swap2\n      pop\n        /* \"#utility.yul\":16945:17026   */\n    tag_408:\n        /* \"#utility.yul\":17073:17075   */\n      0x20\n        /* \"#utility.yul\":17065:17071   */\n      dup3\n        /* \"#utility.yul\":17062:17076   */\n      lt\n        /* \"#utility.yul\":17042:17060   */\n      dup2\n        /* \"#utility.yul\":17039:17077   */\n      sub\n        /* \"#utility.yul\":17036:17120   */\n      tag_409\n      jumpi\n        /* \"#utility.yul\":17092:17110   */\n      tag_410\n      tag_232\n      jump\t// in\n    tag_410:\n        /* \"#utility.yul\":17036:17120   */\n    tag_409:\n        /* \"#utility.yul\":16857:17126   */\n      pop\n        /* \"#utility.yul\":16806:17126   */\n      swap2\n      swap1\n      pop\n      jump\t// out\n        /* \"#utility.yul\":17132:17326   */\n    tag_113:\n        /* \"#utility.yul\":17172:17176   */\n      0x00\n        /* \"#utility.yul\":17192:17212   */\n      tag_412\n        /* \"#utility.yul\":17210:17211   */\n      dup3\n        /* \"#utility.yul\":17192:17212   */\n      tag_190\n      jump\t// in\n    tag_412:\n        /* \"#utility.yul\":17187:17212   */\n      swap2\n      pop\n        /* \"#utility.yul\":17226:17246   */\n      tag_413\n        /* \"#utility.yul\":17244:17245   */\n      dup4\n        /* \"#utility.yul\":17226:17246   */\n      tag_190\n      jump\t// in\n    tag_413:\n        /* \"#utility.yul\":17221:17246   */\n      swap3\n      pop\n        /* \"#utility.yul\":17270:17271   */\n      dup3\n        /* \"#utility.yul\":17267:17268   */\n      dup3\n        /* \"#utility.yul\":17263:17272   */\n      sub\n        /* \"#utility.yul\":17255:17272   */\n      swap1\n      pop\n        /* \"#utility.yul\":17294:17295   */\n      dup2\n        /* \"#utility.yul\":17288:17292   */\n      dup2\n        /* \"#utility.yul\":17285:17296   */\n      gt\n        /* \"#utility.yul\":17282:17319   */\n      iszero\n      tag_414\n      jumpi\n        /* \"#utility.yul\":17299:17317   */\n      tag_415\n      tag_231\n      jump\t// in\n    tag_415:\n        /* \"#utility.yul\":17282:17319   */\n    tag_414:\n        /* \"#utility.yul\":17132:17326   */\n      swap3\n      swap2\n      pop\n      pop\n      jump\t// out\n        /* \"#utility.yul\":17332:17512   */\n    tag_116:\n        /* \"#utility.yul\":17380:17457   */\n      0x4e487b7100000000000000000000000000000000000000000000000000000000\n        /* \"#utility.yul\":17377:17378   */\n      0x00\n        /* \"#utility.yul\":17370:17458   */\n      mstore\n        /* \"#utility.yul\":17477:17481   */\n      0x32\n        /* \"#utility.yul\":17474:17475   */\n      0x04\n        /* \"#utility.yul\":17467:17482   */\n      mstore\n        /* \"#utility.yul\":17501:17505   */\n      0x24\n        /* \"#utility.yul\":17498:17499   */\n      0x00\n        /* \"#utility.yul\":17491:17506   */\n      revert\n        /* \"#utility.yul\":17518:17743   */\n    tag_233:\n        /* \"#utility.yul\":17658:17692   */\n      0x4f6e6c7920746865206f776e65722063616e20706572666f726d207468697320\n        /* \"#utility.yul\":17654:17655   */\n      0x00\n        /* \"#utility.yul\":17646:17652   */\n      dup3\n        /* \"#utility.yul\":17642:17656   */\n      add\n        /* \"#utility.yul\":17635:17693   */\n      mstore\n        /* \"#utility.yul\":17727:17735   */\n      0x616374696f6e0000000000000000000000000000000000000000000000000000\n        /* \"#utility.yul\":17722:17724   */\n      0x20\n        /* \"#utility.yul\":17714:17720   */\n      dup3\n        /* \"#utility.yul\":17710:17725   */\n      add\n        /* \"#utility.yul\":17703:17736   */\n      mstore\n        /* \"#utility.yul\":17518:17743   */\n      pop\n      jump\t// out\n        /* \"#utility.yul\":17749:18115   */\n    tag_234:\n        /* \"#utility.yul\":17891:17894   */\n      0x00\n        /* \"#utility.yul\":17912:17979   */\n      tag_419\n        /* \"#utility.yul\":17976:17978   */\n      0x26\n        /* \"#utility.yul\":17971:17974   */\n      dup4\n        /* \"#utility.yul\":17912:17979   */\n      tag_209\n      jump\t// in\n    tag_419:\n        /* \"#utility.yul\":17905:17979   */\n      swap2\n      pop\n        /* \"#utility.yul\":17988:18081   */\n      tag_420\n        /* \"#utility.yul\":18077:18080   */\n      dup3\n        /* \"#utility.yul\":17988:18081   */\n      tag_233\n      jump\t// in\n    tag_420:\n        /* \"#utility.yul\":18106:18108   */\n      0x40\n        /* \"#utility.yul\":18101:18104   */\n      dup3\n        /* \"#utility.yul\":18097:18109   */\n      add\n        /* \"#utility.yul\":18090:18109   */\n      swap1\n      pop\n        /* \"#utility.yul\":17749:18115   */\n      swap2\n      swap1\n      pop\n      jump\t// out\n        /* \"#utility.yul\":18121:18540   */\n    tag_146:\n        /* \"#utility.yul\":18287:18291   */\n      0x00\n        /* \"#utility.yul\":18325:18327   */\n      0x20\n        /* \"#utility.yul\":18314:18323   */\n      dup3\n        /* \"#utility.yul\":18310:18328   */\n      add\n        /* \"#utility.yul\":18302:18328   */\n      swap1\n      pop\n        /* \"#utility.yul\":18374:18383   */\n      dup2\n        /* \"#utility.yul\":18368:18372   */\n      dup2\n        /* \"#utility.yul\":18364:18384   */\n      sub\n        /* \"#utility.yul\":18360:18361   */\n      0x00\n        /* \"#utility.yul\":18349:18358   */\n      dup4\n        /* \"#utility.yul\":18345:18362   */\n      add\n        /* \"#utility.yul\":18338:18385   */\n      mstore\n        /* \"#utility.yul\":18402:18533   */\n      tag_422\n        /* \"#utility.yul\":18528:18532   */\n      dup2\n        /* \"#utility.yul\":18402:18533   */\n      tag_234\n      jump\t// in\n    tag_422:\n        /* \"#utility.yul\":18394:18533   */\n      swap1\n      pop\n        /* \"#utility.yul\":18121:18540   */\n      swap2\n      swap1\n      pop\n      jump\t// out\n        /* \"#utility.yul\":18546:18766   */\n    tag_235:\n        /* \"#utility.yul\":18686:18720   */\n      0x53746f636b2073686f756c642062652067726561746572207468616e207a6572\n        /* \"#utility.yul\":18682:18683   */\n      0x00\n        /* \"#utility.yul\":18674:18680   */\n      dup3\n        /* \"#utility.yul\":18670:18684   */\n      add\n        /* \"#utility.yul\":18663:18721   */\n      mstore\n        /* \"#utility.yul\":18755:18758   */\n      0x6f00000000000000000000000000000000000000000000000000000000000000\n        /* \"#utility.yul\":18750:18752   */\n      0x20\n        /* \"#utility.yul\":18742:18748   */\n      dup3\n        /* \"#utility.yul\":18738:18753   */\n      add\n        /* \"#utility.yul\":18731:18759   */\n      mstore\n        /* \"#utility.yul\":18546:18766   */\n      pop\n      jump\t// out\n        /* \"#utility.yul\":18772:19138   */\n    tag_236:\n        /* \"#utility.yul\":18914:18917   */\n      0x00\n        /* \"#utility.yul\":18935:19002   */\n      tag_425\n        /* \"#utility.yul\":18999:19001   */\n      0x21\n        /* \"#utility.yul\":18994:18997   */\n      dup4\n        /* \"#utility.yul\":18935:19002   */\n      tag_209\n      jump\t// in\n    tag_425:\n        /* \"#utility.yul\":18928:19002   */\n      swap2\n      pop\n        /* \"#utility.yul\":19011:19104   */\n      tag_426\n        /* \"#utility.yul\":19100:19103   */\n      dup3\n        /* \"#utility.yul\":19011:19104   */\n      tag_235\n      jump\t// in\n    tag_426:\n        /* \"#utility.yul\":19129:19131   */\n      0x40\n        /* \"#utility.yul\":19124:19127   */\n      dup3\n        /* \"#utility.yul\":19120:19132   */\n      add\n        /* \"#utility.yul\":19113:19132   */\n      swap1\n      pop\n        /* \"#utility.yul\":18772:19138   */\n      swap2\n      swap1\n      pop\n      jump\t// out\n        /* \"#utility.yul\":19144:19563   */\n    tag_161:\n        /* \"#utility.yul\":19310:19314   */\n      0x00\n        /* \"#utility.yul\":19348:19350   */\n      0x20\n        /* \"#utility.yul\":19337:19346   */\n      dup3\n        /* \"#utility.yul\":19333:19351   */\n      add\n        /* \"#utility.yul\":19325:19351   */\n      swap1\n      pop\n        /* \"#utility.yul\":19397:19406   */\n      dup2\n        /* \"#utility.yul\":19391:19395   */\n      dup2\n        /* \"#utility.yul\":19387:19407   */\n      sub\n        /* \"#utility.yul\":19383:19384   */\n      0x00\n        /* \"#utility.yul\":19372:19381   */\n      dup4\n        /* \"#utility.yul\":19368:19385   */\n      add\n        /* \"#utility.yul\":19361:19408   */\n      mstore\n        /* \"#utility.yul\":19425:19556   */\n      tag_428\n        /* \"#utility.yul\":19551:19555   */\n      dup2\n        /* \"#utility.yul\":19425:19556   */\n      tag_236\n      jump\t// in\n    tag_428:\n        /* \"#utility.yul\":19417:19556   */\n      swap1\n      pop\n        /* \"#utility.yul\":19144:19563   */\n      swap2\n      swap1\n      pop\n      jump\t// out\n        /* \"#utility.yul\":19569:19742   */\n    tag_237:\n        /* \"#utility.yul\":19709:19734   */\n      0x426f6f6b20697320616c72656164792072656d6f766564000000000000000000\n        /* \"#utility.yul\":19705:19706   */\n      0x00\n        /* \"#utility.yul\":19697:19703   */\n      dup3\n        /* \"#utility.yul\":19693:19707   */\n      add\n        /* \"#utility.yul\":19686:19735   */\n      mstore\n        /* \"#utility.yul\":19569:19742   */\n      pop\n      jump\t// out\n        /* \"#utility.yul\":19748:20114   */\n    tag_238:\n        /* \"#utility.yul\":19890:19893   */\n      0x00\n        /* \"#utility.yul\":19911:19978   */\n      tag_431\n        /* \"#utility.yul\":19975:19977   */\n      0x17\n        /* \"#utility.yul\":19970:19973   */\n      dup4\n        /* \"#utility.yul\":19911:19978   */\n      tag_209\n      jump\t// in\n    tag_431:\n        /* \"#utility.yul\":19904:19978   */\n      swap2\n      pop\n        /* \"#utility.yul\":19987:20080   */\n      tag_432\n        /* \"#utility.yul\":20076:20079   */\n      dup3\n        /* \"#utility.yul\":19987:20080   */\n      tag_237\n      jump\t// in\n    tag_432:\n        /* \"#utility.yul\":20105:20107   */\n      0x20\n        /* \"#utility.yul\":20100:20103   */\n      dup3\n        /* \"#utility.yul\":20096:20108   */\n      add\n        /* \"#utility.yul\":20089:20108   */\n      swap1\n      pop\n        /* \"#utility.yul\":19748:20114   */\n      swap2\n      swap1\n      pop\n      jump\t// out\n        /* \"#utility.yul\":20120:20539   */\n    tag_173:\n        /* \"#utility.yul\":20286:20290   */\n      0x00\n        /* \"#utility.yul\":20324:20326   */\n      0x20\n        /* \"#utility.yul\":20313:20322   */\n      dup3\n        /* \"#utility.yul\":20309:20327   */\n      add\n        /* \"#utility.yul\":20301:20327   */\n      swap1\n      pop\n        /* \"#utility.yul\":20373:20382   */\n      dup2\n        /* \"#utility.yul\":20367:20371   */\n      dup2\n        /* \"#utility.yul\":20363:20383   */\n      sub\n        /* \"#utility.yul\":20359:20360   */\n      0x00\n        /* \"#utility.yul\":20348:20357   */\n      dup4\n        /* \"#utility.yul\":20344:20361   */\n      add\n        /* \"#utility.yul\":20337:20384   */\n      mstore\n        /* \"#utility.yul\":20401:20532   */\n      tag_434\n        /* \"#utility.yul\":20527:20531   */\n      dup2\n        /* \"#utility.yul\":20401:20532   */\n      tag_238\n      jump\t// in\n    tag_434:\n        /* \"#utility.yul\":20393:20532   */\n      swap1\n      pop\n        /* \"#utility.yul\":20120:20539   */\n      swap2\n      swap1\n      pop\n      jump\t// out\n        /* \"#utility.yul\":20545:20765   */\n    tag_239:\n        /* \"#utility.yul\":20685:20719   */\n      0x50726963652073686f756c642062652067726561746572207468616e207a6572\n        /* \"#utility.yul\":20681:20682   */\n      0x00\n        /* \"#utility.yul\":20673:20679   */\n      dup3\n        /* \"#utility.yul\":20669:20683   */\n      add\n        /* \"#utility.yul\":20662:20720   */\n      mstore\n        /* \"#utility.yul\":20754:20757   */\n      0x6f00000000000000000000000000000000000000000000000000000000000000\n        /* \"#utility.yul\":20749:20751   */\n      0x20\n        /* \"#utility.yul\":20741:20747   */\n      dup3\n        /* \"#utility.yul\":20737:20752   */\n      add\n        /* \"#utility.yul\":20730:20758   */\n      mstore\n        /* \"#utility.yul\":20545:20765   */\n      pop\n      jump\t// out\n        /* \"#utility.yul\":20771:21137   */\n    tag_240:\n        /* \"#utility.yul\":20913:20916   */\n      0x00\n        /* \"#utility.yul\":20934:21001   */\n      tag_437\n        /* \"#utility.yul\":20998:21000   */\n      0x21\n        /* \"#utility.yul\":20993:20996   */\n      dup4\n        /* \"#utility.yul\":20934:21001   */\n      tag_209\n      jump\t// in\n    tag_437:\n        /* \"#utility.yul\":20927:21001   */\n      swap2\n      pop\n        /* \"#utility.yul\":21010:21103   */\n      tag_438\n        /* \"#utility.yul\":21099:21102   */\n      dup3\n        /* \"#utility.yul\":21010:21103   */\n      tag_239\n      jump\t// in\n    tag_438:\n        /* \"#utility.yul\":21128:21130   */\n      0x40\n        /* \"#utility.yul\":21123:21126   */\n      dup3\n        /* \"#utility.yul\":21119:21131   */\n      add\n        /* \"#utility.yul\":21112:21131   */\n      swap1\n      pop\n        /* \"#utility.yul\":20771:21137   */\n      swap2\n      swap1\n      pop\n      jump\t// out\n        /* \"#utility.yul\":21143:21562   */\n    tag_180:\n        /* \"#utility.yul\":21309:21313   */\n      0x00\n        /* \"#utility.yul\":21347:21349   */\n      0x20\n        /* \"#utility.yul\":21336:21345   */\n      dup3\n        /* \"#utility.yul\":21332:21350   */\n      add\n        /* \"#utility.yul\":21324:21350   */\n      swap1\n      pop\n        /* \"#utility.yul\":21396:21405   */\n      dup2\n        /* \"#utility.yul\":21390:21394   */\n      dup2\n        /* \"#utility.yul\":21386:21406   */\n      sub\n        /* \"#utility.yul\":21382:21383   */\n      0x00\n        /* \"#utility.yul\":21371:21380   */\n      dup4\n        /* \"#utility.yul\":21367:21384   */\n      add\n        /* \"#utility.yul\":21360:21407   */\n      mstore\n        /* \"#utility.yul\":21424:21555   */\n      tag_440\n        /* \"#utility.yul\":21550:21554   */\n      dup2\n        /* \"#utility.yul\":21424:21555   */\n      tag_240\n      jump\t// in\n    tag_440:\n        /* \"#utility.yul\":21416:21555   */\n      swap1\n      pop\n        /* \"#utility.yul\":21143:21562   */\n      swap2\n      swap1\n      pop\n      jump\t// out\n        /* \"#utility.yul\":21568:21709   */\n    tag_241:\n        /* \"#utility.yul\":21617:21621   */\n      0x00\n        /* \"#utility.yul\":21640:21643   */\n      dup2\n        /* \"#utility.yul\":21632:21643   */\n      swap1\n      pop\n        /* \"#utility.yul\":21663:21666   */\n      dup2\n        /* \"#utility.yul\":21660:21661   */\n      0x00\n        /* \"#utility.yul\":21653:21667   */\n      mstore\n        /* \"#utility.yul\":21697:21701   */\n      0x20\n        /* \"#utility.yul\":21694:21695   */\n      0x00\n        /* \"#utility.yul\":21684:21702   */\n      keccak256\n        /* \"#utility.yul\":21676:21702   */\n      swap1\n      pop\n        /* \"#utility.yul\":21568:21709   */\n      swap2\n      swap1\n      pop\n      jump\t// out\n        /* \"#utility.yul\":21715:21808   */\n    tag_242:\n        /* \"#utility.yul\":21752:21758   */\n      0x00\n        /* \"#utility.yul\":21799:21801   */\n      0x20\n        /* \"#utility.yul\":21794:21796   */\n      0x1f\n        /* \"#utility.yul\":21787:21792   */\n      dup4\n        /* \"#utility.yul\":21783:21797   */\n      add\n        /* \"#utility.yul\":21779:21802   */\n      div\n        /* \"#utility.yul\":21769:21802   */\n      swap1\n      pop\n        /* \"#utility.yul\":21715:21808   */\n      swap2\n      swap1\n      pop\n      jump\t// out\n        /* \"#utility.yul\":21814:21921   */\n    tag_243:\n        /* \"#utility.yul\":21858:21866   */\n      0x00\n        /* \"#utility.yul\":21908:21913   */\n      dup3\n        /* \"#utility.yul\":21902:21906   */\n      dup3\n        /* \"#utility.yul\":21898:21914   */\n      shl\n        /* \"#utility.yul\":21877:21914   */\n      swap1\n      pop\n        /* \"#utility.yul\":21814:21921   */\n      swap3\n      swap2\n      pop\n      pop\n      jump\t// out\n        /* \"#utility.yul\":21927:22320   */\n    tag_244:\n        /* \"#utility.yul\":21996:22002   */\n      0x00\n        /* \"#utility.yul\":22046:22047   */\n      0x08\n        /* \"#utility.yul\":22034:22044   */\n      dup4\n        /* \"#utility.yul\":22030:22048   */\n      mul\n        /* \"#utility.yul\":22069:22166   */\n      tag_445\n        /* \"#utility.yul\":22099:22165   */\n      0xffffffffffffffffffffffffffffffffffffffffffffffffffffffffffffffff\n        /* \"#utility.yul\":22088:22097   */\n      dup3\n        /* \"#utility.yul\":22069:22166   */\n      tag_243\n      jump\t// in\n    tag_445:\n        /* \"#utility.yul\":22187:22226   */\n      tag_446\n        /* \"#utility.yul\":22217:22225   */\n      dup7\n        /* \"#utility.yul\":22206:22215   */\n      dup4\n        /* \"#utility.yul\":22187:22226   */\n      tag_243\n      jump\t// in\n    tag_446:\n        /* \"#utility.yul\":22175:22226   */\n      swap6\n      pop\n        /* \"#utility.yul\":22259:22263   */\n      dup1\n        /* \"#utility.yul\":22255:22264   */\n      not\n        /* \"#utility.yul\":22248:22253   */\n      dup5\n        /* \"#utility.yul\":22244:22265   */\n      and\n        /* \"#utility.yul\":22235:22265   */\n      swap4\n      pop\n        /* \"#utility.yul\":22308:22312   */\n      dup1\n        /* \"#utility.yul\":22298:22306   */\n      dup7\n        /* \"#utility.yul\":22294:22313   */\n      and\n        /* \"#utility.yul\":22287:22292   */\n      dup5\n        /* \"#utility.yul\":22284:22314   */\n      or\n        /* \"#utility.yul\":22274:22314   */\n      swap3\n      pop\n        /* \"#utility.yul\":22003:22320   */\n      pop\n      pop\n        /* \"#utility.yul\":21927:22320   */\n      swap4\n      swap3\n      pop\n      pop\n      pop\n      jump\t// out\n        /* \"#utility.yul\":22326:22386   */\n    tag_245:\n        /* \"#utility.yul\":22354:22357   */\n      0x00\n        /* \"#utility.yul\":22375:22380   */\n      dup2\n        /* \"#utility.yul\":22368:22380   */\n      swap1\n      pop\n        /* \"#utility.yul\":22326:22386   */\n      swap2\n      swap1\n      pop\n      jump\t// out\n        /* \"#utility.yul\":22392:22534   */\n    tag_246:\n        /* \"#utility.yul\":22442:22451   */\n      0x00\n        /* \"#utility.yul\":22475:22528   */\n      tag_449\n        /* \"#utility.yul\":22493:22527   */\n      tag_450\n        /* \"#utility.yul\":22502:22526   */\n      tag_451\n        /* \"#utility.yul\":22520:22525   */\n      dup5\n        /* \"#utility.yul\":22502:22526   */\n      tag_190\n      jump\t// in\n    tag_451:\n        /* \"#utility.yul\":22493:22527   */\n      tag_245\n      jump\t// in\n    tag_450:\n        /* \"#utility.yul\":22475:22528   */\n      tag_190\n      jump\t// in\n    tag_449:\n        /* \"#utility.yul\":22462:22528   */\n      swap1\n      pop\n        /* \"#utility.yul\":22392:22534   */\n      swap2\n      swap1\n      pop\n      jump\t// out\n        /* \"#utility.yul\":22540:22615   */\n    tag_247:\n        /* \"#utility.yul\":22583:22586   */\n      0x00\n        /* \"#utility.yul\":22604:22609   */\n      dup2\n        /* \"#utility.yul\":22597:22609   */\n      swap1\n      pop\n        /* \"#utility.yul\":22540:22615   */\n      swap2\n      swap1\n      pop\n      jump\t// out\n        /* \"#utility.yul\":22621:22890   */\n    tag_248:\n        /* \"#utility.yul\":22731:22770   */\n      tag_454\n        /* \"#utility.yul\":22762:22769   */\n      dup4\n        /* \"#utility.yul\":22731:22770   */\n      tag_246\n      jump\t// in\n    tag_454:\n        /* \"#utility.yul\":22792:22883   */\n      tag_455\n        /* \"#utility.yul\":22841:22882   */\n      tag_456\n        /* \"#utility.yul\":22865:22881   */\n      dup3\n        /* \"#utility.yul\":22841:22882   */\n      tag_247\n      jump\t// in\n    tag_456:\n        /* \"#utility.yul\":22833:22839   */\n      dup5\n        /* \"#utility.yul\":22826:22830   */\n      dup5\n        /* \"#utility.yul\":22820:22831   */\n      sload\n        /* \"#utility.yul\":22792:22883   */\n      tag_244\n      jump\t// in\n    tag_455:\n        /* \"#utility.yul\":22786:22790   */\n      dup3\n        /* \"#utility.yul\":22779:22884   */\n      sstore\n        /* \"#utility.yul\":22697:22890   */\n      pop\n        /* \"#utility.yul\":22621:22890   */\n      pop\n      pop\n      pop\n      jump\t// out\n        /* \"#utility.yul\":22896:22969   */\n    tag_249:\n        /* \"#utility.yul\":22941:22944   */\n      0x00\n        /* \"#utility.yul\":22896:22969   */\n      swap1\n      jump\t// out\n        /* \"#utility.yul\":22975:23164   */\n    tag_250:\n        /* \"#utility.yul\":23052:23084   */\n      tag_459\n      tag_249\n      jump\t// in\n    tag_459:\n        /* \"#utility.yul\":23093:23158   */\n      tag_460\n        /* \"#utility.yul\":23151:23157   */\n      dup2\n        /* \"#utility.yul\":23143:23149   */\n      dup5\n        /* \"#utility.yul\":23137:23141   */\n      dup5\n        /* \"#utility.yul\":23093:23158   */\n      tag_248\n      jump\t// in\n    tag_460:\n        /* \"#utility.yul\":23028:23164   */\n      pop\n        /* \"#utility.yul\":22975:23164   */\n      pop\n      pop\n      jump\t// out\n        /* \"#utility.yul\":23170:23356   */\n    tag_251:\n        /* \"#utility.yul\":23230:23350   */\n    tag_462:\n        /* \"#utility.yul\":23247:23250   */\n      dup2\n        /* \"#utility.yul\":23240:23245   */\n      dup2\n        /* \"#utility.yul\":23237:23251   */\n      lt\n        /* \"#utility.yul\":23230:23350   */\n      iszero\n      tag_464\n      jumpi\n        /* \"#utility.yul\":23301:23340   */\n      tag_465\n        /* \"#utility.yul\":23338:23339   */\n      0x00\n        /* \"#utility.yul\":23331:23336   */\n      dup3\n        /* \"#utility.yul\":23301:23340   */\n      tag_250\n      jump\t// in\n    tag_465:\n        /* \"#utility.yul\":23274:23275   */\n      0x01\n        /* \"#utility.yul\":23267:23272   */\n      dup2\n        /* \"#utility.yul\":23263:23276   */\n      add\n        /* \"#utility.yul\":23254:23276   */\n      swap1\n      pop\n        /* \"#utility.yul\":23230:23350   */\n      jump(tag_462)\n    tag_464:\n        /* \"#utility.yul\":23170:23356   */\n      pop\n      pop\n      jump\t// out\n        /* \"#utility.yul\":23362:23905   */\n    tag_252:\n        /* \"#utility.yul\":23463:23465   */\n      0x1f\n        /* \"#utility.yul\":23458:23461   */\n      dup3\n        /* \"#utility.yul\":23455:23466   */\n      gt\n        /* \"#utility.yul\":23452:23898   */\n      iszero\n      tag_467\n      jumpi\n        /* \"#utility.yul\":23497:23535   */\n      tag_468\n        /* \"#utility.yul\":23529:23534   */\n      dup2\n        /* \"#utility.yul\":23497:23535   */\n      tag_241\n      jump\t// in\n    tag_468:\n        /* \"#utility.yul\":23581:23610   */\n      tag_469\n        /* \"#utility.yul\":23599:23609   */\n      dup5\n        /* \"#utility.yul\":23581:23610   */\n      tag_242\n      jump\t// in\n    tag_469:\n        /* \"#utility.yul\":23571:23579   */\n      dup2\n        /* \"#utility.yul\":23567:23611   */\n      add\n        /* \"#utility.yul\":23764:23766   */\n      0x20\n        /* \"#utility.yul\":23752:23762   */\n      dup6\n        /* \"#utility.yul\":23749:23767   */\n      lt\n        /* \"#utility.yul\":23746:23795   */\n      iszero\n      tag_470\n      jumpi\n        /* \"#utility.yul\":23785:23793   */\n      dup2\n        /* \"#utility.yul\":23770:23793   */\n      swap1\n      pop\n        /* \"#utility.yul\":23746:23795   */\n    tag_470:\n        /* \"#utility.yul\":23808:23888   */\n      tag_471\n        /* \"#utility.yul\":23864:23886   */\n      tag_472\n        /* \"#utility.yul\":23882:23885   */\n      dup6\n        /* \"#utility.yul\":23864:23886   */\n      tag_242\n      jump\t// in\n    tag_472:\n        /* \"#utility.yul\":23854:23862   */\n      dup4\n        /* \"#utility.yul\":23850:23887   */\n      add\n        /* \"#utility.yul\":23837:23848   */\n      dup3\n        /* \"#utility.yul\":23808:23888   */\n      tag_251\n      jump\t// in\n    tag_471:\n        /* \"#utility.yul\":23467:23898   */\n      pop\n      pop\n        /* \"#utility.yul\":23452:23898   */\n    tag_467:\n        /* \"#utility.yul\":23362:23905   */\n      pop\n      pop\n      pop\n      jump\t// out\n        /* \"#utility.yul\":23911:24028   */\n    tag_253:\n        /* \"#utility.yul\":23965:23973   */\n      0x00\n        /* \"#utility.yul\":24015:24020   */\n      dup3\n        /* \"#utility.yul\":24009:24013   */\n      dup3\n        /* \"#utility.yul\":24005:24021   */\n      shr\n        /* \"#utility.yul\":23984:24021   */\n      swap1\n      pop\n        /* \"#utility.yul\":23911:24028   */\n      swap3\n      swap2\n      pop\n      pop\n      jump\t// out\n        /* \"#utility.yul\":24034:24203   */\n    tag_254:\n        /* \"#utility.yul\":24078:24084   */\n      0x00\n        /* \"#utility.yul\":24111:24162   */\n      tag_475\n        /* \"#utility.yul\":24159:24160   */\n      0x00\n        /* \"#utility.yul\":24155:24161   */\n      not\n        /* \"#utility.yul\":24147:24152   */\n      dup5\n        /* \"#utility.yul\":24144:24145   */\n      0x08\n        /* \"#utility.yul\":24140:24153   */\n      mul\n        /* \"#utility.yul\":24111:24162   */\n      tag_253\n      jump\t// in\n    tag_475:\n        /* \"#utility.yul\":24107:24163   */\n      not\n        /* \"#utility.yul\":24192:24196   */\n      dup1\n        /* \"#utility.yul\":24186:24190   */\n      dup4\n        /* \"#utility.yul\":24182:24197   */\n      and\n        /* \"#utility.yul\":24172:24197   */\n      swap2\n      pop\n        /* \"#utility.yul\":24085:24203   */\n      pop\n        /* \"#utility.yul\":24034:24203   */\n      swap3\n      swap2\n      pop\n      pop\n      jump\t// out\n        /* \"#utility.yul\":24208:24503   */\n    tag_255:\n        /* \"#utility.yul\":24284:24288   */\n      0x00\n        /* \"#utility.yul\":24430:24459   */\n      tag_477\n        /* \"#utility.yul\":24455:24458   */\n      dup4\n        /* \"#utility.yul\":24449:24453   */\n      dup4\n        /* \"#utility.yul\":24430:24459   */\n      tag_254\n      jump\t// in\n    tag_477:\n        /* \"#utility.yul\":24422:24459   */\n      swap2\n      pop\n        /* \"#utility.yul\":24492:24495   */\n      dup3\n        /* \"#utility.yul\":24489:24490   */\n      0x02\n        /* \"#utility.yul\":24485:24496   */\n      mul\n        /* \"#utility.yul\":24479:24483   */\n      dup3\n        /* \"#utility.yul\":24476:24497   */\n      or\n        /* \"#utility.yul\":24468:24497   */\n      swap1\n      pop\n        /* \"#utility.yul\":24208:24503   */\n      swap3\n      swap2\n      pop\n      pop\n      jump\t// out\n        /* \"#utility.yul\":24508:25903   */\n    tag_185:\n        /* \"#utility.yul\":24625:24662   */\n      tag_479\n        /* \"#utility.yul\":24658:24661   */\n      dup3\n        /* \"#utility.yul\":24625:24662   */\n      tag_196\n      jump\t// in\n    tag_479:\n        /* \"#utility.yul\":24727:24745   */\n      0xffffffffffffffff\n        /* \"#utility.yul\":24719:24725   */\n      dup2\n        /* \"#utility.yul\":24716:24746   */\n      gt\n        /* \"#utility.yul\":24713:24769   */\n      iszero\n      tag_480\n      jumpi\n        /* \"#utility.yul\":24749:24767   */\n      tag_481\n      tag_93\n      jump\t// in\n    tag_481:\n        /* \"#utility.yul\":24713:24769   */\n    tag_480:\n        /* \"#utility.yul\":24793:24831   */\n      tag_482\n        /* \"#utility.yul\":24825:24829   */\n      dup3\n        /* \"#utility.yul\":24819:24830   */\n      sload\n        /* \"#utility.yul\":24793:24831   */\n      tag_102\n      jump\t// in\n    tag_482:\n        /* \"#utility.yul\":24878:24945   */\n      tag_483\n        /* \"#utility.yul\":24938:24944   */\n      dup3\n        /* \"#utility.yul\":24930:24936   */\n      dup3\n        /* \"#utility.yul\":24924:24928   */\n      dup6\n        /* \"#utility.yul\":24878:24945   */\n      tag_252\n      jump\t// in\n    tag_483:\n        /* \"#utility.yul\":24972:24973   */\n      0x00\n        /* \"#utility.yul\":24996:25000   */\n      0x20\n        /* \"#utility.yul\":24983:25000   */\n      swap1\n      pop\n        /* \"#utility.yul\":25028:25030   */\n      0x1f\n        /* \"#utility.yul\":25020:25026   */\n      dup4\n        /* \"#utility.yul\":25017:25031   */\n      gt\n        /* \"#utility.yul\":25045:25046   */\n      0x01\n        /* \"#utility.yul\":25040:25658   */\n      dup2\n      eq\n      tag_485\n      jumpi\n        /* \"#utility.yul\":25702:25703   */\n      0x00\n        /* \"#utility.yul\":25719:25725   */\n      dup5\n        /* \"#utility.yul\":25716:25793   */\n      iszero\n      tag_486\n      jumpi\n        /* \"#utility.yul\":25768:25777   */\n      dup3\n        /* \"#utility.yul\":25763:25766   */\n      dup8\n        /* \"#utility.yul\":25759:25778   */\n      add\n        /* \"#utility.yul\":25753:25779   */\n      mload\n        /* \"#utility.yul\":25744:25779   */\n      swap1\n      pop\n        /* \"#utility.yul\":25716:25793   */\n    tag_486:\n        /* \"#utility.yul\":25819:25886   */\n      tag_487\n        /* \"#utility.yul\":25879:25885   */\n      dup6\n        /* \"#utility.yul\":25872:25877   */\n      dup3\n        /* \"#utility.yul\":25819:25886   */\n      tag_255\n      jump\t// in\n    tag_487:\n        /* \"#utility.yul\":25813:25817   */\n      dup7\n        /* \"#utility.yul\":25806:25887   */\n      sstore\n        /* \"#utility.yul\":25675:25897   */\n      pop\n        /* \"#utility.yul\":25010:25897   */\n      jump(tag_484)\n        /* \"#utility.yul\":25040:25658   */\n    tag_485:\n        /* \"#utility.yul\":25092:25096   */\n      0x1f\n        /* \"#utility.yul\":25088:25097   */\n      not\n        /* \"#utility.yul\":25080:25086   */\n      dup5\n        /* \"#utility.yul\":25076:25098   */\n      and\n        /* \"#utility.yul\":25126:25163   */\n      tag_488\n        /* \"#utility.yul\":25158:25162   */\n      dup7\n        /* \"#utility.yul\":25126:25163   */\n      tag_241\n      jump\t// in\n    tag_488:\n        /* \"#utility.yul\":25185:25186   */\n      0x00\n        /* \"#utility.yul\":25199:25407   */\n    tag_489:\n        /* \"#utility.yul\":25213:25220   */\n      dup3\n        /* \"#utility.yul\":25210:25211   */\n      dup2\n        /* \"#utility.yul\":25207:25221   */\n      lt\n        /* \"#utility.yul\":25199:25407   */\n      iszero\n      tag_491\n      jumpi\n        /* \"#utility.yul\":25292:25301   */\n      dup5\n        /* \"#utility.yul\":25287:25290   */\n      dup10\n        /* \"#utility.yul\":25283:25302   */\n      add\n        /* \"#utility.yul\":25277:25303   */\n      mload\n        /* \"#utility.yul\":25269:25275   */\n      dup3\n        /* \"#utility.yul\":25262:25304   */\n      sstore\n        /* \"#utility.yul\":25343:25344   */\n      0x01\n        /* \"#utility.yul\":25335:25341   */\n      dup3\n        /* \"#utility.yul\":25331:25345   */\n      add\n        /* \"#utility.yul\":25321:25345   */\n      swap2\n      pop\n        /* \"#utility.yul\":25390:25392   */\n      0x20\n        /* \"#utility.yul\":25379:25388   */\n      dup6\n        /* \"#utility.yul\":25375:25393   */\n      add\n        /* \"#utility.yul\":25362:25393   */\n      swap5\n      pop\n        /* \"#utility.yul\":25236:25240   */\n      0x20\n        /* \"#utility.yul\":25233:25234   */\n      dup2\n        /* \"#utility.yul\":25229:25241   */\n      add\n        /* \"#utility.yul\":25224:25241   */\n      swap1\n      pop\n        /* \"#utility.yul\":25199:25407   */\n      jump(tag_489)\n    tag_491:\n        /* \"#utility.yul\":25435:25441   */\n      dup7\n        /* \"#utility.yul\":25426:25433   */\n      dup4\n        /* \"#utility.yul\":25423:25442   */\n      lt\n        /* \"#utility.yul\":25420:25599   */\n      iszero\n      tag_492\n      jumpi\n        /* \"#utility.yul\":25493:25502   */\n      dup5\n        /* \"#utility.yul\":25488:25491   */\n      dup10\n        /* \"#utility.yul\":25484:25503   */\n      add\n        /* \"#utility.yul\":25478:25504   */\n      mload\n        /* \"#utility.yul\":25536:25584   */\n      tag_493\n        /* \"#utility.yul\":25578:25582   */\n      0x1f\n        /* \"#utility.yul\":25570:25576   */\n      dup10\n        /* \"#utility.yul\":25566:25583   */\n      and\n        /* \"#utility.yul\":25555:25564   */\n      dup3\n        /* \"#utility.yul\":25536:25584   */\n      tag_254\n      jump\t// in\n    tag_493:\n        /* \"#utility.yul\":25528:25534   */\n      dup4\n        /* \"#utility.yul\":25521:25585   */\n      sstore\n        /* \"#utility.yul\":25443:25599   */\n      pop\n        /* \"#utility.yul\":25420:25599   */\n    tag_492:\n        /* \"#utility.yul\":25645:25646   */\n      0x01\n        /* \"#utility.yul\":25641:25642   */\n      0x02\n        /* \"#utility.yul\":25633:25639   */\n      dup9\n        /* \"#utility.yul\":25629:25643   */\n      mul\n        /* \"#utility.yul\":25625:25647   */\n      add\n        /* \"#utility.yul\":25619:25623   */\n      dup9\n        /* \"#utility.yul\":25612:25648   */\n      sstore\n        /* \"#utility.yul\":25047:25658   */\n      pop\n      pop\n      pop\n        /* \"#utility.yul\":25010:25897   */\n    tag_484:\n      pop\n        /* \"#utility.yul\":24600:25903   */\n      pop\n      pop\n      pop\n        /* \"#utility.yul\":24508:25903   */\n      pop\n      pop\n      jump\t// out\n\n    auxdata: 0xa2646970667358221220cd6f0475bc169a1f3f3907e30b182fcf1455dc2129679edc5065d4b64add4a8a64736f6c634300081a0033\n}\n",
				"bytecode": {
					"linkReferences": {},
					"object": "60806040525f6001555f6002553480156016575f80fd5b503360035f6101000a81548173ffffffffffffffffffffffffffffffffffffffff021916908373ffffffffffffffffffffffffffffffffffffffff160217905550611d5f806100645f395ff3fe6080604052600436106100a6575f3560e01c80638da5cb5b116100635780638da5cb5b146101c45780638ef17fc3146101ee5780639dfc3dd114610204578063b905ad781461022c578063bec0d79914610256578063d4c6758b1461027e576100a6565b80631c555f47146100aa578063354528e8146100c65780633899637f146100f0578063590791f21461011a578063687440461461014457806374ff481814610184575b5f80fd5b6100c460048036038101906100bf919061105e565b6102a6565b005b3480156100d1575f80fd5b506100da61047e565b6040516100e79190611257565b60405180910390f35b3480156100fb575f80fd5b50610104610695565b6040516101119190611286565b60405180910390f35b348015610125575f80fd5b5061012e61069b565b60405161013b9190611286565b60405180910390f35b34801561014f575f80fd5b5061016a6004803603810190610165919061105e565b6106da565b60405161017b9594939291906112f6565b60405180910390f35b34801561018f575f80fd5b506101aa60048036038101906101a5919061105e565b610823565b6040516101bb9594939291906112f6565b60405180910390f35b3480156101cf575f80fd5b506101d8610a10565b6040516101e59190611394565b60405180910390f35b3480156101f9575f80fd5b50610202610a35565b005b34801561020f575f80fd5b5061022a600480360381019061022591906113ad565b610b13565b005b348015610237575f80fd5b50610240610caf565b60405161024d9190611286565b60405180910390f35b348015610261575f80fd5b5061027c6004803603810190610277919061105e565b610cb5565b005b348015610289575f80fd5b506102a4600480360381019061029f9190611517565b610e20565b005b5f811180156102b757506001548111155b6102f6576040517f08c379a00000000000000000000000000000000000000000000000000000000081526004016102ed906115fd565b60405180910390fd5b5f805f8381526020019081526020015f209050806004015f9054906101000a900460ff16610359576040517f08c379a000000000000000000000000000000000000000000000000000000000815260040161035090611665565b60405180910390fd5b5f81600301541161039f576040517f08c379a0000000000000000000000000000000000000000000000000000000008152600401610396906116cd565b60405180910390fd5b806002015434146103e5576040517f08c379a00000000000000000000000000000000000000000000000000000000081526004016103dc90611735565b60405180910390fd5b806003015f8154809291906103f990611780565b919050555060025f815480929190610410906117a7565b919050555060035f9054906101000a900473ffffffffffffffffffffffffffffffffffffffff1673ffffffffffffffffffffffffffffffffffffffff166108fc3490811502906040515f60405180830381858888f19350505050158015610479573d5f803e3d5ffd5b505050565b60605f60015467ffffffffffffffff81111561049d5761049c6113f3565b5b6040519080825280602002602001820160405280156104d657816020015b6104c3610fec565b8152602001906001900390816104bb5790505b5090505f600190505b600154811161068d575f808281526020019081526020015f206040518060a00160405290815f820180546105129061181b565b80601f016020809104026020016040519081016040528092919081815260200182805461053e9061181b565b80156105895780601f1061056057610100808354040283529160200191610589565b820191905f5260205f20905b81548152906001019060200180831161056c57829003601f168201915b505050505081526020016001820180546105a29061181b565b80601f01602080910402602001604051908101604052809291908181526020018280546105ce9061181b565b80156106195780601f106105f057610100808354040283529160200191610619565b820191905f5260205f20905b8154815290600101906020018083116105fc57829003601f168201915b505050505081526020016002820154815260200160038201548152602001600482015f9054906101000a900460ff1615151515815250508260018361065e919061184b565b8151811061066f5761066e61187e565b5b60200260200101819052508080610685906117a7565b9150506104df565b508091505090565b60025481565b5f60035f9054906101000a900473ffffffffffffffffffffffffffffffffffffffff1673ffffffffffffffffffffffffffffffffffffffff1631905090565b5f602052805f5260405f205f91509050805f0180546106f89061181b565b80601f01602080910402602001604051908101604052809291908181526020018280546107249061181b565b801561076f5780601f106107465761010080835404028352916020019161076f565b820191905f5260205f20905b81548152906001019060200180831161075257829003601f168201915b5050505050908060010180546107849061181b565b80601f01602080910402602001604051908101604052809291908181526020018280546107b09061181b565b80156107fb5780601f106107d2576101008083540402835291602001916107fb565b820191905f5260205f20905b8154815290600101906020018083116107de57829003601f168201915b505050505090806002015490806003015490806004015f9054906101000a900460ff16905085565b6060805f805f808611801561083a57506001548611155b610879576040517f08c379a0000000000000000000000000000000000000000000000000000000008152600401610870906115fd565b60405180910390fd5b5f805f8881526020019081526020015f206040518060a00160405290815f820180546108a49061181b565b80601f01602080910402602001604051908101604052809291908181526020018280546108d09061181b565b801561091b5780601f106108f25761010080835404028352916020019161091b565b820191905f5260205f20905b8154815290600101906020018083116108fe57829003601f168201915b505050505081526020016001820180546109349061181b565b80601f01602080910402602001604051908101604052809291908181526020018280546109609061181b565b80156109ab5780601f10610982576101008083540402835291602001916109ab565b820191905f5260205f20905b81548152906001019060200180831161098e57829003601f168201915b505050505081526020016002820154815260200160038201548152602001600482015f9054906101000a900460ff1615151515815250509050805f01518160200151826040015183606001518460800151955095509550955095505091939590929450565b60035f9054906101000a900473ffffffffffffffffffffffffffffffffffffffff1681565b60035f9054906101000a900473ffffffffffffffffffffffffffffffffffffffff1673ffffffffffffffffffffffffffffffffffffffff163373ffffffffffffffffffffffffffffffffffffffff1614610ac4576040517f08c379a0000000000000000000000000000000000000000000000000000000008152600401610abb9061191b565b60405180910390fd5b5f600190505b6001548111610b10575f805f8381526020019081526020015f206004015f6101000a81548160ff0219169083151502179055508080610b08906117a7565b915050610aca565b50565b60035f9054906101000a900473ffffffffffffffffffffffffffffffffffffffff1673ffffffffffffffffffffffffffffffffffffffff163373ffffffffffffffffffffffffffffffffffffffff1614610ba2576040517f08c379a0000000000000000000000000000000000000000000000000000000008152600401610b999061191b565b60405180910390fd5b5f82118015610bb357506001548211155b610bf2576040517f08c379a0000000000000000000000000000000000000000000000000000000008152600401610be9906115fd565b60405180910390fd5b5f8111610c34576040517f08c379a0000000000000000000000000000000000000000000000000000000008152600401610c2b906119a9565b60405180910390fd5b5f808381526020019081526020015f206004015f9054906101000a900460ff16610c93576040517f08c379a0000000000000000000000000000000000000000000000000000000008152600401610c8a90611665565b60405180910390fd5b805f808481526020019081526020015f20600301819055505050565b60015481565b60035f9054906101000a900473ffffffffffffffffffffffffffffffffffffffff1673ffffffffffffffffffffffffffffffffffffffff163373ffffffffffffffffffffffffffffffffffffffff1614610d44576040517f08c379a0000000000000000000000000000000000000000000000000000000008152600401610d3b9061191b565b60405180910390fd5b5f81118015610d5557506001548111155b610d94576040517f08c379a0000000000000000000000000000000000000000000000000000000008152600401610d8b906115fd565b60405180910390fd5b5f808281526020019081526020015f206004015f9054906101000a900460ff16610df3576040517f08c379a0000000000000000000000000000000000000000000000000000000008152600401610dea90611a11565b60405180910390fd5b5f805f8381526020019081526020015f206004015f6101000a81548160ff02191690831515021790555050565b60035f9054906101000a900473ffffffffffffffffffffffffffffffffffffffff1673ffffffffffffffffffffffffffffffffffffffff163373ffffffffffffffffffffffffffffffffffffffff1614610eaf576040517f08c379a0000000000000000000000000000000000000000000000000000000008152600401610ea69061191b565b60405180910390fd5b5f8211610ef1576040517f08c379a0000000000000000000000000000000000000000000000000000000008152600401610ee890611a9f565b60405180910390fd5b5f8111610f33576040517f08c379a0000000000000000000000000000000000000000000000000000000008152600401610f2a906119a9565b60405180910390fd5b60015f815480929190610f45906117a7565b91905055506040518060a00160405280858152602001848152602001838152602001828152602001600115158152505f8060015481526020019081526020015f205f820151815f019081610f999190611c5a565b506020820151816001019081610faf9190611c5a565b5060408201518160020155606082015181600301556080820151816004015f6101000a81548160ff02191690831515021790555090505050505050565b6040518060a0016040528060608152602001606081526020015f81526020015f81526020015f151581525090565b5f604051905090565b5f80fd5b5f80fd5b5f819050919050565b61103d8161102b565b8114611047575f80fd5b50565b5f8135905061105881611034565b92915050565b5f6020828403121561107357611072611023565b5b5f6110808482850161104a565b91505092915050565b5f81519050919050565b5f82825260208201905092915050565b5f819050602082019050919050565b5f81519050919050565b5f82825260208201905092915050565b8281835e5f83830152505050565b5f601f19601f8301169050919050565b5f6110f4826110b2565b6110fe81856110bc565b935061110e8185602086016110cc565b611117816110da565b840191505092915050565b61112b8161102b565b82525050565b5f8115159050919050565b61114581611131565b82525050565b5f60a083015f8301518482035f86015261116582826110ea565b9150506020830151848203602086015261117f82826110ea565b91505060408301516111946040860182611122565b5060608301516111a76060860182611122565b5060808301516111ba608086018261113c565b508091505092915050565b5f6111d0838361114b565b905092915050565b5f602082019050919050565b5f6111ee82611089565b6111f88185611093565b93508360208202850161120a856110a3565b805f5b85811015611245578484038952815161122685826111c5565b9450611231836111d8565b925060208a0199505060018101905061120d565b50829750879550505050505092915050565b5f6020820190508181035f83015261126f81846111e4565b905092915050565b6112808161102b565b82525050565b5f6020820190506112995f830184611277565b92915050565b5f82825260208201905092915050565b5f6112b9826110b2565b6112c3818561129f565b93506112d38185602086016110cc565b6112dc816110da565b840191505092915050565b6112f081611131565b82525050565b5f60a0820190508181035f83015261130e81886112af565b9050818103602083015261132281876112af565b90506113316040830186611277565b61133e6060830185611277565b61134b60808301846112e7565b9695505050505050565b5f73ffffffffffffffffffffffffffffffffffffffff82169050919050565b5f61137e82611355565b9050919050565b61138e81611374565b82525050565b5f6020820190506113a75f830184611385565b92915050565b5f80604083850312156113c3576113c2611023565b5b5f6113d08582860161104a565b92505060206113e18582860161104a565b9150509250929050565b5f80fd5b5f80fd5b7f4e487b71000000000000000000000000000000000000000000000000000000005f52604160045260245ffd5b611429826110da565b810181811067ffffffffffffffff82111715611448576114476113f3565b5b80604052505050565b5f61145a61101a565b90506114668282611420565b919050565b5f67ffffffffffffffff821115611485576114846113f3565b5b61148e826110da565b9050602081019050919050565b828183375f83830152505050565b5f6114bb6114b68461146b565b611451565b9050828152602081018484840111156114d7576114d66113ef565b5b6114e284828561149b565b509392505050565b5f82601f8301126114fe576114fd6113eb565b5b813561150e8482602086016114a9565b91505092915050565b5f805f806080858703121561152f5761152e611023565b5b5f85013567ffffffffffffffff81111561154c5761154b611027565b5b611558878288016114ea565b945050602085013567ffffffffffffffff81111561157957611578611027565b5b611585878288016114ea565b93505060406115968782880161104a565b92505060606115a78782880161104a565b91505092959194509250565b7f496e76616c696420626f6f6b20494400000000000000000000000000000000005f82015250565b5f6115e7600f8361129f565b91506115f2826115b3565b602082019050919050565b5f6020820190508181035f830152611614816115db565b9050919050565b7f426f6f6b206973206e6f7420617661696c61626c6500000000000000000000005f82015250565b5f61164f60158361129f565b915061165a8261161b565b602082019050919050565b5f6020820190508181035f83015261167c81611643565b9050919050565b7f426f6f6b206f7574206f662073746f636b0000000000000000000000000000005f82015250565b5f6116b760118361129f565b91506116c282611683565b602082019050919050565b5f6020820190508181035f8301526116e4816116ab565b9050919050565b7f496e636f7272656374207061796d656e7420616d6f756e7400000000000000005f82015250565b5f61171f60188361129f565b915061172a826116eb565b602082019050919050565b5f6020820190508181035f83015261174c81611713565b9050919050565b7f4e487b71000000000000000000000000000000000000000000000000000000005f52601160045260245ffd5b5f61178a8261102b565b91505f820361179c5761179b611753565b5b600182039050919050565b5f6117b18261102b565b91507fffffffffffffffffffffffffffffffffffffffffffffffffffffffffffffffff82036117e3576117e2611753565b5b600182019050919050565b7f4e487b71000000000000000000000000000000000000000000000000000000005f52602260045260245ffd5b5f600282049050600182168061183257607f821691505b602082108103611845576118446117ee565b5b50919050565b5f6118558261102b565b91506118608361102b565b925082820390508181111561187857611877611753565b5b92915050565b7f4e487b71000000000000000000000000000000000000000000000000000000005f52603260045260245ffd5b7f4f6e6c7920746865206f776e65722063616e20706572666f726d2074686973205f8201527f616374696f6e0000000000000000000000000000000000000000000000000000602082015250565b5f61190560268361129f565b9150611910826118ab565b604082019050919050565b5f6020820190508181035f830152611932816118f9565b9050919050565b7f53746f636b2073686f756c642062652067726561746572207468616e207a65725f8201527f6f00000000000000000000000000000000000000000000000000000000000000602082015250565b5f61199360218361129f565b915061199e82611939565b604082019050919050565b5f6020820190508181035f8301526119c081611987565b9050919050565b7f426f6f6b20697320616c72656164792072656d6f7665640000000000000000005f82015250565b5f6119fb60178361129f565b9150611a06826119c7565b602082019050919050565b5f6020820190508181035f830152611a28816119ef565b9050919050565b7f50726963652073686f756c642062652067726561746572207468616e207a65725f8201527f6f00000000000000000000000000000000000000000000000000000000000000602082015250565b5f611a8960218361129f565b9150611a9482611a2f565b604082019050919050565b5f6020820190508181035f830152611ab681611a7d565b9050919050565b5f819050815f5260205f209050919050565b5f6020601f8301049050919050565b5f82821b905092915050565b5f60088302611b197fffffffffffffffffffffffffffffffffffffffffffffffffffffffffffffffff82611ade565b611b238683611ade565b95508019841693508086168417925050509392505050565b5f819050919050565b5f611b5e611b59611b548461102b565b611b3b565b61102b565b9050919050565b5f819050919050565b611b7783611b44565b611b8b611b8382611b65565b848454611aea565b825550505050565b5f90565b611b9f611b93565b611baa818484611b6e565b505050565b5b81811015611bcd57611bc25f82611b97565b600181019050611bb0565b5050565b601f821115611c1257611be381611abd565b611bec84611acf565b81016020851015611bfb578190505b611c0f611c0785611acf565b830182611baf565b50505b505050565b5f82821c905092915050565b5f611c325f1984600802611c17565b1980831691505092915050565b5f611c4a8383611c23565b9150826002028217905092915050565b611c63826110b2565b67ffffffffffffffff811115611c7c57611c7b6113f3565b5b611c86825461181b565b611c91828285611bd1565b5f60209050601f831160018114611cc2575f8415611cb0578287015190505b611cba8582611c3f565b865550611d21565b601f198416611cd086611abd565b5f5b82811015611cf757848901518255600182019150602085019450602081019050611cd2565b86831015611d145784890151611d10601f891682611c23565b8355505b6001600288020188555050505b50505050505056fea2646970667358221220cd6f0475bc169a1f3f3907e30b182fcf1455dc2129679edc5065d4b64add4a8a64736f6c634300081a0033",
					"opcodes": "PUSH1 0x80 PUSH1 0x40 MSTORE PUSH0 PUSH1 0x1 SSTORE PUSH0 PUSH1 0x2 SSTORE CALLVALUE DUP1 ISZERO PUSH1 0x16 JUMPI PUSH0 DUP1 REVERT JUMPDEST POP CALLER PUSH1 0x3 PUSH0 PUSH2 0x100 EXP DUP2 SLOAD DUP2 PUSH20 0xFFFFFFFFFFFFFFFFFFFFFFFFFFFFFFFFFFFFFFFF MUL NOT AND SWAP1 DUP4 PUSH20 0xFFFFFFFFFFFFFFFFFFFFFFFFFFFFFFFFFFFFFFFF AND MUL OR SWAP1 SSTORE POP PUSH2 0x1D5F DUP1 PUSH2 0x64 PUSH0 CODECOPY PUSH0 RETURN INVALID PUSH1 0x80 PUSH1 0x40 MSTORE PUSH1 0x4 CALLDATASIZE LT PUSH2 0xA6 JUMPI PUSH0 CALLDATALOAD PUSH1 0xE0 SHR DUP1 PUSH4 0x8DA5CB5B GT PUSH2 0x63 JUMPI DUP1 PUSH4 0x8DA5CB5B EQ PUSH2 0x1C4 JUMPI DUP1 PUSH4 0x8EF17FC3 EQ PUSH2 0x1EE JUMPI DUP1 PUSH4 0x9DFC3DD1 EQ PUSH2 0x204 JUMPI DUP1 PUSH4 0xB905AD78 EQ PUSH2 0x22C JUMPI DUP1 PUSH4 0xBEC0D799 EQ PUSH2 0x256 JUMPI DUP1 PUSH4 0xD4C6758B EQ PUSH2 0x27E JUMPI PUSH2 0xA6 JUMP JUMPDEST DUP1 PUSH4 0x1C555F47 EQ PUSH2 0xAA JUMPI DUP1 PUSH4 0x354528E8 EQ PUSH2 0xC6 JUMPI DUP1 PUSH4 0x3899637F EQ PUSH2 0xF0 JUMPI DUP1 PUSH4 0x590791F2 EQ PUSH2 0x11A JUMPI DUP1 PUSH4 0x68744046 EQ PUSH2 0x144 JUMPI DUP1 PUSH4 0x74FF4818 EQ PUSH2 0x184 JUMPI JUMPDEST PUSH0 DUP1 REVERT JUMPDEST PUSH2 0xC4 PUSH1 0x4 DUP1 CALLDATASIZE SUB DUP2 ADD SWAP1 PUSH2 0xBF SWAP2 SWAP1 PUSH2 0x105E JUMP JUMPDEST PUSH2 0x2A6 JUMP JUMPDEST STOP JUMPDEST CALLVALUE DUP1 ISZERO PUSH2 0xD1 JUMPI PUSH0 DUP1 REVERT JUMPDEST POP PUSH2 0xDA PUSH2 0x47E JUMP JUMPDEST PUSH1 0x40 MLOAD PUSH2 0xE7 SWAP2 SWAP1 PUSH2 0x1257 JUMP JUMPDEST PUSH1 0x40 MLOAD DUP1 SWAP2 SUB SWAP1 RETURN JUMPDEST CALLVALUE DUP1 ISZERO PUSH2 0xFB JUMPI PUSH0 DUP1 REVERT JUMPDEST POP PUSH2 0x104 PUSH2 0x695 JUMP JUMPDEST PUSH1 0x40 MLOAD PUSH2 0x111 SWAP2 SWAP1 PUSH2 0x1286 JUMP JUMPDEST PUSH1 0x40 MLOAD DUP1 SWAP2 SUB SWAP1 RETURN JUMPDEST CALLVALUE DUP1 ISZERO PUSH2 0x125 JUMPI PUSH0 DUP1 REVERT JUMPDEST POP PUSH2 0x12E PUSH2 0x69B JUMP JUMPDEST PUSH1 0x40 MLOAD PUSH2 0x13B SWAP2 SWAP1 PUSH2 0x1286 JUMP JUMPDEST PUSH1 0x40 MLOAD DUP1 SWAP2 SUB SWAP1 RETURN JUMPDEST CALLVALUE DUP1 ISZERO PUSH2 0x14F JUMPI PUSH0 DUP1 REVERT JUMPDEST POP PUSH2 0x16A PUSH1 0x4 DUP1 CALLDATASIZE SUB DUP2 ADD SWAP1 PUSH2 0x165 SWAP2 SWAP1 PUSH2 0x105E JUMP JUMPDEST PUSH2 0x6DA JUMP JUMPDEST PUSH1 0x40 MLOAD PUSH2 0x17B SWAP6 SWAP5 SWAP4 SWAP3 SWAP2 SWAP1 PUSH2 0x12F6 JUMP JUMPDEST PUSH1 0x40 MLOAD DUP1 SWAP2 SUB SWAP1 RETURN JUMPDEST CALLVALUE DUP1 ISZERO PUSH2 0x18F JUMPI PUSH0 DUP1 REVERT JUMPDEST POP PUSH2 0x1AA PUSH1 0x4 DUP1 CALLDATASIZE SUB DUP2 ADD SWAP1 PUSH2 0x1A5 SWAP2 SWAP1 PUSH2 0x105E JUMP JUMPDEST PUSH2 0x823 JUMP JUMPDEST PUSH1 0x40 MLOAD PUSH2 0x1BB SWAP6 SWAP5 SWAP4 SWAP3 SWAP2 SWAP1 PUSH2 0x12F6 JUMP JUMPDEST PUSH1 0x40 MLOAD DUP1 SWAP2 SUB SWAP1 RETURN JUMPDEST CALLVALUE DUP1 ISZERO PUSH2 0x1CF JUMPI PUSH0 DUP1 REVERT JUMPDEST POP PUSH2 0x1D8 PUSH2 0xA10 JUMP JUMPDEST PUSH1 0x40 MLOAD PUSH2 0x1E5 SWAP2 SWAP1 PUSH2 0x1394 JUMP JUMPDEST PUSH1 0x40 MLOAD DUP1 SWAP2 SUB SWAP1 RETURN JUMPDEST CALLVALUE DUP1 ISZERO PUSH2 0x1F9 JUMPI PUSH0 DUP1 REVERT JUMPDEST POP PUSH2 0x202 PUSH2 0xA35 JUMP JUMPDEST STOP JUMPDEST CALLVALUE DUP1 ISZERO PUSH2 0x20F JUMPI PUSH0 DUP1 REVERT JUMPDEST POP PUSH2 0x22A PUSH1 0x4 DUP1 CALLDATASIZE SUB DUP2 ADD SWAP1 PUSH2 0x225 SWAP2 SWAP1 PUSH2 0x13AD JUMP JUMPDEST PUSH2 0xB13 JUMP JUMPDEST STOP JUMPDEST CALLVALUE DUP1 ISZERO PUSH2 0x237 JUMPI PUSH0 DUP1 REVERT JUMPDEST POP PUSH2 0x240 PUSH2 0xCAF JUMP JUMPDEST PUSH1 0x40 MLOAD PUSH2 0x24D SWAP2 SWAP1 PUSH2 0x1286 JUMP JUMPDEST PUSH1 0x40 MLOAD DUP1 SWAP2 SUB SWAP1 RETURN JUMPDEST CALLVALUE DUP1 ISZERO PUSH2 0x261 JUMPI PUSH0 DUP1 REVERT JUMPDEST POP PUSH2 0x27C PUSH1 0x4 DUP1 CALLDATASIZE SUB DUP2 ADD SWAP1 PUSH2 0x277 SWAP2 SWAP1 PUSH2 0x105E JUMP JUMPDEST PUSH2 0xCB5 JUMP JUMPDEST STOP JUMPDEST CALLVALUE DUP1 ISZERO PUSH2 0x289 JUMPI PUSH0 DUP1 REVERT JUMPDEST POP PUSH2 0x2A4 PUSH1 0x4 DUP1 CALLDATASIZE SUB DUP2 ADD SWAP1 PUSH2 0x29F SWAP2 SWAP1 PUSH2 0x1517 JUMP JUMPDEST PUSH2 0xE20 JUMP JUMPDEST STOP JUMPDEST PUSH0 DUP2 GT DUP1 ISZERO PUSH2 0x2B7 JUMPI POP PUSH1 0x1 SLOAD DUP2 GT ISZERO JUMPDEST PUSH2 0x2F6 JUMPI PUSH1 0x40 MLOAD PUSH32 0x8C379A000000000000000000000000000000000000000000000000000000000 DUP2 MSTORE PUSH1 0x4 ADD PUSH2 0x2ED SWAP1 PUSH2 0x15FD JUMP JUMPDEST PUSH1 0x40 MLOAD DUP1 SWAP2 SUB SWAP1 REVERT JUMPDEST PUSH0 DUP1 PUSH0 DUP4 DUP2 MSTORE PUSH1 0x20 ADD SWAP1 DUP2 MSTORE PUSH1 0x20 ADD PUSH0 KECCAK256 SWAP1 POP DUP1 PUSH1 0x4 ADD PUSH0 SWAP1 SLOAD SWAP1 PUSH2 0x100 EXP SWAP1 DIV PUSH1 0xFF AND PUSH2 0x359 JUMPI PUSH1 0x40 MLOAD PUSH32 0x8C379A000000000000000000000000000000000000000000000000000000000 DUP2 MSTORE PUSH1 0x4 ADD PUSH2 0x350 SWAP1 PUSH2 0x1665 JUMP JUMPDEST PUSH1 0x40 MLOAD DUP1 SWAP2 SUB SWAP1 REVERT JUMPDEST PUSH0 DUP2 PUSH1 0x3 ADD SLOAD GT PUSH2 0x39F JUMPI PUSH1 0x40 MLOAD PUSH32 0x8C379A000000000000000000000000000000000000000000000000000000000 DUP2 MSTORE PUSH1 0x4 ADD PUSH2 0x396 SWAP1 PUSH2 0x16CD JUMP JUMPDEST PUSH1 0x40 MLOAD DUP1 SWAP2 SUB SWAP1 REVERT JUMPDEST DUP1 PUSH1 0x2 ADD SLOAD CALLVALUE EQ PUSH2 0x3E5 JUMPI PUSH1 0x40 MLOAD PUSH32 0x8C379A000000000000000000000000000000000000000000000000000000000 DUP2 MSTORE PUSH1 0x4 ADD PUSH2 0x3DC SWAP1 PUSH2 0x1735 JUMP JUMPDEST PUSH1 0x40 MLOAD DUP1 SWAP2 SUB SWAP1 REVERT JUMPDEST DUP1 PUSH1 0x3 ADD PUSH0 DUP2 SLOAD DUP1 SWAP3 SWAP2 SWAP1 PUSH2 0x3F9 SWAP1 PUSH2 0x1780 JUMP JUMPDEST SWAP2 SWAP1 POP SSTORE POP PUSH1 0x2 PUSH0 DUP2 SLOAD DUP1 SWAP3 SWAP2 SWAP1 PUSH2 0x410 SWAP1 PUSH2 0x17A7 JUMP JUMPDEST SWAP2 SWAP1 POP SSTORE POP PUSH1 0x3 PUSH0 SWAP1 SLOAD SWAP1 PUSH2 0x100 EXP SWAP1 DIV PUSH20 0xFFFFFFFFFFFFFFFFFFFFFFFFFFFFFFFFFFFFFFFF AND PUSH20 0xFFFFFFFFFFFFFFFFFFFFFFFFFFFFFFFFFFFFFFFF AND PUSH2 0x8FC CALLVALUE SWAP1 DUP2 ISZERO MUL SWAP1 PUSH1 0x40 MLOAD PUSH0 PUSH1 0x40 MLOAD DUP1 DUP4 SUB DUP2 DUP6 DUP9 DUP9 CALL SWAP4 POP POP POP POP ISZERO DUP1 ISZERO PUSH2 0x479 JUMPI RETURNDATASIZE PUSH0 DUP1 RETURNDATACOPY RETURNDATASIZE PUSH0 REVERT JUMPDEST POP POP POP JUMP JUMPDEST PUSH1 0x60 PUSH0 PUSH1 0x1 SLOAD PUSH8 0xFFFFFFFFFFFFFFFF DUP2 GT ISZERO PUSH2 0x49D JUMPI PUSH2 0x49C PUSH2 0x13F3 JUMP JUMPDEST JUMPDEST PUSH1 0x40 MLOAD SWAP1 DUP1 DUP3 MSTORE DUP1 PUSH1 0x20 MUL PUSH1 0x20 ADD DUP3 ADD PUSH1 0x40 MSTORE DUP1 ISZERO PUSH2 0x4D6 JUMPI DUP2 PUSH1 0x20 ADD JUMPDEST PUSH2 0x4C3 PUSH2 0xFEC JUMP JUMPDEST DUP2 MSTORE PUSH1 0x20 ADD SWAP1 PUSH1 0x1 SWAP1 SUB SWAP1 DUP2 PUSH2 0x4BB JUMPI SWAP1 POP JUMPDEST POP SWAP1 POP PUSH0 PUSH1 0x1 SWAP1 POP JUMPDEST PUSH1 0x1 SLOAD DUP2 GT PUSH2 0x68D JUMPI PUSH0 DUP1 DUP3 DUP2 MSTORE PUSH1 0x20 ADD SWAP1 DUP2 MSTORE PUSH1 0x20 ADD PUSH0 KECCAK256 PUSH1 0x40 MLOAD DUP1 PUSH1 0xA0 ADD PUSH1 0x40 MSTORE SWAP1 DUP2 PUSH0 DUP3 ADD DUP1 SLOAD PUSH2 0x512 SWAP1 PUSH2 0x181B JUMP JUMPDEST DUP1 PUSH1 0x1F ADD PUSH1 0x20 DUP1 SWAP2 DIV MUL PUSH1 0x20 ADD PUSH1 0x40 MLOAD SWAP1 DUP2 ADD PUSH1 0x40 MSTORE DUP1 SWAP3 SWAP2 SWAP1 DUP2 DUP2 MSTORE PUSH1 0x20 ADD DUP3 DUP1 SLOAD PUSH2 0x53E SWAP1 PUSH2 0x181B JUMP JUMPDEST DUP1 ISZERO PUSH2 0x589 JUMPI DUP1 PUSH1 0x1F LT PUSH2 0x560 JUMPI PUSH2 0x100 DUP1 DUP4 SLOAD DIV MUL DUP4 MSTORE SWAP2 PUSH1 0x20 ADD SWAP2 PUSH2 0x589 JUMP JUMPDEST DUP3 ADD SWAP2 SWAP1 PUSH0 MSTORE PUSH1 0x20 PUSH0 KECCAK256 SWAP1 JUMPDEST DUP2 SLOAD DUP2 MSTORE SWAP1 PUSH1 0x1 ADD SWAP1 PUSH1 0x20 ADD DUP1 DUP4 GT PUSH2 0x56C JUMPI DUP3 SWAP1 SUB PUSH1 0x1F AND DUP3 ADD SWAP2 JUMPDEST POP POP POP POP POP DUP2 MSTORE PUSH1 0x20 ADD PUSH1 0x1 DUP3 ADD DUP1 SLOAD PUSH2 0x5A2 SWAP1 PUSH2 0x181B JUMP JUMPDEST DUP1 PUSH1 0x1F ADD PUSH1 0x20 DUP1 SWAP2 DIV MUL PUSH1 0x20 ADD PUSH1 0x40 MLOAD SWAP1 DUP2 ADD PUSH1 0x40 MSTORE DUP1 SWAP3 SWAP2 SWAP1 DUP2 DUP2 MSTORE PUSH1 0x20 ADD DUP3 DUP1 SLOAD PUSH2 0x5CE SWAP1 PUSH2 0x181B JUMP JUMPDEST DUP1 ISZERO PUSH2 0x619 JUMPI DUP1 PUSH1 0x1F LT PUSH2 0x5F0 JUMPI PUSH2 0x100 DUP1 DUP4 SLOAD DIV MUL DUP4 MSTORE SWAP2 PUSH1 0x20 ADD SWAP2 PUSH2 0x619 JUMP JUMPDEST DUP3 ADD SWAP2 SWAP1 PUSH0 MSTORE PUSH1 0x20 PUSH0 KECCAK256 SWAP1 JUMPDEST DUP2 SLOAD DUP2 MSTORE SWAP1 PUSH1 0x1 ADD SWAP1 PUSH1 0x20 ADD DUP1 DUP4 GT PUSH2 0x5FC JUMPI DUP3 SWAP1 SUB PUSH1 0x1F AND DUP3 ADD SWAP2 JUMPDEST POP POP POP POP POP DUP2 MSTORE PUSH1 0x20 ADD PUSH1 0x2 DUP3 ADD SLOAD DUP2 MSTORE PUSH1 0x20 ADD PUSH1 0x3 DUP3 ADD SLOAD DUP2 MSTORE PUSH1 0x20 ADD PUSH1 0x4 DUP3 ADD PUSH0 SWAP1 SLOAD SWAP1 PUSH2 0x100 EXP SWAP1 DIV PUSH1 0xFF AND ISZERO ISZERO ISZERO ISZERO DUP2 MSTORE POP POP DUP3 PUSH1 0x1 DUP4 PUSH2 0x65E SWAP2 SWAP1 PUSH2 0x184B JUMP JUMPDEST DUP2 MLOAD DUP2 LT PUSH2 0x66F JUMPI PUSH2 0x66E PUSH2 0x187E JUMP JUMPDEST JUMPDEST PUSH1 0x20 MUL PUSH1 0x20 ADD ADD DUP2 SWAP1 MSTORE POP DUP1 DUP1 PUSH2 0x685 SWAP1 PUSH2 0x17A7 JUMP JUMPDEST SWAP2 POP POP PUSH2 0x4DF JUMP JUMPDEST POP DUP1 SWAP2 POP POP SWAP1 JUMP JUMPDEST PUSH1 0x2 SLOAD DUP2 JUMP JUMPDEST PUSH0 PUSH1 0x3 PUSH0 SWAP1 SLOAD SWAP1 PUSH2 0x100 EXP SWAP1 DIV PUSH20 0xFFFFFFFFFFFFFFFFFFFFFFFFFFFFFFFFFFFFFFFF AND PUSH20 0xFFFFFFFFFFFFFFFFFFFFFFFFFFFFFFFFFFFFFFFF AND BALANCE SWAP1 POP SWAP1 JUMP JUMPDEST PUSH0 PUSH1 0x20 MSTORE DUP1 PUSH0 MSTORE PUSH1 0x40 PUSH0 KECCAK256 PUSH0 SWAP2 POP SWAP1 POP DUP1 PUSH0 ADD DUP1 SLOAD PUSH2 0x6F8 SWAP1 PUSH2 0x181B JUMP JUMPDEST DUP1 PUSH1 0x1F ADD PUSH1 0x20 DUP1 SWAP2 DIV MUL PUSH1 0x20 ADD PUSH1 0x40 MLOAD SWAP1 DUP2 ADD PUSH1 0x40 MSTORE DUP1 SWAP3 SWAP2 SWAP1 DUP2 DUP2 MSTORE PUSH1 0x20 ADD DUP3 DUP1 SLOAD PUSH2 0x724 SWAP1 PUSH2 0x181B JUMP JUMPDEST DUP1 ISZERO PUSH2 0x76F JUMPI DUP1 PUSH1 0x1F LT PUSH2 0x746 JUMPI PUSH2 0x100 DUP1 DUP4 SLOAD DIV MUL DUP4 MSTORE SWAP2 PUSH1 0x20 ADD SWAP2 PUSH2 0x76F JUMP JUMPDEST DUP3 ADD SWAP2 SWAP1 PUSH0 MSTORE PUSH1 0x20 PUSH0 KECCAK256 SWAP1 JUMPDEST DUP2 SLOAD DUP2 MSTORE SWAP1 PUSH1 0x1 ADD SWAP1 PUSH1 0x20 ADD DUP1 DUP4 GT PUSH2 0x752 JUMPI DUP3 SWAP1 SUB PUSH1 0x1F AND DUP3 ADD SWAP2 JUMPDEST POP POP POP POP POP SWAP1 DUP1 PUSH1 0x1 ADD DUP1 SLOAD PUSH2 0x784 SWAP1 PUSH2 0x181B JUMP JUMPDEST DUP1 PUSH1 0x1F ADD PUSH1 0x20 DUP1 SWAP2 DIV MUL PUSH1 0x20 ADD PUSH1 0x40 MLOAD SWAP1 DUP2 ADD PUSH1 0x40 MSTORE DUP1 SWAP3 SWAP2 SWAP1 DUP2 DUP2 MSTORE PUSH1 0x20 ADD DUP3 DUP1 SLOAD PUSH2 0x7B0 SWAP1 PUSH2 0x181B JUMP JUMPDEST DUP1 ISZERO PUSH2 0x7FB JUMPI DUP1 PUSH1 0x1F LT PUSH2 0x7D2 JUMPI PUSH2 0x100 DUP1 DUP4 SLOAD DIV MUL DUP4 MSTORE SWAP2 PUSH1 0x20 ADD SWAP2 PUSH2 0x7FB JUMP JUMPDEST DUP3 ADD SWAP2 SWAP1 PUSH0 MSTORE PUSH1 0x20 PUSH0 KECCAK256 SWAP1 JUMPDEST DUP2 SLOAD DUP2 MSTORE SWAP1 PUSH1 0x1 ADD SWAP1 PUSH1 0x20 ADD DUP1 DUP4 GT PUSH2 0x7DE JUMPI DUP3 SWAP1 SUB PUSH1 0x1F AND DUP3 ADD SWAP2 JUMPDEST POP POP POP POP POP SWAP1 DUP1 PUSH1 0x2 ADD SLOAD SWAP1 DUP1 PUSH1 0x3 ADD SLOAD SWAP1 DUP1 PUSH1 0x4 ADD PUSH0 SWAP1 SLOAD SWAP1 PUSH2 0x100 EXP SWAP1 DIV PUSH1 0xFF AND SWAP1 POP DUP6 JUMP JUMPDEST PUSH1 0x60 DUP1 PUSH0 DUP1 PUSH0 DUP1 DUP7 GT DUP1 ISZERO PUSH2 0x83A JUMPI POP PUSH1 0x1 SLOAD DUP7 GT ISZERO JUMPDEST PUSH2 0x879 JUMPI PUSH1 0x40 MLOAD PUSH32 0x8C379A000000000000000000000000000000000000000000000000000000000 DUP2 MSTORE PUSH1 0x4 ADD PUSH2 0x870 SWAP1 PUSH2 0x15FD JUMP JUMPDEST PUSH1 0x40 MLOAD DUP1 SWAP2 SUB SWAP1 REVERT JUMPDEST PUSH0 DUP1 PUSH0 DUP9 DUP2 MSTORE PUSH1 0x20 ADD SWAP1 DUP2 MSTORE PUSH1 0x20 ADD PUSH0 KECCAK256 PUSH1 0x40 MLOAD DUP1 PUSH1 0xA0 ADD PUSH1 0x40 MSTORE SWAP1 DUP2 PUSH0 DUP3 ADD DUP1 SLOAD PUSH2 0x8A4 SWAP1 PUSH2 0x181B JUMP JUMPDEST DUP1 PUSH1 0x1F ADD PUSH1 0x20 DUP1 SWAP2 DIV MUL PUSH1 0x20 ADD PUSH1 0x40 MLOAD SWAP1 DUP2 ADD PUSH1 0x40 MSTORE DUP1 SWAP3 SWAP2 SWAP1 DUP2 DUP2 MSTORE PUSH1 0x20 ADD DUP3 DUP1 SLOAD PUSH2 0x8D0 SWAP1 PUSH2 0x181B JUMP JUMPDEST DUP1 ISZERO PUSH2 0x91B JUMPI DUP1 PUSH1 0x1F LT PUSH2 0x8F2 JUMPI PUSH2 0x100 DUP1 DUP4 SLOAD DIV MUL DUP4 MSTORE SWAP2 PUSH1 0x20 ADD SWAP2 PUSH2 0x91B JUMP JUMPDEST DUP3 ADD SWAP2 SWAP1 PUSH0 MSTORE PUSH1 0x20 PUSH0 KECCAK256 SWAP1 JUMPDEST DUP2 SLOAD DUP2 MSTORE SWAP1 PUSH1 0x1 ADD SWAP1 PUSH1 0x20 ADD DUP1 DUP4 GT PUSH2 0x8FE JUMPI DUP3 SWAP1 SUB PUSH1 0x1F AND DUP3 ADD SWAP2 JUMPDEST POP POP POP POP POP DUP2 MSTORE PUSH1 0x20 ADD PUSH1 0x1 DUP3 ADD DUP1 SLOAD PUSH2 0x934 SWAP1 PUSH2 0x181B JUMP JUMPDEST DUP1 PUSH1 0x1F ADD PUSH1 0x20 DUP1 SWAP2 DIV MUL PUSH1 0x20 ADD PUSH1 0x40 MLOAD SWAP1 DUP2 ADD PUSH1 0x40 MSTORE DUP1 SWAP3 SWAP2 SWAP1 DUP2 DUP2 MSTORE PUSH1 0x20 ADD DUP3 DUP1 SLOAD PUSH2 0x960 SWAP1 PUSH2 0x181B JUMP JUMPDEST DUP1 ISZERO PUSH2 0x9AB JUMPI DUP1 PUSH1 0x1F LT PUSH2 0x982 JUMPI PUSH2 0x100 DUP1 DUP4 SLOAD DIV MUL DUP4 MSTORE SWAP2 PUSH1 0x20 ADD SWAP2 PUSH2 0x9AB JUMP JUMPDEST DUP3 ADD SWAP2 SWAP1 PUSH0 MSTORE PUSH1 0x20 PUSH0 KECCAK256 SWAP1 JUMPDEST DUP2 SLOAD DUP2 MSTORE SWAP1 PUSH1 0x1 ADD SWAP1 PUSH1 0x20 ADD DUP1 DUP4 GT PUSH2 0x98E JUMPI DUP3 SWAP1 SUB PUSH1 0x1F AND DUP3 ADD SWAP2 JUMPDEST POP POP POP POP POP DUP2 MSTORE PUSH1 0x20 ADD PUSH1 0x2 DUP3 ADD SLOAD DUP2 MSTORE PUSH1 0x20 ADD PUSH1 0x3 DUP3 ADD SLOAD DUP2 MSTORE PUSH1 0x20 ADD PUSH1 0x4 DUP3 ADD PUSH0 SWAP1 SLOAD SWAP1 PUSH2 0x100 EXP SWAP1 DIV PUSH1 0xFF AND ISZERO ISZERO ISZERO ISZERO DUP2 MSTORE POP POP SWAP1 POP DUP1 PUSH0 ADD MLOAD DUP2 PUSH1 0x20 ADD MLOAD DUP3 PUSH1 0x40 ADD MLOAD DUP4 PUSH1 0x60 ADD MLOAD DUP5 PUSH1 0x80 ADD MLOAD SWAP6 POP SWAP6 POP SWAP6 POP SWAP6 POP SWAP6 POP POP SWAP2 SWAP4 SWAP6 SWAP1 SWAP3 SWAP5 POP JUMP JUMPDEST PUSH1 0x3 PUSH0 SWAP1 SLOAD SWAP1 PUSH2 0x100 EXP SWAP1 DIV PUSH20 0xFFFFFFFFFFFFFFFFFFFFFFFFFFFFFFFFFFFFFFFF AND DUP2 JUMP JUMPDEST PUSH1 0x3 PUSH0 SWAP1 SLOAD SWAP1 PUSH2 0x100 EXP SWAP1 DIV PUSH20 0xFFFFFFFFFFFFFFFFFFFFFFFFFFFFFFFFFFFFFFFF AND PUSH20 0xFFFFFFFFFFFFFFFFFFFFFFFFFFFFFFFFFFFFFFFF AND CALLER PUSH20 0xFFFFFFFFFFFFFFFFFFFFFFFFFFFFFFFFFFFFFFFF AND EQ PUSH2 0xAC4 JUMPI PUSH1 0x40 MLOAD PUSH32 0x8C379A000000000000000000000000000000000000000000000000000000000 DUP2 MSTORE PUSH1 0x4 ADD PUSH2 0xABB SWAP1 PUSH2 0x191B JUMP JUMPDEST PUSH1 0x40 MLOAD DUP1 SWAP2 SUB SWAP1 REVERT JUMPDEST PUSH0 PUSH1 0x1 SWAP1 POP JUMPDEST PUSH1 0x1 SLOAD DUP2 GT PUSH2 0xB10 JUMPI PUSH0 DUP1 PUSH0 DUP4 DUP2 MSTORE PUSH1 0x20 ADD SWAP1 DUP2 MSTORE PUSH1 0x20 ADD PUSH0 KECCAK256 PUSH1 0x4 ADD PUSH0 PUSH2 0x100 EXP DUP2 SLOAD DUP2 PUSH1 0xFF MUL NOT AND SWAP1 DUP4 ISZERO ISZERO MUL OR SWAP1 SSTORE POP DUP1 DUP1 PUSH2 0xB08 SWAP1 PUSH2 0x17A7 JUMP JUMPDEST SWAP2 POP POP PUSH2 0xACA JUMP JUMPDEST POP JUMP JUMPDEST PUSH1 0x3 PUSH0 SWAP1 SLOAD SWAP1 PUSH2 0x100 EXP SWAP1 DIV PUSH20 0xFFFFFFFFFFFFFFFFFFFFFFFFFFFFFFFFFFFFFFFF AND PUSH20 0xFFFFFFFFFFFFFFFFFFFFFFFFFFFFFFFFFFFFFFFF AND CALLER PUSH20 0xFFFFFFFFFFFFFFFFFFFFFFFFFFFFFFFFFFFFFFFF AND EQ PUSH2 0xBA2 JUMPI PUSH1 0x40 MLOAD PUSH32 0x8C379A000000000000000000000000000000000000000000000000000000000 DUP2 MSTORE PUSH1 0x4 ADD PUSH2 0xB99 SWAP1 PUSH2 0x191B JUMP JUMPDEST PUSH1 0x40 MLOAD DUP1 SWAP2 SUB SWAP1 REVERT JUMPDEST PUSH0 DUP3 GT DUP1 ISZERO PUSH2 0xBB3 JUMPI POP PUSH1 0x1 SLOAD DUP3 GT ISZERO JUMPDEST PUSH2 0xBF2 JUMPI PUSH1 0x40 MLOAD PUSH32 0x8C379A000000000000000000000000000000000000000000000000000000000 DUP2 MSTORE PUSH1 0x4 ADD PUSH2 0xBE9 SWAP1 PUSH2 0x15FD JUMP JUMPDEST PUSH1 0x40 MLOAD DUP1 SWAP2 SUB SWAP1 REVERT JUMPDEST PUSH0 DUP2 GT PUSH2 0xC34 JUMPI PUSH1 0x40 MLOAD PUSH32 0x8C379A000000000000000000000000000000000000000000000000000000000 DUP2 MSTORE PUSH1 0x4 ADD PUSH2 0xC2B SWAP1 PUSH2 0x19A9 JUMP JUMPDEST PUSH1 0x40 MLOAD DUP1 SWAP2 SUB SWAP1 REVERT JUMPDEST PUSH0 DUP1 DUP4 DUP2 MSTORE PUSH1 0x20 ADD SWAP1 DUP2 MSTORE PUSH1 0x20 ADD PUSH0 KECCAK256 PUSH1 0x4 ADD PUSH0 SWAP1 SLOAD SWAP1 PUSH2 0x100 EXP SWAP1 DIV PUSH1 0xFF AND PUSH2 0xC93 JUMPI PUSH1 0x40 MLOAD PUSH32 0x8C379A000000000000000000000000000000000000000000000000000000000 DUP2 MSTORE PUSH1 0x4 ADD PUSH2 0xC8A SWAP1 PUSH2 0x1665 JUMP JUMPDEST PUSH1 0x40 MLOAD DUP1 SWAP2 SUB SWAP1 REVERT JUMPDEST DUP1 PUSH0 DUP1 DUP5 DUP2 MSTORE PUSH1 0x20 ADD SWAP1 DUP2 MSTORE PUSH1 0x20 ADD PUSH0 KECCAK256 PUSH1 0x3 ADD DUP2 SWAP1 SSTORE POP POP POP JUMP JUMPDEST PUSH1 0x1 SLOAD DUP2 JUMP JUMPDEST PUSH1 0x3 PUSH0 SWAP1 SLOAD SWAP1 PUSH2 0x100 EXP SWAP1 DIV PUSH20 0xFFFFFFFFFFFFFFFFFFFFFFFFFFFFFFFFFFFFFFFF AND PUSH20 0xFFFFFFFFFFFFFFFFFFFFFFFFFFFFFFFFFFFFFFFF AND CALLER PUSH20 0xFFFFFFFFFFFFFFFFFFFFFFFFFFFFFFFFFFFFFFFF AND EQ PUSH2 0xD44 JUMPI PUSH1 0x40 MLOAD PUSH32 0x8C379A000000000000000000000000000000000000000000000000000000000 DUP2 MSTORE PUSH1 0x4 ADD PUSH2 0xD3B SWAP1 PUSH2 0x191B JUMP JUMPDEST PUSH1 0x40 MLOAD DUP1 SWAP2 SUB SWAP1 REVERT JUMPDEST PUSH0 DUP2 GT DUP1 ISZERO PUSH2 0xD55 JUMPI POP PUSH1 0x1 SLOAD DUP2 GT ISZERO JUMPDEST PUSH2 0xD94 JUMPI PUSH1 0x40 MLOAD PUSH32 0x8C379A000000000000000000000000000000000000000000000000000000000 DUP2 MSTORE PUSH1 0x4 ADD PUSH2 0xD8B SWAP1 PUSH2 0x15FD JUMP JUMPDEST PUSH1 0x40 MLOAD DUP1 SWAP2 SUB SWAP1 REVERT JUMPDEST PUSH0 DUP1 DUP3 DUP2 MSTORE PUSH1 0x20 ADD SWAP1 DUP2 MSTORE PUSH1 0x20 ADD PUSH0 KECCAK256 PUSH1 0x4 ADD PUSH0 SWAP1 SLOAD SWAP1 PUSH2 0x100 EXP SWAP1 DIV PUSH1 0xFF AND PUSH2 0xDF3 JUMPI PUSH1 0x40 MLOAD PUSH32 0x8C379A000000000000000000000000000000000000000000000000000000000 DUP2 MSTORE PUSH1 0x4 ADD PUSH2 0xDEA SWAP1 PUSH2 0x1A11 JUMP JUMPDEST PUSH1 0x40 MLOAD DUP1 SWAP2 SUB SWAP1 REVERT JUMPDEST PUSH0 DUP1 PUSH0 DUP4 DUP2 MSTORE PUSH1 0x20 ADD SWAP1 DUP2 MSTORE PUSH1 0x20 ADD PUSH0 KECCAK256 PUSH1 0x4 ADD PUSH0 PUSH2 0x100 EXP DUP2 SLOAD DUP2 PUSH1 0xFF MUL NOT AND SWAP1 DUP4 ISZERO ISZERO MUL OR SWAP1 SSTORE POP POP JUMP JUMPDEST PUSH1 0x3 PUSH0 SWAP1 SLOAD SWAP1 PUSH2 0x100 EXP SWAP1 DIV PUSH20 0xFFFFFFFFFFFFFFFFFFFFFFFFFFFFFFFFFFFFFFFF AND PUSH20 0xFFFFFFFFFFFFFFFFFFFFFFFFFFFFFFFFFFFFFFFF AND CALLER PUSH20 0xFFFFFFFFFFFFFFFFFFFFFFFFFFFFFFFFFFFFFFFF AND EQ PUSH2 0xEAF JUMPI PUSH1 0x40 MLOAD PUSH32 0x8C379A000000000000000000000000000000000000000000000000000000000 DUP2 MSTORE PUSH1 0x4 ADD PUSH2 0xEA6 SWAP1 PUSH2 0x191B JUMP JUMPDEST PUSH1 0x40 MLOAD DUP1 SWAP2 SUB SWAP1 REVERT JUMPDEST PUSH0 DUP3 GT PUSH2 0xEF1 JUMPI PUSH1 0x40 MLOAD PUSH32 0x8C379A000000000000000000000000000000000000000000000000000000000 DUP2 MSTORE PUSH1 0x4 ADD PUSH2 0xEE8 SWAP1 PUSH2 0x1A9F JUMP JUMPDEST PUSH1 0x40 MLOAD DUP1 SWAP2 SUB SWAP1 REVERT JUMPDEST PUSH0 DUP2 GT PUSH2 0xF33 JUMPI PUSH1 0x40 MLOAD PUSH32 0x8C379A000000000000000000000000000000000000000000000000000000000 DUP2 MSTORE PUSH1 0x4 ADD PUSH2 0xF2A SWAP1 PUSH2 0x19A9 JUMP JUMPDEST PUSH1 0x40 MLOAD DUP1 SWAP2 SUB SWAP1 REVERT JUMPDEST PUSH1 0x1 PUSH0 DUP2 SLOAD DUP1 SWAP3 SWAP2 SWAP1 PUSH2 0xF45 SWAP1 PUSH2 0x17A7 JUMP JUMPDEST SWAP2 SWAP1 POP SSTORE POP PUSH1 0x40 MLOAD DUP1 PUSH1 0xA0 ADD PUSH1 0x40 MSTORE DUP1 DUP6 DUP2 MSTORE PUSH1 0x20 ADD DUP5 DUP2 MSTORE PUSH1 0x20 ADD DUP4 DUP2 MSTORE PUSH1 0x20 ADD DUP3 DUP2 MSTORE PUSH1 0x20 ADD PUSH1 0x1 ISZERO ISZERO DUP2 MSTORE POP PUSH0 DUP1 PUSH1 0x1 SLOAD DUP2 MSTORE PUSH1 0x20 ADD SWAP1 DUP2 MSTORE PUSH1 0x20 ADD PUSH0 KECCAK256 PUSH0 DUP3 ADD MLOAD DUP2 PUSH0 ADD SWAP1 DUP2 PUSH2 0xF99 SWAP2 SWAP1 PUSH2 0x1C5A JUMP JUMPDEST POP PUSH1 0x20 DUP3 ADD MLOAD DUP2 PUSH1 0x1 ADD SWAP1 DUP2 PUSH2 0xFAF SWAP2 SWAP1 PUSH2 0x1C5A JUMP JUMPDEST POP PUSH1 0x40 DUP3 ADD MLOAD DUP2 PUSH1 0x2 ADD SSTORE PUSH1 0x60 DUP3 ADD MLOAD DUP2 PUSH1 0x3 ADD SSTORE PUSH1 0x80 DUP3 ADD MLOAD DUP2 PUSH1 0x4 ADD PUSH0 PUSH2 0x100 EXP DUP2 SLOAD DUP2 PUSH1 0xFF MUL NOT AND SWAP1 DUP4 ISZERO ISZERO MUL OR SWAP1 SSTORE POP SWAP1 POP POP POP POP POP POP JUMP JUMPDEST PUSH1 0x40 MLOAD DUP1 PUSH1 0xA0 ADD PUSH1 0x40 MSTORE DUP1 PUSH1 0x60 DUP2 MSTORE PUSH1 0x20 ADD PUSH1 0x60 DUP2 MSTORE PUSH1 0x20 ADD PUSH0 DUP2 MSTORE PUSH1 0x20 ADD PUSH0 DUP2 MSTORE PUSH1 0x20 ADD PUSH0 ISZERO ISZERO DUP2 MSTORE POP SWAP1 JUMP JUMPDEST PUSH0 PUSH1 0x40 MLOAD SWAP1 POP SWAP1 JUMP JUMPDEST PUSH0 DUP1 REVERT JUMPDEST PUSH0 DUP1 REVERT JUMPDEST PUSH0 DUP2 SWAP1 POP SWAP2 SWAP1 POP JUMP JUMPDEST PUSH2 0x103D DUP2 PUSH2 0x102B JUMP JUMPDEST DUP2 EQ PUSH2 0x1047 JUMPI PUSH0 DUP1 REVERT JUMPDEST POP JUMP JUMPDEST PUSH0 DUP2 CALLDATALOAD SWAP1 POP PUSH2 0x1058 DUP2 PUSH2 0x1034 JUMP JUMPDEST SWAP3 SWAP2 POP POP JUMP JUMPDEST PUSH0 PUSH1 0x20 DUP3 DUP5 SUB SLT ISZERO PUSH2 0x1073 JUMPI PUSH2 0x1072 PUSH2 0x1023 JUMP JUMPDEST JUMPDEST PUSH0 PUSH2 0x1080 DUP5 DUP3 DUP6 ADD PUSH2 0x104A JUMP JUMPDEST SWAP2 POP POP SWAP3 SWAP2 POP POP JUMP JUMPDEST PUSH0 DUP2 MLOAD SWAP1 POP SWAP2 SWAP1 POP JUMP JUMPDEST PUSH0 DUP3 DUP3 MSTORE PUSH1 0x20 DUP3 ADD SWAP1 POP SWAP3 SWAP2 POP POP JUMP JUMPDEST PUSH0 DUP2 SWAP1 POP PUSH1 0x20 DUP3 ADD SWAP1 POP SWAP2 SWAP1 POP JUMP JUMPDEST PUSH0 DUP2 MLOAD SWAP1 POP SWAP2 SWAP1 POP JUMP JUMPDEST PUSH0 DUP3 DUP3 MSTORE PUSH1 0x20 DUP3 ADD SWAP1 POP SWAP3 SWAP2 POP POP JUMP JUMPDEST DUP3 DUP2 DUP4 MCOPY PUSH0 DUP4 DUP4 ADD MSTORE POP POP POP JUMP JUMPDEST PUSH0 PUSH1 0x1F NOT PUSH1 0x1F DUP4 ADD AND SWAP1 POP SWAP2 SWAP1 POP JUMP JUMPDEST PUSH0 PUSH2 0x10F4 DUP3 PUSH2 0x10B2 JUMP JUMPDEST PUSH2 0x10FE DUP2 DUP6 PUSH2 0x10BC JUMP JUMPDEST SWAP4 POP PUSH2 0x110E DUP2 DUP6 PUSH1 0x20 DUP7 ADD PUSH2 0x10CC JUMP JUMPDEST PUSH2 0x1117 DUP2 PUSH2 0x10DA JUMP JUMPDEST DUP5 ADD SWAP2 POP POP SWAP3 SWAP2 POP POP JUMP JUMPDEST PUSH2 0x112B DUP2 PUSH2 0x102B JUMP JUMPDEST DUP3 MSTORE POP POP JUMP JUMPDEST PUSH0 DUP2 ISZERO ISZERO SWAP1 POP SWAP2 SWAP1 POP JUMP JUMPDEST PUSH2 0x1145 DUP2 PUSH2 0x1131 JUMP JUMPDEST DUP3 MSTORE POP POP JUMP JUMPDEST PUSH0 PUSH1 0xA0 DUP4 ADD PUSH0 DUP4 ADD MLOAD DUP5 DUP3 SUB PUSH0 DUP7 ADD MSTORE PUSH2 0x1165 DUP3 DUP3 PUSH2 0x10EA JUMP JUMPDEST SWAP2 POP POP PUSH1 0x20 DUP4 ADD MLOAD DUP5 DUP3 SUB PUSH1 0x20 DUP7 ADD MSTORE PUSH2 0x117F DUP3 DUP3 PUSH2 0x10EA JUMP JUMPDEST SWAP2 POP POP PUSH1 0x40 DUP4 ADD MLOAD PUSH2 0x1194 PUSH1 0x40 DUP7 ADD DUP3 PUSH2 0x1122 JUMP JUMPDEST POP PUSH1 0x60 DUP4 ADD MLOAD PUSH2 0x11A7 PUSH1 0x60 DUP7 ADD DUP3 PUSH2 0x1122 JUMP JUMPDEST POP PUSH1 0x80 DUP4 ADD MLOAD PUSH2 0x11BA PUSH1 0x80 DUP7 ADD DUP3 PUSH2 0x113C JUMP JUMPDEST POP DUP1 SWAP2 POP POP SWAP3 SWAP2 POP POP JUMP JUMPDEST PUSH0 PUSH2 0x11D0 DUP4 DUP4 PUSH2 0x114B JUMP JUMPDEST SWAP1 POP SWAP3 SWAP2 POP POP JUMP JUMPDEST PUSH0 PUSH1 0x20 DUP3 ADD SWAP1 POP SWAP2 SWAP1 POP JUMP JUMPDEST PUSH0 PUSH2 0x11EE DUP3 PUSH2 0x1089 JUMP JUMPDEST PUSH2 0x11F8 DUP2 DUP6 PUSH2 0x1093 JUMP JUMPDEST SWAP4 POP DUP4 PUSH1 0x20 DUP3 MUL DUP6 ADD PUSH2 0x120A DUP6 PUSH2 0x10A3 JUMP JUMPDEST DUP1 PUSH0 JUMPDEST DUP6 DUP2 LT ISZERO PUSH2 0x1245 JUMPI DUP5 DUP5 SUB DUP10 MSTORE DUP2 MLOAD PUSH2 0x1226 DUP6 DUP3 PUSH2 0x11C5 JUMP JUMPDEST SWAP5 POP PUSH2 0x1231 DUP4 PUSH2 0x11D8 JUMP JUMPDEST SWAP3 POP PUSH1 0x20 DUP11 ADD SWAP10 POP POP PUSH1 0x1 DUP2 ADD SWAP1 POP PUSH2 0x120D JUMP JUMPDEST POP DUP3 SWAP8 POP DUP8 SWAP6 POP POP POP POP POP POP SWAP3 SWAP2 POP POP JUMP JUMPDEST PUSH0 PUSH1 0x20 DUP3 ADD SWAP1 POP DUP2 DUP2 SUB PUSH0 DUP4 ADD MSTORE PUSH2 0x126F DUP2 DUP5 PUSH2 0x11E4 JUMP JUMPDEST SWAP1 POP SWAP3 SWAP2 POP POP JUMP JUMPDEST PUSH2 0x1280 DUP2 PUSH2 0x102B JUMP JUMPDEST DUP3 MSTORE POP POP JUMP JUMPDEST PUSH0 PUSH1 0x20 DUP3 ADD SWAP1 POP PUSH2 0x1299 PUSH0 DUP4 ADD DUP5 PUSH2 0x1277 JUMP JUMPDEST SWAP3 SWAP2 POP POP JUMP JUMPDEST PUSH0 DUP3 DUP3 MSTORE PUSH1 0x20 DUP3 ADD SWAP1 POP SWAP3 SWAP2 POP POP JUMP JUMPDEST PUSH0 PUSH2 0x12B9 DUP3 PUSH2 0x10B2 JUMP JUMPDEST PUSH2 0x12C3 DUP2 DUP6 PUSH2 0x129F JUMP JUMPDEST SWAP4 POP PUSH2 0x12D3 DUP2 DUP6 PUSH1 0x20 DUP7 ADD PUSH2 0x10CC JUMP JUMPDEST PUSH2 0x12DC DUP2 PUSH2 0x10DA JUMP JUMPDEST DUP5 ADD SWAP2 POP POP SWAP3 SWAP2 POP POP JUMP JUMPDEST PUSH2 0x12F0 DUP2 PUSH2 0x1131 JUMP JUMPDEST DUP3 MSTORE POP POP JUMP JUMPDEST PUSH0 PUSH1 0xA0 DUP3 ADD SWAP1 POP DUP2 DUP2 SUB PUSH0 DUP4 ADD MSTORE PUSH2 0x130E DUP2 DUP9 PUSH2 0x12AF JUMP JUMPDEST SWAP1 POP DUP2 DUP2 SUB PUSH1 0x20 DUP4 ADD MSTORE PUSH2 0x1322 DUP2 DUP8 PUSH2 0x12AF JUMP JUMPDEST SWAP1 POP PUSH2 0x1331 PUSH1 0x40 DUP4 ADD DUP7 PUSH2 0x1277 JUMP JUMPDEST PUSH2 0x133E PUSH1 0x60 DUP4 ADD DUP6 PUSH2 0x1277 JUMP JUMPDEST PUSH2 0x134B PUSH1 0x80 DUP4 ADD DUP5 PUSH2 0x12E7 JUMP JUMPDEST SWAP7 SWAP6 POP POP POP POP POP POP JUMP JUMPDEST PUSH0 PUSH20 0xFFFFFFFFFFFFFFFFFFFFFFFFFFFFFFFFFFFFFFFF DUP3 AND SWAP1 POP SWAP2 SWAP1 POP JUMP JUMPDEST PUSH0 PUSH2 0x137E DUP3 PUSH2 0x1355 JUMP JUMPDEST SWAP1 POP SWAP2 SWAP1 POP JUMP JUMPDEST PUSH2 0x138E DUP2 PUSH2 0x1374 JUMP JUMPDEST DUP3 MSTORE POP POP JUMP JUMPDEST PUSH0 PUSH1 0x20 DUP3 ADD SWAP1 POP PUSH2 0x13A7 PUSH0 DUP4 ADD DUP5 PUSH2 0x1385 JUMP JUMPDEST SWAP3 SWAP2 POP POP JUMP JUMPDEST PUSH0 DUP1 PUSH1 0x40 DUP4 DUP6 SUB SLT ISZERO PUSH2 0x13C3 JUMPI PUSH2 0x13C2 PUSH2 0x1023 JUMP JUMPDEST JUMPDEST PUSH0 PUSH2 0x13D0 DUP6 DUP3 DUP7 ADD PUSH2 0x104A JUMP JUMPDEST SWAP3 POP POP PUSH1 0x20 PUSH2 0x13E1 DUP6 DUP3 DUP7 ADD PUSH2 0x104A JUMP JUMPDEST SWAP2 POP POP SWAP3 POP SWAP3 SWAP1 POP JUMP JUMPDEST PUSH0 DUP1 REVERT JUMPDEST PUSH0 DUP1 REVERT JUMPDEST PUSH32 0x4E487B7100000000000000000000000000000000000000000000000000000000 PUSH0 MSTORE PUSH1 0x41 PUSH1 0x4 MSTORE PUSH1 0x24 PUSH0 REVERT JUMPDEST PUSH2 0x1429 DUP3 PUSH2 0x10DA JUMP JUMPDEST DUP2 ADD DUP2 DUP2 LT PUSH8 0xFFFFFFFFFFFFFFFF DUP3 GT OR ISZERO PUSH2 0x1448 JUMPI PUSH2 0x1447 PUSH2 0x13F3 JUMP JUMPDEST JUMPDEST DUP1 PUSH1 0x40 MSTORE POP POP POP JUMP JUMPDEST PUSH0 PUSH2 0x145A PUSH2 0x101A JUMP JUMPDEST SWAP1 POP PUSH2 0x1466 DUP3 DUP3 PUSH2 0x1420 JUMP JUMPDEST SWAP2 SWAP1 POP JUMP JUMPDEST PUSH0 PUSH8 0xFFFFFFFFFFFFFFFF DUP3 GT ISZERO PUSH2 0x1485 JUMPI PUSH2 0x1484 PUSH2 0x13F3 JUMP JUMPDEST JUMPDEST PUSH2 0x148E DUP3 PUSH2 0x10DA JUMP JUMPDEST SWAP1 POP PUSH1 0x20 DUP2 ADD SWAP1 POP SWAP2 SWAP1 POP JUMP JUMPDEST DUP3 DUP2 DUP4 CALLDATACOPY PUSH0 DUP4 DUP4 ADD MSTORE POP POP POP JUMP JUMPDEST PUSH0 PUSH2 0x14BB PUSH2 0x14B6 DUP5 PUSH2 0x146B JUMP JUMPDEST PUSH2 0x1451 JUMP JUMPDEST SWAP1 POP DUP3 DUP2 MSTORE PUSH1 0x20 DUP2 ADD DUP5 DUP5 DUP5 ADD GT ISZERO PUSH2 0x14D7 JUMPI PUSH2 0x14D6 PUSH2 0x13EF JUMP JUMPDEST JUMPDEST PUSH2 0x14E2 DUP5 DUP3 DUP6 PUSH2 0x149B JUMP JUMPDEST POP SWAP4 SWAP3 POP POP POP JUMP JUMPDEST PUSH0 DUP3 PUSH1 0x1F DUP4 ADD SLT PUSH2 0x14FE JUMPI PUSH2 0x14FD PUSH2 0x13EB JUMP JUMPDEST JUMPDEST DUP2 CALLDATALOAD PUSH2 0x150E DUP5 DUP3 PUSH1 0x20 DUP7 ADD PUSH2 0x14A9 JUMP JUMPDEST SWAP2 POP POP SWAP3 SWAP2 POP POP JUMP JUMPDEST PUSH0 DUP1 PUSH0 DUP1 PUSH1 0x80 DUP6 DUP8 SUB SLT ISZERO PUSH2 0x152F JUMPI PUSH2 0x152E PUSH2 0x1023 JUMP JUMPDEST JUMPDEST PUSH0 DUP6 ADD CALLDATALOAD PUSH8 0xFFFFFFFFFFFFFFFF DUP2 GT ISZERO PUSH2 0x154C JUMPI PUSH2 0x154B PUSH2 0x1027 JUMP JUMPDEST JUMPDEST PUSH2 0x1558 DUP8 DUP3 DUP9 ADD PUSH2 0x14EA JUMP JUMPDEST SWAP5 POP POP PUSH1 0x20 DUP6 ADD CALLDATALOAD PUSH8 0xFFFFFFFFFFFFFFFF DUP2 GT ISZERO PUSH2 0x1579 JUMPI PUSH2 0x1578 PUSH2 0x1027 JUMP JUMPDEST JUMPDEST PUSH2 0x1585 DUP8 DUP3 DUP9 ADD PUSH2 0x14EA JUMP JUMPDEST SWAP4 POP POP PUSH1 0x40 PUSH2 0x1596 DUP8 DUP3 DUP9 ADD PUSH2 0x104A JUMP JUMPDEST SWAP3 POP POP PUSH1 0x60 PUSH2 0x15A7 DUP8 DUP3 DUP9 ADD PUSH2 0x104A JUMP JUMPDEST SWAP2 POP POP SWAP3 SWAP6 SWAP2 SWAP5 POP SWAP3 POP JUMP JUMPDEST PUSH32 0x496E76616C696420626F6F6B2049440000000000000000000000000000000000 PUSH0 DUP3 ADD MSTORE POP JUMP JUMPDEST PUSH0 PUSH2 0x15E7 PUSH1 0xF DUP4 PUSH2 0x129F JUMP JUMPDEST SWAP2 POP PUSH2 0x15F2 DUP3 PUSH2 0x15B3 JUMP JUMPDEST PUSH1 0x20 DUP3 ADD SWAP1 POP SWAP2 SWAP1 POP JUMP JUMPDEST PUSH0 PUSH1 0x20 DUP3 ADD SWAP1 POP DUP2 DUP2 SUB PUSH0 DUP4 ADD MSTORE PUSH2 0x1614 DUP2 PUSH2 0x15DB JUMP JUMPDEST SWAP1 POP SWAP2 SWAP1 POP JUMP JUMPDEST PUSH32 0x426F6F6B206973206E6F7420617661696C61626C650000000000000000000000 PUSH0 DUP3 ADD MSTORE POP JUMP JUMPDEST PUSH0 PUSH2 0x164F PUSH1 0x15 DUP4 PUSH2 0x129F JUMP JUMPDEST SWAP2 POP PUSH2 0x165A DUP3 PUSH2 0x161B JUMP JUMPDEST PUSH1 0x20 DUP3 ADD SWAP1 POP SWAP2 SWAP1 POP JUMP JUMPDEST PUSH0 PUSH1 0x20 DUP3 ADD SWAP1 POP DUP2 DUP2 SUB PUSH0 DUP4 ADD MSTORE PUSH2 0x167C DUP2 PUSH2 0x1643 JUMP JUMPDEST SWAP1 POP SWAP2 SWAP1 POP JUMP JUMPDEST PUSH32 0x426F6F6B206F7574206F662073746F636B000000000000000000000000000000 PUSH0 DUP3 ADD MSTORE POP JUMP JUMPDEST PUSH0 PUSH2 0x16B7 PUSH1 0x11 DUP4 PUSH2 0x129F JUMP JUMPDEST SWAP2 POP PUSH2 0x16C2 DUP3 PUSH2 0x1683 JUMP JUMPDEST PUSH1 0x20 DUP3 ADD SWAP1 POP SWAP2 SWAP1 POP JUMP JUMPDEST PUSH0 PUSH1 0x20 DUP3 ADD SWAP1 POP DUP2 DUP2 SUB PUSH0 DUP4 ADD MSTORE PUSH2 0x16E4 DUP2 PUSH2 0x16AB JUMP JUMPDEST SWAP1 POP SWAP2 SWAP1 POP JUMP JUMPDEST PUSH32 0x496E636F7272656374207061796D656E7420616D6F756E740000000000000000 PUSH0 DUP3 ADD MSTORE POP JUMP JUMPDEST PUSH0 PUSH2 0x171F PUSH1 0x18 DUP4 PUSH2 0x129F JUMP JUMPDEST SWAP2 POP PUSH2 0x172A DUP3 PUSH2 0x16EB JUMP JUMPDEST PUSH1 0x20 DUP3 ADD SWAP1 POP SWAP2 SWAP1 POP JUMP JUMPDEST PUSH0 PUSH1 0x20 DUP3 ADD SWAP1 POP DUP2 DUP2 SUB PUSH0 DUP4 ADD MSTORE PUSH2 0x174C DUP2 PUSH2 0x1713 JUMP JUMPDEST SWAP1 POP SWAP2 SWAP1 POP JUMP JUMPDEST PUSH32 0x4E487B7100000000000000000000000000000000000000000000000000000000 PUSH0 MSTORE PUSH1 0x11 PUSH1 0x4 MSTORE PUSH1 0x24 PUSH0 REVERT JUMPDEST PUSH0 PUSH2 0x178A DUP3 PUSH2 0x102B JUMP JUMPDEST SWAP2 POP PUSH0 DUP3 SUB PUSH2 0x179C JUMPI PUSH2 0x179B PUSH2 0x1753 JUMP JUMPDEST JUMPDEST PUSH1 0x1 DUP3 SUB SWAP1 POP SWAP2 SWAP1 POP JUMP JUMPDEST PUSH0 PUSH2 0x17B1 DUP3 PUSH2 0x102B JUMP JUMPDEST SWAP2 POP PUSH32 0xFFFFFFFFFFFFFFFFFFFFFFFFFFFFFFFFFFFFFFFFFFFFFFFFFFFFFFFFFFFFFFFF DUP3 SUB PUSH2 0x17E3 JUMPI PUSH2 0x17E2 PUSH2 0x1753 JUMP JUMPDEST JUMPDEST PUSH1 0x1 DUP3 ADD SWAP1 POP SWAP2 SWAP1 POP JUMP JUMPDEST PUSH32 0x4E487B7100000000000000000000000000000000000000000000000000000000 PUSH0 MSTORE PUSH1 0x22 PUSH1 0x4 MSTORE PUSH1 0x24 PUSH0 REVERT JUMPDEST PUSH0 PUSH1 0x2 DUP3 DIV SWAP1 POP PUSH1 0x1 DUP3 AND DUP1 PUSH2 0x1832 JUMPI PUSH1 0x7F DUP3 AND SWAP2 POP JUMPDEST PUSH1 0x20 DUP3 LT DUP2 SUB PUSH2 0x1845 JUMPI PUSH2 0x1844 PUSH2 0x17EE JUMP JUMPDEST JUMPDEST POP SWAP2 SWAP1 POP JUMP JUMPDEST PUSH0 PUSH2 0x1855 DUP3 PUSH2 0x102B JUMP JUMPDEST SWAP2 POP PUSH2 0x1860 DUP4 PUSH2 0x102B JUMP JUMPDEST SWAP3 POP DUP3 DUP3 SUB SWAP1 POP DUP2 DUP2 GT ISZERO PUSH2 0x1878 JUMPI PUSH2 0x1877 PUSH2 0x1753 JUMP JUMPDEST JUMPDEST SWAP3 SWAP2 POP POP JUMP JUMPDEST PUSH32 0x4E487B7100000000000000000000000000000000000000000000000000000000 PUSH0 MSTORE PUSH1 0x32 PUSH1 0x4 MSTORE PUSH1 0x24 PUSH0 REVERT JUMPDEST PUSH32 0x4F6E6C7920746865206F776E65722063616E20706572666F726D207468697320 PUSH0 DUP3 ADD MSTORE PUSH32 0x616374696F6E0000000000000000000000000000000000000000000000000000 PUSH1 0x20 DUP3 ADD MSTORE POP JUMP JUMPDEST PUSH0 PUSH2 0x1905 PUSH1 0x26 DUP4 PUSH2 0x129F JUMP JUMPDEST SWAP2 POP PUSH2 0x1910 DUP3 PUSH2 0x18AB JUMP JUMPDEST PUSH1 0x40 DUP3 ADD SWAP1 POP SWAP2 SWAP1 POP JUMP JUMPDEST PUSH0 PUSH1 0x20 DUP3 ADD SWAP1 POP DUP2 DUP2 SUB PUSH0 DUP4 ADD MSTORE PUSH2 0x1932 DUP2 PUSH2 0x18F9 JUMP JUMPDEST SWAP1 POP SWAP2 SWAP1 POP JUMP JUMPDEST PUSH32 0x53746F636B2073686F756C642062652067726561746572207468616E207A6572 PUSH0 DUP3 ADD MSTORE PUSH32 0x6F00000000000000000000000000000000000000000000000000000000000000 PUSH1 0x20 DUP3 ADD MSTORE POP JUMP JUMPDEST PUSH0 PUSH2 0x1993 PUSH1 0x21 DUP4 PUSH2 0x129F JUMP JUMPDEST SWAP2 POP PUSH2 0x199E DUP3 PUSH2 0x1939 JUMP JUMPDEST PUSH1 0x40 DUP3 ADD SWAP1 POP SWAP2 SWAP1 POP JUMP JUMPDEST PUSH0 PUSH1 0x20 DUP3 ADD SWAP1 POP DUP2 DUP2 SUB PUSH0 DUP4 ADD MSTORE PUSH2 0x19C0 DUP2 PUSH2 0x1987 JUMP JUMPDEST SWAP1 POP SWAP2 SWAP1 POP JUMP JUMPDEST PUSH32 0x426F6F6B20697320616C72656164792072656D6F766564000000000000000000 PUSH0 DUP3 ADD MSTORE POP JUMP JUMPDEST PUSH0 PUSH2 0x19FB PUSH1 0x17 DUP4 PUSH2 0x129F JUMP JUMPDEST SWAP2 POP PUSH2 0x1A06 DUP3 PUSH2 0x19C7 JUMP JUMPDEST PUSH1 0x20 DUP3 ADD SWAP1 POP SWAP2 SWAP1 POP JUMP JUMPDEST PUSH0 PUSH1 0x20 DUP3 ADD SWAP1 POP DUP2 DUP2 SUB PUSH0 DUP4 ADD MSTORE PUSH2 0x1A28 DUP2 PUSH2 0x19EF JUMP JUMPDEST SWAP1 POP SWAP2 SWAP1 POP JUMP JUMPDEST PUSH32 0x50726963652073686F756C642062652067726561746572207468616E207A6572 PUSH0 DUP3 ADD MSTORE PUSH32 0x6F00000000000000000000000000000000000000000000000000000000000000 PUSH1 0x20 DUP3 ADD MSTORE POP JUMP JUMPDEST PUSH0 PUSH2 0x1A89 PUSH1 0x21 DUP4 PUSH2 0x129F JUMP JUMPDEST SWAP2 POP PUSH2 0x1A94 DUP3 PUSH2 0x1A2F JUMP JUMPDEST PUSH1 0x40 DUP3 ADD SWAP1 POP SWAP2 SWAP1 POP JUMP JUMPDEST PUSH0 PUSH1 0x20 DUP3 ADD SWAP1 POP DUP2 DUP2 SUB PUSH0 DUP4 ADD MSTORE PUSH2 0x1AB6 DUP2 PUSH2 0x1A7D JUMP JUMPDEST SWAP1 POP SWAP2 SWAP1 POP JUMP JUMPDEST PUSH0 DUP2 SWAP1 POP DUP2 PUSH0 MSTORE PUSH1 0x20 PUSH0 KECCAK256 SWAP1 POP SWAP2 SWAP1 POP JUMP JUMPDEST PUSH0 PUSH1 0x20 PUSH1 0x1F DUP4 ADD DIV SWAP1 POP SWAP2 SWAP1 POP JUMP JUMPDEST PUSH0 DUP3 DUP3 SHL SWAP1 POP SWAP3 SWAP2 POP POP JUMP JUMPDEST PUSH0 PUSH1 0x8 DUP4 MUL PUSH2 0x1B19 PUSH32 0xFFFFFFFFFFFFFFFFFFFFFFFFFFFFFFFFFFFFFFFFFFFFFFFFFFFFFFFFFFFFFFFF DUP3 PUSH2 0x1ADE JUMP JUMPDEST PUSH2 0x1B23 DUP7 DUP4 PUSH2 0x1ADE JUMP JUMPDEST SWAP6 POP DUP1 NOT DUP5 AND SWAP4 POP DUP1 DUP7 AND DUP5 OR SWAP3 POP POP POP SWAP4 SWAP3 POP POP POP JUMP JUMPDEST PUSH0 DUP2 SWAP1 POP SWAP2 SWAP1 POP JUMP JUMPDEST PUSH0 PUSH2 0x1B5E PUSH2 0x1B59 PUSH2 0x1B54 DUP5 PUSH2 0x102B JUMP JUMPDEST PUSH2 0x1B3B JUMP JUMPDEST PUSH2 0x102B JUMP JUMPDEST SWAP1 POP SWAP2 SWAP1 POP JUMP JUMPDEST PUSH0 DUP2 SWAP1 POP SWAP2 SWAP1 POP JUMP JUMPDEST PUSH2 0x1B77 DUP4 PUSH2 0x1B44 JUMP JUMPDEST PUSH2 0x1B8B PUSH2 0x1B83 DUP3 PUSH2 0x1B65 JUMP JUMPDEST DUP5 DUP5 SLOAD PUSH2 0x1AEA JUMP JUMPDEST DUP3 SSTORE POP POP POP POP JUMP JUMPDEST PUSH0 SWAP1 JUMP JUMPDEST PUSH2 0x1B9F PUSH2 0x1B93 JUMP JUMPDEST PUSH2 0x1BAA DUP2 DUP5 DUP5 PUSH2 0x1B6E JUMP JUMPDEST POP POP POP JUMP JUMPDEST JUMPDEST DUP2 DUP2 LT ISZERO PUSH2 0x1BCD JUMPI PUSH2 0x1BC2 PUSH0 DUP3 PUSH2 0x1B97 JUMP JUMPDEST PUSH1 0x1 DUP2 ADD SWAP1 POP PUSH2 0x1BB0 JUMP JUMPDEST POP POP JUMP JUMPDEST PUSH1 0x1F DUP3 GT ISZERO PUSH2 0x1C12 JUMPI PUSH2 0x1BE3 DUP2 PUSH2 0x1ABD JUMP JUMPDEST PUSH2 0x1BEC DUP5 PUSH2 0x1ACF JUMP JUMPDEST DUP2 ADD PUSH1 0x20 DUP6 LT ISZERO PUSH2 0x1BFB JUMPI DUP2 SWAP1 POP JUMPDEST PUSH2 0x1C0F PUSH2 0x1C07 DUP6 PUSH2 0x1ACF JUMP JUMPDEST DUP4 ADD DUP3 PUSH2 0x1BAF JUMP JUMPDEST POP POP JUMPDEST POP POP POP JUMP JUMPDEST PUSH0 DUP3 DUP3 SHR SWAP1 POP SWAP3 SWAP2 POP POP JUMP JUMPDEST PUSH0 PUSH2 0x1C32 PUSH0 NOT DUP5 PUSH1 0x8 MUL PUSH2 0x1C17 JUMP JUMPDEST NOT DUP1 DUP4 AND SWAP2 POP POP SWAP3 SWAP2 POP POP JUMP JUMPDEST PUSH0 PUSH2 0x1C4A DUP4 DUP4 PUSH2 0x1C23 JUMP JUMPDEST SWAP2 POP DUP3 PUSH1 0x2 MUL DUP3 OR SWAP1 POP SWAP3 SWAP2 POP POP JUMP JUMPDEST PUSH2 0x1C63 DUP3 PUSH2 0x10B2 JUMP JUMPDEST PUSH8 0xFFFFFFFFFFFFFFFF DUP2 GT ISZERO PUSH2 0x1C7C JUMPI PUSH2 0x1C7B PUSH2 0x13F3 JUMP JUMPDEST JUMPDEST PUSH2 0x1C86 DUP3 SLOAD PUSH2 0x181B JUMP JUMPDEST PUSH2 0x1C91 DUP3 DUP3 DUP6 PUSH2 0x1BD1 JUMP JUMPDEST PUSH0 PUSH1 0x20 SWAP1 POP PUSH1 0x1F DUP4 GT PUSH1 0x1 DUP2 EQ PUSH2 0x1CC2 JUMPI PUSH0 DUP5 ISZERO PUSH2 0x1CB0 JUMPI DUP3 DUP8 ADD MLOAD SWAP1 POP JUMPDEST PUSH2 0x1CBA DUP6 DUP3 PUSH2 0x1C3F JUMP JUMPDEST DUP7 SSTORE POP PUSH2 0x1D21 JUMP JUMPDEST PUSH1 0x1F NOT DUP5 AND PUSH2 0x1CD0 DUP7 PUSH2 0x1ABD JUMP JUMPDEST PUSH0 JUMPDEST DUP3 DUP2 LT ISZERO PUSH2 0x1CF7 JUMPI DUP5 DUP10 ADD MLOAD DUP3 SSTORE PUSH1 0x1 DUP3 ADD SWAP2 POP PUSH1 0x20 DUP6 ADD SWAP5 POP PUSH1 0x20 DUP2 ADD SWAP1 POP PUSH2 0x1CD2 JUMP JUMPDEST DUP7 DUP4 LT ISZERO PUSH2 0x1D14 JUMPI DUP5 DUP10 ADD MLOAD PUSH2 0x1D10 PUSH1 0x1F DUP10 AND DUP3 PUSH2 0x1C23 JUMP JUMPDEST DUP4 SSTORE POP JUMPDEST PUSH1 0x1 PUSH1 0x2 DUP9 MUL ADD DUP9 SSTORE POP POP POP JUMPDEST POP POP POP POP POP POP JUMP INVALID LOG2 PUSH5 0x6970667358 0x22 SLT KECCAK256 0xCD PUSH16 0x475BC169A1F3F3907E30B182FCF1455 0xDC 0x21 0x29 PUSH8 0x9EDC5065D4B64ADD BLOBBASEFEE DUP11 PUSH5 0x736F6C6343 STOP ADDMOD BYTE STOP CALLER "
				},
				"gasEstimates": {
					"creation": {
						"codeDepositCost": "1503800",
						"executionCost": "35841",
						"totalCost": "1539641"
					},
					"external": {
						"addBook(string,string,uint256,uint256)": "infinite",
						"bookCount()": "2491",
						"books(uint256)": "infinite",
						"getAllBooks()": "infinite",
						"getBookDetails(uint256)": "infinite",
						"getOwnerBalance()": "5140",
						"owner()": "2508",
						"purchaseBook(uint256)": "infinite",
						"removeAllBooks()": "infinite",
						"removeBook(uint256)": "31395",
						"totalBooksSold()": "2470",
						"updateStock(uint256,uint256)": "infinite"
					}
				},
				"methodIdentifiers": {
					"addBook(string,string,uint256,uint256)": "d4c6758b",
					"bookCount()": "b905ad78",
					"books(uint256)": "68744046",
					"getAllBooks()": "354528e8",
					"getBookDetails(uint256)": "74ff4818",
					"getOwnerBalance()": "590791f2",
					"owner()": "8da5cb5b",
					"purchaseBook(uint256)": "1c555f47",
					"removeAllBooks()": "8ef17fc3",
					"removeBook(uint256)": "bec0d799",
					"totalBooksSold()": "3899637f",
					"updateStock(uint256,uint256)": "9dfc3dd1"
				}
			},
			"storageLayout": {
				"storage": [
					{
						"astId": 17,
						"contract": "contracts/Bookstore.sol:Bookstore",
						"label": "books",
						"offset": 0,
						"slot": "0",
						"type": "t_mapping(t_uint256,t_struct(Book)12_storage)"
					},
					{
						"astId": 20,
						"contract": "contracts/Bookstore.sol:Bookstore",
						"label": "bookCount",
						"offset": 0,
						"slot": "1",
						"type": "t_uint256"
					},
					{
						"astId": 23,
						"contract": "contracts/Bookstore.sol:Bookstore",
						"label": "totalBooksSold",
						"offset": 0,
						"slot": "2",
						"type": "t_uint256"
					},
					{
						"astId": 25,
						"contract": "contracts/Bookstore.sol:Bookstore",
						"label": "owner",
						"offset": 0,
						"slot": "3",
						"type": "t_address"
					}
				],
				"types": {
					"t_address": {
						"encoding": "inplace",
						"label": "address",
						"numberOfBytes": "20"
					},
					"t_bool": {
						"encoding": "inplace",
						"label": "bool",
						"numberOfBytes": "1"
					},
					"t_mapping(t_uint256,t_struct(Book)12_storage)": {
						"encoding": "mapping",
						"key": "t_uint256",
						"label": "mapping(uint256 => struct Bookstore.Book)",
						"numberOfBytes": "32",
						"value": "t_struct(Book)12_storage"
					},
					"t_string_storage": {
						"encoding": "bytes",
						"label": "string",
						"numberOfBytes": "32"
					},
					"t_struct(Book)12_storage": {
						"encoding": "inplace",
						"label": "struct Bookstore.Book",
						"members": [
							{
								"astId": 3,
								"contract": "contracts/Bookstore.sol:Bookstore",
								"label": "title",
								"offset": 0,
								"slot": "0",
								"type": "t_string_storage"
							},
							{
								"astId": 5,
								"contract": "contracts/Bookstore.sol:Bookstore",
								"label": "author",
								"offset": 0,
								"slot": "1",
								"type": "t_string_storage"
							},
							{
								"astId": 7,
								"contract": "contracts/Bookstore.sol:Bookstore",
								"label": "price",
								"offset": 0,
								"slot": "2",
								"type": "t_uint256"
							},
							{
								"astId": 9,
								"contract": "contracts/Bookstore.sol:Bookstore",
								"label": "stock",
								"offset": 0,
								"slot": "3",
								"type": "t_uint256"
							},
							{
								"astId": 11,
								"contract": "contracts/Bookstore.sol:Bookstore",
								"label": "isAvailable",
								"offset": 0,
								"slot": "4",
								"type": "t_bool"
							}
						],
						"numberOfBytes": "160"
					},
					"t_uint256": {
						"encoding": "inplace",
						"label": "uint256",
						"numberOfBytes": "32"
					}
				}
			},
			"userdoc": {
				"kind": "user",
				"methods": {},
				"version": 1
			}
		}
	}
}