{
	"contracts/ERC721.sol": {
		"ERC721": {
			"abi": [
				{
					"anonymous": false,
					"inputs": [
						{
							"indexed": true,
							"internalType": "address",
							"name": "owner",
							"type": "address"
						},
						{
							"indexed": true,
							"internalType": "address",
							"name": "approved",
							"type": "address"
						},
						{
							"indexed": true,
							"internalType": "uint256",
							"name": "tokenId",
							"type": "uint256"
						}
					],
					"name": "Approval",
					"type": "event"
				},
				{
					"anonymous": false,
					"inputs": [
						{
							"indexed": true,
							"internalType": "address",
							"name": "owner",
							"type": "address"
						},
						{
							"indexed": true,
							"internalType": "address",
							"name": "operator",
							"type": "address"
						},
						{
							"indexed": false,
							"internalType": "bool",
							"name": "approved",
							"type": "bool"
						}
					],
					"name": "ApprovalForAll",
					"type": "event"
				},
				{
					"anonymous": false,
					"inputs": [
						{
							"indexed": true,
							"internalType": "address",
							"name": "from",
							"type": "address"
						},
						{
							"indexed": true,
							"internalType": "address",
							"name": "to",
							"type": "address"
						},
						{
							"indexed": true,
							"internalType": "uint256",
							"name": "tokenId",
							"type": "uint256"
						}
					],
					"name": "Transfer",
					"type": "event"
				},
				{
					"inputs": [
						{
							"internalType": "address",
							"name": "to",
							"type": "address"
						},
						{
							"internalType": "uint256",
							"name": "tokenId",
							"type": "uint256"
						}
					],
					"name": "approve",
					"outputs": [],
					"stateMutability": "nonpayable",
					"type": "function"
				},
				{
					"inputs": [
						{
							"internalType": "address",
							"name": "owner",
							"type": "address"
						}
					],
					"name": "balanceOf",
					"outputs": [
						{
							"internalType": "uint256",
							"name": "",
							"type": "uint256"
						}
					],
					"stateMutability": "view",
					"type": "function"
				},
				{
					"inputs": [
						{
							"internalType": "uint256",
							"name": "tokenId",
							"type": "uint256"
						}
					],
					"name": "getApproved",
					"outputs": [
						{
							"internalType": "address",
							"name": "",
							"type": "address"
						}
					],
					"stateMutability": "view",
					"type": "function"
				},
				{
					"inputs": [
						{
							"internalType": "address",
							"name": "owner",
							"type": "address"
						},
						{
							"internalType": "address",
							"name": "operator",
							"type": "address"
						}
					],
					"name": "isApprovedForAll",
					"outputs": [
						{
							"internalType": "bool",
							"name": "",
							"type": "bool"
						}
					],
					"stateMutability": "view",
					"type": "function"
				},
				{
					"inputs": [
						{
							"internalType": "uint256",
							"name": "tokenId",
							"type": "uint256"
						}
					],
					"name": "ownerOf",
					"outputs": [
						{
							"internalType": "address",
							"name": "",
							"type": "address"
						}
					],
					"stateMutability": "view",
					"type": "function"
				},
				{
					"inputs": [
						{
							"internalType": "address",
							"name": "from",
							"type": "address"
						},
						{
							"internalType": "address",
							"name": "to",
							"type": "address"
						},
						{
							"internalType": "uint256",
							"name": "tokenId",
							"type": "uint256"
						}
					],
					"name": "safeTransferFrom",
					"outputs": [],
					"stateMutability": "nonpayable",
					"type": "function"
				},
				{
					"inputs": [
						{
							"internalType": "address",
							"name": "operator",
							"type": "address"
						},
						{
							"internalType": "bool",
							"name": "approved",
							"type": "bool"
						}
					],
					"name": "setApprovalForAll",
					"outputs": [],
					"stateMutability": "nonpayable",
					"type": "function"
				},
				{
					"inputs": [
						{
							"internalType": "address",
							"name": "from",
							"type": "address"
						},
						{
							"internalType": "address",
							"name": "to",
							"type": "address"
						},
						{
							"internalType": "uint256",
							"name": "tokenId",
							"type": "uint256"
						}
					],
					"name": "transferFrom",
					"outputs": [],
					"stateMutability": "nonpayable",
					"type": "function"
				}
			],
			"devdoc": {
				"kind": "dev",
				"methods": {},
				"version": 1
			},
			"evm": {
				"assembly": "    /* \"contracts/ERC721.sol\":1059:5687  contract ERC721 is IERC721 {... */\n  mstore(0x40, 0x80)\n  callvalue\n  dup1\n  iszero\n  tag_1\n  jumpi\n  0x00\n  dup1\n  revert\ntag_1:\n  pop\n  dataSize(sub_0)\n  dup1\n  dataOffset(sub_0)\n  0x00\n  codecopy\n  0x00\n  return\nstop\n\nsub_0: assembly {\n        /* \"contracts/ERC721.sol\":1059:5687  contract ERC721 is IERC721 {... */\n      mstore(0x40, 0x80)\n      callvalue\n      dup1\n      iszero\n      tag_1\n      jumpi\n      0x00\n      dup1\n      revert\n    tag_1:\n      pop\n      jumpi(tag_2, lt(calldatasize, 0x04))\n      shr(0xe0, calldataload(0x00))\n      dup1\n      0x6352211e\n      gt\n      tag_11\n      jumpi\n      dup1\n      0x6352211e\n      eq\n      tag_7\n      jumpi\n      dup1\n      0x70a08231\n      eq\n      tag_8\n      jumpi\n      dup1\n      0xa22cb465\n      eq\n      tag_9\n      jumpi\n      dup1\n      0xe985e9c5\n      eq\n      tag_10\n      jumpi\n      jump(tag_2)\n    tag_11:\n      dup1\n      0x081812fc\n      eq\n      tag_3\n      jumpi\n      dup1\n      0x095ea7b3\n      eq\n      tag_4\n      jumpi\n      dup1\n      0x23b872dd\n      eq\n      tag_5\n      jumpi\n      dup1\n      0x42842e0e\n      eq\n      tag_6\n      jumpi\n    tag_2:\n      0x00\n      dup1\n      revert\n        /* \"contracts/ERC721.sol\":2366:2591  function getApproved(uint256 tokenId) public view override returns (address) {... */\n    tag_3:\n      tag_12\n      0x04\n      dup1\n      calldatasize\n      sub\n      dup2\n      add\n      swap1\n      tag_13\n      swap2\n      swap1\n      tag_14\n      jump\t// in\n    tag_13:\n      tag_15\n      jump\t// in\n    tag_12:\n      mload(0x40)\n      tag_16\n      swap2\n      swap1\n      tag_17\n      jump\t// in\n    tag_16:\n      mload(0x40)\n      dup1\n      swap2\n      sub\n      swap1\n      return\n        /* \"contracts/ERC721.sol\":1873:2317  function approve(address to, uint256 tokenId) external override {... */\n    tag_4:\n      tag_18\n      0x04\n      dup1\n      calldatasize\n      sub\n      dup2\n      add\n      swap1\n      tag_19\n      swap2\n      swap1\n      tag_20\n      jump\t// in\n    tag_19:\n      tag_21\n      jump\t// in\n    tag_18:\n      stop\n        /* \"contracts/ERC721.sol\":3195:3870  function transferFrom(address from, address to, uint256 tokenId) public override {... */\n    tag_5:\n      tag_22\n      0x04\n      dup1\n      calldatasize\n      sub\n      dup2\n      add\n      swap1\n      tag_23\n      swap2\n      swap1\n      tag_24\n      jump\t// in\n    tag_23:\n      tag_25\n      jump\t// in\n    tag_22:\n      stop\n        /* \"contracts/ERC721.sol\":3915:4251  function safeTransferFrom(address from, address to, uint256 tokenId) external override {... */\n    tag_6:\n      tag_26\n      0x04\n      dup1\n      calldatasize\n      sub\n      dup2\n      add\n      swap1\n      tag_27\n      swap2\n      swap1\n      tag_24\n      jump\t// in\n    tag_27:\n      tag_28\n      jump\t// in\n    tag_26:\n      stop\n        /* \"contracts/ERC721.sol\":1610:1841  function ownerOf(uint256 tokenId) public view override returns (address) {... */\n    tag_7:\n      tag_29\n      0x04\n      dup1\n      calldatasize\n      sub\n      dup2\n      add\n      swap1\n      tag_30\n      swap2\n      swap1\n      tag_14\n      jump\t// in\n    tag_30:\n      tag_31\n      jump\t// in\n    tag_29:\n      mload(0x40)\n      tag_32\n      swap2\n      swap1\n      tag_17\n      jump\t// in\n    tag_32:\n      mload(0x40)\n      dup1\n      swap2\n      sub\n      swap1\n      return\n        /* \"contracts/ERC721.sol\":1375:1577  function balanceOf(address owner) external view override returns (uint256) {... */\n    tag_8:\n      tag_33\n      0x04\n      dup1\n      calldatasize\n      sub\n      dup2\n      add\n      swap1\n      tag_34\n      swap2\n      swap1\n      tag_35\n      jump\t// in\n    tag_34:\n      tag_36\n      jump\t// in\n    tag_33:\n      mload(0x40)\n      tag_37\n      swap2\n      swap1\n      tag_38\n      jump\t// in\n    tag_37:\n      mload(0x40)\n      dup1\n      swap2\n      sub\n      swap1\n      return\n        /* \"contracts/ERC721.sol\":2647:2930  function setApprovalForAll(address operator, bool approved) external override {... */\n    tag_9:\n      tag_39\n      0x04\n      dup1\n      calldatasize\n      sub\n      dup2\n      add\n      swap1\n      tag_40\n      swap2\n      swap1\n      tag_41\n      jump\t// in\n    tag_40:\n      tag_42\n      jump\t// in\n    tag_39:\n      stop\n        /* \"contracts/ERC721.sol\":3006:3162  function isApprovedForAll(address owner, address operator) public view override returns (bool) {... */\n    tag_10:\n      tag_43\n      0x04\n      dup1\n      calldatasize\n      sub\n      dup2\n      add\n      swap1\n      tag_44\n      swap2\n      swap1\n      tag_45\n      jump\t// in\n    tag_44:\n      tag_46\n      jump\t// in\n    tag_43:\n      mload(0x40)\n      tag_47\n      swap2\n      swap1\n      tag_48\n      jump\t// in\n    tag_47:\n      mload(0x40)\n      dup1\n      swap2\n      sub\n      swap1\n      return\n        /* \"contracts/ERC721.sol\":2366:2591  function getApproved(uint256 tokenId) public view override returns (address) {... */\n    tag_15:\n        /* \"contracts/ERC721.sol\":2434:2441  address */\n      0x00\n        /* \"contracts/ERC721.sol\":2490:2491  0 */\n      dup1\n        /* \"contracts/ERC721.sol\":2462:2492  _owners[tokenId] != address(0) */\n      0xffffffffffffffffffffffffffffffffffffffff\n      and\n        /* \"contracts/ERC721.sol\":2462:2469  _owners */\n      0x00\n        /* \"contracts/ERC721.sol\":2462:2478  _owners[tokenId] */\n      dup1\n        /* \"contracts/ERC721.sol\":2470:2477  tokenId */\n      dup5\n        /* \"contracts/ERC721.sol\":2462:2478  _owners[tokenId] */\n      dup2\n      mstore\n      0x20\n      add\n      swap1\n      dup2\n      mstore\n      0x20\n      add\n      0x00\n      keccak256\n      0x00\n      swap1\n      sload\n      swap1\n      0x0100\n      exp\n      swap1\n      div\n      0xffffffffffffffffffffffffffffffffffffffff\n      and\n        /* \"contracts/ERC721.sol\":2462:2492  _owners[tokenId] != address(0) */\n      0xffffffffffffffffffffffffffffffffffffffff\n      and\n      sub\n        /* \"contracts/ERC721.sol\":2454:2541  require(_owners[tokenId] != address(0), \"ERC721: approved query for nonexistent token\") */\n      tag_50\n      jumpi\n      mload(0x40)\n      0x08c379a000000000000000000000000000000000000000000000000000000000\n      dup2\n      mstore\n      0x04\n      add\n      tag_51\n      swap1\n      tag_52\n      jump\t// in\n    tag_51:\n      mload(0x40)\n      dup1\n      swap2\n      sub\n      swap1\n      revert\n    tag_50:\n        /* \"contracts/ERC721.sol\":2559:2574  _tokenApprovals */\n      0x02\n        /* \"contracts/ERC721.sol\":2559:2583  _tokenApprovals[tokenId] */\n      0x00\n        /* \"contracts/ERC721.sol\":2575:2582  tokenId */\n      dup4\n        /* \"contracts/ERC721.sol\":2559:2583  _tokenApprovals[tokenId] */\n      dup2\n      mstore\n      0x20\n      add\n      swap1\n      dup2\n      mstore\n      0x20\n      add\n      0x00\n      keccak256\n      0x00\n      swap1\n      sload\n      swap1\n      0x0100\n      exp\n      swap1\n      div\n      0xffffffffffffffffffffffffffffffffffffffff\n      and\n        /* \"contracts/ERC721.sol\":2552:2583  return _tokenApprovals[tokenId] */\n      swap1\n      pop\n        /* \"contracts/ERC721.sol\":2366:2591  function getApproved(uint256 tokenId) public view override returns (address) {... */\n      swap2\n      swap1\n      pop\n      jump\t// out\n        /* \"contracts/ERC721.sol\":1873:2317  function approve(address to, uint256 tokenId) external override {... */\n    tag_21:\n        /* \"contracts/ERC721.sol\":1948:1961  address owner */\n      0x00\n        /* \"contracts/ERC721.sol\":1964:1980  ownerOf(tokenId) */\n      tag_54\n        /* \"contracts/ERC721.sol\":1972:1979  tokenId */\n      dup3\n        /* \"contracts/ERC721.sol\":1964:1971  ownerOf */\n      tag_31\n        /* \"contracts/ERC721.sol\":1964:1980  ownerOf(tokenId) */\n      jump\t// in\n    tag_54:\n        /* \"contracts/ERC721.sol\":1948:1980  address owner = ownerOf(tokenId) */\n      swap1\n      pop\n        /* \"contracts/ERC721.sol\":2005:2010  owner */\n      dup1\n        /* \"contracts/ERC721.sol\":1999:2010  to != owner */\n      0xffffffffffffffffffffffffffffffffffffffff\n      and\n        /* \"contracts/ERC721.sol\":1999:2001  to */\n      dup4\n        /* \"contracts/ERC721.sol\":1999:2010  to != owner */\n      0xffffffffffffffffffffffffffffffffffffffff\n      and\n      sub\n        /* \"contracts/ERC721.sol\":1991:2048  require(to != owner, \"ERC721: approval to current owner\") */\n      tag_55\n      jumpi\n      mload(0x40)\n      0x08c379a000000000000000000000000000000000000000000000000000000000\n      dup2\n      mstore\n      0x04\n      add\n      tag_56\n      swap1\n      tag_57\n      jump\t// in\n    tag_56:\n      mload(0x40)\n      dup1\n      swap2\n      sub\n      swap1\n      revert\n    tag_55:\n        /* \"contracts/ERC721.sol\":2095:2100  owner */\n      dup1\n        /* \"contracts/ERC721.sol\":2081:2100  msg.sender == owner */\n      0xffffffffffffffffffffffffffffffffffffffff\n      and\n        /* \"contracts/ERC721.sol\":2081:2091  msg.sender */\n      caller\n        /* \"contracts/ERC721.sol\":2081:2100  msg.sender == owner */\n      0xffffffffffffffffffffffffffffffffffffffff\n      and\n      eq\n        /* \"contracts/ERC721.sol\":2081:2139  msg.sender == owner || isApprovedForAll(owner, msg.sender) */\n      dup1\n      tag_58\n      jumpi\n      pop\n        /* \"contracts/ERC721.sol\":2104:2139  isApprovedForAll(owner, msg.sender) */\n      tag_59\n        /* \"contracts/ERC721.sol\":2121:2126  owner */\n      dup2\n        /* \"contracts/ERC721.sol\":2128:2138  msg.sender */\n      caller\n        /* \"contracts/ERC721.sol\":2104:2120  isApprovedForAll */\n      tag_46\n        /* \"contracts/ERC721.sol\":2104:2139  isApprovedForAll(owner, msg.sender) */\n      jump\t// in\n    tag_59:\n        /* \"contracts/ERC721.sol\":2081:2139  msg.sender == owner || isApprovedForAll(owner, msg.sender) */\n    tag_58:\n        /* \"contracts/ERC721.sol\":2059:2223  require(... */\n      tag_60\n      jumpi\n      mload(0x40)\n      0x08c379a000000000000000000000000000000000000000000000000000000000\n      dup2\n      mstore\n      0x04\n      add\n      tag_61\n      swap1\n      tag_62\n      jump\t// in\n    tag_61:\n      mload(0x40)\n      dup1\n      swap2\n      sub\n      swap1\n      revert\n    tag_60:\n        /* \"contracts/ERC721.sol\":2263:2265  to */\n      dup3\n        /* \"contracts/ERC721.sol\":2236:2251  _tokenApprovals */\n      0x02\n        /* \"contracts/ERC721.sol\":2236:2260  _tokenApprovals[tokenId] */\n      0x00\n        /* \"contracts/ERC721.sol\":2252:2259  tokenId */\n      dup5\n        /* \"contracts/ERC721.sol\":2236:2260  _tokenApprovals[tokenId] */\n      dup2\n      mstore\n      0x20\n      add\n      swap1\n      dup2\n      mstore\n      0x20\n      add\n      0x00\n      keccak256\n      0x00\n        /* \"contracts/ERC721.sol\":2236:2265  _tokenApprovals[tokenId] = to */\n      0x0100\n      exp\n      dup2\n      sload\n      dup2\n      0xffffffffffffffffffffffffffffffffffffffff\n      mul\n      not\n      and\n      swap1\n      dup4\n      0xffffffffffffffffffffffffffffffffffffffff\n      and\n      mul\n      or\n      swap1\n      sstore\n      pop\n        /* \"contracts/ERC721.sol\":2301:2308  tokenId */\n      dup2\n        /* \"contracts/ERC721.sol\":2297:2299  to */\n      dup4\n        /* \"contracts/ERC721.sol\":2281:2309  Approval(owner, to, tokenId) */\n      0xffffffffffffffffffffffffffffffffffffffff\n      and\n        /* \"contracts/ERC721.sol\":2290:2295  owner */\n      dup3\n        /* \"contracts/ERC721.sol\":2281:2309  Approval(owner, to, tokenId) */\n      0xffffffffffffffffffffffffffffffffffffffff\n      and\n      0x8c5be1e5ebec7d5bd14f71427d1e84f3dd0314c0f7b2291e5b200ac8c7c3b925\n      mload(0x40)\n      mload(0x40)\n      dup1\n      swap2\n      sub\n      swap1\n      log4\n        /* \"contracts/ERC721.sol\":1937:2317  {... */\n      pop\n        /* \"contracts/ERC721.sol\":1873:2317  function approve(address to, uint256 tokenId) external override {... */\n      pop\n      pop\n      jump\t// out\n        /* \"contracts/ERC721.sol\":3195:3870  function transferFrom(address from, address to, uint256 tokenId) public override {... */\n    tag_25:\n        /* \"contracts/ERC721.sol\":3287:3300  address owner */\n      0x00\n        /* \"contracts/ERC721.sol\":3303:3319  ownerOf(tokenId) */\n      tag_64\n        /* \"contracts/ERC721.sol\":3311:3318  tokenId */\n      dup3\n        /* \"contracts/ERC721.sol\":3303:3310  ownerOf */\n      tag_31\n        /* \"contracts/ERC721.sol\":3303:3319  ownerOf(tokenId) */\n      jump\t// in\n    tag_64:\n        /* \"contracts/ERC721.sol\":3287:3319  address owner = ownerOf(tokenId) */\n      swap1\n      pop\n        /* \"contracts/ERC721.sol\":3366:3371  owner */\n      dup1\n        /* \"contracts/ERC721.sol\":3352:3371  msg.sender == owner */\n      0xffffffffffffffffffffffffffffffffffffffff\n      and\n        /* \"contracts/ERC721.sol\":3352:3362  msg.sender */\n      caller\n        /* \"contracts/ERC721.sol\":3352:3371  msg.sender == owner */\n      0xffffffffffffffffffffffffffffffffffffffff\n      and\n      eq\n        /* \"contracts/ERC721.sol\":3352:3409  msg.sender == owner || getApproved(tokenId) == msg.sender */\n      dup1\n      tag_65\n      jumpi\n      pop\n        /* \"contracts/ERC721.sol\":3399:3409  msg.sender */\n      caller\n        /* \"contracts/ERC721.sol\":3375:3409  getApproved(tokenId) == msg.sender */\n      0xffffffffffffffffffffffffffffffffffffffff\n      and\n        /* \"contracts/ERC721.sol\":3375:3395  getApproved(tokenId) */\n      tag_66\n        /* \"contracts/ERC721.sol\":3387:3394  tokenId */\n      dup4\n        /* \"contracts/ERC721.sol\":3375:3386  getApproved */\n      tag_15\n        /* \"contracts/ERC721.sol\":3375:3395  getApproved(tokenId) */\n      jump\t// in\n    tag_66:\n        /* \"contracts/ERC721.sol\":3375:3409  getApproved(tokenId) == msg.sender */\n      0xffffffffffffffffffffffffffffffffffffffff\n      and\n      eq\n        /* \"contracts/ERC721.sol\":3352:3409  msg.sender == owner || getApproved(tokenId) == msg.sender */\n    tag_65:\n        /* \"contracts/ERC721.sol\":3352:3448  msg.sender == owner || getApproved(tokenId) == msg.sender || isApprovedForAll(owner, msg.sender) */\n      dup1\n      tag_67\n      jumpi\n      pop\n        /* \"contracts/ERC721.sol\":3413:3448  isApprovedForAll(owner, msg.sender) */\n      tag_68\n        /* \"contracts/ERC721.sol\":3430:3435  owner */\n      dup2\n        /* \"contracts/ERC721.sol\":3437:3447  msg.sender */\n      caller\n        /* \"contracts/ERC721.sol\":3413:3429  isApprovedForAll */\n      tag_46\n        /* \"contracts/ERC721.sol\":3413:3448  isApprovedForAll(owner, msg.sender) */\n      jump\t// in\n    tag_68:\n        /* \"contracts/ERC721.sol\":3352:3448  msg.sender == owner || getApproved(tokenId) == msg.sender || isApprovedForAll(owner, msg.sender) */\n    tag_67:\n        /* \"contracts/ERC721.sol\":3330:3525  require(... */\n      tag_69\n      jumpi\n      mload(0x40)\n      0x08c379a000000000000000000000000000000000000000000000000000000000\n      dup2\n      mstore\n      0x04\n      add\n      tag_70\n      swap1\n      tag_71\n      jump\t// in\n    tag_70:\n      mload(0x40)\n      dup1\n      swap2\n      sub\n      swap1\n      revert\n    tag_69:\n        /* \"contracts/ERC721.sol\":3555:3559  from */\n      dup4\n        /* \"contracts/ERC721.sol\":3546:3559  owner == from */\n      0xffffffffffffffffffffffffffffffffffffffff\n      and\n        /* \"contracts/ERC721.sol\":3546:3551  owner */\n      dup2\n        /* \"contracts/ERC721.sol\":3546:3559  owner == from */\n      0xffffffffffffffffffffffffffffffffffffffff\n      and\n      eq\n        /* \"contracts/ERC721.sol\":3538:3607  require(owner == from, \"ERC721: transfer of token that is not owned\") */\n      tag_72\n      jumpi\n      mload(0x40)\n      0x08c379a000000000000000000000000000000000000000000000000000000000\n      dup2\n      mstore\n      0x04\n      add\n      tag_73\n      swap1\n      tag_74\n      jump\t// in\n    tag_73:\n      mload(0x40)\n      dup1\n      swap2\n      sub\n      swap1\n      revert\n    tag_72:\n        /* \"contracts/ERC721.sol\":3640:3641  0 */\n      0x00\n        /* \"contracts/ERC721.sol\":3626:3642  to != address(0) */\n      0xffffffffffffffffffffffffffffffffffffffff\n      and\n        /* \"contracts/ERC721.sol\":3626:3628  to */\n      dup4\n        /* \"contracts/ERC721.sol\":3626:3642  to != address(0) */\n      0xffffffffffffffffffffffffffffffffffffffff\n      and\n      sub\n        /* \"contracts/ERC721.sol\":3618:3683  require(to != address(0), \"ERC721: transfer to the zero address\") */\n      tag_75\n      jumpi\n      mload(0x40)\n      0x08c379a000000000000000000000000000000000000000000000000000000000\n      dup2\n      mstore\n      0x04\n      add\n      tag_76\n      swap1\n      tag_77\n      jump\t// in\n    tag_76:\n      mload(0x40)\n      dup1\n      swap2\n      sub\n      swap1\n      revert\n    tag_75:\n        /* \"contracts/ERC721.sol\":3696:3725  _approve(address(0), tokenId) */\n      tag_78\n        /* \"contracts/ERC721.sol\":3713:3714  0 */\n      0x00\n        /* \"contracts/ERC721.sol\":3717:3724  tokenId */\n      dup4\n        /* \"contracts/ERC721.sol\":3696:3704  _approve */\n      tag_79\n        /* \"contracts/ERC721.sol\":3696:3725  _approve(address(0), tokenId) */\n      jump\t// in\n    tag_78:\n        /* \"contracts/ERC721.sol\":3755:3756  1 */\n      0x01\n        /* \"contracts/ERC721.sol\":3736:3745  _balances */\n      dup1\n        /* \"contracts/ERC721.sol\":3736:3751  _balances[from] */\n      0x00\n        /* \"contracts/ERC721.sol\":3746:3750  from */\n      dup7\n        /* \"contracts/ERC721.sol\":3736:3751  _balances[from] */\n      0xffffffffffffffffffffffffffffffffffffffff\n      and\n      0xffffffffffffffffffffffffffffffffffffffff\n      and\n      dup2\n      mstore\n      0x20\n      add\n      swap1\n      dup2\n      mstore\n      0x20\n      add\n      0x00\n      keccak256\n      0x00\n        /* \"contracts/ERC721.sol\":3736:3756  _balances[from] -= 1 */\n      dup3\n      dup3\n      sload\n      tag_80\n      swap2\n      swap1\n      tag_81\n      jump\t// in\n    tag_80:\n      swap3\n      pop\n      pop\n      dup2\n      swap1\n      sstore\n      pop\n        /* \"contracts/ERC721.sol\":3784:3785  1 */\n      0x01\n        /* \"contracts/ERC721.sol\":3767:3776  _balances */\n      dup1\n        /* \"contracts/ERC721.sol\":3767:3780  _balances[to] */\n      0x00\n        /* \"contracts/ERC721.sol\":3777:3779  to */\n      dup6\n        /* \"contracts/ERC721.sol\":3767:3780  _balances[to] */\n      0xffffffffffffffffffffffffffffffffffffffff\n      and\n      0xffffffffffffffffffffffffffffffffffffffff\n      and\n      dup2\n      mstore\n      0x20\n      add\n      swap1\n      dup2\n      mstore\n      0x20\n      add\n      0x00\n      keccak256\n      0x00\n        /* \"contracts/ERC721.sol\":3767:3785  _balances[to] += 1 */\n      dup3\n      dup3\n      sload\n      tag_82\n      swap2\n      swap1\n      tag_83\n      jump\t// in\n    tag_82:\n      swap3\n      pop\n      pop\n      dup2\n      swap1\n      sstore\n      pop\n        /* \"contracts/ERC721.sol\":3815:3817  to */\n      dup3\n        /* \"contracts/ERC721.sol\":3796:3803  _owners */\n      0x00\n        /* \"contracts/ERC721.sol\":3796:3812  _owners[tokenId] */\n      dup1\n        /* \"contracts/ERC721.sol\":3804:3811  tokenId */\n      dup5\n        /* \"contracts/ERC721.sol\":3796:3812  _owners[tokenId] */\n      dup2\n      mstore\n      0x20\n      add\n      swap1\n      dup2\n      mstore\n      0x20\n      add\n      0x00\n      keccak256\n      0x00\n        /* \"contracts/ERC721.sol\":3796:3817  _owners[tokenId] = to */\n      0x0100\n      exp\n      dup2\n      sload\n      dup2\n      0xffffffffffffffffffffffffffffffffffffffff\n      mul\n      not\n      and\n      swap1\n      dup4\n      0xffffffffffffffffffffffffffffffffffffffff\n      and\n      mul\n      or\n      swap1\n      sstore\n      pop\n        /* \"contracts/ERC721.sol\":3854:3861  tokenId */\n      dup2\n        /* \"contracts/ERC721.sol\":3850:3852  to */\n      dup4\n        /* \"contracts/ERC721.sol\":3835:3862  Transfer(from, to, tokenId) */\n      0xffffffffffffffffffffffffffffffffffffffff\n      and\n        /* \"contracts/ERC721.sol\":3844:3848  from */\n      dup6\n        /* \"contracts/ERC721.sol\":3835:3862  Transfer(from, to, tokenId) */\n      0xffffffffffffffffffffffffffffffffffffffff\n      and\n      0xddf252ad1be2c89b69c2b068fc378daa952ba7f163c4a11628f55a4df523b3ef\n      mload(0x40)\n      mload(0x40)\n      dup1\n      swap2\n      sub\n      swap1\n      log4\n        /* \"contracts/ERC721.sol\":3276:3870  {... */\n      pop\n        /* \"contracts/ERC721.sol\":3195:3870  function transferFrom(address from, address to, uint256 tokenId) public override {... */\n      pop\n      pop\n      pop\n      jump\t// out\n        /* \"contracts/ERC721.sol\":3915:4251  function safeTransferFrom(address from, address to, uint256 tokenId) external override {... */\n    tag_28:\n        /* \"contracts/ERC721.sol\":4013:4044  transferFrom(from, to, tokenId) */\n      tag_85\n        /* \"contracts/ERC721.sol\":4026:4030  from */\n      dup4\n        /* \"contracts/ERC721.sol\":4032:4034  to */\n      dup4\n        /* \"contracts/ERC721.sol\":4036:4043  tokenId */\n      dup4\n        /* \"contracts/ERC721.sol\":4013:4025  transferFrom */\n      tag_25\n        /* \"contracts/ERC721.sol\":4013:4044  transferFrom(from, to, tokenId) */\n      jump\t// in\n    tag_85:\n        /* \"contracts/ERC721.sol\":4120:4165  _checkOnERC721Received(from, to, tokenId, \"\") */\n      tag_86\n        /* \"contracts/ERC721.sol\":4143:4147  from */\n      dup4\n        /* \"contracts/ERC721.sol\":4149:4151  to */\n      dup4\n        /* \"contracts/ERC721.sol\":4153:4160  tokenId */\n      dup4\n        /* \"contracts/ERC721.sol\":4120:4165  _checkOnERC721Received(from, to, tokenId, \"\") */\n      mload(0x40)\n      dup1\n      0x20\n      add\n      0x40\n      mstore\n      dup1\n      0x00\n      dup2\n      mstore\n      pop\n        /* \"contracts/ERC721.sol\":4120:4142  _checkOnERC721Received */\n      tag_87\n        /* \"contracts/ERC721.sol\":4120:4165  _checkOnERC721Received(from, to, tokenId, \"\") */\n      jump\t// in\n    tag_86:\n        /* \"contracts/ERC721.sol\":4098:4243  require(... */\n      tag_88\n      jumpi\n      mload(0x40)\n      0x08c379a000000000000000000000000000000000000000000000000000000000\n      dup2\n      mstore\n      0x04\n      add\n      tag_89\n      swap1\n      tag_90\n      jump\t// in\n    tag_89:\n      mload(0x40)\n      dup1\n      swap2\n      sub\n      swap1\n      revert\n    tag_88:\n        /* \"contracts/ERC721.sol\":3915:4251  function safeTransferFrom(address from, address to, uint256 tokenId) external override {... */\n      pop\n      pop\n      pop\n      jump\t// out\n        /* \"contracts/ERC721.sol\":1610:1841  function ownerOf(uint256 tokenId) public view override returns (address) {... */\n    tag_31:\n        /* \"contracts/ERC721.sol\":1674:1681  address */\n      0x00\n        /* \"contracts/ERC721.sol\":1694:1707  address owner */\n      dup1\n        /* \"contracts/ERC721.sol\":1710:1717  _owners */\n      0x00\n        /* \"contracts/ERC721.sol\":1710:1726  _owners[tokenId] */\n      dup1\n        /* \"contracts/ERC721.sol\":1718:1725  tokenId */\n      dup5\n        /* \"contracts/ERC721.sol\":1710:1726  _owners[tokenId] */\n      dup2\n      mstore\n      0x20\n      add\n      swap1\n      dup2\n      mstore\n      0x20\n      add\n      0x00\n      keccak256\n      0x00\n      swap1\n      sload\n      swap1\n      0x0100\n      exp\n      swap1\n      div\n      0xffffffffffffffffffffffffffffffffffffffff\n      and\n        /* \"contracts/ERC721.sol\":1694:1726  address owner = _owners[tokenId] */\n      swap1\n      pop\n        /* \"contracts/ERC721.sol\":1762:1763  0 */\n      0x00\n        /* \"contracts/ERC721.sol\":1745:1764  owner != address(0) */\n      0xffffffffffffffffffffffffffffffffffffffff\n      and\n        /* \"contracts/ERC721.sol\":1745:1750  owner */\n      dup2\n        /* \"contracts/ERC721.sol\":1745:1764  owner != address(0) */\n      0xffffffffffffffffffffffffffffffffffffffff\n      and\n      sub\n        /* \"contracts/ERC721.sol\":1737:1810  require(owner != address(0), \"ERC721: owner query for nonexistent token\") */\n      tag_92\n      jumpi\n      mload(0x40)\n      0x08c379a000000000000000000000000000000000000000000000000000000000\n      dup2\n      mstore\n      0x04\n      add\n      tag_93\n      swap1\n      tag_94\n      jump\t// in\n    tag_93:\n      mload(0x40)\n      dup1\n      swap2\n      sub\n      swap1\n      revert\n    tag_92:\n        /* \"contracts/ERC721.sol\":1828:1833  owner */\n      dup1\n        /* \"contracts/ERC721.sol\":1821:1833  return owner */\n      swap2\n      pop\n      pop\n        /* \"contracts/ERC721.sol\":1610:1841  function ownerOf(uint256 tokenId) public view override returns (address) {... */\n      swap2\n      swap1\n      pop\n      jump\t// out\n        /* \"contracts/ERC721.sol\":1375:1577  function balanceOf(address owner) external view override returns (uint256) {... */\n    tag_36:\n        /* \"contracts/ERC721.sol\":1441:1448  uint256 */\n      0x00\n        /* \"contracts/ERC721.sol\":1486:1487  0 */\n      dup1\n        /* \"contracts/ERC721.sol\":1469:1488  owner != address(0) */\n      0xffffffffffffffffffffffffffffffffffffffff\n      and\n        /* \"contracts/ERC721.sol\":1469:1474  owner */\n      dup3\n        /* \"contracts/ERC721.sol\":1469:1488  owner != address(0) */\n      0xffffffffffffffffffffffffffffffffffffffff\n      and\n      sub\n        /* \"contracts/ERC721.sol\":1461:1535  require(owner != address(0), \"ERC721: balance query for the zero address\") */\n      tag_96\n      jumpi\n      mload(0x40)\n      0x08c379a000000000000000000000000000000000000000000000000000000000\n      dup2\n      mstore\n      0x04\n      add\n      tag_97\n      swap1\n      tag_98\n      jump\t// in\n    tag_97:\n      mload(0x40)\n      dup1\n      swap2\n      sub\n      swap1\n      revert\n    tag_96:\n        /* \"contracts/ERC721.sol\":1553:1562  _balances */\n      0x01\n        /* \"contracts/ERC721.sol\":1553:1569  _balances[owner] */\n      0x00\n        /* \"contracts/ERC721.sol\":1563:1568  owner */\n      dup4\n        /* \"contracts/ERC721.sol\":1553:1569  _balances[owner] */\n      0xffffffffffffffffffffffffffffffffffffffff\n      and\n      0xffffffffffffffffffffffffffffffffffffffff\n      and\n      dup2\n      mstore\n      0x20\n      add\n      swap1\n      dup2\n      mstore\n      0x20\n      add\n      0x00\n      keccak256\n      sload\n        /* \"contracts/ERC721.sol\":1546:1569  return _balances[owner] */\n      swap1\n      pop\n        /* \"contracts/ERC721.sol\":1375:1577  function balanceOf(address owner) external view override returns (uint256) {... */\n      swap2\n      swap1\n      pop\n      jump\t// out\n        /* \"contracts/ERC721.sol\":2647:2930  function setApprovalForAll(address operator, bool approved) external override {... */\n    tag_42:\n        /* \"contracts/ERC721.sol\":2756:2766  msg.sender */\n      caller\n        /* \"contracts/ERC721.sol\":2744:2766  operator != msg.sender */\n      0xffffffffffffffffffffffffffffffffffffffff\n      and\n        /* \"contracts/ERC721.sol\":2744:2752  operator */\n      dup3\n        /* \"contracts/ERC721.sol\":2744:2766  operator != msg.sender */\n      0xffffffffffffffffffffffffffffffffffffffff\n      and\n      sub\n        /* \"contracts/ERC721.sol\":2736:2796  require(operator != msg.sender, \"ERC721: approve to caller\") */\n      tag_100\n      jumpi\n      mload(0x40)\n      0x08c379a000000000000000000000000000000000000000000000000000000000\n      dup2\n      mstore\n      0x04\n      add\n      tag_101\n      swap1\n      tag_102\n      jump\t// in\n    tag_101:\n      mload(0x40)\n      dup1\n      swap2\n      sub\n      swap1\n      revert\n    tag_100:\n        /* \"contracts/ERC721.sol\":2852:2860  approved */\n      dup1\n        /* \"contracts/ERC721.sol\":2809:2827  _operatorApprovals */\n      0x03\n        /* \"contracts/ERC721.sol\":2809:2839  _operatorApprovals[msg.sender] */\n      0x00\n        /* \"contracts/ERC721.sol\":2828:2838  msg.sender */\n      caller\n        /* \"contracts/ERC721.sol\":2809:2839  _operatorApprovals[msg.sender] */\n      0xffffffffffffffffffffffffffffffffffffffff\n      and\n      0xffffffffffffffffffffffffffffffffffffffff\n      and\n      dup2\n      mstore\n      0x20\n      add\n      swap1\n      dup2\n      mstore\n      0x20\n      add\n      0x00\n      keccak256\n        /* \"contracts/ERC721.sol\":2809:2849  _operatorApprovals[msg.sender][operator] */\n      0x00\n        /* \"contracts/ERC721.sol\":2840:2848  operator */\n      dup5\n        /* \"contracts/ERC721.sol\":2809:2849  _operatorApprovals[msg.sender][operator] */\n      0xffffffffffffffffffffffffffffffffffffffff\n      and\n      0xffffffffffffffffffffffffffffffffffffffff\n      and\n      dup2\n      mstore\n      0x20\n      add\n      swap1\n      dup2\n      mstore\n      0x20\n      add\n      0x00\n      keccak256\n      0x00\n        /* \"contracts/ERC721.sol\":2809:2860  _operatorApprovals[msg.sender][operator] = approved */\n      0x0100\n      exp\n      dup2\n      sload\n      dup2\n      0xff\n      mul\n      not\n      and\n      swap1\n      dup4\n      iszero\n      iszero\n      mul\n      or\n      swap1\n      sstore\n      pop\n        /* \"contracts/ERC721.sol\":2903:2911  operator */\n      dup2\n        /* \"contracts/ERC721.sol\":2876:2922  ApprovalForAll(msg.sender, operator, approved) */\n      0xffffffffffffffffffffffffffffffffffffffff\n      and\n        /* \"contracts/ERC721.sol\":2891:2901  msg.sender */\n      caller\n        /* \"contracts/ERC721.sol\":2876:2922  ApprovalForAll(msg.sender, operator, approved) */\n      0xffffffffffffffffffffffffffffffffffffffff\n      and\n      0x17307eab39ab6107e8899845ad3d59bd9653f200f220920489ca2b5937696c31\n        /* \"contracts/ERC721.sol\":2913:2921  approved */\n      dup4\n        /* \"contracts/ERC721.sol\":2876:2922  ApprovalForAll(msg.sender, operator, approved) */\n      mload(0x40)\n      tag_103\n      swap2\n      swap1\n      tag_48\n      jump\t// in\n    tag_103:\n      mload(0x40)\n      dup1\n      swap2\n      sub\n      swap1\n      log3\n        /* \"contracts/ERC721.sol\":2647:2930  function setApprovalForAll(address operator, bool approved) external override {... */\n      pop\n      pop\n      jump\t// out\n        /* \"contracts/ERC721.sol\":3006:3162  function isApprovedForAll(address owner, address operator) public view override returns (bool) {... */\n    tag_46:\n        /* \"contracts/ERC721.sol\":3095:3099  bool */\n      0x00\n        /* \"contracts/ERC721.sol\":3119:3137  _operatorApprovals */\n      0x03\n        /* \"contracts/ERC721.sol\":3119:3144  _operatorApprovals[owner] */\n      0x00\n        /* \"contracts/ERC721.sol\":3138:3143  owner */\n      dup5\n        /* \"contracts/ERC721.sol\":3119:3144  _operatorApprovals[owner] */\n      0xffffffffffffffffffffffffffffffffffffffff\n      and\n      0xffffffffffffffffffffffffffffffffffffffff\n      and\n      dup2\n      mstore\n      0x20\n      add\n      swap1\n      dup2\n      mstore\n      0x20\n      add\n      0x00\n      keccak256\n        /* \"contracts/ERC721.sol\":3119:3154  _operatorApprovals[owner][operator] */\n      0x00\n        /* \"contracts/ERC721.sol\":3145:3153  operator */\n      dup4\n        /* \"contracts/ERC721.sol\":3119:3154  _operatorApprovals[owner][operator] */\n      0xffffffffffffffffffffffffffffffffffffffff\n      and\n      0xffffffffffffffffffffffffffffffffffffffff\n      and\n      dup2\n      mstore\n      0x20\n      add\n      swap1\n      dup2\n      mstore\n      0x20\n      add\n      0x00\n      keccak256\n      0x00\n      swap1\n      sload\n      swap1\n      0x0100\n      exp\n      swap1\n      div\n      0xff\n      and\n        /* \"contracts/ERC721.sol\":3112:3154  return _operatorApprovals[owner][operator] */\n      swap1\n      pop\n        /* \"contracts/ERC721.sol\":3006:3162  function isApprovedForAll(address owner, address operator) public view override returns (bool) {... */\n      swap3\n      swap2\n      pop\n      pop\n      jump\t// out\n        /* \"contracts/ERC721.sol\":4880:5039  function _approve(address to, uint256 tokenId) internal {... */\n    tag_79:\n        /* \"contracts/ERC721.sol\":4974:4976  to */\n      dup2\n        /* \"contracts/ERC721.sol\":4947:4962  _tokenApprovals */\n      0x02\n        /* \"contracts/ERC721.sol\":4947:4971  _tokenApprovals[tokenId] */\n      0x00\n        /* \"contracts/ERC721.sol\":4963:4970  tokenId */\n      dup4\n        /* \"contracts/ERC721.sol\":4947:4971  _tokenApprovals[tokenId] */\n      dup2\n      mstore\n      0x20\n      add\n      swap1\n      dup2\n      mstore\n      0x20\n      add\n      0x00\n      keccak256\n      0x00\n        /* \"contracts/ERC721.sol\":4947:4976  _tokenApprovals[tokenId] = to */\n      0x0100\n      exp\n      dup2\n      sload\n      dup2\n      0xffffffffffffffffffffffffffffffffffffffff\n      mul\n      not\n      and\n      swap1\n      dup4\n      0xffffffffffffffffffffffffffffffffffffffff\n      and\n      mul\n      or\n      swap1\n      sstore\n      pop\n        /* \"contracts/ERC721.sol\":5023:5030  tokenId */\n      dup1\n        /* \"contracts/ERC721.sol\":5019:5021  to */\n      dup3\n        /* \"contracts/ERC721.sol\":4992:5031  Approval(ownerOf(tokenId), to, tokenId) */\n      0xffffffffffffffffffffffffffffffffffffffff\n      and\n        /* \"contracts/ERC721.sol\":5001:5017  ownerOf(tokenId) */\n      tag_106\n        /* \"contracts/ERC721.sol\":5009:5016  tokenId */\n      dup4\n        /* \"contracts/ERC721.sol\":5001:5008  ownerOf */\n      tag_31\n        /* \"contracts/ERC721.sol\":5001:5017  ownerOf(tokenId) */\n      jump\t// in\n    tag_106:\n        /* \"contracts/ERC721.sol\":4992:5031  Approval(ownerOf(tokenId), to, tokenId) */\n      0xffffffffffffffffffffffffffffffffffffffff\n      and\n      0x8c5be1e5ebec7d5bd14f71427d1e84f3dd0314c0f7b2291e5b200ac8c7c3b925\n      mload(0x40)\n      mload(0x40)\n      dup1\n      swap2\n      sub\n      swap1\n      log4\n        /* \"contracts/ERC721.sol\":4880:5039  function _approve(address to, uint256 tokenId) internal {... */\n      pop\n      pop\n      jump\t// out\n        /* \"contracts/ERC721.sol\":4319:4836  function _checkOnERC721Received(... */\n    tag_87:\n        /* \"contracts/ERC721.sol\":4473:4477  bool */\n      0x00\n        /* \"contracts/ERC721.sol\":4511:4512  0 */\n      dup1\n        /* \"contracts/ERC721.sol\":4494:4496  to */\n      dup5\n        /* \"contracts/ERC721.sol\":4494:4508  to.code.length */\n      0xffffffffffffffffffffffffffffffffffffffff\n      and\n      extcodesize\n        /* \"contracts/ERC721.sol\":4494:4512  to.code.length > 0 */\n      gt\n        /* \"contracts/ERC721.sol\":4490:4829  if (to.code.length > 0) {... */\n      iszero\n      tag_108\n      jumpi\n        /* \"contracts/ERC721.sol\":4549:4551  to */\n      dup4\n        /* \"contracts/ERC721.sol\":4533:4569  IERC721Receiver(to).onERC721Received */\n      0xffffffffffffffffffffffffffffffffffffffff\n      and\n      0x150b7a02\n        /* \"contracts/ERC721.sol\":4570:4580  msg.sender */\n      caller\n        /* \"contracts/ERC721.sol\":4582:4586  from */\n      dup8\n        /* \"contracts/ERC721.sol\":4588:4595  tokenId */\n      dup7\n        /* \"contracts/ERC721.sol\":4597:4601  data */\n      dup7\n        /* \"contracts/ERC721.sol\":4533:4602  IERC721Receiver(to).onERC721Received(msg.sender, from, tokenId, data) */\n      mload(0x40)\n      dup6\n      0xffffffff\n      and\n      0xe0\n      shl\n      dup2\n      mstore\n      0x04\n      add\n      tag_109\n      swap5\n      swap4\n      swap3\n      swap2\n      swap1\n      tag_110\n      jump\t// in\n    tag_109:\n      0x20\n      mload(0x40)\n      dup1\n      dup4\n      sub\n      dup2\n      0x00\n      dup8\n      gas\n      call\n      swap3\n      pop\n      pop\n      pop\n      dup1\n      iszero\n      tag_111\n      jumpi\n      pop\n      mload(0x40)\n      returndatasize\n      not(0x1f)\n      0x1f\n      dup3\n      add\n      and\n      dup3\n      add\n      dup1\n      0x40\n      mstore\n      pop\n      dup2\n      add\n      swap1\n      tag_112\n      swap2\n      swap1\n      tag_113\n      jump\t// in\n    tag_112:\n      0x01\n    tag_111:\n        /* \"contracts/ERC721.sol\":4529:4774  try IERC721Receiver(to).onERC721Received(msg.sender, from, tokenId, data) returns (bytes4 retval) {... */\n      tag_114\n      jumpi\n        /* \"contracts/ERC721.sol\":4753:4758  false */\n      0x00\n        /* \"contracts/ERC721.sol\":4746:4758  return false */\n      swap1\n      pop\n      jump(tag_107)\n        /* \"contracts/ERC721.sol\":4529:4774  try IERC721Receiver(to).onERC721Received(msg.sender, from, tokenId, data) returns (bytes4 retval) {... */\n    tag_114:\n        /* \"contracts/ERC721.sol\":4663:4704  IERC721Receiver.onERC721Received.selector */\n      shl(0xe0, 0x150b7a02)\n        /* \"contracts/ERC721.sol\":4653:4704  retval == IERC721Receiver.onERC721Received.selector */\n      not(0xffffffffffffffffffffffffffffffffffffffffffffffffffffffff)\n      and\n        /* \"contracts/ERC721.sol\":4653:4659  retval */\n      dup2\n        /* \"contracts/ERC721.sol\":4653:4704  retval == IERC721Receiver.onERC721Received.selector */\n      not(0xffffffffffffffffffffffffffffffffffffffffffffffffffffffff)\n      and\n      eq\n        /* \"contracts/ERC721.sol\":4646:4704  return retval == IERC721Receiver.onERC721Received.selector */\n      swap2\n      pop\n      pop\n      jump(tag_107)\n        /* \"contracts/ERC721.sol\":4490:4829  if (to.code.length > 0) {... */\n    tag_108:\n        /* \"contracts/ERC721.sol\":4813:4817  true */\n      0x01\n        /* \"contracts/ERC721.sol\":4806:4817  return true */\n      swap1\n      pop\n        /* \"contracts/ERC721.sol\":4319:4836  function _checkOnERC721Received(... */\n    tag_107:\n      swap5\n      swap4\n      pop\n      pop\n      pop\n      pop\n      jump\t// out\n        /* \"#utility.yul\":88:205   */\n    tag_121:\n        /* \"#utility.yul\":197:198   */\n      0x00\n        /* \"#utility.yul\":194:195   */\n      dup1\n        /* \"#utility.yul\":187:199   */\n      revert\n        /* \"#utility.yul\":334:411   */\n    tag_123:\n        /* \"#utility.yul\":371:378   */\n      0x00\n        /* \"#utility.yul\":400:405   */\n      dup2\n        /* \"#utility.yul\":389:405   */\n      swap1\n      pop\n        /* \"#utility.yul\":334:411   */\n      swap2\n      swap1\n      pop\n      jump\t// out\n        /* \"#utility.yul\":417:539   */\n    tag_124:\n        /* \"#utility.yul\":490:514   */\n      tag_172\n        /* \"#utility.yul\":508:513   */\n      dup2\n        /* \"#utility.yul\":490:514   */\n      tag_123\n      jump\t// in\n    tag_172:\n        /* \"#utility.yul\":483:488   */\n      dup2\n        /* \"#utility.yul\":480:515   */\n      eq\n        /* \"#utility.yul\":470:533   */\n      tag_173\n      jumpi\n        /* \"#utility.yul\":529:530   */\n      0x00\n        /* \"#utility.yul\":526:527   */\n      dup1\n        /* \"#utility.yul\":519:531   */\n      revert\n        /* \"#utility.yul\":470:533   */\n    tag_173:\n        /* \"#utility.yul\":417:539   */\n      pop\n      jump\t// out\n        /* \"#utility.yul\":545:684   */\n    tag_125:\n        /* \"#utility.yul\":591:596   */\n      0x00\n        /* \"#utility.yul\":629:635   */\n      dup2\n        /* \"#utility.yul\":616:636   */\n      calldataload\n        /* \"#utility.yul\":607:636   */\n      swap1\n      pop\n        /* \"#utility.yul\":645:678   */\n      tag_175\n        /* \"#utility.yul\":672:677   */\n      dup2\n        /* \"#utility.yul\":645:678   */\n      tag_124\n      jump\t// in\n    tag_175:\n        /* \"#utility.yul\":545:684   */\n      swap3\n      swap2\n      pop\n      pop\n      jump\t// out\n        /* \"#utility.yul\":690:1019   */\n    tag_14:\n        /* \"#utility.yul\":749:755   */\n      0x00\n        /* \"#utility.yul\":798:800   */\n      0x20\n        /* \"#utility.yul\":786:795   */\n      dup3\n        /* \"#utility.yul\":777:784   */\n      dup5\n        /* \"#utility.yul\":773:796   */\n      sub\n        /* \"#utility.yul\":769:801   */\n      slt\n        /* \"#utility.yul\":766:885   */\n      iszero\n      tag_177\n      jumpi\n        /* \"#utility.yul\":804:883   */\n      tag_178\n      tag_121\n      jump\t// in\n    tag_178:\n        /* \"#utility.yul\":766:885   */\n    tag_177:\n        /* \"#utility.yul\":924:925   */\n      0x00\n        /* \"#utility.yul\":949:1002   */\n      tag_179\n        /* \"#utility.yul\":994:1001   */\n      dup5\n        /* \"#utility.yul\":985:991   */\n      dup3\n        /* \"#utility.yul\":974:983   */\n      dup6\n        /* \"#utility.yul\":970:992   */\n      add\n        /* \"#utility.yul\":949:1002   */\n      tag_125\n      jump\t// in\n    tag_179:\n        /* \"#utility.yul\":939:1002   */\n      swap2\n      pop\n        /* \"#utility.yul\":895:1012   */\n      pop\n        /* \"#utility.yul\":690:1019   */\n      swap3\n      swap2\n      pop\n      pop\n      jump\t// out\n        /* \"#utility.yul\":1025:1151   */\n    tag_126:\n        /* \"#utility.yul\":1062:1069   */\n      0x00\n        /* \"#utility.yul\":1102:1144   */\n      0xffffffffffffffffffffffffffffffffffffffff\n        /* \"#utility.yul\":1095:1100   */\n      dup3\n        /* \"#utility.yul\":1091:1145   */\n      and\n        /* \"#utility.yul\":1080:1145   */\n      swap1\n      pop\n        /* \"#utility.yul\":1025:1151   */\n      swap2\n      swap1\n      pop\n      jump\t// out\n        /* \"#utility.yul\":1157:1253   */\n    tag_127:\n        /* \"#utility.yul\":1194:1201   */\n      0x00\n        /* \"#utility.yul\":1223:1247   */\n      tag_182\n        /* \"#utility.yul\":1241:1246   */\n      dup3\n        /* \"#utility.yul\":1223:1247   */\n      tag_126\n      jump\t// in\n    tag_182:\n        /* \"#utility.yul\":1212:1247   */\n      swap1\n      pop\n        /* \"#utility.yul\":1157:1253   */\n      swap2\n      swap1\n      pop\n      jump\t// out\n        /* \"#utility.yul\":1259:1377   */\n    tag_128:\n        /* \"#utility.yul\":1346:1370   */\n      tag_184\n        /* \"#utility.yul\":1364:1369   */\n      dup2\n        /* \"#utility.yul\":1346:1370   */\n      tag_127\n      jump\t// in\n    tag_184:\n        /* \"#utility.yul\":1341:1344   */\n      dup3\n        /* \"#utility.yul\":1334:1371   */\n      mstore\n        /* \"#utility.yul\":1259:1377   */\n      pop\n      pop\n      jump\t// out\n        /* \"#utility.yul\":1383:1605   */\n    tag_17:\n        /* \"#utility.yul\":1476:1480   */\n      0x00\n        /* \"#utility.yul\":1514:1516   */\n      0x20\n        /* \"#utility.yul\":1503:1512   */\n      dup3\n        /* \"#utility.yul\":1499:1517   */\n      add\n        /* \"#utility.yul\":1491:1517   */\n      swap1\n      pop\n        /* \"#utility.yul\":1527:1598   */\n      tag_186\n        /* \"#utility.yul\":1595:1596   */\n      0x00\n        /* \"#utility.yul\":1584:1593   */\n      dup4\n        /* \"#utility.yul\":1580:1597   */\n      add\n        /* \"#utility.yul\":1571:1577   */\n      dup5\n        /* \"#utility.yul\":1527:1598   */\n      tag_128\n      jump\t// in\n    tag_186:\n        /* \"#utility.yul\":1383:1605   */\n      swap3\n      swap2\n      pop\n      pop\n      jump\t// out\n        /* \"#utility.yul\":1611:1733   */\n    tag_129:\n        /* \"#utility.yul\":1684:1708   */\n      tag_188\n        /* \"#utility.yul\":1702:1707   */\n      dup2\n        /* \"#utility.yul\":1684:1708   */\n      tag_127\n      jump\t// in\n    tag_188:\n        /* \"#utility.yul\":1677:1682   */\n      dup2\n        /* \"#utility.yul\":1674:1709   */\n      eq\n        /* \"#utility.yul\":1664:1727   */\n      tag_189\n      jumpi\n        /* \"#utility.yul\":1723:1724   */\n      0x00\n        /* \"#utility.yul\":1720:1721   */\n      dup1\n        /* \"#utility.yul\":1713:1725   */\n      revert\n        /* \"#utility.yul\":1664:1727   */\n    tag_189:\n        /* \"#utility.yul\":1611:1733   */\n      pop\n      jump\t// out\n        /* \"#utility.yul\":1739:1878   */\n    tag_130:\n        /* \"#utility.yul\":1785:1790   */\n      0x00\n        /* \"#utility.yul\":1823:1829   */\n      dup2\n        /* \"#utility.yul\":1810:1830   */\n      calldataload\n        /* \"#utility.yul\":1801:1830   */\n      swap1\n      pop\n        /* \"#utility.yul\":1839:1872   */\n      tag_191\n        /* \"#utility.yul\":1866:1871   */\n      dup2\n        /* \"#utility.yul\":1839:1872   */\n      tag_129\n      jump\t// in\n    tag_191:\n        /* \"#utility.yul\":1739:1878   */\n      swap3\n      swap2\n      pop\n      pop\n      jump\t// out\n        /* \"#utility.yul\":1884:2358   */\n    tag_20:\n        /* \"#utility.yul\":1952:1958   */\n      0x00\n        /* \"#utility.yul\":1960:1966   */\n      dup1\n        /* \"#utility.yul\":2009:2011   */\n      0x40\n        /* \"#utility.yul\":1997:2006   */\n      dup4\n        /* \"#utility.yul\":1988:1995   */\n      dup6\n        /* \"#utility.yul\":1984:2007   */\n      sub\n        /* \"#utility.yul\":1980:2012   */\n      slt\n        /* \"#utility.yul\":1977:2096   */\n      iszero\n      tag_193\n      jumpi\n        /* \"#utility.yul\":2015:2094   */\n      tag_194\n      tag_121\n      jump\t// in\n    tag_194:\n        /* \"#utility.yul\":1977:2096   */\n    tag_193:\n        /* \"#utility.yul\":2135:2136   */\n      0x00\n        /* \"#utility.yul\":2160:2213   */\n      tag_195\n        /* \"#utility.yul\":2205:2212   */\n      dup6\n        /* \"#utility.yul\":2196:2202   */\n      dup3\n        /* \"#utility.yul\":2185:2194   */\n      dup7\n        /* \"#utility.yul\":2181:2203   */\n      add\n        /* \"#utility.yul\":2160:2213   */\n      tag_130\n      jump\t// in\n    tag_195:\n        /* \"#utility.yul\":2150:2213   */\n      swap3\n      pop\n        /* \"#utility.yul\":2106:2223   */\n      pop\n        /* \"#utility.yul\":2262:2264   */\n      0x20\n        /* \"#utility.yul\":2288:2341   */\n      tag_196\n        /* \"#utility.yul\":2333:2340   */\n      dup6\n        /* \"#utility.yul\":2324:2330   */\n      dup3\n        /* \"#utility.yul\":2313:2322   */\n      dup7\n        /* \"#utility.yul\":2309:2331   */\n      add\n        /* \"#utility.yul\":2288:2341   */\n      tag_125\n      jump\t// in\n    tag_196:\n        /* \"#utility.yul\":2278:2341   */\n      swap2\n      pop\n        /* \"#utility.yul\":2233:2351   */\n      pop\n        /* \"#utility.yul\":1884:2358   */\n      swap3\n      pop\n      swap3\n      swap1\n      pop\n      jump\t// out\n        /* \"#utility.yul\":2364:2983   */\n    tag_24:\n        /* \"#utility.yul\":2441:2447   */\n      0x00\n        /* \"#utility.yul\":2449:2455   */\n      dup1\n        /* \"#utility.yul\":2457:2463   */\n      0x00\n        /* \"#utility.yul\":2506:2508   */\n      0x60\n        /* \"#utility.yul\":2494:2503   */\n      dup5\n        /* \"#utility.yul\":2485:2492   */\n      dup7\n        /* \"#utility.yul\":2481:2504   */\n      sub\n        /* \"#utility.yul\":2477:2509   */\n      slt\n        /* \"#utility.yul\":2474:2593   */\n      iszero\n      tag_198\n      jumpi\n        /* \"#utility.yul\":2512:2591   */\n      tag_199\n      tag_121\n      jump\t// in\n    tag_199:\n        /* \"#utility.yul\":2474:2593   */\n    tag_198:\n        /* \"#utility.yul\":2632:2633   */\n      0x00\n        /* \"#utility.yul\":2657:2710   */\n      tag_200\n        /* \"#utility.yul\":2702:2709   */\n      dup7\n        /* \"#utility.yul\":2693:2699   */\n      dup3\n        /* \"#utility.yul\":2682:2691   */\n      dup8\n        /* \"#utility.yul\":2678:2700   */\n      add\n        /* \"#utility.yul\":2657:2710   */\n      tag_130\n      jump\t// in\n    tag_200:\n        /* \"#utility.yul\":2647:2710   */\n      swap4\n      pop\n        /* \"#utility.yul\":2603:2720   */\n      pop\n        /* \"#utility.yul\":2759:2761   */\n      0x20\n        /* \"#utility.yul\":2785:2838   */\n      tag_201\n        /* \"#utility.yul\":2830:2837   */\n      dup7\n        /* \"#utility.yul\":2821:2827   */\n      dup3\n        /* \"#utility.yul\":2810:2819   */\n      dup8\n        /* \"#utility.yul\":2806:2828   */\n      add\n        /* \"#utility.yul\":2785:2838   */\n      tag_130\n      jump\t// in\n    tag_201:\n        /* \"#utility.yul\":2775:2838   */\n      swap3\n      pop\n        /* \"#utility.yul\":2730:2848   */\n      pop\n        /* \"#utility.yul\":2887:2889   */\n      0x40\n        /* \"#utility.yul\":2913:2966   */\n      tag_202\n        /* \"#utility.yul\":2958:2965   */\n      dup7\n        /* \"#utility.yul\":2949:2955   */\n      dup3\n        /* \"#utility.yul\":2938:2947   */\n      dup8\n        /* \"#utility.yul\":2934:2956   */\n      add\n        /* \"#utility.yul\":2913:2966   */\n      tag_125\n      jump\t// in\n    tag_202:\n        /* \"#utility.yul\":2903:2966   */\n      swap2\n      pop\n        /* \"#utility.yul\":2858:2976   */\n      pop\n        /* \"#utility.yul\":2364:2983   */\n      swap3\n      pop\n      swap3\n      pop\n      swap3\n      jump\t// out\n        /* \"#utility.yul\":2989:3318   */\n    tag_35:\n        /* \"#utility.yul\":3048:3054   */\n      0x00\n        /* \"#utility.yul\":3097:3099   */\n      0x20\n        /* \"#utility.yul\":3085:3094   */\n      dup3\n        /* \"#utility.yul\":3076:3083   */\n      dup5\n        /* \"#utility.yul\":3072:3095   */\n      sub\n        /* \"#utility.yul\":3068:3100   */\n      slt\n        /* \"#utility.yul\":3065:3184   */\n      iszero\n      tag_204\n      jumpi\n        /* \"#utility.yul\":3103:3182   */\n      tag_205\n      tag_121\n      jump\t// in\n    tag_205:\n        /* \"#utility.yul\":3065:3184   */\n    tag_204:\n        /* \"#utility.yul\":3223:3224   */\n      0x00\n        /* \"#utility.yul\":3248:3301   */\n      tag_206\n        /* \"#utility.yul\":3293:3300   */\n      dup5\n        /* \"#utility.yul\":3284:3290   */\n      dup3\n        /* \"#utility.yul\":3273:3282   */\n      dup6\n        /* \"#utility.yul\":3269:3291   */\n      add\n        /* \"#utility.yul\":3248:3301   */\n      tag_130\n      jump\t// in\n    tag_206:\n        /* \"#utility.yul\":3238:3301   */\n      swap2\n      pop\n        /* \"#utility.yul\":3194:3311   */\n      pop\n        /* \"#utility.yul\":2989:3318   */\n      swap3\n      swap2\n      pop\n      pop\n      jump\t// out\n        /* \"#utility.yul\":3324:3442   */\n    tag_131:\n        /* \"#utility.yul\":3411:3435   */\n      tag_208\n        /* \"#utility.yul\":3429:3434   */\n      dup2\n        /* \"#utility.yul\":3411:3435   */\n      tag_123\n      jump\t// in\n    tag_208:\n        /* \"#utility.yul\":3406:3409   */\n      dup3\n        /* \"#utility.yul\":3399:3436   */\n      mstore\n        /* \"#utility.yul\":3324:3442   */\n      pop\n      pop\n      jump\t// out\n        /* \"#utility.yul\":3448:3670   */\n    tag_38:\n        /* \"#utility.yul\":3541:3545   */\n      0x00\n        /* \"#utility.yul\":3579:3581   */\n      0x20\n        /* \"#utility.yul\":3568:3577   */\n      dup3\n        /* \"#utility.yul\":3564:3582   */\n      add\n        /* \"#utility.yul\":3556:3582   */\n      swap1\n      pop\n        /* \"#utility.yul\":3592:3663   */\n      tag_210\n        /* \"#utility.yul\":3660:3661   */\n      0x00\n        /* \"#utility.yul\":3649:3658   */\n      dup4\n        /* \"#utility.yul\":3645:3662   */\n      add\n        /* \"#utility.yul\":3636:3642   */\n      dup5\n        /* \"#utility.yul\":3592:3663   */\n      tag_131\n      jump\t// in\n    tag_210:\n        /* \"#utility.yul\":3448:3670   */\n      swap3\n      swap2\n      pop\n      pop\n      jump\t// out\n        /* \"#utility.yul\":3676:3766   */\n    tag_132:\n        /* \"#utility.yul\":3710:3717   */\n      0x00\n        /* \"#utility.yul\":3753:3758   */\n      dup2\n        /* \"#utility.yul\":3746:3759   */\n      iszero\n        /* \"#utility.yul\":3739:3760   */\n      iszero\n        /* \"#utility.yul\":3728:3760   */\n      swap1\n      pop\n        /* \"#utility.yul\":3676:3766   */\n      swap2\n      swap1\n      pop\n      jump\t// out\n        /* \"#utility.yul\":3772:3888   */\n    tag_133:\n        /* \"#utility.yul\":3842:3863   */\n      tag_213\n        /* \"#utility.yul\":3857:3862   */\n      dup2\n        /* \"#utility.yul\":3842:3863   */\n      tag_132\n      jump\t// in\n    tag_213:\n        /* \"#utility.yul\":3835:3840   */\n      dup2\n        /* \"#utility.yul\":3832:3864   */\n      eq\n        /* \"#utility.yul\":3822:3882   */\n      tag_214\n      jumpi\n        /* \"#utility.yul\":3878:3879   */\n      0x00\n        /* \"#utility.yul\":3875:3876   */\n      dup1\n        /* \"#utility.yul\":3868:3880   */\n      revert\n        /* \"#utility.yul\":3822:3882   */\n    tag_214:\n        /* \"#utility.yul\":3772:3888   */\n      pop\n      jump\t// out\n        /* \"#utility.yul\":3894:4027   */\n    tag_134:\n        /* \"#utility.yul\":3937:3942   */\n      0x00\n        /* \"#utility.yul\":3975:3981   */\n      dup2\n        /* \"#utility.yul\":3962:3982   */\n      calldataload\n        /* \"#utility.yul\":3953:3982   */\n      swap1\n      pop\n        /* \"#utility.yul\":3991:4021   */\n      tag_216\n        /* \"#utility.yul\":4015:4020   */\n      dup2\n        /* \"#utility.yul\":3991:4021   */\n      tag_133\n      jump\t// in\n    tag_216:\n        /* \"#utility.yul\":3894:4027   */\n      swap3\n      swap2\n      pop\n      pop\n      jump\t// out\n        /* \"#utility.yul\":4033:4501   */\n    tag_41:\n        /* \"#utility.yul\":4098:4104   */\n      0x00\n        /* \"#utility.yul\":4106:4112   */\n      dup1\n        /* \"#utility.yul\":4155:4157   */\n      0x40\n        /* \"#utility.yul\":4143:4152   */\n      dup4\n        /* \"#utility.yul\":4134:4141   */\n      dup6\n        /* \"#utility.yul\":4130:4153   */\n      sub\n        /* \"#utility.yul\":4126:4158   */\n      slt\n        /* \"#utility.yul\":4123:4242   */\n      iszero\n      tag_218\n      jumpi\n        /* \"#utility.yul\":4161:4240   */\n      tag_219\n      tag_121\n      jump\t// in\n    tag_219:\n        /* \"#utility.yul\":4123:4242   */\n    tag_218:\n        /* \"#utility.yul\":4281:4282   */\n      0x00\n        /* \"#utility.yul\":4306:4359   */\n      tag_220\n        /* \"#utility.yul\":4351:4358   */\n      dup6\n        /* \"#utility.yul\":4342:4348   */\n      dup3\n        /* \"#utility.yul\":4331:4340   */\n      dup7\n        /* \"#utility.yul\":4327:4349   */\n      add\n        /* \"#utility.yul\":4306:4359   */\n      tag_130\n      jump\t// in\n    tag_220:\n        /* \"#utility.yul\":4296:4359   */\n      swap3\n      pop\n        /* \"#utility.yul\":4252:4369   */\n      pop\n        /* \"#utility.yul\":4408:4410   */\n      0x20\n        /* \"#utility.yul\":4434:4484   */\n      tag_221\n        /* \"#utility.yul\":4476:4483   */\n      dup6\n        /* \"#utility.yul\":4467:4473   */\n      dup3\n        /* \"#utility.yul\":4456:4465   */\n      dup7\n        /* \"#utility.yul\":4452:4474   */\n      add\n        /* \"#utility.yul\":4434:4484   */\n      tag_134\n      jump\t// in\n    tag_221:\n        /* \"#utility.yul\":4424:4484   */\n      swap2\n      pop\n        /* \"#utility.yul\":4379:4494   */\n      pop\n        /* \"#utility.yul\":4033:4501   */\n      swap3\n      pop\n      swap3\n      swap1\n      pop\n      jump\t// out\n        /* \"#utility.yul\":4507:4981   */\n    tag_45:\n        /* \"#utility.yul\":4575:4581   */\n      0x00\n        /* \"#utility.yul\":4583:4589   */\n      dup1\n        /* \"#utility.yul\":4632:4634   */\n      0x40\n        /* \"#utility.yul\":4620:4629   */\n      dup4\n        /* \"#utility.yul\":4611:4618   */\n      dup6\n        /* \"#utility.yul\":4607:4630   */\n      sub\n        /* \"#utility.yul\":4603:4635   */\n      slt\n        /* \"#utility.yul\":4600:4719   */\n      iszero\n      tag_223\n      jumpi\n        /* \"#utility.yul\":4638:4717   */\n      tag_224\n      tag_121\n      jump\t// in\n    tag_224:\n        /* \"#utility.yul\":4600:4719   */\n    tag_223:\n        /* \"#utility.yul\":4758:4759   */\n      0x00\n        /* \"#utility.yul\":4783:4836   */\n      tag_225\n        /* \"#utility.yul\":4828:4835   */\n      dup6\n        /* \"#utility.yul\":4819:4825   */\n      dup3\n        /* \"#utility.yul\":4808:4817   */\n      dup7\n        /* \"#utility.yul\":4804:4826   */\n      add\n        /* \"#utility.yul\":4783:4836   */\n      tag_130\n      jump\t// in\n    tag_225:\n        /* \"#utility.yul\":4773:4836   */\n      swap3\n      pop\n        /* \"#utility.yul\":4729:4846   */\n      pop\n        /* \"#utility.yul\":4885:4887   */\n      0x20\n        /* \"#utility.yul\":4911:4964   */\n      tag_226\n        /* \"#utility.yul\":4956:4963   */\n      dup6\n        /* \"#utility.yul\":4947:4953   */\n      dup3\n        /* \"#utility.yul\":4936:4945   */\n      dup7\n        /* \"#utility.yul\":4932:4954   */\n      add\n        /* \"#utility.yul\":4911:4964   */\n      tag_130\n      jump\t// in\n    tag_226:\n        /* \"#utility.yul\":4901:4964   */\n      swap2\n      pop\n        /* \"#utility.yul\":4856:4974   */\n      pop\n        /* \"#utility.yul\":4507:4981   */\n      swap3\n      pop\n      swap3\n      swap1\n      pop\n      jump\t// out\n        /* \"#utility.yul\":4987:5096   */\n    tag_135:\n        /* \"#utility.yul\":5068:5089   */\n      tag_228\n        /* \"#utility.yul\":5083:5088   */\n      dup2\n        /* \"#utility.yul\":5068:5089   */\n      tag_132\n      jump\t// in\n    tag_228:\n        /* \"#utility.yul\":5063:5066   */\n      dup3\n        /* \"#utility.yul\":5056:5090   */\n      mstore\n        /* \"#utility.yul\":4987:5096   */\n      pop\n      pop\n      jump\t// out\n        /* \"#utility.yul\":5102:5312   */\n    tag_48:\n        /* \"#utility.yul\":5189:5193   */\n      0x00\n        /* \"#utility.yul\":5227:5229   */\n      0x20\n        /* \"#utility.yul\":5216:5225   */\n      dup3\n        /* \"#utility.yul\":5212:5230   */\n      add\n        /* \"#utility.yul\":5204:5230   */\n      swap1\n      pop\n        /* \"#utility.yul\":5240:5305   */\n      tag_230\n        /* \"#utility.yul\":5302:5303   */\n      0x00\n        /* \"#utility.yul\":5291:5300   */\n      dup4\n        /* \"#utility.yul\":5287:5304   */\n      add\n        /* \"#utility.yul\":5278:5284   */\n      dup5\n        /* \"#utility.yul\":5240:5305   */\n      tag_135\n      jump\t// in\n    tag_230:\n        /* \"#utility.yul\":5102:5312   */\n      swap3\n      swap2\n      pop\n      pop\n      jump\t// out\n        /* \"#utility.yul\":5318:5487   */\n    tag_136:\n        /* \"#utility.yul\":5402:5413   */\n      0x00\n        /* \"#utility.yul\":5436:5442   */\n      dup3\n        /* \"#utility.yul\":5431:5434   */\n      dup3\n        /* \"#utility.yul\":5424:5443   */\n      mstore\n        /* \"#utility.yul\":5476:5480   */\n      0x20\n        /* \"#utility.yul\":5471:5474   */\n      dup3\n        /* \"#utility.yul\":5467:5481   */\n      add\n        /* \"#utility.yul\":5452:5481   */\n      swap1\n      pop\n        /* \"#utility.yul\":5318:5487   */\n      swap3\n      swap2\n      pop\n      pop\n      jump\t// out\n        /* \"#utility.yul\":5493:5724   */\n    tag_137:\n        /* \"#utility.yul\":5633:5667   */\n      0x4552433732313a20617070726f76656420717565727920666f72206e6f6e6578\n        /* \"#utility.yul\":5629:5630   */\n      0x00\n        /* \"#utility.yul\":5621:5627   */\n      dup3\n        /* \"#utility.yul\":5617:5631   */\n      add\n        /* \"#utility.yul\":5610:5668   */\n      mstore\n        /* \"#utility.yul\":5702:5716   */\n      0x697374656e7420746f6b656e0000000000000000000000000000000000000000\n        /* \"#utility.yul\":5697:5699   */\n      0x20\n        /* \"#utility.yul\":5689:5695   */\n      dup3\n        /* \"#utility.yul\":5685:5700   */\n      add\n        /* \"#utility.yul\":5678:5717   */\n      mstore\n        /* \"#utility.yul\":5493:5724   */\n      pop\n      jump\t// out\n        /* \"#utility.yul\":5730:6096   */\n    tag_138:\n        /* \"#utility.yul\":5872:5875   */\n      0x00\n        /* \"#utility.yul\":5893:5960   */\n      tag_234\n        /* \"#utility.yul\":5957:5959   */\n      0x2c\n        /* \"#utility.yul\":5952:5955   */\n      dup4\n        /* \"#utility.yul\":5893:5960   */\n      tag_136\n      jump\t// in\n    tag_234:\n        /* \"#utility.yul\":5886:5960   */\n      swap2\n      pop\n        /* \"#utility.yul\":5969:6062   */\n      tag_235\n        /* \"#utility.yul\":6058:6061   */\n      dup3\n        /* \"#utility.yul\":5969:6062   */\n      tag_137\n      jump\t// in\n    tag_235:\n        /* \"#utility.yul\":6087:6089   */\n      0x40\n        /* \"#utility.yul\":6082:6085   */\n      dup3\n        /* \"#utility.yul\":6078:6090   */\n      add\n        /* \"#utility.yul\":6071:6090   */\n      swap1\n      pop\n        /* \"#utility.yul\":5730:6096   */\n      swap2\n      swap1\n      pop\n      jump\t// out\n        /* \"#utility.yul\":6102:6521   */\n    tag_52:\n        /* \"#utility.yul\":6268:6272   */\n      0x00\n        /* \"#utility.yul\":6306:6308   */\n      0x20\n        /* \"#utility.yul\":6295:6304   */\n      dup3\n        /* \"#utility.yul\":6291:6309   */\n      add\n        /* \"#utility.yul\":6283:6309   */\n      swap1\n      pop\n        /* \"#utility.yul\":6355:6364   */\n      dup2\n        /* \"#utility.yul\":6349:6353   */\n      dup2\n        /* \"#utility.yul\":6345:6365   */\n      sub\n        /* \"#utility.yul\":6341:6342   */\n      0x00\n        /* \"#utility.yul\":6330:6339   */\n      dup4\n        /* \"#utility.yul\":6326:6343   */\n      add\n        /* \"#utility.yul\":6319:6366   */\n      mstore\n        /* \"#utility.yul\":6383:6514   */\n      tag_237\n        /* \"#utility.yul\":6509:6513   */\n      dup2\n        /* \"#utility.yul\":6383:6514   */\n      tag_138\n      jump\t// in\n    tag_237:\n        /* \"#utility.yul\":6375:6514   */\n      swap1\n      pop\n        /* \"#utility.yul\":6102:6521   */\n      swap2\n      swap1\n      pop\n      jump\t// out\n        /* \"#utility.yul\":6527:6747   */\n    tag_139:\n        /* \"#utility.yul\":6667:6701   */\n      0x4552433732313a20617070726f76616c20746f2063757272656e74206f776e65\n        /* \"#utility.yul\":6663:6664   */\n      0x00\n        /* \"#utility.yul\":6655:6661   */\n      dup3\n        /* \"#utility.yul\":6651:6665   */\n      add\n        /* \"#utility.yul\":6644:6702   */\n      mstore\n        /* \"#utility.yul\":6736:6739   */\n      0x7200000000000000000000000000000000000000000000000000000000000000\n        /* \"#utility.yul\":6731:6733   */\n      0x20\n        /* \"#utility.yul\":6723:6729   */\n      dup3\n        /* \"#utility.yul\":6719:6734   */\n      add\n        /* \"#utility.yul\":6712:6740   */\n      mstore\n        /* \"#utility.yul\":6527:6747   */\n      pop\n      jump\t// out\n        /* \"#utility.yul\":6753:7119   */\n    tag_140:\n        /* \"#utility.yul\":6895:6898   */\n      0x00\n        /* \"#utility.yul\":6916:6983   */\n      tag_240\n        /* \"#utility.yul\":6980:6982   */\n      0x21\n        /* \"#utility.yul\":6975:6978   */\n      dup4\n        /* \"#utility.yul\":6916:6983   */\n      tag_136\n      jump\t// in\n    tag_240:\n        /* \"#utility.yul\":6909:6983   */\n      swap2\n      pop\n        /* \"#utility.yul\":6992:7085   */\n      tag_241\n        /* \"#utility.yul\":7081:7084   */\n      dup3\n        /* \"#utility.yul\":6992:7085   */\n      tag_139\n      jump\t// in\n    tag_241:\n        /* \"#utility.yul\":7110:7112   */\n      0x40\n        /* \"#utility.yul\":7105:7108   */\n      dup3\n        /* \"#utility.yul\":7101:7113   */\n      add\n        /* \"#utility.yul\":7094:7113   */\n      swap1\n      pop\n        /* \"#utility.yul\":6753:7119   */\n      swap2\n      swap1\n      pop\n      jump\t// out\n        /* \"#utility.yul\":7125:7544   */\n    tag_57:\n        /* \"#utility.yul\":7291:7295   */\n      0x00\n        /* \"#utility.yul\":7329:7331   */\n      0x20\n        /* \"#utility.yul\":7318:7327   */\n      dup3\n        /* \"#utility.yul\":7314:7332   */\n      add\n        /* \"#utility.yul\":7306:7332   */\n      swap1\n      pop\n        /* \"#utility.yul\":7378:7387   */\n      dup2\n        /* \"#utility.yul\":7372:7376   */\n      dup2\n        /* \"#utility.yul\":7368:7388   */\n      sub\n        /* \"#utility.yul\":7364:7365   */\n      0x00\n        /* \"#utility.yul\":7353:7362   */\n      dup4\n        /* \"#utility.yul\":7349:7366   */\n      add\n        /* \"#utility.yul\":7342:7389   */\n      mstore\n        /* \"#utility.yul\":7406:7537   */\n      tag_243\n        /* \"#utility.yul\":7532:7536   */\n      dup2\n        /* \"#utility.yul\":7406:7537   */\n      tag_140\n      jump\t// in\n    tag_243:\n        /* \"#utility.yul\":7398:7537   */\n      swap1\n      pop\n        /* \"#utility.yul\":7125:7544   */\n      swap2\n      swap1\n      pop\n      jump\t// out\n        /* \"#utility.yul\":7550:7793   */\n    tag_141:\n        /* \"#utility.yul\":7690:7724   */\n      0x4552433732313a20617070726f76652063616c6c6572206973206e6f74206f77\n        /* \"#utility.yul\":7686:7687   */\n      0x00\n        /* \"#utility.yul\":7678:7684   */\n      dup3\n        /* \"#utility.yul\":7674:7688   */\n      add\n        /* \"#utility.yul\":7667:7725   */\n      mstore\n        /* \"#utility.yul\":7759:7785   */\n      0x6e6572206e6f7220617070726f76656420666f7220616c6c0000000000000000\n        /* \"#utility.yul\":7754:7756   */\n      0x20\n        /* \"#utility.yul\":7746:7752   */\n      dup3\n        /* \"#utility.yul\":7742:7757   */\n      add\n        /* \"#utility.yul\":7735:7786   */\n      mstore\n        /* \"#utility.yul\":7550:7793   */\n      pop\n      jump\t// out\n        /* \"#utility.yul\":7799:8165   */\n    tag_142:\n        /* \"#utility.yul\":7941:7944   */\n      0x00\n        /* \"#utility.yul\":7962:8029   */\n      tag_246\n        /* \"#utility.yul\":8026:8028   */\n      0x38\n        /* \"#utility.yul\":8021:8024   */\n      dup4\n        /* \"#utility.yul\":7962:8029   */\n      tag_136\n      jump\t// in\n    tag_246:\n        /* \"#utility.yul\":7955:8029   */\n      swap2\n      pop\n        /* \"#utility.yul\":8038:8131   */\n      tag_247\n        /* \"#utility.yul\":8127:8130   */\n      dup3\n        /* \"#utility.yul\":8038:8131   */\n      tag_141\n      jump\t// in\n    tag_247:\n        /* \"#utility.yul\":8156:8158   */\n      0x40\n        /* \"#utility.yul\":8151:8154   */\n      dup3\n        /* \"#utility.yul\":8147:8159   */\n      add\n        /* \"#utility.yul\":8140:8159   */\n      swap1\n      pop\n        /* \"#utility.yul\":7799:8165   */\n      swap2\n      swap1\n      pop\n      jump\t// out\n        /* \"#utility.yul\":8171:8590   */\n    tag_62:\n        /* \"#utility.yul\":8337:8341   */\n      0x00\n        /* \"#utility.yul\":8375:8377   */\n      0x20\n        /* \"#utility.yul\":8364:8373   */\n      dup3\n        /* \"#utility.yul\":8360:8378   */\n      add\n        /* \"#utility.yul\":8352:8378   */\n      swap1\n      pop\n        /* \"#utility.yul\":8424:8433   */\n      dup2\n        /* \"#utility.yul\":8418:8422   */\n      dup2\n        /* \"#utility.yul\":8414:8434   */\n      sub\n        /* \"#utility.yul\":8410:8411   */\n      0x00\n        /* \"#utility.yul\":8399:8408   */\n      dup4\n        /* \"#utility.yul\":8395:8412   */\n      add\n        /* \"#utility.yul\":8388:8435   */\n      mstore\n        /* \"#utility.yul\":8452:8583   */\n      tag_249\n        /* \"#utility.yul\":8578:8582   */\n      dup2\n        /* \"#utility.yul\":8452:8583   */\n      tag_142\n      jump\t// in\n    tag_249:\n        /* \"#utility.yul\":8444:8583   */\n      swap1\n      pop\n        /* \"#utility.yul\":8171:8590   */\n      swap2\n      swap1\n      pop\n      jump\t// out\n        /* \"#utility.yul\":8596:8832   */\n    tag_143:\n        /* \"#utility.yul\":8736:8770   */\n      0x4552433732313a207472616e736665722063616c6c6572206973206e6f74206f\n        /* \"#utility.yul\":8732:8733   */\n      0x00\n        /* \"#utility.yul\":8724:8730   */\n      dup3\n        /* \"#utility.yul\":8720:8734   */\n      add\n        /* \"#utility.yul\":8713:8771   */\n      mstore\n        /* \"#utility.yul\":8805:8824   */\n      0x776e6572206e6f7220617070726f766564000000000000000000000000000000\n        /* \"#utility.yul\":8800:8802   */\n      0x20\n        /* \"#utility.yul\":8792:8798   */\n      dup3\n        /* \"#utility.yul\":8788:8803   */\n      add\n        /* \"#utility.yul\":8781:8825   */\n      mstore\n        /* \"#utility.yul\":8596:8832   */\n      pop\n      jump\t// out\n        /* \"#utility.yul\":8838:9204   */\n    tag_144:\n        /* \"#utility.yul\":8980:8983   */\n      0x00\n        /* \"#utility.yul\":9001:9068   */\n      tag_252\n        /* \"#utility.yul\":9065:9067   */\n      0x31\n        /* \"#utility.yul\":9060:9063   */\n      dup4\n        /* \"#utility.yul\":9001:9068   */\n      tag_136\n      jump\t// in\n    tag_252:\n        /* \"#utility.yul\":8994:9068   */\n      swap2\n      pop\n        /* \"#utility.yul\":9077:9170   */\n      tag_253\n        /* \"#utility.yul\":9166:9169   */\n      dup3\n        /* \"#utility.yul\":9077:9170   */\n      tag_143\n      jump\t// in\n    tag_253:\n        /* \"#utility.yul\":9195:9197   */\n      0x40\n        /* \"#utility.yul\":9190:9193   */\n      dup3\n        /* \"#utility.yul\":9186:9198   */\n      add\n        /* \"#utility.yul\":9179:9198   */\n      swap1\n      pop\n        /* \"#utility.yul\":8838:9204   */\n      swap2\n      swap1\n      pop\n      jump\t// out\n        /* \"#utility.yul\":9210:9629   */\n    tag_71:\n        /* \"#utility.yul\":9376:9380   */\n      0x00\n        /* \"#utility.yul\":9414:9416   */\n      0x20\n        /* \"#utility.yul\":9403:9412   */\n      dup3\n        /* \"#utility.yul\":9399:9417   */\n      add\n        /* \"#utility.yul\":9391:9417   */\n      swap1\n      pop\n        /* \"#utility.yul\":9463:9472   */\n      dup2\n        /* \"#utility.yul\":9457:9461   */\n      dup2\n        /* \"#utility.yul\":9453:9473   */\n      sub\n        /* \"#utility.yul\":9449:9450   */\n      0x00\n        /* \"#utility.yul\":9438:9447   */\n      dup4\n        /* \"#utility.yul\":9434:9451   */\n      add\n        /* \"#utility.yul\":9427:9474   */\n      mstore\n        /* \"#utility.yul\":9491:9622   */\n      tag_255\n        /* \"#utility.yul\":9617:9621   */\n      dup2\n        /* \"#utility.yul\":9491:9622   */\n      tag_144\n      jump\t// in\n    tag_255:\n        /* \"#utility.yul\":9483:9622   */\n      swap1\n      pop\n        /* \"#utility.yul\":9210:9629   */\n      swap2\n      swap1\n      pop\n      jump\t// out\n        /* \"#utility.yul\":9635:9865   */\n    tag_145:\n        /* \"#utility.yul\":9775:9809   */\n      0x4552433732313a207472616e73666572206f6620746f6b656e20746861742069\n        /* \"#utility.yul\":9771:9772   */\n      0x00\n        /* \"#utility.yul\":9763:9769   */\n      dup3\n        /* \"#utility.yul\":9759:9773   */\n      add\n        /* \"#utility.yul\":9752:9810   */\n      mstore\n        /* \"#utility.yul\":9844:9857   */\n      0x73206e6f74206f776e6564000000000000000000000000000000000000000000\n        /* \"#utility.yul\":9839:9841   */\n      0x20\n        /* \"#utility.yul\":9831:9837   */\n      dup3\n        /* \"#utility.yul\":9827:9842   */\n      add\n        /* \"#utility.yul\":9820:9858   */\n      mstore\n        /* \"#utility.yul\":9635:9865   */\n      pop\n      jump\t// out\n        /* \"#utility.yul\":9871:10237   */\n    tag_146:\n        /* \"#utility.yul\":10013:10016   */\n      0x00\n        /* \"#utility.yul\":10034:10101   */\n      tag_258\n        /* \"#utility.yul\":10098:10100   */\n      0x2b\n        /* \"#utility.yul\":10093:10096   */\n      dup4\n        /* \"#utility.yul\":10034:10101   */\n      tag_136\n      jump\t// in\n    tag_258:\n        /* \"#utility.yul\":10027:10101   */\n      swap2\n      pop\n        /* \"#utility.yul\":10110:10203   */\n      tag_259\n        /* \"#utility.yul\":10199:10202   */\n      dup3\n        /* \"#utility.yul\":10110:10203   */\n      tag_145\n      jump\t// in\n    tag_259:\n        /* \"#utility.yul\":10228:10230   */\n      0x40\n        /* \"#utility.yul\":10223:10226   */\n      dup3\n        /* \"#utility.yul\":10219:10231   */\n      add\n        /* \"#utility.yul\":10212:10231   */\n      swap1\n      pop\n        /* \"#utility.yul\":9871:10237   */\n      swap2\n      swap1\n      pop\n      jump\t// out\n        /* \"#utility.yul\":10243:10662   */\n    tag_74:\n        /* \"#utility.yul\":10409:10413   */\n      0x00\n        /* \"#utility.yul\":10447:10449   */\n      0x20\n        /* \"#utility.yul\":10436:10445   */\n      dup3\n        /* \"#utility.yul\":10432:10450   */\n      add\n        /* \"#utility.yul\":10424:10450   */\n      swap1\n      pop\n        /* \"#utility.yul\":10496:10505   */\n      dup2\n        /* \"#utility.yul\":10490:10494   */\n      dup2\n        /* \"#utility.yul\":10486:10506   */\n      sub\n        /* \"#utility.yul\":10482:10483   */\n      0x00\n        /* \"#utility.yul\":10471:10480   */\n      dup4\n        /* \"#utility.yul\":10467:10484   */\n      add\n        /* \"#utility.yul\":10460:10507   */\n      mstore\n        /* \"#utility.yul\":10524:10655   */\n      tag_261\n        /* \"#utility.yul\":10650:10654   */\n      dup2\n        /* \"#utility.yul\":10524:10655   */\n      tag_146\n      jump\t// in\n    tag_261:\n        /* \"#utility.yul\":10516:10655   */\n      swap1\n      pop\n        /* \"#utility.yul\":10243:10662   */\n      swap2\n      swap1\n      pop\n      jump\t// out\n        /* \"#utility.yul\":10668:10891   */\n    tag_147:\n        /* \"#utility.yul\":10808:10842   */\n      0x4552433732313a207472616e7366657220746f20746865207a65726f20616464\n        /* \"#utility.yul\":10804:10805   */\n      0x00\n        /* \"#utility.yul\":10796:10802   */\n      dup3\n        /* \"#utility.yul\":10792:10806   */\n      add\n        /* \"#utility.yul\":10785:10843   */\n      mstore\n        /* \"#utility.yul\":10877:10883   */\n      0x7265737300000000000000000000000000000000000000000000000000000000\n        /* \"#utility.yul\":10872:10874   */\n      0x20\n        /* \"#utility.yul\":10864:10870   */\n      dup3\n        /* \"#utility.yul\":10860:10875   */\n      add\n        /* \"#utility.yul\":10853:10884   */\n      mstore\n        /* \"#utility.yul\":10668:10891   */\n      pop\n      jump\t// out\n        /* \"#utility.yul\":10897:11263   */\n    tag_148:\n        /* \"#utility.yul\":11039:11042   */\n      0x00\n        /* \"#utility.yul\":11060:11127   */\n      tag_264\n        /* \"#utility.yul\":11124:11126   */\n      0x24\n        /* \"#utility.yul\":11119:11122   */\n      dup4\n        /* \"#utility.yul\":11060:11127   */\n      tag_136\n      jump\t// in\n    tag_264:\n        /* \"#utility.yul\":11053:11127   */\n      swap2\n      pop\n        /* \"#utility.yul\":11136:11229   */\n      tag_265\n        /* \"#utility.yul\":11225:11228   */\n      dup3\n        /* \"#utility.yul\":11136:11229   */\n      tag_147\n      jump\t// in\n    tag_265:\n        /* \"#utility.yul\":11254:11256   */\n      0x40\n        /* \"#utility.yul\":11249:11252   */\n      dup3\n        /* \"#utility.yul\":11245:11257   */\n      add\n        /* \"#utility.yul\":11238:11257   */\n      swap1\n      pop\n        /* \"#utility.yul\":10897:11263   */\n      swap2\n      swap1\n      pop\n      jump\t// out\n        /* \"#utility.yul\":11269:11688   */\n    tag_77:\n        /* \"#utility.yul\":11435:11439   */\n      0x00\n        /* \"#utility.yul\":11473:11475   */\n      0x20\n        /* \"#utility.yul\":11462:11471   */\n      dup3\n        /* \"#utility.yul\":11458:11476   */\n      add\n        /* \"#utility.yul\":11450:11476   */\n      swap1\n      pop\n        /* \"#utility.yul\":11522:11531   */\n      dup2\n        /* \"#utility.yul\":11516:11520   */\n      dup2\n        /* \"#utility.yul\":11512:11532   */\n      sub\n        /* \"#utility.yul\":11508:11509   */\n      0x00\n        /* \"#utility.yul\":11497:11506   */\n      dup4\n        /* \"#utility.yul\":11493:11510   */\n      add\n        /* \"#utility.yul\":11486:11533   */\n      mstore\n        /* \"#utility.yul\":11550:11681   */\n      tag_267\n        /* \"#utility.yul\":11676:11680   */\n      dup2\n        /* \"#utility.yul\":11550:11681   */\n      tag_148\n      jump\t// in\n    tag_267:\n        /* \"#utility.yul\":11542:11681   */\n      swap1\n      pop\n        /* \"#utility.yul\":11269:11688   */\n      swap2\n      swap1\n      pop\n      jump\t// out\n        /* \"#utility.yul\":11694:11874   */\n    tag_149:\n        /* \"#utility.yul\":11742:11819   */\n      0x4e487b7100000000000000000000000000000000000000000000000000000000\n        /* \"#utility.yul\":11739:11740   */\n      0x00\n        /* \"#utility.yul\":11732:11820   */\n      mstore\n        /* \"#utility.yul\":11839:11843   */\n      0x11\n        /* \"#utility.yul\":11836:11837   */\n      0x04\n        /* \"#utility.yul\":11829:11844   */\n      mstore\n        /* \"#utility.yul\":11863:11867   */\n      0x24\n        /* \"#utility.yul\":11860:11861   */\n      0x00\n        /* \"#utility.yul\":11853:11868   */\n      revert\n        /* \"#utility.yul\":11880:12074   */\n    tag_81:\n        /* \"#utility.yul\":11920:11924   */\n      0x00\n        /* \"#utility.yul\":11940:11960   */\n      tag_270\n        /* \"#utility.yul\":11958:11959   */\n      dup3\n        /* \"#utility.yul\":11940:11960   */\n      tag_123\n      jump\t// in\n    tag_270:\n        /* \"#utility.yul\":11935:11960   */\n      swap2\n      pop\n        /* \"#utility.yul\":11974:11994   */\n      tag_271\n        /* \"#utility.yul\":11992:11993   */\n      dup4\n        /* \"#utility.yul\":11974:11994   */\n      tag_123\n      jump\t// in\n    tag_271:\n        /* \"#utility.yul\":11969:11994   */\n      swap3\n      pop\n        /* \"#utility.yul\":12018:12019   */\n      dup3\n        /* \"#utility.yul\":12015:12016   */\n      dup3\n        /* \"#utility.yul\":12011:12020   */\n      sub\n        /* \"#utility.yul\":12003:12020   */\n      swap1\n      pop\n        /* \"#utility.yul\":12042:12043   */\n      dup2\n        /* \"#utility.yul\":12036:12040   */\n      dup2\n        /* \"#utility.yul\":12033:12044   */\n      gt\n        /* \"#utility.yul\":12030:12067   */\n      iszero\n      tag_272\n      jumpi\n        /* \"#utility.yul\":12047:12065   */\n      tag_273\n      tag_149\n      jump\t// in\n    tag_273:\n        /* \"#utility.yul\":12030:12067   */\n    tag_272:\n        /* \"#utility.yul\":11880:12074   */\n      swap3\n      swap2\n      pop\n      pop\n      jump\t// out\n        /* \"#utility.yul\":12080:12271   */\n    tag_83:\n        /* \"#utility.yul\":12120:12123   */\n      0x00\n        /* \"#utility.yul\":12139:12159   */\n      tag_275\n        /* \"#utility.yul\":12157:12158   */\n      dup3\n        /* \"#utility.yul\":12139:12159   */\n      tag_123\n      jump\t// in\n    tag_275:\n        /* \"#utility.yul\":12134:12159   */\n      swap2\n      pop\n        /* \"#utility.yul\":12173:12193   */\n      tag_276\n        /* \"#utility.yul\":12191:12192   */\n      dup4\n        /* \"#utility.yul\":12173:12193   */\n      tag_123\n      jump\t// in\n    tag_276:\n        /* \"#utility.yul\":12168:12193   */\n      swap3\n      pop\n        /* \"#utility.yul\":12216:12217   */\n      dup3\n        /* \"#utility.yul\":12213:12214   */\n      dup3\n        /* \"#utility.yul\":12209:12218   */\n      add\n        /* \"#utility.yul\":12202:12218   */\n      swap1\n      pop\n        /* \"#utility.yul\":12237:12240   */\n      dup1\n        /* \"#utility.yul\":12234:12235   */\n      dup3\n        /* \"#utility.yul\":12231:12241   */\n      gt\n        /* \"#utility.yul\":12228:12264   */\n      iszero\n      tag_277\n      jumpi\n        /* \"#utility.yul\":12244:12262   */\n      tag_278\n      tag_149\n      jump\t// in\n    tag_278:\n        /* \"#utility.yul\":12228:12264   */\n    tag_277:\n        /* \"#utility.yul\":12080:12271   */\n      swap3\n      swap2\n      pop\n      pop\n      jump\t// out\n        /* \"#utility.yul\":12277:12514   */\n    tag_150:\n        /* \"#utility.yul\":12417:12451   */\n      0x4552433732313a207472616e7366657220746f206e6f6e204552433732315265\n        /* \"#utility.yul\":12413:12414   */\n      0x00\n        /* \"#utility.yul\":12405:12411   */\n      dup3\n        /* \"#utility.yul\":12401:12415   */\n      add\n        /* \"#utility.yul\":12394:12452   */\n      mstore\n        /* \"#utility.yul\":12486:12506   */\n      0x63656976657220696d706c656d656e7465720000000000000000000000000000\n        /* \"#utility.yul\":12481:12483   */\n      0x20\n        /* \"#utility.yul\":12473:12479   */\n      dup3\n        /* \"#utility.yul\":12469:12484   */\n      add\n        /* \"#utility.yul\":12462:12507   */\n      mstore\n        /* \"#utility.yul\":12277:12514   */\n      pop\n      jump\t// out\n        /* \"#utility.yul\":12520:12886   */\n    tag_151:\n        /* \"#utility.yul\":12662:12665   */\n      0x00\n        /* \"#utility.yul\":12683:12750   */\n      tag_281\n        /* \"#utility.yul\":12747:12749   */\n      0x32\n        /* \"#utility.yul\":12742:12745   */\n      dup4\n        /* \"#utility.yul\":12683:12750   */\n      tag_136\n      jump\t// in\n    tag_281:\n        /* \"#utility.yul\":12676:12750   */\n      swap2\n      pop\n        /* \"#utility.yul\":12759:12852   */\n      tag_282\n        /* \"#utility.yul\":12848:12851   */\n      dup3\n        /* \"#utility.yul\":12759:12852   */\n      tag_150\n      jump\t// in\n    tag_282:\n        /* \"#utility.yul\":12877:12879   */\n      0x40\n        /* \"#utility.yul\":12872:12875   */\n      dup3\n        /* \"#utility.yul\":12868:12880   */\n      add\n        /* \"#utility.yul\":12861:12880   */\n      swap1\n      pop\n        /* \"#utility.yul\":12520:12886   */\n      swap2\n      swap1\n      pop\n      jump\t// out\n        /* \"#utility.yul\":12892:13311   */\n    tag_90:\n        /* \"#utility.yul\":13058:13062   */\n      0x00\n        /* \"#utility.yul\":13096:13098   */\n      0x20\n        /* \"#utility.yul\":13085:13094   */\n      dup3\n        /* \"#utility.yul\":13081:13099   */\n      add\n        /* \"#utility.yul\":13073:13099   */\n      swap1\n      pop\n        /* \"#utility.yul\":13145:13154   */\n      dup2\n        /* \"#utility.yul\":13139:13143   */\n      dup2\n        /* \"#utility.yul\":13135:13155   */\n      sub\n        /* \"#utility.yul\":13131:13132   */\n      0x00\n        /* \"#utility.yul\":13120:13129   */\n      dup4\n        /* \"#utility.yul\":13116:13133   */\n      add\n        /* \"#utility.yul\":13109:13156   */\n      mstore\n        /* \"#utility.yul\":13173:13304   */\n      tag_284\n        /* \"#utility.yul\":13299:13303   */\n      dup2\n        /* \"#utility.yul\":13173:13304   */\n      tag_151\n      jump\t// in\n    tag_284:\n        /* \"#utility.yul\":13165:13304   */\n      swap1\n      pop\n        /* \"#utility.yul\":12892:13311   */\n      swap2\n      swap1\n      pop\n      jump\t// out\n        /* \"#utility.yul\":13317:13545   */\n    tag_152:\n        /* \"#utility.yul\":13457:13491   */\n      0x4552433732313a206f776e657220717565727920666f72206e6f6e6578697374\n        /* \"#utility.yul\":13453:13454   */\n      0x00\n        /* \"#utility.yul\":13445:13451   */\n      dup3\n        /* \"#utility.yul\":13441:13455   */\n      add\n        /* \"#utility.yul\":13434:13492   */\n      mstore\n        /* \"#utility.yul\":13526:13537   */\n      0x656e7420746f6b656e0000000000000000000000000000000000000000000000\n        /* \"#utility.yul\":13521:13523   */\n      0x20\n        /* \"#utility.yul\":13513:13519   */\n      dup3\n        /* \"#utility.yul\":13509:13524   */\n      add\n        /* \"#utility.yul\":13502:13538   */\n      mstore\n        /* \"#utility.yul\":13317:13545   */\n      pop\n      jump\t// out\n        /* \"#utility.yul\":13551:13917   */\n    tag_153:\n        /* \"#utility.yul\":13693:13696   */\n      0x00\n        /* \"#utility.yul\":13714:13781   */\n      tag_287\n        /* \"#utility.yul\":13778:13780   */\n      0x29\n        /* \"#utility.yul\":13773:13776   */\n      dup4\n        /* \"#utility.yul\":13714:13781   */\n      tag_136\n      jump\t// in\n    tag_287:\n        /* \"#utility.yul\":13707:13781   */\n      swap2\n      pop\n        /* \"#utility.yul\":13790:13883   */\n      tag_288\n        /* \"#utility.yul\":13879:13882   */\n      dup3\n        /* \"#utility.yul\":13790:13883   */\n      tag_152\n      jump\t// in\n    tag_288:\n        /* \"#utility.yul\":13908:13910   */\n      0x40\n        /* \"#utility.yul\":13903:13906   */\n      dup3\n        /* \"#utility.yul\":13899:13911   */\n      add\n        /* \"#utility.yul\":13892:13911   */\n      swap1\n      pop\n        /* \"#utility.yul\":13551:13917   */\n      swap2\n      swap1\n      pop\n      jump\t// out\n        /* \"#utility.yul\":13923:14342   */\n    tag_94:\n        /* \"#utility.yul\":14089:14093   */\n      0x00\n        /* \"#utility.yul\":14127:14129   */\n      0x20\n        /* \"#utility.yul\":14116:14125   */\n      dup3\n        /* \"#utility.yul\":14112:14130   */\n      add\n        /* \"#utility.yul\":14104:14130   */\n      swap1\n      pop\n        /* \"#utility.yul\":14176:14185   */\n      dup2\n        /* \"#utility.yul\":14170:14174   */\n      dup2\n        /* \"#utility.yul\":14166:14186   */\n      sub\n        /* \"#utility.yul\":14162:14163   */\n      0x00\n        /* \"#utility.yul\":14151:14160   */\n      dup4\n        /* \"#utility.yul\":14147:14164   */\n      add\n        /* \"#utility.yul\":14140:14187   */\n      mstore\n        /* \"#utility.yul\":14204:14335   */\n      tag_290\n        /* \"#utility.yul\":14330:14334   */\n      dup2\n        /* \"#utility.yul\":14204:14335   */\n      tag_153\n      jump\t// in\n    tag_290:\n        /* \"#utility.yul\":14196:14335   */\n      swap1\n      pop\n        /* \"#utility.yul\":13923:14342   */\n      swap2\n      swap1\n      pop\n      jump\t// out\n        /* \"#utility.yul\":14348:14577   */\n    tag_154:\n        /* \"#utility.yul\":14488:14522   */\n      0x4552433732313a2062616c616e636520717565727920666f7220746865207a65\n        /* \"#utility.yul\":14484:14485   */\n      0x00\n        /* \"#utility.yul\":14476:14482   */\n      dup3\n        /* \"#utility.yul\":14472:14486   */\n      add\n        /* \"#utility.yul\":14465:14523   */\n      mstore\n        /* \"#utility.yul\":14557:14569   */\n      0x726f206164647265737300000000000000000000000000000000000000000000\n        /* \"#utility.yul\":14552:14554   */\n      0x20\n        /* \"#utility.yul\":14544:14550   */\n      dup3\n        /* \"#utility.yul\":14540:14555   */\n      add\n        /* \"#utility.yul\":14533:14570   */\n      mstore\n        /* \"#utility.yul\":14348:14577   */\n      pop\n      jump\t// out\n        /* \"#utility.yul\":14583:14949   */\n    tag_155:\n        /* \"#utility.yul\":14725:14728   */\n      0x00\n        /* \"#utility.yul\":14746:14813   */\n      tag_293\n        /* \"#utility.yul\":14810:14812   */\n      0x2a\n        /* \"#utility.yul\":14805:14808   */\n      dup4\n        /* \"#utility.yul\":14746:14813   */\n      tag_136\n      jump\t// in\n    tag_293:\n        /* \"#utility.yul\":14739:14813   */\n      swap2\n      pop\n        /* \"#utility.yul\":14822:14915   */\n      tag_294\n        /* \"#utility.yul\":14911:14914   */\n      dup3\n        /* \"#utility.yul\":14822:14915   */\n      tag_154\n      jump\t// in\n    tag_294:\n        /* \"#utility.yul\":14940:14942   */\n      0x40\n        /* \"#utility.yul\":14935:14938   */\n      dup3\n        /* \"#utility.yul\":14931:14943   */\n      add\n        /* \"#utility.yul\":14924:14943   */\n      swap1\n      pop\n        /* \"#utility.yul\":14583:14949   */\n      swap2\n      swap1\n      pop\n      jump\t// out\n        /* \"#utility.yul\":14955:15374   */\n    tag_98:\n        /* \"#utility.yul\":15121:15125   */\n      0x00\n        /* \"#utility.yul\":15159:15161   */\n      0x20\n        /* \"#utility.yul\":15148:15157   */\n      dup3\n        /* \"#utility.yul\":15144:15162   */\n      add\n        /* \"#utility.yul\":15136:15162   */\n      swap1\n      pop\n        /* \"#utility.yul\":15208:15217   */\n      dup2\n        /* \"#utility.yul\":15202:15206   */\n      dup2\n        /* \"#utility.yul\":15198:15218   */\n      sub\n        /* \"#utility.yul\":15194:15195   */\n      0x00\n        /* \"#utility.yul\":15183:15192   */\n      dup4\n        /* \"#utility.yul\":15179:15196   */\n      add\n        /* \"#utility.yul\":15172:15219   */\n      mstore\n        /* \"#utility.yul\":15236:15367   */\n      tag_296\n        /* \"#utility.yul\":15362:15366   */\n      dup2\n        /* \"#utility.yul\":15236:15367   */\n      tag_155\n      jump\t// in\n    tag_296:\n        /* \"#utility.yul\":15228:15367   */\n      swap1\n      pop\n        /* \"#utility.yul\":14955:15374   */\n      swap2\n      swap1\n      pop\n      jump\t// out\n        /* \"#utility.yul\":15380:15555   */\n    tag_156:\n        /* \"#utility.yul\":15520:15547   */\n      0x4552433732313a20617070726f766520746f2063616c6c657200000000000000\n        /* \"#utility.yul\":15516:15517   */\n      0x00\n        /* \"#utility.yul\":15508:15514   */\n      dup3\n        /* \"#utility.yul\":15504:15518   */\n      add\n        /* \"#utility.yul\":15497:15548   */\n      mstore\n        /* \"#utility.yul\":15380:15555   */\n      pop\n      jump\t// out\n        /* \"#utility.yul\":15561:15927   */\n    tag_157:\n        /* \"#utility.yul\":15703:15706   */\n      0x00\n        /* \"#utility.yul\":15724:15791   */\n      tag_299\n        /* \"#utility.yul\":15788:15790   */\n      0x19\n        /* \"#utility.yul\":15783:15786   */\n      dup4\n        /* \"#utility.yul\":15724:15791   */\n      tag_136\n      jump\t// in\n    tag_299:\n        /* \"#utility.yul\":15717:15791   */\n      swap2\n      pop\n        /* \"#utility.yul\":15800:15893   */\n      tag_300\n        /* \"#utility.yul\":15889:15892   */\n      dup3\n        /* \"#utility.yul\":15800:15893   */\n      tag_156\n      jump\t// in\n    tag_300:\n        /* \"#utility.yul\":15918:15920   */\n      0x20\n        /* \"#utility.yul\":15913:15916   */\n      dup3\n        /* \"#utility.yul\":15909:15921   */\n      add\n        /* \"#utility.yul\":15902:15921   */\n      swap1\n      pop\n        /* \"#utility.yul\":15561:15927   */\n      swap2\n      swap1\n      pop\n      jump\t// out\n        /* \"#utility.yul\":15933:16352   */\n    tag_102:\n        /* \"#utility.yul\":16099:16103   */\n      0x00\n        /* \"#utility.yul\":16137:16139   */\n      0x20\n        /* \"#utility.yul\":16126:16135   */\n      dup3\n        /* \"#utility.yul\":16122:16140   */\n      add\n        /* \"#utility.yul\":16114:16140   */\n      swap1\n      pop\n        /* \"#utility.yul\":16186:16195   */\n      dup2\n        /* \"#utility.yul\":16180:16184   */\n      dup2\n        /* \"#utility.yul\":16176:16196   */\n      sub\n        /* \"#utility.yul\":16172:16173   */\n      0x00\n        /* \"#utility.yul\":16161:16170   */\n      dup4\n        /* \"#utility.yul\":16157:16174   */\n      add\n        /* \"#utility.yul\":16150:16197   */\n      mstore\n        /* \"#utility.yul\":16214:16345   */\n      tag_302\n        /* \"#utility.yul\":16340:16344   */\n      dup2\n        /* \"#utility.yul\":16214:16345   */\n      tag_157\n      jump\t// in\n    tag_302:\n        /* \"#utility.yul\":16206:16345   */\n      swap1\n      pop\n        /* \"#utility.yul\":15933:16352   */\n      swap2\n      swap1\n      pop\n      jump\t// out\n        /* \"#utility.yul\":16358:16456   */\n    tag_158:\n        /* \"#utility.yul\":16409:16415   */\n      0x00\n        /* \"#utility.yul\":16443:16448   */\n      dup2\n        /* \"#utility.yul\":16437:16449   */\n      mload\n        /* \"#utility.yul\":16427:16449   */\n      swap1\n      pop\n        /* \"#utility.yul\":16358:16456   */\n      swap2\n      swap1\n      pop\n      jump\t// out\n        /* \"#utility.yul\":16462:16630   */\n    tag_159:\n        /* \"#utility.yul\":16545:16556   */\n      0x00\n        /* \"#utility.yul\":16579:16585   */\n      dup3\n        /* \"#utility.yul\":16574:16577   */\n      dup3\n        /* \"#utility.yul\":16567:16586   */\n      mstore\n        /* \"#utility.yul\":16619:16623   */\n      0x20\n        /* \"#utility.yul\":16614:16617   */\n      dup3\n        /* \"#utility.yul\":16610:16624   */\n      add\n        /* \"#utility.yul\":16595:16624   */\n      swap1\n      pop\n        /* \"#utility.yul\":16462:16630   */\n      swap3\n      swap2\n      pop\n      pop\n      jump\t// out\n        /* \"#utility.yul\":16636:16775   */\n    tag_160:\n        /* \"#utility.yul\":16725:16731   */\n      dup3\n        /* \"#utility.yul\":16720:16723   */\n      dup2\n        /* \"#utility.yul\":16715:16718   */\n      dup4\n        /* \"#utility.yul\":16709:16732   */\n      mcopy\n        /* \"#utility.yul\":16766:16767   */\n      0x00\n        /* \"#utility.yul\":16757:16763   */\n      dup4\n        /* \"#utility.yul\":16752:16755   */\n      dup4\n        /* \"#utility.yul\":16748:16764   */\n      add\n        /* \"#utility.yul\":16741:16768   */\n      mstore\n        /* \"#utility.yul\":16636:16775   */\n      pop\n      pop\n      pop\n      jump\t// out\n        /* \"#utility.yul\":16781:16883   */\n    tag_161:\n        /* \"#utility.yul\":16822:16828   */\n      0x00\n        /* \"#utility.yul\":16873:16875   */\n      0x1f\n        /* \"#utility.yul\":16869:16876   */\n      not\n        /* \"#utility.yul\":16864:16866   */\n      0x1f\n        /* \"#utility.yul\":16857:16862   */\n      dup4\n        /* \"#utility.yul\":16853:16867   */\n      add\n        /* \"#utility.yul\":16849:16877   */\n      and\n        /* \"#utility.yul\":16839:16877   */\n      swap1\n      pop\n        /* \"#utility.yul\":16781:16883   */\n      swap2\n      swap1\n      pop\n      jump\t// out\n        /* \"#utility.yul\":16889:17262   */\n    tag_162:\n        /* \"#utility.yul\":16975:16978   */\n      0x00\n        /* \"#utility.yul\":17003:17041   */\n      tag_308\n        /* \"#utility.yul\":17035:17040   */\n      dup3\n        /* \"#utility.yul\":17003:17041   */\n      tag_158\n      jump\t// in\n    tag_308:\n        /* \"#utility.yul\":17057:17127   */\n      tag_309\n        /* \"#utility.yul\":17120:17126   */\n      dup2\n        /* \"#utility.yul\":17115:17118   */\n      dup6\n        /* \"#utility.yul\":17057:17127   */\n      tag_159\n      jump\t// in\n    tag_309:\n        /* \"#utility.yul\":17050:17127   */\n      swap4\n      pop\n        /* \"#utility.yul\":17136:17201   */\n      tag_310\n        /* \"#utility.yul\":17194:17200   */\n      dup2\n        /* \"#utility.yul\":17189:17192   */\n      dup6\n        /* \"#utility.yul\":17182:17186   */\n      0x20\n        /* \"#utility.yul\":17175:17180   */\n      dup7\n        /* \"#utility.yul\":17171:17187   */\n      add\n        /* \"#utility.yul\":17136:17201   */\n      tag_160\n      jump\t// in\n    tag_310:\n        /* \"#utility.yul\":17226:17255   */\n      tag_311\n        /* \"#utility.yul\":17248:17254   */\n      dup2\n        /* \"#utility.yul\":17226:17255   */\n      tag_161\n      jump\t// in\n    tag_311:\n        /* \"#utility.yul\":17221:17224   */\n      dup5\n        /* \"#utility.yul\":17217:17256   */\n      add\n        /* \"#utility.yul\":17210:17256   */\n      swap2\n      pop\n        /* \"#utility.yul\":16979:17262   */\n      pop\n        /* \"#utility.yul\":16889:17262   */\n      swap3\n      swap2\n      pop\n      pop\n      jump\t// out\n        /* \"#utility.yul\":17268:17908   */\n    tag_110:\n        /* \"#utility.yul\":17463:17467   */\n      0x00\n        /* \"#utility.yul\":17501:17504   */\n      0x80\n        /* \"#utility.yul\":17490:17499   */\n      dup3\n        /* \"#utility.yul\":17486:17505   */\n      add\n        /* \"#utility.yul\":17478:17505   */\n      swap1\n      pop\n        /* \"#utility.yul\":17515:17586   */\n      tag_313\n        /* \"#utility.yul\":17583:17584   */\n      0x00\n        /* \"#utility.yul\":17572:17581   */\n      dup4\n        /* \"#utility.yul\":17568:17585   */\n      add\n        /* \"#utility.yul\":17559:17565   */\n      dup8\n        /* \"#utility.yul\":17515:17586   */\n      tag_128\n      jump\t// in\n    tag_313:\n        /* \"#utility.yul\":17596:17668   */\n      tag_314\n        /* \"#utility.yul\":17664:17666   */\n      0x20\n        /* \"#utility.yul\":17653:17662   */\n      dup4\n        /* \"#utility.yul\":17649:17667   */\n      add\n        /* \"#utility.yul\":17640:17646   */\n      dup7\n        /* \"#utility.yul\":17596:17668   */\n      tag_128\n      jump\t// in\n    tag_314:\n        /* \"#utility.yul\":17678:17750   */\n      tag_315\n        /* \"#utility.yul\":17746:17748   */\n      0x40\n        /* \"#utility.yul\":17735:17744   */\n      dup4\n        /* \"#utility.yul\":17731:17749   */\n      add\n        /* \"#utility.yul\":17722:17728   */\n      dup6\n        /* \"#utility.yul\":17678:17750   */\n      tag_131\n      jump\t// in\n    tag_315:\n        /* \"#utility.yul\":17797:17806   */\n      dup2\n        /* \"#utility.yul\":17791:17795   */\n      dup2\n        /* \"#utility.yul\":17787:17807   */\n      sub\n        /* \"#utility.yul\":17782:17784   */\n      0x60\n        /* \"#utility.yul\":17771:17780   */\n      dup4\n        /* \"#utility.yul\":17767:17785   */\n      add\n        /* \"#utility.yul\":17760:17808   */\n      mstore\n        /* \"#utility.yul\":17825:17901   */\n      tag_316\n        /* \"#utility.yul\":17896:17900   */\n      dup2\n        /* \"#utility.yul\":17887:17893   */\n      dup5\n        /* \"#utility.yul\":17825:17901   */\n      tag_162\n      jump\t// in\n    tag_316:\n        /* \"#utility.yul\":17817:17901   */\n      swap1\n      pop\n        /* \"#utility.yul\":17268:17908   */\n      swap6\n      swap5\n      pop\n      pop\n      pop\n      pop\n      pop\n      jump\t// out\n        /* \"#utility.yul\":17914:18063   */\n    tag_163:\n        /* \"#utility.yul\":17950:17957   */\n      0x00\n        /* \"#utility.yul\":17990:18056   */\n      0xffffffff00000000000000000000000000000000000000000000000000000000\n        /* \"#utility.yul\":17983:17988   */\n      dup3\n        /* \"#utility.yul\":17979:18057   */\n      and\n        /* \"#utility.yul\":17968:18057   */\n      swap1\n      pop\n        /* \"#utility.yul\":17914:18063   */\n      swap2\n      swap1\n      pop\n      jump\t// out\n        /* \"#utility.yul\":18069:18189   */\n    tag_164:\n        /* \"#utility.yul\":18141:18164   */\n      tag_319\n        /* \"#utility.yul\":18158:18163   */\n      dup2\n        /* \"#utility.yul\":18141:18164   */\n      tag_163\n      jump\t// in\n    tag_319:\n        /* \"#utility.yul\":18134:18139   */\n      dup2\n        /* \"#utility.yul\":18131:18165   */\n      eq\n        /* \"#utility.yul\":18121:18183   */\n      tag_320\n      jumpi\n        /* \"#utility.yul\":18179:18180   */\n      0x00\n        /* \"#utility.yul\":18176:18177   */\n      dup1\n        /* \"#utility.yul\":18169:18181   */\n      revert\n        /* \"#utility.yul\":18121:18183   */\n    tag_320:\n        /* \"#utility.yul\":18069:18189   */\n      pop\n      jump\t// out\n        /* \"#utility.yul\":18195:18336   */\n    tag_165:\n        /* \"#utility.yul\":18251:18256   */\n      0x00\n        /* \"#utility.yul\":18282:18288   */\n      dup2\n        /* \"#utility.yul\":18276:18289   */\n      mload\n        /* \"#utility.yul\":18267:18289   */\n      swap1\n      pop\n        /* \"#utility.yul\":18298:18330   */\n      tag_322\n        /* \"#utility.yul\":18324:18329   */\n      dup2\n        /* \"#utility.yul\":18298:18330   */\n      tag_164\n      jump\t// in\n    tag_322:\n        /* \"#utility.yul\":18195:18336   */\n      swap3\n      swap2\n      pop\n      pop\n      jump\t// out\n        /* \"#utility.yul\":18342:18691   */\n    tag_113:\n        /* \"#utility.yul\":18411:18417   */\n      0x00\n        /* \"#utility.yul\":18460:18462   */\n      0x20\n        /* \"#utility.yul\":18448:18457   */\n      dup3\n        /* \"#utility.yul\":18439:18446   */\n      dup5\n        /* \"#utility.yul\":18435:18458   */\n      sub\n        /* \"#utility.yul\":18431:18463   */\n      slt\n        /* \"#utility.yul\":18428:18547   */\n      iszero\n      tag_324\n      jumpi\n        /* \"#utility.yul\":18466:18545   */\n      tag_325\n      tag_121\n      jump\t// in\n    tag_325:\n        /* \"#utility.yul\":18428:18547   */\n    tag_324:\n        /* \"#utility.yul\":18586:18587   */\n      0x00\n        /* \"#utility.yul\":18611:18674   */\n      tag_326\n        /* \"#utility.yul\":18666:18673   */\n      dup5\n        /* \"#utility.yul\":18657:18663   */\n      dup3\n        /* \"#utility.yul\":18646:18655   */\n      dup6\n        /* \"#utility.yul\":18642:18664   */\n      add\n        /* \"#utility.yul\":18611:18674   */\n      tag_165\n      jump\t// in\n    tag_326:\n        /* \"#utility.yul\":18601:18674   */\n      swap2\n      pop\n        /* \"#utility.yul\":18557:18684   */\n      pop\n        /* \"#utility.yul\":18342:18691   */\n      swap3\n      swap2\n      pop\n      pop\n      jump\t// out\n\n    auxdata: 0xa2646970667358221220ac763413a4ac9ea3113a3386bc01bf9aace68b0245282b8315e6030147be972a64736f6c634300081a0033\n}\n",
				"bytecode": {
					"linkReferences": {},
					"object": "6080604052348015600e575f80fd5b506116c88061001c5f395ff3fe608060405234801561000f575f80fd5b5060043610610086575f3560e01c80636352211e116100595780636352211e1461010e57806370a082311461013e578063a22cb4651461016e578063e985e9c51461018a57610086565b8063081812fc1461008a578063095ea7b3146100ba57806323b872dd146100d657806342842e0e146100f2575b5f80fd5b6100a4600480360381019061009f9190610ce8565b6101ba565b6040516100b19190610d52565b60405180910390f35b6100d460048036038101906100cf9190610d95565b610290565b005b6100f060048036038101906100eb9190610dd3565b610438565b005b61010c60048036038101906101079190610dd3565b61073c565b005b61012860048036038101906101239190610ce8565b6107a5565b6040516101359190610d52565b60405180910390f35b61015860048036038101906101539190610e23565b610850565b6040516101659190610e5d565b60405180910390f35b61018860048036038101906101839190610eab565b610904565b005b6101a4600480360381019061019f9190610ee9565b610a6a565b6040516101b19190610f36565b60405180910390f35b5f8073ffffffffffffffffffffffffffffffffffffffff165f808481526020019081526020015f205f9054906101000a900473ffffffffffffffffffffffffffffffffffffffff1673ffffffffffffffffffffffffffffffffffffffff1603610258576040517f08c379a000000000000000000000000000000000000000000000000000000000815260040161024f90610fcf565b60405180910390fd5b60025f8381526020019081526020015f205f9054906101000a900473ffffffffffffffffffffffffffffffffffffffff169050919050565b5f61029a826107a5565b90508073ffffffffffffffffffffffffffffffffffffffff168373ffffffffffffffffffffffffffffffffffffffff160361030a576040517f08c379a00000000000000000000000000000000000000000000000000000000081526004016103019061105d565b60405180910390fd5b8073ffffffffffffffffffffffffffffffffffffffff163373ffffffffffffffffffffffffffffffffffffffff16148061034a57506103498133610a6a565b5b610389576040517f08c379a0000000000000000000000000000000000000000000000000000000008152600401610380906110eb565b60405180910390fd5b8260025f8481526020019081526020015f205f6101000a81548173ffffffffffffffffffffffffffffffffffffffff021916908373ffffffffffffffffffffffffffffffffffffffff160217905550818373ffffffffffffffffffffffffffffffffffffffff168273ffffffffffffffffffffffffffffffffffffffff167f8c5be1e5ebec7d5bd14f71427d1e84f3dd0314c0f7b2291e5b200ac8c7c3b92560405160405180910390a4505050565b5f610442826107a5565b90508073ffffffffffffffffffffffffffffffffffffffff163373ffffffffffffffffffffffffffffffffffffffff1614806104b157503373ffffffffffffffffffffffffffffffffffffffff16610499836101ba565b73ffffffffffffffffffffffffffffffffffffffff16145b806104c257506104c18133610a6a565b5b610501576040517f08c379a00000000000000000000000000000000000000000000000000000000081526004016104f890611179565b60405180910390fd5b8373ffffffffffffffffffffffffffffffffffffffff168173ffffffffffffffffffffffffffffffffffffffff161461056f576040517f08c379a000000000000000000000000000000000000000000000000000000000815260040161056690611207565b60405180910390fd5b5f73ffffffffffffffffffffffffffffffffffffffff168373ffffffffffffffffffffffffffffffffffffffff16036105dd576040517f08c379a00000000000000000000000000000000000000000000000000000000081526004016105d490611295565b60405180910390fd5b6105e75f83610af8565b6001805f8673ffffffffffffffffffffffffffffffffffffffff1673ffffffffffffffffffffffffffffffffffffffff1681526020019081526020015f205f82825461063391906112e0565b925050819055506001805f8573ffffffffffffffffffffffffffffffffffffffff1673ffffffffffffffffffffffffffffffffffffffff1681526020019081526020015f205f8282546106869190611313565b92505081905550825f808481526020019081526020015f205f6101000a81548173ffffffffffffffffffffffffffffffffffffffff021916908373ffffffffffffffffffffffffffffffffffffffff160217905550818373ffffffffffffffffffffffffffffffffffffffff168573ffffffffffffffffffffffffffffffffffffffff167fddf252ad1be2c89b69c2b068fc378daa952ba7f163c4a11628f55a4df523b3ef60405160405180910390a450505050565b610747838383610438565b61076183838360405180602001604052805f815250610bae565b6107a0576040517f08c379a0000000000000000000000000000000000000000000000000000000008152600401610797906113b6565b60405180910390fd5b505050565b5f805f808481526020019081526020015f205f9054906101000a900473ffffffffffffffffffffffffffffffffffffffff1690505f73ffffffffffffffffffffffffffffffffffffffff168173ffffffffffffffffffffffffffffffffffffffff1603610847576040517f08c379a000000000000000000000000000000000000000000000000000000000815260040161083e90611444565b60405180910390fd5b80915050919050565b5f8073ffffffffffffffffffffffffffffffffffffffff168273ffffffffffffffffffffffffffffffffffffffff16036108bf576040517f08c379a00000000000000000000000000000000000000000000000000000000081526004016108b6906114d2565b60405180910390fd5b60015f8373ffffffffffffffffffffffffffffffffffffffff1673ffffffffffffffffffffffffffffffffffffffff1681526020019081526020015f20549050919050565b3373ffffffffffffffffffffffffffffffffffffffff168273ffffffffffffffffffffffffffffffffffffffff1603610972576040517f08c379a00000000000000000000000000000000000000000000000000000000081526004016109699061153a565b60405180910390fd5b8060035f3373ffffffffffffffffffffffffffffffffffffffff1673ffffffffffffffffffffffffffffffffffffffff1681526020019081526020015f205f8473ffffffffffffffffffffffffffffffffffffffff1673ffffffffffffffffffffffffffffffffffffffff1681526020019081526020015f205f6101000a81548160ff0219169083151502179055508173ffffffffffffffffffffffffffffffffffffffff163373ffffffffffffffffffffffffffffffffffffffff167f17307eab39ab6107e8899845ad3d59bd9653f200f220920489ca2b5937696c3183604051610a5e9190610f36565b60405180910390a35050565b5f60035f8473ffffffffffffffffffffffffffffffffffffffff1673ffffffffffffffffffffffffffffffffffffffff1681526020019081526020015f205f8373ffffffffffffffffffffffffffffffffffffffff1673ffffffffffffffffffffffffffffffffffffffff1681526020019081526020015f205f9054906101000a900460ff16905092915050565b8160025f8381526020019081526020015f205f6101000a81548173ffffffffffffffffffffffffffffffffffffffff021916908373ffffffffffffffffffffffffffffffffffffffff160217905550808273ffffffffffffffffffffffffffffffffffffffff16610b68836107a5565b73ffffffffffffffffffffffffffffffffffffffff167f8c5be1e5ebec7d5bd14f71427d1e84f3dd0314c0f7b2291e5b200ac8c7c3b92560405160405180910390a45050565b5f808473ffffffffffffffffffffffffffffffffffffffff163b1115610ca4578373ffffffffffffffffffffffffffffffffffffffff1663150b7a02338786866040518563ffffffff1660e01b8152600401610c0d94939291906115c8565b6020604051808303815f875af1925050508015610c4857506040513d601f19601f82011682018060405250810190610c459190611667565b60015b610c54575f9050610ca9565b63150b7a0260e01b7bffffffffffffffffffffffffffffffffffffffffffffffffffffffff1916817bffffffffffffffffffffffffffffffffffffffffffffffffffffffff191614915050610ca9565b600190505b949350505050565b5f80fd5b5f819050919050565b610cc781610cb5565b8114610cd1575f80fd5b50565b5f81359050610ce281610cbe565b92915050565b5f60208284031215610cfd57610cfc610cb1565b5b5f610d0a84828501610cd4565b91505092915050565b5f73ffffffffffffffffffffffffffffffffffffffff82169050919050565b5f610d3c82610d13565b9050919050565b610d4c81610d32565b82525050565b5f602082019050610d655f830184610d43565b92915050565b610d7481610d32565b8114610d7e575f80fd5b50565b5f81359050610d8f81610d6b565b92915050565b5f8060408385031215610dab57610daa610cb1565b5b5f610db885828601610d81565b9250506020610dc985828601610cd4565b9150509250929050565b5f805f60608486031215610dea57610de9610cb1565b5b5f610df786828701610d81565b9350506020610e0886828701610d81565b9250506040610e1986828701610cd4565b9150509250925092565b5f60208284031215610e3857610e37610cb1565b5b5f610e4584828501610d81565b91505092915050565b610e5781610cb5565b82525050565b5f602082019050610e705f830184610e4e565b92915050565b5f8115159050919050565b610e8a81610e76565b8114610e94575f80fd5b50565b5f81359050610ea581610e81565b92915050565b5f8060408385031215610ec157610ec0610cb1565b5b5f610ece85828601610d81565b9250506020610edf85828601610e97565b9150509250929050565b5f8060408385031215610eff57610efe610cb1565b5b5f610f0c85828601610d81565b9250506020610f1d85828601610d81565b9150509250929050565b610f3081610e76565b82525050565b5f602082019050610f495f830184610f27565b92915050565b5f82825260208201905092915050565b7f4552433732313a20617070726f76656420717565727920666f72206e6f6e65785f8201527f697374656e7420746f6b656e0000000000000000000000000000000000000000602082015250565b5f610fb9602c83610f4f565b9150610fc482610f5f565b604082019050919050565b5f6020820190508181035f830152610fe681610fad565b9050919050565b7f4552433732313a20617070726f76616c20746f2063757272656e74206f776e655f8201527f7200000000000000000000000000000000000000000000000000000000000000602082015250565b5f611047602183610f4f565b915061105282610fed565b604082019050919050565b5f6020820190508181035f8301526110748161103b565b9050919050565b7f4552433732313a20617070726f76652063616c6c6572206973206e6f74206f775f8201527f6e6572206e6f7220617070726f76656420666f7220616c6c0000000000000000602082015250565b5f6110d5603883610f4f565b91506110e08261107b565b604082019050919050565b5f6020820190508181035f830152611102816110c9565b9050919050565b7f4552433732313a207472616e736665722063616c6c6572206973206e6f74206f5f8201527f776e6572206e6f7220617070726f766564000000000000000000000000000000602082015250565b5f611163603183610f4f565b915061116e82611109565b604082019050919050565b5f6020820190508181035f83015261119081611157565b9050919050565b7f4552433732313a207472616e73666572206f6620746f6b656e207468617420695f8201527f73206e6f74206f776e6564000000000000000000000000000000000000000000602082015250565b5f6111f1602b83610f4f565b91506111fc82611197565b604082019050919050565b5f6020820190508181035f83015261121e816111e5565b9050919050565b7f4552433732313a207472616e7366657220746f20746865207a65726f206164645f8201527f7265737300000000000000000000000000000000000000000000000000000000602082015250565b5f61127f602483610f4f565b915061128a82611225565b604082019050919050565b5f6020820190508181035f8301526112ac81611273565b9050919050565b7f4e487b71000000000000000000000000000000000000000000000000000000005f52601160045260245ffd5b5f6112ea82610cb5565b91506112f583610cb5565b925082820390508181111561130d5761130c6112b3565b5b92915050565b5f61131d82610cb5565b915061132883610cb5565b92508282019050808211156113405761133f6112b3565b5b92915050565b7f4552433732313a207472616e7366657220746f206e6f6e2045524337323152655f8201527f63656976657220696d706c656d656e7465720000000000000000000000000000602082015250565b5f6113a0603283610f4f565b91506113ab82611346565b604082019050919050565b5f6020820190508181035f8301526113cd81611394565b9050919050565b7f4552433732313a206f776e657220717565727920666f72206e6f6e65786973745f8201527f656e7420746f6b656e0000000000000000000000000000000000000000000000602082015250565b5f61142e602983610f4f565b9150611439826113d4565b604082019050919050565b5f6020820190508181035f83015261145b81611422565b9050919050565b7f4552433732313a2062616c616e636520717565727920666f7220746865207a655f8201527f726f206164647265737300000000000000000000000000000000000000000000602082015250565b5f6114bc602a83610f4f565b91506114c782611462565b604082019050919050565b5f6020820190508181035f8301526114e9816114b0565b9050919050565b7f4552433732313a20617070726f766520746f2063616c6c6572000000000000005f82015250565b5f611524601983610f4f565b915061152f826114f0565b602082019050919050565b5f6020820190508181035f83015261155181611518565b9050919050565b5f81519050919050565b5f82825260208201905092915050565b8281835e5f83830152505050565b5f601f19601f8301169050919050565b5f61159a82611558565b6115a48185611562565b93506115b4818560208601611572565b6115bd81611580565b840191505092915050565b5f6080820190506115db5f830187610d43565b6115e86020830186610d43565b6115f56040830185610e4e565b81810360608301526116078184611590565b905095945050505050565b5f7fffffffff0000000000000000000000000000000000000000000000000000000082169050919050565b61164681611612565b8114611650575f80fd5b50565b5f815190506116618161163d565b92915050565b5f6020828403121561167c5761167b610cb1565b5b5f61168984828501611653565b9150509291505056fea2646970667358221220ac763413a4ac9ea3113a3386bc01bf9aace68b0245282b8315e6030147be972a64736f6c634300081a0033",
					"opcodes": "PUSH1 0x80 PUSH1 0x40 MSTORE CALLVALUE DUP1 ISZERO PUSH1 0xE JUMPI PUSH0 DUP1 REVERT JUMPDEST POP PUSH2 0x16C8 DUP1 PUSH2 0x1C PUSH0 CODECOPY PUSH0 RETURN INVALID PUSH1 0x80 PUSH1 0x40 MSTORE CALLVALUE DUP1 ISZERO PUSH2 0xF JUMPI PUSH0 DUP1 REVERT JUMPDEST POP PUSH1 0x4 CALLDATASIZE LT PUSH2 0x86 JUMPI PUSH0 CALLDATALOAD PUSH1 0xE0 SHR DUP1 PUSH4 0x6352211E GT PUSH2 0x59 JUMPI DUP1 PUSH4 0x6352211E EQ PUSH2 0x10E JUMPI DUP1 PUSH4 0x70A08231 EQ PUSH2 0x13E JUMPI DUP1 PUSH4 0xA22CB465 EQ PUSH2 0x16E JUMPI DUP1 PUSH4 0xE985E9C5 EQ PUSH2 0x18A JUMPI PUSH2 0x86 JUMP JUMPDEST DUP1 PUSH4 0x81812FC EQ PUSH2 0x8A JUMPI DUP1 PUSH4 0x95EA7B3 EQ PUSH2 0xBA JUMPI DUP1 PUSH4 0x23B872DD EQ PUSH2 0xD6 JUMPI DUP1 PUSH4 0x42842E0E EQ PUSH2 0xF2 JUMPI JUMPDEST PUSH0 DUP1 REVERT JUMPDEST PUSH2 0xA4 PUSH1 0x4 DUP1 CALLDATASIZE SUB DUP2 ADD SWAP1 PUSH2 0x9F SWAP2 SWAP1 PUSH2 0xCE8 JUMP JUMPDEST PUSH2 0x1BA JUMP JUMPDEST PUSH1 0x40 MLOAD PUSH2 0xB1 SWAP2 SWAP1 PUSH2 0xD52 JUMP JUMPDEST PUSH1 0x40 MLOAD DUP1 SWAP2 SUB SWAP1 RETURN JUMPDEST PUSH2 0xD4 PUSH1 0x4 DUP1 CALLDATASIZE SUB DUP2 ADD SWAP1 PUSH2 0xCF SWAP2 SWAP1 PUSH2 0xD95 JUMP JUMPDEST PUSH2 0x290 JUMP JUMPDEST STOP JUMPDEST PUSH2 0xF0 PUSH1 0x4 DUP1 CALLDATASIZE SUB DUP2 ADD SWAP1 PUSH2 0xEB SWAP2 SWAP1 PUSH2 0xDD3 JUMP JUMPDEST PUSH2 0x438 JUMP JUMPDEST STOP JUMPDEST PUSH2 0x10C PUSH1 0x4 DUP1 CALLDATASIZE SUB DUP2 ADD SWAP1 PUSH2 0x107 SWAP2 SWAP1 PUSH2 0xDD3 JUMP JUMPDEST PUSH2 0x73C JUMP JUMPDEST STOP JUMPDEST PUSH2 0x128 PUSH1 0x4 DUP1 CALLDATASIZE SUB DUP2 ADD SWAP1 PUSH2 0x123 SWAP2 SWAP1 PUSH2 0xCE8 JUMP JUMPDEST PUSH2 0x7A5 JUMP JUMPDEST PUSH1 0x40 MLOAD PUSH2 0x135 SWAP2 SWAP1 PUSH2 0xD52 JUMP JUMPDEST PUSH1 0x40 MLOAD DUP1 SWAP2 SUB SWAP1 RETURN JUMPDEST PUSH2 0x158 PUSH1 0x4 DUP1 CALLDATASIZE SUB DUP2 ADD SWAP1 PUSH2 0x153 SWAP2 SWAP1 PUSH2 0xE23 JUMP JUMPDEST PUSH2 0x850 JUMP JUMPDEST PUSH1 0x40 MLOAD PUSH2 0x165 SWAP2 SWAP1 PUSH2 0xE5D JUMP JUMPDEST PUSH1 0x40 MLOAD DUP1 SWAP2 SUB SWAP1 RETURN JUMPDEST PUSH2 0x188 PUSH1 0x4 DUP1 CALLDATASIZE SUB DUP2 ADD SWAP1 PUSH2 0x183 SWAP2 SWAP1 PUSH2 0xEAB JUMP JUMPDEST PUSH2 0x904 JUMP JUMPDEST STOP JUMPDEST PUSH2 0x1A4 PUSH1 0x4 DUP1 CALLDATASIZE SUB DUP2 ADD SWAP1 PUSH2 0x19F SWAP2 SWAP1 PUSH2 0xEE9 JUMP JUMPDEST PUSH2 0xA6A JUMP JUMPDEST PUSH1 0x40 MLOAD PUSH2 0x1B1 SWAP2 SWAP1 PUSH2 0xF36 JUMP JUMPDEST PUSH1 0x40 MLOAD DUP1 SWAP2 SUB SWAP1 RETURN JUMPDEST PUSH0 DUP1 PUSH20 0xFFFFFFFFFFFFFFFFFFFFFFFFFFFFFFFFFFFFFFFF AND PUSH0 DUP1 DUP5 DUP2 MSTORE PUSH1 0x20 ADD SWAP1 DUP2 MSTORE PUSH1 0x20 ADD PUSH0 KECCAK256 PUSH0 SWAP1 SLOAD SWAP1 PUSH2 0x100 EXP SWAP1 DIV PUSH20 0xFFFFFFFFFFFFFFFFFFFFFFFFFFFFFFFFFFFFFFFF AND PUSH20 0xFFFFFFFFFFFFFFFFFFFFFFFFFFFFFFFFFFFFFFFF AND SUB PUSH2 0x258 JUMPI PUSH1 0x40 MLOAD PUSH32 0x8C379A000000000000000000000000000000000000000000000000000000000 DUP2 MSTORE PUSH1 0x4 ADD PUSH2 0x24F SWAP1 PUSH2 0xFCF JUMP JUMPDEST PUSH1 0x40 MLOAD DUP1 SWAP2 SUB SWAP1 REVERT JUMPDEST PUSH1 0x2 PUSH0 DUP4 DUP2 MSTORE PUSH1 0x20 ADD SWAP1 DUP2 MSTORE PUSH1 0x20 ADD PUSH0 KECCAK256 PUSH0 SWAP1 SLOAD SWAP1 PUSH2 0x100 EXP SWAP1 DIV PUSH20 0xFFFFFFFFFFFFFFFFFFFFFFFFFFFFFFFFFFFFFFFF AND SWAP1 POP SWAP2 SWAP1 POP JUMP JUMPDEST PUSH0 PUSH2 0x29A DUP3 PUSH2 0x7A5 JUMP JUMPDEST SWAP1 POP DUP1 PUSH20 0xFFFFFFFFFFFFFFFFFFFFFFFFFFFFFFFFFFFFFFFF AND DUP4 PUSH20 0xFFFFFFFFFFFFFFFFFFFFFFFFFFFFFFFFFFFFFFFF AND SUB PUSH2 0x30A JUMPI PUSH1 0x40 MLOAD PUSH32 0x8C379A000000000000000000000000000000000000000000000000000000000 DUP2 MSTORE PUSH1 0x4 ADD PUSH2 0x301 SWAP1 PUSH2 0x105D JUMP JUMPDEST PUSH1 0x40 MLOAD DUP1 SWAP2 SUB SWAP1 REVERT JUMPDEST DUP1 PUSH20 0xFFFFFFFFFFFFFFFFFFFFFFFFFFFFFFFFFFFFFFFF AND CALLER PUSH20 0xFFFFFFFFFFFFFFFFFFFFFFFFFFFFFFFFFFFFFFFF AND EQ DUP1 PUSH2 0x34A JUMPI POP PUSH2 0x349 DUP2 CALLER PUSH2 0xA6A JUMP JUMPDEST JUMPDEST PUSH2 0x389 JUMPI PUSH1 0x40 MLOAD PUSH32 0x8C379A000000000000000000000000000000000000000000000000000000000 DUP2 MSTORE PUSH1 0x4 ADD PUSH2 0x380 SWAP1 PUSH2 0x10EB JUMP JUMPDEST PUSH1 0x40 MLOAD DUP1 SWAP2 SUB SWAP1 REVERT JUMPDEST DUP3 PUSH1 0x2 PUSH0 DUP5 DUP2 MSTORE PUSH1 0x20 ADD SWAP1 DUP2 MSTORE PUSH1 0x20 ADD PUSH0 KECCAK256 PUSH0 PUSH2 0x100 EXP DUP2 SLOAD DUP2 PUSH20 0xFFFFFFFFFFFFFFFFFFFFFFFFFFFFFFFFFFFFFFFF MUL NOT AND SWAP1 DUP4 PUSH20 0xFFFFFFFFFFFFFFFFFFFFFFFFFFFFFFFFFFFFFFFF AND MUL OR SWAP1 SSTORE POP DUP2 DUP4 PUSH20 0xFFFFFFFFFFFFFFFFFFFFFFFFFFFFFFFFFFFFFFFF AND DUP3 PUSH20 0xFFFFFFFFFFFFFFFFFFFFFFFFFFFFFFFFFFFFFFFF AND PUSH32 0x8C5BE1E5EBEC7D5BD14F71427D1E84F3DD0314C0F7B2291E5B200AC8C7C3B925 PUSH1 0x40 MLOAD PUSH1 0x40 MLOAD DUP1 SWAP2 SUB SWAP1 LOG4 POP POP POP JUMP JUMPDEST PUSH0 PUSH2 0x442 DUP3 PUSH2 0x7A5 JUMP JUMPDEST SWAP1 POP DUP1 PUSH20 0xFFFFFFFFFFFFFFFFFFFFFFFFFFFFFFFFFFFFFFFF AND CALLER PUSH20 0xFFFFFFFFFFFFFFFFFFFFFFFFFFFFFFFFFFFFFFFF AND EQ DUP1 PUSH2 0x4B1 JUMPI POP CALLER PUSH20 0xFFFFFFFFFFFFFFFFFFFFFFFFFFFFFFFFFFFFFFFF AND PUSH2 0x499 DUP4 PUSH2 0x1BA JUMP JUMPDEST PUSH20 0xFFFFFFFFFFFFFFFFFFFFFFFFFFFFFFFFFFFFFFFF AND EQ JUMPDEST DUP1 PUSH2 0x4C2 JUMPI POP PUSH2 0x4C1 DUP2 CALLER PUSH2 0xA6A JUMP JUMPDEST JUMPDEST PUSH2 0x501 JUMPI PUSH1 0x40 MLOAD PUSH32 0x8C379A000000000000000000000000000000000000000000000000000000000 DUP2 MSTORE PUSH1 0x4 ADD PUSH2 0x4F8 SWAP1 PUSH2 0x1179 JUMP JUMPDEST PUSH1 0x40 MLOAD DUP1 SWAP2 SUB SWAP1 REVERT JUMPDEST DUP4 PUSH20 0xFFFFFFFFFFFFFFFFFFFFFFFFFFFFFFFFFFFFFFFF AND DUP2 PUSH20 0xFFFFFFFFFFFFFFFFFFFFFFFFFFFFFFFFFFFFFFFF AND EQ PUSH2 0x56F JUMPI PUSH1 0x40 MLOAD PUSH32 0x8C379A000000000000000000000000000000000000000000000000000000000 DUP2 MSTORE PUSH1 0x4 ADD PUSH2 0x566 SWAP1 PUSH2 0x1207 JUMP JUMPDEST PUSH1 0x40 MLOAD DUP1 SWAP2 SUB SWAP1 REVERT JUMPDEST PUSH0 PUSH20 0xFFFFFFFFFFFFFFFFFFFFFFFFFFFFFFFFFFFFFFFF AND DUP4 PUSH20 0xFFFFFFFFFFFFFFFFFFFFFFFFFFFFFFFFFFFFFFFF AND SUB PUSH2 0x5DD JUMPI PUSH1 0x40 MLOAD PUSH32 0x8C379A000000000000000000000000000000000000000000000000000000000 DUP2 MSTORE PUSH1 0x4 ADD PUSH2 0x5D4 SWAP1 PUSH2 0x1295 JUMP JUMPDEST PUSH1 0x40 MLOAD DUP1 SWAP2 SUB SWAP1 REVERT JUMPDEST PUSH2 0x5E7 PUSH0 DUP4 PUSH2 0xAF8 JUMP JUMPDEST PUSH1 0x1 DUP1 PUSH0 DUP7 PUSH20 0xFFFFFFFFFFFFFFFFFFFFFFFFFFFFFFFFFFFFFFFF AND PUSH20 0xFFFFFFFFFFFFFFFFFFFFFFFFFFFFFFFFFFFFFFFF AND DUP2 MSTORE PUSH1 0x20 ADD SWAP1 DUP2 MSTORE PUSH1 0x20 ADD PUSH0 KECCAK256 PUSH0 DUP3 DUP3 SLOAD PUSH2 0x633 SWAP2 SWAP1 PUSH2 0x12E0 JUMP JUMPDEST SWAP3 POP POP DUP2 SWAP1 SSTORE POP PUSH1 0x1 DUP1 PUSH0 DUP6 PUSH20 0xFFFFFFFFFFFFFFFFFFFFFFFFFFFFFFFFFFFFFFFF AND PUSH20 0xFFFFFFFFFFFFFFFFFFFFFFFFFFFFFFFFFFFFFFFF AND DUP2 MSTORE PUSH1 0x20 ADD SWAP1 DUP2 MSTORE PUSH1 0x20 ADD PUSH0 KECCAK256 PUSH0 DUP3 DUP3 SLOAD PUSH2 0x686 SWAP2 SWAP1 PUSH2 0x1313 JUMP JUMPDEST SWAP3 POP POP DUP2 SWAP1 SSTORE POP DUP3 PUSH0 DUP1 DUP5 DUP2 MSTORE PUSH1 0x20 ADD SWAP1 DUP2 MSTORE PUSH1 0x20 ADD PUSH0 KECCAK256 PUSH0 PUSH2 0x100 EXP DUP2 SLOAD DUP2 PUSH20 0xFFFFFFFFFFFFFFFFFFFFFFFFFFFFFFFFFFFFFFFF MUL NOT AND SWAP1 DUP4 PUSH20 0xFFFFFFFFFFFFFFFFFFFFFFFFFFFFFFFFFFFFFFFF AND MUL OR SWAP1 SSTORE POP DUP2 DUP4 PUSH20 0xFFFFFFFFFFFFFFFFFFFFFFFFFFFFFFFFFFFFFFFF AND DUP6 PUSH20 0xFFFFFFFFFFFFFFFFFFFFFFFFFFFFFFFFFFFFFFFF AND PUSH32 0xDDF252AD1BE2C89B69C2B068FC378DAA952BA7F163C4A11628F55A4DF523B3EF PUSH1 0x40 MLOAD PUSH1 0x40 MLOAD DUP1 SWAP2 SUB SWAP1 LOG4 POP POP POP POP JUMP JUMPDEST PUSH2 0x747 DUP4 DUP4 DUP4 PUSH2 0x438 JUMP JUMPDEST PUSH2 0x761 DUP4 DUP4 DUP4 PUSH1 0x40 MLOAD DUP1 PUSH1 0x20 ADD PUSH1 0x40 MSTORE DUP1 PUSH0 DUP2 MSTORE POP PUSH2 0xBAE JUMP JUMPDEST PUSH2 0x7A0 JUMPI PUSH1 0x40 MLOAD PUSH32 0x8C379A000000000000000000000000000000000000000000000000000000000 DUP2 MSTORE PUSH1 0x4 ADD PUSH2 0x797 SWAP1 PUSH2 0x13B6 JUMP JUMPDEST PUSH1 0x40 MLOAD DUP1 SWAP2 SUB SWAP1 REVERT JUMPDEST POP POP POP JUMP JUMPDEST PUSH0 DUP1 PUSH0 DUP1 DUP5 DUP2 MSTORE PUSH1 0x20 ADD SWAP1 DUP2 MSTORE PUSH1 0x20 ADD PUSH0 KECCAK256 PUSH0 SWAP1 SLOAD SWAP1 PUSH2 0x100 EXP SWAP1 DIV PUSH20 0xFFFFFFFFFFFFFFFFFFFFFFFFFFFFFFFFFFFFFFFF AND SWAP1 POP PUSH0 PUSH20 0xFFFFFFFFFFFFFFFFFFFFFFFFFFFFFFFFFFFFFFFF AND DUP2 PUSH20 0xFFFFFFFFFFFFFFFFFFFFFFFFFFFFFFFFFFFFFFFF AND SUB PUSH2 0x847 JUMPI PUSH1 0x40 MLOAD PUSH32 0x8C379A000000000000000000000000000000000000000000000000000000000 DUP2 MSTORE PUSH1 0x4 ADD PUSH2 0x83E SWAP1 PUSH2 0x1444 JUMP JUMPDEST PUSH1 0x40 MLOAD DUP1 SWAP2 SUB SWAP1 REVERT JUMPDEST DUP1 SWAP2 POP POP SWAP2 SWAP1 POP JUMP JUMPDEST PUSH0 DUP1 PUSH20 0xFFFFFFFFFFFFFFFFFFFFFFFFFFFFFFFFFFFFFFFF AND DUP3 PUSH20 0xFFFFFFFFFFFFFFFFFFFFFFFFFFFFFFFFFFFFFFFF AND SUB PUSH2 0x8BF JUMPI PUSH1 0x40 MLOAD PUSH32 0x8C379A000000000000000000000000000000000000000000000000000000000 DUP2 MSTORE PUSH1 0x4 ADD PUSH2 0x8B6 SWAP1 PUSH2 0x14D2 JUMP JUMPDEST PUSH1 0x40 MLOAD DUP1 SWAP2 SUB SWAP1 REVERT JUMPDEST PUSH1 0x1 PUSH0 DUP4 PUSH20 0xFFFFFFFFFFFFFFFFFFFFFFFFFFFFFFFFFFFFFFFF AND PUSH20 0xFFFFFFFFFFFFFFFFFFFFFFFFFFFFFFFFFFFFFFFF AND DUP2 MSTORE PUSH1 0x20 ADD SWAP1 DUP2 MSTORE PUSH1 0x20 ADD PUSH0 KECCAK256 SLOAD SWAP1 POP SWAP2 SWAP1 POP JUMP JUMPDEST CALLER PUSH20 0xFFFFFFFFFFFFFFFFFFFFFFFFFFFFFFFFFFFFFFFF AND DUP3 PUSH20 0xFFFFFFFFFFFFFFFFFFFFFFFFFFFFFFFFFFFFFFFF AND SUB PUSH2 0x972 JUMPI PUSH1 0x40 MLOAD PUSH32 0x8C379A000000000000000000000000000000000000000000000000000000000 DUP2 MSTORE PUSH1 0x4 ADD PUSH2 0x969 SWAP1 PUSH2 0x153A JUMP JUMPDEST PUSH1 0x40 MLOAD DUP1 SWAP2 SUB SWAP1 REVERT JUMPDEST DUP1 PUSH1 0x3 PUSH0 CALLER PUSH20 0xFFFFFFFFFFFFFFFFFFFFFFFFFFFFFFFFFFFFFFFF AND PUSH20 0xFFFFFFFFFFFFFFFFFFFFFFFFFFFFFFFFFFFFFFFF AND DUP2 MSTORE PUSH1 0x20 ADD SWAP1 DUP2 MSTORE PUSH1 0x20 ADD PUSH0 KECCAK256 PUSH0 DUP5 PUSH20 0xFFFFFFFFFFFFFFFFFFFFFFFFFFFFFFFFFFFFFFFF AND PUSH20 0xFFFFFFFFFFFFFFFFFFFFFFFFFFFFFFFFFFFFFFFF AND DUP2 MSTORE PUSH1 0x20 ADD SWAP1 DUP2 MSTORE PUSH1 0x20 ADD PUSH0 KECCAK256 PUSH0 PUSH2 0x100 EXP DUP2 SLOAD DUP2 PUSH1 0xFF MUL NOT AND SWAP1 DUP4 ISZERO ISZERO MUL OR SWAP1 SSTORE POP DUP2 PUSH20 0xFFFFFFFFFFFFFFFFFFFFFFFFFFFFFFFFFFFFFFFF AND CALLER PUSH20 0xFFFFFFFFFFFFFFFFFFFFFFFFFFFFFFFFFFFFFFFF AND PUSH32 0x17307EAB39AB6107E8899845AD3D59BD9653F200F220920489CA2B5937696C31 DUP4 PUSH1 0x40 MLOAD PUSH2 0xA5E SWAP2 SWAP1 PUSH2 0xF36 JUMP JUMPDEST PUSH1 0x40 MLOAD DUP1 SWAP2 SUB SWAP1 LOG3 POP POP JUMP JUMPDEST PUSH0 PUSH1 0x3 PUSH0 DUP5 PUSH20 0xFFFFFFFFFFFFFFFFFFFFFFFFFFFFFFFFFFFFFFFF AND PUSH20 0xFFFFFFFFFFFFFFFFFFFFFFFFFFFFFFFFFFFFFFFF AND DUP2 MSTORE PUSH1 0x20 ADD SWAP1 DUP2 MSTORE PUSH1 0x20 ADD PUSH0 KECCAK256 PUSH0 DUP4 PUSH20 0xFFFFFFFFFFFFFFFFFFFFFFFFFFFFFFFFFFFFFFFF AND PUSH20 0xFFFFFFFFFFFFFFFFFFFFFFFFFFFFFFFFFFFFFFFF AND DUP2 MSTORE PUSH1 0x20 ADD SWAP1 DUP2 MSTORE PUSH1 0x20 ADD PUSH0 KECCAK256 PUSH0 SWAP1 SLOAD SWAP1 PUSH2 0x100 EXP SWAP1 DIV PUSH1 0xFF AND SWAP1 POP SWAP3 SWAP2 POP POP JUMP JUMPDEST DUP2 PUSH1 0x2 PUSH0 DUP4 DUP2 MSTORE PUSH1 0x20 ADD SWAP1 DUP2 MSTORE PUSH1 0x20 ADD PUSH0 KECCAK256 PUSH0 PUSH2 0x100 EXP DUP2 SLOAD DUP2 PUSH20 0xFFFFFFFFFFFFFFFFFFFFFFFFFFFFFFFFFFFFFFFF MUL NOT AND SWAP1 DUP4 PUSH20 0xFFFFFFFFFFFFFFFFFFFFFFFFFFFFFFFFFFFFFFFF AND MUL OR SWAP1 SSTORE POP DUP1 DUP3 PUSH20 0xFFFFFFFFFFFFFFFFFFFFFFFFFFFFFFFFFFFFFFFF AND PUSH2 0xB68 DUP4 PUSH2 0x7A5 JUMP JUMPDEST PUSH20 0xFFFFFFFFFFFFFFFFFFFFFFFFFFFFFFFFFFFFFFFF AND PUSH32 0x8C5BE1E5EBEC7D5BD14F71427D1E84F3DD0314C0F7B2291E5B200AC8C7C3B925 PUSH1 0x40 MLOAD PUSH1 0x40 MLOAD DUP1 SWAP2 SUB SWAP1 LOG4 POP POP JUMP JUMPDEST PUSH0 DUP1 DUP5 PUSH20 0xFFFFFFFFFFFFFFFFFFFFFFFFFFFFFFFFFFFFFFFF AND EXTCODESIZE GT ISZERO PUSH2 0xCA4 JUMPI DUP4 PUSH20 0xFFFFFFFFFFFFFFFFFFFFFFFFFFFFFFFFFFFFFFFF AND PUSH4 0x150B7A02 CALLER DUP8 DUP7 DUP7 PUSH1 0x40 MLOAD DUP6 PUSH4 0xFFFFFFFF AND PUSH1 0xE0 SHL DUP2 MSTORE PUSH1 0x4 ADD PUSH2 0xC0D SWAP5 SWAP4 SWAP3 SWAP2 SWAP1 PUSH2 0x15C8 JUMP JUMPDEST PUSH1 0x20 PUSH1 0x40 MLOAD DUP1 DUP4 SUB DUP2 PUSH0 DUP8 GAS CALL SWAP3 POP POP POP DUP1 ISZERO PUSH2 0xC48 JUMPI POP PUSH1 0x40 MLOAD RETURNDATASIZE PUSH1 0x1F NOT PUSH1 0x1F DUP3 ADD AND DUP3 ADD DUP1 PUSH1 0x40 MSTORE POP DUP2 ADD SWAP1 PUSH2 0xC45 SWAP2 SWAP1 PUSH2 0x1667 JUMP JUMPDEST PUSH1 0x1 JUMPDEST PUSH2 0xC54 JUMPI PUSH0 SWAP1 POP PUSH2 0xCA9 JUMP JUMPDEST PUSH4 0x150B7A02 PUSH1 0xE0 SHL PUSH28 0xFFFFFFFFFFFFFFFFFFFFFFFFFFFFFFFFFFFFFFFFFFFFFFFFFFFFFFFF NOT AND DUP2 PUSH28 0xFFFFFFFFFFFFFFFFFFFFFFFFFFFFFFFFFFFFFFFFFFFFFFFFFFFFFFFF NOT AND EQ SWAP2 POP POP PUSH2 0xCA9 JUMP JUMPDEST PUSH1 0x1 SWAP1 POP JUMPDEST SWAP5 SWAP4 POP POP POP POP JUMP JUMPDEST PUSH0 DUP1 REVERT JUMPDEST PUSH0 DUP2 SWAP1 POP SWAP2 SWAP1 POP JUMP JUMPDEST PUSH2 0xCC7 DUP2 PUSH2 0xCB5 JUMP JUMPDEST DUP2 EQ PUSH2 0xCD1 JUMPI PUSH0 DUP1 REVERT JUMPDEST POP JUMP JUMPDEST PUSH0 DUP2 CALLDATALOAD SWAP1 POP PUSH2 0xCE2 DUP2 PUSH2 0xCBE JUMP JUMPDEST SWAP3 SWAP2 POP POP JUMP JUMPDEST PUSH0 PUSH1 0x20 DUP3 DUP5 SUB SLT ISZERO PUSH2 0xCFD JUMPI PUSH2 0xCFC PUSH2 0xCB1 JUMP JUMPDEST JUMPDEST PUSH0 PUSH2 0xD0A DUP5 DUP3 DUP6 ADD PUSH2 0xCD4 JUMP JUMPDEST SWAP2 POP POP SWAP3 SWAP2 POP POP JUMP JUMPDEST PUSH0 PUSH20 0xFFFFFFFFFFFFFFFFFFFFFFFFFFFFFFFFFFFFFFFF DUP3 AND SWAP1 POP SWAP2 SWAP1 POP JUMP JUMPDEST PUSH0 PUSH2 0xD3C DUP3 PUSH2 0xD13 JUMP JUMPDEST SWAP1 POP SWAP2 SWAP1 POP JUMP JUMPDEST PUSH2 0xD4C DUP2 PUSH2 0xD32 JUMP JUMPDEST DUP3 MSTORE POP POP JUMP JUMPDEST PUSH0 PUSH1 0x20 DUP3 ADD SWAP1 POP PUSH2 0xD65 PUSH0 DUP4 ADD DUP5 PUSH2 0xD43 JUMP JUMPDEST SWAP3 SWAP2 POP POP JUMP JUMPDEST PUSH2 0xD74 DUP2 PUSH2 0xD32 JUMP JUMPDEST DUP2 EQ PUSH2 0xD7E JUMPI PUSH0 DUP1 REVERT JUMPDEST POP JUMP JUMPDEST PUSH0 DUP2 CALLDATALOAD SWAP1 POP PUSH2 0xD8F DUP2 PUSH2 0xD6B JUMP JUMPDEST SWAP3 SWAP2 POP POP JUMP JUMPDEST PUSH0 DUP1 PUSH1 0x40 DUP4 DUP6 SUB SLT ISZERO PUSH2 0xDAB JUMPI PUSH2 0xDAA PUSH2 0xCB1 JUMP JUMPDEST JUMPDEST PUSH0 PUSH2 0xDB8 DUP6 DUP3 DUP7 ADD PUSH2 0xD81 JUMP JUMPDEST SWAP3 POP POP PUSH1 0x20 PUSH2 0xDC9 DUP6 DUP3 DUP7 ADD PUSH2 0xCD4 JUMP JUMPDEST SWAP2 POP POP SWAP3 POP SWAP3 SWAP1 POP JUMP JUMPDEST PUSH0 DUP1 PUSH0 PUSH1 0x60 DUP5 DUP7 SUB SLT ISZERO PUSH2 0xDEA JUMPI PUSH2 0xDE9 PUSH2 0xCB1 JUMP JUMPDEST JUMPDEST PUSH0 PUSH2 0xDF7 DUP7 DUP3 DUP8 ADD PUSH2 0xD81 JUMP JUMPDEST SWAP4 POP POP PUSH1 0x20 PUSH2 0xE08 DUP7 DUP3 DUP8 ADD PUSH2 0xD81 JUMP JUMPDEST SWAP3 POP POP PUSH1 0x40 PUSH2 0xE19 DUP7 DUP3 DUP8 ADD PUSH2 0xCD4 JUMP JUMPDEST SWAP2 POP POP SWAP3 POP SWAP3 POP SWAP3 JUMP JUMPDEST PUSH0 PUSH1 0x20 DUP3 DUP5 SUB SLT ISZERO PUSH2 0xE38 JUMPI PUSH2 0xE37 PUSH2 0xCB1 JUMP JUMPDEST JUMPDEST PUSH0 PUSH2 0xE45 DUP5 DUP3 DUP6 ADD PUSH2 0xD81 JUMP JUMPDEST SWAP2 POP POP SWAP3 SWAP2 POP POP JUMP JUMPDEST PUSH2 0xE57 DUP2 PUSH2 0xCB5 JUMP JUMPDEST DUP3 MSTORE POP POP JUMP JUMPDEST PUSH0 PUSH1 0x20 DUP3 ADD SWAP1 POP PUSH2 0xE70 PUSH0 DUP4 ADD DUP5 PUSH2 0xE4E JUMP JUMPDEST SWAP3 SWAP2 POP POP JUMP JUMPDEST PUSH0 DUP2 ISZERO ISZERO SWAP1 POP SWAP2 SWAP1 POP JUMP JUMPDEST PUSH2 0xE8A DUP2 PUSH2 0xE76 JUMP JUMPDEST DUP2 EQ PUSH2 0xE94 JUMPI PUSH0 DUP1 REVERT JUMPDEST POP JUMP JUMPDEST PUSH0 DUP2 CALLDATALOAD SWAP1 POP PUSH2 0xEA5 DUP2 PUSH2 0xE81 JUMP JUMPDEST SWAP3 SWAP2 POP POP JUMP JUMPDEST PUSH0 DUP1 PUSH1 0x40 DUP4 DUP6 SUB SLT ISZERO PUSH2 0xEC1 JUMPI PUSH2 0xEC0 PUSH2 0xCB1 JUMP JUMPDEST JUMPDEST PUSH0 PUSH2 0xECE DUP6 DUP3 DUP7 ADD PUSH2 0xD81 JUMP JUMPDEST SWAP3 POP POP PUSH1 0x20 PUSH2 0xEDF DUP6 DUP3 DUP7 ADD PUSH2 0xE97 JUMP JUMPDEST SWAP2 POP POP SWAP3 POP SWAP3 SWAP1 POP JUMP JUMPDEST PUSH0 DUP1 PUSH1 0x40 DUP4 DUP6 SUB SLT ISZERO PUSH2 0xEFF JUMPI PUSH2 0xEFE PUSH2 0xCB1 JUMP JUMPDEST JUMPDEST PUSH0 PUSH2 0xF0C DUP6 DUP3 DUP7 ADD PUSH2 0xD81 JUMP JUMPDEST SWAP3 POP POP PUSH1 0x20 PUSH2 0xF1D DUP6 DUP3 DUP7 ADD PUSH2 0xD81 JUMP JUMPDEST SWAP2 POP POP SWAP3 POP SWAP3 SWAP1 POP JUMP JUMPDEST PUSH2 0xF30 DUP2 PUSH2 0xE76 JUMP JUMPDEST DUP3 MSTORE POP POP JUMP JUMPDEST PUSH0 PUSH1 0x20 DUP3 ADD SWAP1 POP PUSH2 0xF49 PUSH0 DUP4 ADD DUP5 PUSH2 0xF27 JUMP JUMPDEST SWAP3 SWAP2 POP POP JUMP JUMPDEST PUSH0 DUP3 DUP3 MSTORE PUSH1 0x20 DUP3 ADD SWAP1 POP SWAP3 SWAP2 POP POP JUMP JUMPDEST PUSH32 0x4552433732313A20617070726F76656420717565727920666F72206E6F6E6578 PUSH0 DUP3 ADD MSTORE PUSH32 0x697374656E7420746F6B656E0000000000000000000000000000000000000000 PUSH1 0x20 DUP3 ADD MSTORE POP JUMP JUMPDEST PUSH0 PUSH2 0xFB9 PUSH1 0x2C DUP4 PUSH2 0xF4F JUMP JUMPDEST SWAP2 POP PUSH2 0xFC4 DUP3 PUSH2 0xF5F JUMP JUMPDEST PUSH1 0x40 DUP3 ADD SWAP1 POP SWAP2 SWAP1 POP JUMP JUMPDEST PUSH0 PUSH1 0x20 DUP3 ADD SWAP1 POP DUP2 DUP2 SUB PUSH0 DUP4 ADD MSTORE PUSH2 0xFE6 DUP2 PUSH2 0xFAD JUMP JUMPDEST SWAP1 POP SWAP2 SWAP1 POP JUMP JUMPDEST PUSH32 0x4552433732313A20617070726F76616C20746F2063757272656E74206F776E65 PUSH0 DUP3 ADD MSTORE PUSH32 0x7200000000000000000000000000000000000000000000000000000000000000 PUSH1 0x20 DUP3 ADD MSTORE POP JUMP JUMPDEST PUSH0 PUSH2 0x1047 PUSH1 0x21 DUP4 PUSH2 0xF4F JUMP JUMPDEST SWAP2 POP PUSH2 0x1052 DUP3 PUSH2 0xFED JUMP JUMPDEST PUSH1 0x40 DUP3 ADD SWAP1 POP SWAP2 SWAP1 POP JUMP JUMPDEST PUSH0 PUSH1 0x20 DUP3 ADD SWAP1 POP DUP2 DUP2 SUB PUSH0 DUP4 ADD MSTORE PUSH2 0x1074 DUP2 PUSH2 0x103B JUMP JUMPDEST SWAP1 POP SWAP2 SWAP1 POP JUMP JUMPDEST PUSH32 0x4552433732313A20617070726F76652063616C6C6572206973206E6F74206F77 PUSH0 DUP3 ADD MSTORE PUSH32 0x6E6572206E6F7220617070726F76656420666F7220616C6C0000000000000000 PUSH1 0x20 DUP3 ADD MSTORE POP JUMP JUMPDEST PUSH0 PUSH2 0x10D5 PUSH1 0x38 DUP4 PUSH2 0xF4F JUMP JUMPDEST SWAP2 POP PUSH2 0x10E0 DUP3 PUSH2 0x107B JUMP JUMPDEST PUSH1 0x40 DUP3 ADD SWAP1 POP SWAP2 SWAP1 POP JUMP JUMPDEST PUSH0 PUSH1 0x20 DUP3 ADD SWAP1 POP DUP2 DUP2 SUB PUSH0 DUP4 ADD MSTORE PUSH2 0x1102 DUP2 PUSH2 0x10C9 JUMP JUMPDEST SWAP1 POP SWAP2 SWAP1 POP JUMP JUMPDEST PUSH32 0x4552433732313A207472616E736665722063616C6C6572206973206E6F74206F PUSH0 DUP3 ADD MSTORE PUSH32 0x776E6572206E6F7220617070726F766564000000000000000000000000000000 PUSH1 0x20 DUP3 ADD MSTORE POP JUMP JUMPDEST PUSH0 PUSH2 0x1163 PUSH1 0x31 DUP4 PUSH2 0xF4F JUMP JUMPDEST SWAP2 POP PUSH2 0x116E DUP3 PUSH2 0x1109 JUMP JUMPDEST PUSH1 0x40 DUP3 ADD SWAP1 POP SWAP2 SWAP1 POP JUMP JUMPDEST PUSH0 PUSH1 0x20 DUP3 ADD SWAP1 POP DUP2 DUP2 SUB PUSH0 DUP4 ADD MSTORE PUSH2 0x1190 DUP2 PUSH2 0x1157 JUMP JUMPDEST SWAP1 POP SWAP2 SWAP1 POP JUMP JUMPDEST PUSH32 0x4552433732313A207472616E73666572206F6620746F6B656E20746861742069 PUSH0 DUP3 ADD MSTORE PUSH32 0x73206E6F74206F776E6564000000000000000000000000000000000000000000 PUSH1 0x20 DUP3 ADD MSTORE POP JUMP JUMPDEST PUSH0 PUSH2 0x11F1 PUSH1 0x2B DUP4 PUSH2 0xF4F JUMP JUMPDEST SWAP2 POP PUSH2 0x11FC DUP3 PUSH2 0x1197 JUMP JUMPDEST PUSH1 0x40 DUP3 ADD SWAP1 POP SWAP2 SWAP1 POP JUMP JUMPDEST PUSH0 PUSH1 0x20 DUP3 ADD SWAP1 POP DUP2 DUP2 SUB PUSH0 DUP4 ADD MSTORE PUSH2 0x121E DUP2 PUSH2 0x11E5 JUMP JUMPDEST SWAP1 POP SWAP2 SWAP1 POP JUMP JUMPDEST PUSH32 0x4552433732313A207472616E7366657220746F20746865207A65726F20616464 PUSH0 DUP3 ADD MSTORE PUSH32 0x7265737300000000000000000000000000000000000000000000000000000000 PUSH1 0x20 DUP3 ADD MSTORE POP JUMP JUMPDEST PUSH0 PUSH2 0x127F PUSH1 0x24 DUP4 PUSH2 0xF4F JUMP JUMPDEST SWAP2 POP PUSH2 0x128A DUP3 PUSH2 0x1225 JUMP JUMPDEST PUSH1 0x40 DUP3 ADD SWAP1 POP SWAP2 SWAP1 POP JUMP JUMPDEST PUSH0 PUSH1 0x20 DUP3 ADD SWAP1 POP DUP2 DUP2 SUB PUSH0 DUP4 ADD MSTORE PUSH2 0x12AC DUP2 PUSH2 0x1273 JUMP JUMPDEST SWAP1 POP SWAP2 SWAP1 POP JUMP JUMPDEST PUSH32 0x4E487B7100000000000000000000000000000000000000000000000000000000 PUSH0 MSTORE PUSH1 0x11 PUSH1 0x4 MSTORE PUSH1 0x24 PUSH0 REVERT JUMPDEST PUSH0 PUSH2 0x12EA DUP3 PUSH2 0xCB5 JUMP JUMPDEST SWAP2 POP PUSH2 0x12F5 DUP4 PUSH2 0xCB5 JUMP JUMPDEST SWAP3 POP DUP3 DUP3 SUB SWAP1 POP DUP2 DUP2 GT ISZERO PUSH2 0x130D JUMPI PUSH2 0x130C PUSH2 0x12B3 JUMP JUMPDEST JUMPDEST SWAP3 SWAP2 POP POP JUMP JUMPDEST PUSH0 PUSH2 0x131D DUP3 PUSH2 0xCB5 JUMP JUMPDEST SWAP2 POP PUSH2 0x1328 DUP4 PUSH2 0xCB5 JUMP JUMPDEST SWAP3 POP DUP3 DUP3 ADD SWAP1 POP DUP1 DUP3 GT ISZERO PUSH2 0x1340 JUMPI PUSH2 0x133F PUSH2 0x12B3 JUMP JUMPDEST JUMPDEST SWAP3 SWAP2 POP POP JUMP JUMPDEST PUSH32 0x4552433732313A207472616E7366657220746F206E6F6E204552433732315265 PUSH0 DUP3 ADD MSTORE PUSH32 0x63656976657220696D706C656D656E7465720000000000000000000000000000 PUSH1 0x20 DUP3 ADD MSTORE POP JUMP JUMPDEST PUSH0 PUSH2 0x13A0 PUSH1 0x32 DUP4 PUSH2 0xF4F JUMP JUMPDEST SWAP2 POP PUSH2 0x13AB DUP3 PUSH2 0x1346 JUMP JUMPDEST PUSH1 0x40 DUP3 ADD SWAP1 POP SWAP2 SWAP1 POP JUMP JUMPDEST PUSH0 PUSH1 0x20 DUP3 ADD SWAP1 POP DUP2 DUP2 SUB PUSH0 DUP4 ADD MSTORE PUSH2 0x13CD DUP2 PUSH2 0x1394 JUMP JUMPDEST SWAP1 POP SWAP2 SWAP1 POP JUMP JUMPDEST PUSH32 0x4552433732313A206F776E657220717565727920666F72206E6F6E6578697374 PUSH0 DUP3 ADD MSTORE PUSH32 0x656E7420746F6B656E0000000000000000000000000000000000000000000000 PUSH1 0x20 DUP3 ADD MSTORE POP JUMP JUMPDEST PUSH0 PUSH2 0x142E PUSH1 0x29 DUP4 PUSH2 0xF4F JUMP JUMPDEST SWAP2 POP PUSH2 0x1439 DUP3 PUSH2 0x13D4 JUMP JUMPDEST PUSH1 0x40 DUP3 ADD SWAP1 POP SWAP2 SWAP1 POP JUMP JUMPDEST PUSH0 PUSH1 0x20 DUP3 ADD SWAP1 POP DUP2 DUP2 SUB PUSH0 DUP4 ADD MSTORE PUSH2 0x145B DUP2 PUSH2 0x1422 JUMP JUMPDEST SWAP1 POP SWAP2 SWAP1 POP JUMP JUMPDEST PUSH32 0x4552433732313A2062616C616E636520717565727920666F7220746865207A65 PUSH0 DUP3 ADD MSTORE PUSH32 0x726F206164647265737300000000000000000000000000000000000000000000 PUSH1 0x20 DUP3 ADD MSTORE POP JUMP JUMPDEST PUSH0 PUSH2 0x14BC PUSH1 0x2A DUP4 PUSH2 0xF4F JUMP JUMPDEST SWAP2 POP PUSH2 0x14C7 DUP3 PUSH2 0x1462 JUMP JUMPDEST PUSH1 0x40 DUP3 ADD SWAP1 POP SWAP2 SWAP1 POP JUMP JUMPDEST PUSH0 PUSH1 0x20 DUP3 ADD SWAP1 POP DUP2 DUP2 SUB PUSH0 DUP4 ADD MSTORE PUSH2 0x14E9 DUP2 PUSH2 0x14B0 JUMP JUMPDEST SWAP1 POP SWAP2 SWAP1 POP JUMP JUMPDEST PUSH32 0x4552433732313A20617070726F766520746F2063616C6C657200000000000000 PUSH0 DUP3 ADD MSTORE POP JUMP JUMPDEST PUSH0 PUSH2 0x1524 PUSH1 0x19 DUP4 PUSH2 0xF4F JUMP JUMPDEST SWAP2 POP PUSH2 0x152F DUP3 PUSH2 0x14F0 JUMP JUMPDEST PUSH1 0x20 DUP3 ADD SWAP1 POP SWAP2 SWAP1 POP JUMP JUMPDEST PUSH0 PUSH1 0x20 DUP3 ADD SWAP1 POP DUP2 DUP2 SUB PUSH0 DUP4 ADD MSTORE PUSH2 0x1551 DUP2 PUSH2 0x1518 JUMP JUMPDEST SWAP1 POP SWAP2 SWAP1 POP JUMP JUMPDEST PUSH0 DUP2 MLOAD SWAP1 POP SWAP2 SWAP1 POP JUMP JUMPDEST PUSH0 DUP3 DUP3 MSTORE PUSH1 0x20 DUP3 ADD SWAP1 POP SWAP3 SWAP2 POP POP JUMP JUMPDEST DUP3 DUP2 DUP4 MCOPY PUSH0 DUP4 DUP4 ADD MSTORE POP POP POP JUMP JUMPDEST PUSH0 PUSH1 0x1F NOT PUSH1 0x1F DUP4 ADD AND SWAP1 POP SWAP2 SWAP1 POP JUMP JUMPDEST PUSH0 PUSH2 0x159A DUP3 PUSH2 0x1558 JUMP JUMPDEST PUSH2 0x15A4 DUP2 DUP6 PUSH2 0x1562 JUMP JUMPDEST SWAP4 POP PUSH2 0x15B4 DUP2 DUP6 PUSH1 0x20 DUP7 ADD PUSH2 0x1572 JUMP JUMPDEST PUSH2 0x15BD DUP2 PUSH2 0x1580 JUMP JUMPDEST DUP5 ADD SWAP2 POP POP SWAP3 SWAP2 POP POP JUMP JUMPDEST PUSH0 PUSH1 0x80 DUP3 ADD SWAP1 POP PUSH2 0x15DB PUSH0 DUP4 ADD DUP8 PUSH2 0xD43 JUMP JUMPDEST PUSH2 0x15E8 PUSH1 0x20 DUP4 ADD DUP7 PUSH2 0xD43 JUMP JUMPDEST PUSH2 0x15F5 PUSH1 0x40 DUP4 ADD DUP6 PUSH2 0xE4E JUMP JUMPDEST DUP2 DUP2 SUB PUSH1 0x60 DUP4 ADD MSTORE PUSH2 0x1607 DUP2 DUP5 PUSH2 0x1590 JUMP JUMPDEST SWAP1 POP SWAP6 SWAP5 POP POP POP POP POP JUMP JUMPDEST PUSH0 PUSH32 0xFFFFFFFF00000000000000000000000000000000000000000000000000000000 DUP3 AND SWAP1 POP SWAP2 SWAP1 POP JUMP JUMPDEST PUSH2 0x1646 DUP2 PUSH2 0x1612 JUMP JUMPDEST DUP2 EQ PUSH2 0x1650 JUMPI PUSH0 DUP1 REVERT JUMPDEST POP JUMP JUMPDEST PUSH0 DUP2 MLOAD SWAP1 POP PUSH2 0x1661 DUP2 PUSH2 0x163D JUMP JUMPDEST SWAP3 SWAP2 POP POP JUMP JUMPDEST PUSH0 PUSH1 0x20 DUP3 DUP5 SUB SLT ISZERO PUSH2 0x167C JUMPI PUSH2 0x167B PUSH2 0xCB1 JUMP JUMPDEST JUMPDEST PUSH0 PUSH2 0x1689 DUP5 DUP3 DUP6 ADD PUSH2 0x1653 JUMP JUMPDEST SWAP2 POP POP SWAP3 SWAP2 POP POP JUMP INVALID LOG2 PUSH5 0x6970667358 0x22 SLT KECCAK256 0xAC PUSH23 0x3413A4AC9EA3113A3386BC01BF9AACE68B0245282B8315 0xE6 SUB ADD SELFBALANCE 0xBE SWAP8 0x2A PUSH5 0x736F6C6343 STOP ADDMOD BYTE STOP CALLER "
				},
				"gasEstimates": {
					"creation": {
						"codeDepositCost": "1166400",
						"executionCost": "1212",
						"totalCost": "1167612"
					},
					"external": {
						"approve(address,uint256)": "31668",
						"balanceOf(address)": "2886",
						"getApproved(uint256)": "5099",
						"isApprovedForAll(address,address)": "infinite",
						"ownerOf(uint256)": "2959",
						"safeTransferFrom(address,address,uint256)": "infinite",
						"setApprovalForAll(address,bool)": "infinite",
						"transferFrom(address,address,uint256)": "infinite"
					},
					"internal": {
						"_approve(address,uint256)": "infinite",
						"_burn(uint256)": "infinite",
						"_checkOnERC721Received(address,address,uint256,bytes memory)": "infinite",
						"_mint(address,uint256)": "infinite"
					}
				},
				"methodIdentifiers": {
					"approve(address,uint256)": "095ea7b3",
					"balanceOf(address)": "70a08231",
					"getApproved(uint256)": "081812fc",
					"isApprovedForAll(address,address)": "e985e9c5",
					"ownerOf(uint256)": "6352211e",
					"safeTransferFrom(address,address,uint256)": "42842e0e",
					"setApprovalForAll(address,bool)": "a22cb465",
					"transferFrom(address,address,uint256)": "23b872dd"
				}
			},
			"storageLayout": {
				"storage": [
					{
						"astId": 94,
						"contract": "contracts/ERC721.sol:ERC721",
						"label": "_owners",
						"offset": 0,
						"slot": "0",
						"type": "t_mapping(t_uint256,t_address)"
					},
					{
						"astId": 98,
						"contract": "contracts/ERC721.sol:ERC721",
						"label": "_balances",
						"offset": 0,
						"slot": "1",
						"type": "t_mapping(t_address,t_uint256)"
					},
					{
						"astId": 102,
						"contract": "contracts/ERC721.sol:ERC721",
						"label": "_tokenApprovals",
						"offset": 0,
						"slot": "2",
						"type": "t_mapping(t_uint256,t_address)"
					},
					{
						"astId": 108,
						"contract": "contracts/ERC721.sol:ERC721",
						"label": "_operatorApprovals",
						"offset": 0,
						"slot": "3",
						"type": "t_mapping(t_address,t_mapping(t_address,t_bool))"
					}
				],
				"types": {
					"t_address": {
						"encoding": "inplace",
						"label": "address",
						"numberOfBytes": "20"
					},
					"t_bool": {
						"encoding": "inplace",
						"label": "bool",
						"numberOfBytes": "1"
					},
					"t_mapping(t_address,t_bool)": {
						"encoding": "mapping",
						"key": "t_address",
						"label": "mapping(address => bool)",
						"numberOfBytes": "32",
						"value": "t_bool"
					},
					"t_mapping(t_address,t_mapping(t_address,t_bool))": {
						"encoding": "mapping",
						"key": "t_address",
						"label": "mapping(address => mapping(address => bool))",
						"numberOfBytes": "32",
						"value": "t_mapping(t_address,t_bool)"
					},
					"t_mapping(t_address,t_uint256)": {
						"encoding": "mapping",
						"key": "t_address",
						"label": "mapping(address => uint256)",
						"numberOfBytes": "32",
						"value": "t_uint256"
					},
					"t_mapping(t_uint256,t_address)": {
						"encoding": "mapping",
						"key": "t_uint256",
						"label": "mapping(uint256 => address)",
						"numberOfBytes": "32",
						"value": "t_address"
					},
					"t_uint256": {
						"encoding": "inplace",
						"label": "uint256",
						"numberOfBytes": "32"
					}
				}
			},
			"userdoc": {
				"kind": "user",
				"methods": {},
				"version": 1
			}
		}
	}
}