{
	"contracts/HashingwithKeccak256.sol": {
		"SupplyChain": {
			"abi": [
				{
					"anonymous": false,
					"inputs": [
						{
							"indexed": false,
							"internalType": "bytes32",
							"name": "id",
							"type": "bytes32"
						},
						{
							"indexed": false,
							"internalType": "string",
							"name": "name",
							"type": "string"
						},
						{
							"indexed": false,
							"internalType": "uint256",
							"name": "quantity",
							"type": "uint256"
						},
						{
							"indexed": false,
							"internalType": "address",
							"name": "owner",
							"type": "address"
						}
					],
					"name": "ItemCreated",
					"type": "event"
				},
				{
					"inputs": [
						{
							"internalType": "string",
							"name": "name",
							"type": "string"
						},
						{
							"internalType": "uint256",
							"name": "quantity",
							"type": "uint256"
						}
					],
					"name": "createItem",
					"outputs": [],
					"stateMutability": "nonpayable",
					"type": "function"
				},
				{
					"inputs": [
						{
							"internalType": "bytes32",
							"name": "itemId",
							"type": "bytes32"
						}
					],
					"name": "getItem",
					"outputs": [
						{
							"components": [
								{
									"internalType": "bytes32",
									"name": "id",
									"type": "bytes32"
								},
								{
									"internalType": "string",
									"name": "name",
									"type": "string"
								},
								{
									"internalType": "uint256",
									"name": "quantity",
									"type": "uint256"
								},
								{
									"internalType": "address",
									"name": "owner",
									"type": "address"
								}
							],
							"internalType": "struct SupplyChain.Item",
							"name": "",
							"type": "tuple"
						}
					],
					"stateMutability": "view",
					"type": "function"
				},
				{
					"inputs": [
						{
							"internalType": "bytes32",
							"name": "",
							"type": "bytes32"
						}
					],
					"name": "items",
					"outputs": [
						{
							"internalType": "bytes32",
							"name": "id",
							"type": "bytes32"
						},
						{
							"internalType": "string",
							"name": "name",
							"type": "string"
						},
						{
							"internalType": "uint256",
							"name": "quantity",
							"type": "uint256"
						},
						{
							"internalType": "address",
							"name": "owner",
							"type": "address"
						}
					],
					"stateMutability": "view",
					"type": "function"
				}
			],
			"devdoc": {
				"kind": "dev",
				"methods": {},
				"version": 1
			},
			"evm": {
				"assembly": "    /* \"contracts/HashingwithKeccak256.sol\":64:965  contract SupplyChain {... */\n  mstore(0x40, 0x80)\n  callvalue\n  dup1\n  iszero\n  tag_1\n  jumpi\n  0x00\n  dup1\n  revert\ntag_1:\n  pop\n  dataSize(sub_0)\n  dup1\n  dataOffset(sub_0)\n  0x00\n  codecopy\n  0x00\n  return\nstop\n\nsub_0: assembly {\n        /* \"contracts/HashingwithKeccak256.sol\":64:965  contract SupplyChain {... */\n      mstore(0x40, 0x80)\n      callvalue\n      dup1\n      iszero\n      tag_1\n      jumpi\n      0x00\n      dup1\n      revert\n    tag_1:\n      pop\n      jumpi(tag_2, lt(calldatasize, 0x04))\n      shr(0xe0, calldataload(0x00))\n      dup1\n      0x48f343f3\n      eq\n      tag_3\n      jumpi\n      dup1\n      0x8c551742\n      eq\n      tag_4\n      jumpi\n      dup1\n      0xaa0372e7\n      eq\n      tag_5\n      jumpi\n    tag_2:\n      0x00\n      dup1\n      revert\n        /* \"contracts/HashingwithKeccak256.sol\":214:251  mapping(bytes32 => Item) public items */\n    tag_3:\n      tag_6\n      0x04\n      dup1\n      calldatasize\n      sub\n      dup2\n      add\n      swap1\n      tag_7\n      swap2\n      swap1\n      tag_8\n      jump\t// in\n    tag_7:\n      tag_9\n      jump\t// in\n    tag_6:\n      mload(0x40)\n      tag_10\n      swap5\n      swap4\n      swap3\n      swap2\n      swap1\n      tag_11\n      jump\t// in\n    tag_10:\n      mload(0x40)\n      dup1\n      swap2\n      sub\n      swap1\n      return\n        /* \"contracts/HashingwithKeccak256.sol\":344:775  function createItem(string memory name, uint256 quantity) public {... */\n    tag_4:\n      tag_12\n      0x04\n      dup1\n      calldatasize\n      sub\n      dup2\n      add\n      swap1\n      tag_13\n      swap2\n      swap1\n      tag_14\n      jump\t// in\n    tag_13:\n      tag_15\n      jump\t// in\n    tag_12:\n      stop\n        /* \"contracts/HashingwithKeccak256.sol\":783:962  function getItem(bytes32 itemId) public view returns (Item memory) {... */\n    tag_5:\n      tag_16\n      0x04\n      dup1\n      calldatasize\n      sub\n      dup2\n      add\n      swap1\n      tag_17\n      swap2\n      swap1\n      tag_8\n      jump\t// in\n    tag_17:\n      tag_18\n      jump\t// in\n    tag_16:\n      mload(0x40)\n      tag_19\n      swap2\n      swap1\n      tag_20\n      jump\t// in\n    tag_19:\n      mload(0x40)\n      dup1\n      swap2\n      sub\n      swap1\n      return\n        /* \"contracts/HashingwithKeccak256.sol\":214:251  mapping(bytes32 => Item) public items */\n    tag_9:\n      mstore(0x20, 0x00)\n      dup1\n      0x00\n      mstore\n      keccak256(0x00, 0x40)\n      0x00\n      swap2\n      pop\n      swap1\n      pop\n      dup1\n      0x00\n      add\n      sload\n      swap1\n      dup1\n      0x01\n      add\n      dup1\n      sload\n      tag_21\n      swap1\n      tag_22\n      jump\t// in\n    tag_21:\n      dup1\n      0x1f\n      add\n      0x20\n      dup1\n      swap2\n      div\n      mul\n      0x20\n      add\n      mload(0x40)\n      swap1\n      dup2\n      add\n      0x40\n      mstore\n      dup1\n      swap3\n      swap2\n      swap1\n      dup2\n      dup2\n      mstore\n      0x20\n      add\n      dup3\n      dup1\n      sload\n      tag_23\n      swap1\n      tag_22\n      jump\t// in\n    tag_23:\n      dup1\n      iszero\n      tag_24\n      jumpi\n      dup1\n      0x1f\n      lt\n      tag_25\n      jumpi\n      0x0100\n      dup1\n      dup4\n      sload\n      div\n      mul\n      dup4\n      mstore\n      swap2\n      0x20\n      add\n      swap2\n      jump(tag_24)\n    tag_25:\n      dup3\n      add\n      swap2\n      swap1\n      0x00\n      mstore\n      keccak256(0x00, 0x20)\n      swap1\n    tag_26:\n      dup2\n      sload\n      dup2\n      mstore\n      swap1\n      0x01\n      add\n      swap1\n      0x20\n      add\n      dup1\n      dup4\n      gt\n      tag_26\n      jumpi\n      dup3\n      swap1\n      sub\n      0x1f\n      and\n      dup3\n      add\n      swap2\n    tag_24:\n      pop\n      pop\n      pop\n      pop\n      pop\n      swap1\n      dup1\n      0x02\n      add\n      sload\n      swap1\n      dup1\n      0x03\n      add\n      0x00\n      swap1\n      sload\n      swap1\n      0x0100\n      exp\n      swap1\n      div\n      0xffffffffffffffffffffffffffffffffffffffff\n      and\n      swap1\n      pop\n      dup5\n      jump\t// out\n        /* \"contracts/HashingwithKeccak256.sol\":344:775  function createItem(string memory name, uint256 quantity) public {... */\n    tag_15:\n        /* \"contracts/HashingwithKeccak256.sol\":469:483  bytes32 itemId */\n      0x00\n        /* \"contracts/HashingwithKeccak256.sol\":513:517  name */\n      dup3\n        /* \"contracts/HashingwithKeccak256.sol\":519:527  quantity */\n      dup3\n        /* \"contracts/HashingwithKeccak256.sol\":529:539  msg.sender */\n      caller\n        /* \"contracts/HashingwithKeccak256.sol\":541:556  block.timestamp */\n      timestamp\n        /* \"contracts/HashingwithKeccak256.sol\":496:557  abi.encodePacked(name, quantity, msg.sender, block.timestamp) */\n      add(0x20, mload(0x40))\n      tag_28\n      swap5\n      swap4\n      swap3\n      swap2\n      swap1\n      tag_29\n      jump\t// in\n    tag_28:\n      mload(0x40)\n      0x20\n      dup2\n      dup4\n      sub\n      sub\n      dup2\n      mstore\n      swap1\n      0x40\n      mstore\n        /* \"contracts/HashingwithKeccak256.sol\":486:558  keccak256(abi.encodePacked(name, quantity, msg.sender, block.timestamp)) */\n      dup1\n      mload\n      swap1\n      0x20\n      add\n      keccak256\n        /* \"contracts/HashingwithKeccak256.sol\":469:558  bytes32 itemId = keccak256(abi.encodePacked(name, quantity, msg.sender, block.timestamp)) */\n      swap1\n      pop\n        /* \"contracts/HashingwithKeccak256.sol\":606:607  0 */\n      0x00\n        /* \"contracts/HashingwithKeccak256.sol\":598:608  bytes32(0) */\n      dup1\n      shl\n        /* \"contracts/HashingwithKeccak256.sol\":578:583  items */\n      0x00\n        /* \"contracts/HashingwithKeccak256.sol\":578:591  items[itemId] */\n      dup1\n        /* \"contracts/HashingwithKeccak256.sol\":584:590  itemId */\n      dup4\n        /* \"contracts/HashingwithKeccak256.sol\":578:591  items[itemId] */\n      dup2\n      mstore\n      0x20\n      add\n      swap1\n      dup2\n      mstore\n      0x20\n      add\n      0x00\n      keccak256\n        /* \"contracts/HashingwithKeccak256.sol\":578:594  items[itemId].id */\n      0x00\n      add\n      sload\n        /* \"contracts/HashingwithKeccak256.sol\":578:608  items[itemId].id == bytes32(0) */\n      eq\n        /* \"contracts/HashingwithKeccak256.sol\":570:632  require(items[itemId].id == bytes32(0), \"Item already exists\") */\n      tag_30\n      jumpi\n      mload(0x40)\n      0x08c379a000000000000000000000000000000000000000000000000000000000\n      dup2\n      mstore\n      0x04\n      add\n      tag_31\n      swap1\n      tag_32\n      jump\t// in\n    tag_31:\n      mload(0x40)\n      dup1\n      swap2\n      sub\n      swap1\n      revert\n    tag_30:\n        /* \"contracts/HashingwithKeccak256.sol\":659:699  Item(itemId, name, quantity, msg.sender) */\n      mload(0x40)\n      dup1\n      0x80\n      add\n      0x40\n      mstore\n      dup1\n        /* \"contracts/HashingwithKeccak256.sol\":664:670  itemId */\n      dup3\n        /* \"contracts/HashingwithKeccak256.sol\":659:699  Item(itemId, name, quantity, msg.sender) */\n      dup2\n      mstore\n      0x20\n      add\n        /* \"contracts/HashingwithKeccak256.sol\":672:676  name */\n      dup5\n        /* \"contracts/HashingwithKeccak256.sol\":659:699  Item(itemId, name, quantity, msg.sender) */\n      dup2\n      mstore\n      0x20\n      add\n        /* \"contracts/HashingwithKeccak256.sol\":678:686  quantity */\n      dup4\n        /* \"contracts/HashingwithKeccak256.sol\":659:699  Item(itemId, name, quantity, msg.sender) */\n      dup2\n      mstore\n      0x20\n      add\n        /* \"contracts/HashingwithKeccak256.sol\":688:698  msg.sender */\n      caller\n        /* \"contracts/HashingwithKeccak256.sol\":659:699  Item(itemId, name, quantity, msg.sender) */\n      0xffffffffffffffffffffffffffffffffffffffff\n      and\n      dup2\n      mstore\n      pop\n        /* \"contracts/HashingwithKeccak256.sol\":643:648  items */\n      0x00\n        /* \"contracts/HashingwithKeccak256.sol\":643:656  items[itemId] */\n      dup1\n        /* \"contracts/HashingwithKeccak256.sol\":649:655  itemId */\n      dup4\n        /* \"contracts/HashingwithKeccak256.sol\":643:656  items[itemId] */\n      dup2\n      mstore\n      0x20\n      add\n      swap1\n      dup2\n      mstore\n      0x20\n      add\n      0x00\n      keccak256\n        /* \"contracts/HashingwithKeccak256.sol\":643:699  items[itemId] = Item(itemId, name, quantity, msg.sender) */\n      0x00\n      dup3\n      add\n      mload\n      dup2\n      0x00\n      add\n      sstore\n      0x20\n      dup3\n      add\n      mload\n      dup2\n      0x01\n      add\n      swap1\n      dup2\n      tag_33\n      swap2\n      swap1\n      tag_34\n      jump\t// in\n    tag_33:\n      pop\n      0x40\n      dup3\n      add\n      mload\n      dup2\n      0x02\n      add\n      sstore\n      0x60\n      dup3\n      add\n      mload\n      dup2\n      0x03\n      add\n      exp(0x0100, 0x00)\n      dup2\n      sload\n      dup2\n      0xffffffffffffffffffffffffffffffffffffffff\n      mul\n      not\n      and\n      swap1\n      dup4\n      0xffffffffffffffffffffffffffffffffffffffff\n      and\n      mul\n      or\n      swap1\n      sstore\n      pop\n      swap1\n      pop\n      pop\n        /* \"contracts/HashingwithKeccak256.sol\":720:767  ItemCreated(itemId, name, quantity, msg.sender) */\n      0xc89fc6756df9c3af548ff04edb102cf22bc263027d269ca54f6fbffa731d283a\n        /* \"contracts/HashingwithKeccak256.sol\":732:738  itemId */\n      dup2\n        /* \"contracts/HashingwithKeccak256.sol\":740:744  name */\n      dup5\n        /* \"contracts/HashingwithKeccak256.sol\":746:754  quantity */\n      dup5\n        /* \"contracts/HashingwithKeccak256.sol\":756:766  msg.sender */\n      caller\n        /* \"contracts/HashingwithKeccak256.sol\":720:767  ItemCreated(itemId, name, quantity, msg.sender) */\n      mload(0x40)\n      tag_35\n      swap5\n      swap4\n      swap3\n      swap2\n      swap1\n      tag_11\n      jump\t// in\n    tag_35:\n      mload(0x40)\n      dup1\n      swap2\n      sub\n      swap1\n      log1\n        /* \"contracts/HashingwithKeccak256.sol\":409:775  {... */\n      pop\n        /* \"contracts/HashingwithKeccak256.sol\":344:775  function createItem(string memory name, uint256 quantity) public {... */\n      pop\n      pop\n      jump\t// out\n        /* \"contracts/HashingwithKeccak256.sol\":783:962  function getItem(bytes32 itemId) public view returns (Item memory) {... */\n    tag_18:\n        /* \"contracts/HashingwithKeccak256.sol\":837:848  Item memory */\n      tag_36\n      tag_37\n      jump\t// in\n    tag_36:\n        /* \"contracts/HashingwithKeccak256.sol\":897:898  0 */\n      0x00\n        /* \"contracts/HashingwithKeccak256.sol\":889:899  bytes32(0) */\n      dup1\n      shl\n        /* \"contracts/HashingwithKeccak256.sol\":869:874  items */\n      0x00\n        /* \"contracts/HashingwithKeccak256.sol\":869:882  items[itemId] */\n      dup1\n        /* \"contracts/HashingwithKeccak256.sol\":875:881  itemId */\n      dup5\n        /* \"contracts/HashingwithKeccak256.sol\":869:882  items[itemId] */\n      dup2\n      mstore\n      0x20\n      add\n      swap1\n      dup2\n      mstore\n      0x20\n      add\n      0x00\n      keccak256\n        /* \"contracts/HashingwithKeccak256.sol\":869:885  items[itemId].id */\n      0x00\n      add\n      sload\n        /* \"contracts/HashingwithKeccak256.sol\":869:899  items[itemId].id != bytes32(0) */\n      sub\n        /* \"contracts/HashingwithKeccak256.sol\":861:923  require(items[itemId].id != bytes32(0), \"Item does not exist\") */\n      tag_39\n      jumpi\n      mload(0x40)\n      0x08c379a000000000000000000000000000000000000000000000000000000000\n      dup2\n      mstore\n      0x04\n      add\n      tag_40\n      swap1\n      tag_41\n      jump\t// in\n    tag_40:\n      mload(0x40)\n      dup1\n      swap2\n      sub\n      swap1\n      revert\n    tag_39:\n        /* \"contracts/HashingwithKeccak256.sol\":941:946  items */\n      0x00\n        /* \"contracts/HashingwithKeccak256.sol\":941:954  items[itemId] */\n      dup1\n        /* \"contracts/HashingwithKeccak256.sol\":947:953  itemId */\n      dup4\n        /* \"contracts/HashingwithKeccak256.sol\":941:954  items[itemId] */\n      dup2\n      mstore\n      0x20\n      add\n      swap1\n      dup2\n      mstore\n      0x20\n      add\n      0x00\n      keccak256\n        /* \"contracts/HashingwithKeccak256.sol\":934:954  return items[itemId] */\n      mload(0x40)\n      dup1\n      0x80\n      add\n      0x40\n      mstore\n      swap1\n      dup2\n      0x00\n      dup3\n      add\n      sload\n      dup2\n      mstore\n      0x20\n      add\n      0x01\n      dup3\n      add\n      dup1\n      sload\n      tag_42\n      swap1\n      tag_22\n      jump\t// in\n    tag_42:\n      dup1\n      0x1f\n      add\n      0x20\n      dup1\n      swap2\n      div\n      mul\n      0x20\n      add\n      mload(0x40)\n      swap1\n      dup2\n      add\n      0x40\n      mstore\n      dup1\n      swap3\n      swap2\n      swap1\n      dup2\n      dup2\n      mstore\n      0x20\n      add\n      dup3\n      dup1\n      sload\n      tag_43\n      swap1\n      tag_22\n      jump\t// in\n    tag_43:\n      dup1\n      iszero\n      tag_44\n      jumpi\n      dup1\n      0x1f\n      lt\n      tag_45\n      jumpi\n      0x0100\n      dup1\n      dup4\n      sload\n      div\n      mul\n      dup4\n      mstore\n      swap2\n      0x20\n      add\n      swap2\n      jump(tag_44)\n    tag_45:\n      dup3\n      add\n      swap2\n      swap1\n      0x00\n      mstore\n      keccak256(0x00, 0x20)\n      swap1\n    tag_46:\n      dup2\n      sload\n      dup2\n      mstore\n      swap1\n      0x01\n      add\n      swap1\n      0x20\n      add\n      dup1\n      dup4\n      gt\n      tag_46\n      jumpi\n      dup3\n      swap1\n      sub\n      0x1f\n      and\n      dup3\n      add\n      swap2\n    tag_44:\n      pop\n      pop\n      pop\n      pop\n      pop\n      dup2\n      mstore\n      0x20\n      add\n      0x02\n      dup3\n      add\n      sload\n      dup2\n      mstore\n      0x20\n      add\n      0x03\n      dup3\n      add\n      0x00\n      swap1\n      sload\n      swap1\n      0x0100\n      exp\n      swap1\n      div\n      0xffffffffffffffffffffffffffffffffffffffff\n      and\n      0xffffffffffffffffffffffffffffffffffffffff\n      and\n      0xffffffffffffffffffffffffffffffffffffffff\n      and\n      dup2\n      mstore\n      pop\n      pop\n      swap1\n      pop\n        /* \"contracts/HashingwithKeccak256.sol\":783:962  function getItem(bytes32 itemId) public view returns (Item memory) {... */\n      swap2\n      swap1\n      pop\n      jump\t// out\n    tag_37:\n      mload(0x40)\n      dup1\n      0x80\n      add\n      0x40\n      mstore\n      dup1\n      0x00\n      dup1\n      not\n      and\n      dup2\n      mstore\n      0x20\n      add\n      0x60\n      dup2\n      mstore\n      0x20\n      add\n      0x00\n      dup2\n      mstore\n      0x20\n      add\n      and(0xffffffffffffffffffffffffffffffffffffffff, 0x00)\n      dup2\n      mstore\n      pop\n      swap1\n      jump\t// out\n        /* \"#utility.yul\":7:82   */\n    tag_47:\n        /* \"#utility.yul\":40:46   */\n      0x00\n        /* \"#utility.yul\":73:75   */\n      0x40\n        /* \"#utility.yul\":67:76   */\n      mload\n        /* \"#utility.yul\":57:76   */\n      swap1\n      pop\n        /* \"#utility.yul\":7:82   */\n      swap1\n      jump\t// out\n        /* \"#utility.yul\":88:205   */\n    tag_48:\n        /* \"#utility.yul\":197:198   */\n      0x00\n        /* \"#utility.yul\":194:195   */\n      dup1\n        /* \"#utility.yul\":187:199   */\n      revert\n        /* \"#utility.yul\":211:328   */\n    tag_49:\n        /* \"#utility.yul\":320:321   */\n      0x00\n        /* \"#utility.yul\":317:318   */\n      dup1\n        /* \"#utility.yul\":310:322   */\n      revert\n        /* \"#utility.yul\":334:411   */\n    tag_50:\n        /* \"#utility.yul\":371:378   */\n      0x00\n        /* \"#utility.yul\":400:405   */\n      dup2\n        /* \"#utility.yul\":389:405   */\n      swap1\n      pop\n        /* \"#utility.yul\":334:411   */\n      swap2\n      swap1\n      pop\n      jump\t// out\n        /* \"#utility.yul\":417:539   */\n    tag_51:\n        /* \"#utility.yul\":490:514   */\n      tag_115\n        /* \"#utility.yul\":508:513   */\n      dup2\n        /* \"#utility.yul\":490:514   */\n      tag_50\n      jump\t// in\n    tag_115:\n        /* \"#utility.yul\":483:488   */\n      dup2\n        /* \"#utility.yul\":480:515   */\n      eq\n        /* \"#utility.yul\":470:533   */\n      tag_116\n      jumpi\n        /* \"#utility.yul\":529:530   */\n      0x00\n        /* \"#utility.yul\":526:527   */\n      dup1\n        /* \"#utility.yul\":519:531   */\n      revert\n        /* \"#utility.yul\":470:533   */\n    tag_116:\n        /* \"#utility.yul\":417:539   */\n      pop\n      jump\t// out\n        /* \"#utility.yul\":545:684   */\n    tag_52:\n        /* \"#utility.yul\":591:596   */\n      0x00\n        /* \"#utility.yul\":629:635   */\n      dup2\n        /* \"#utility.yul\":616:636   */\n      calldataload\n        /* \"#utility.yul\":607:636   */\n      swap1\n      pop\n        /* \"#utility.yul\":645:678   */\n      tag_118\n        /* \"#utility.yul\":672:677   */\n      dup2\n        /* \"#utility.yul\":645:678   */\n      tag_51\n      jump\t// in\n    tag_118:\n        /* \"#utility.yul\":545:684   */\n      swap3\n      swap2\n      pop\n      pop\n      jump\t// out\n        /* \"#utility.yul\":690:1019   */\n    tag_8:\n        /* \"#utility.yul\":749:755   */\n      0x00\n        /* \"#utility.yul\":798:800   */\n      0x20\n        /* \"#utility.yul\":786:795   */\n      dup3\n        /* \"#utility.yul\":777:784   */\n      dup5\n        /* \"#utility.yul\":773:796   */\n      sub\n        /* \"#utility.yul\":769:801   */\n      slt\n        /* \"#utility.yul\":766:885   */\n      iszero\n      tag_120\n      jumpi\n        /* \"#utility.yul\":804:883   */\n      tag_121\n      tag_48\n      jump\t// in\n    tag_121:\n        /* \"#utility.yul\":766:885   */\n    tag_120:\n        /* \"#utility.yul\":924:925   */\n      0x00\n        /* \"#utility.yul\":949:1002   */\n      tag_122\n        /* \"#utility.yul\":994:1001   */\n      dup5\n        /* \"#utility.yul\":985:991   */\n      dup3\n        /* \"#utility.yul\":974:983   */\n      dup6\n        /* \"#utility.yul\":970:992   */\n      add\n        /* \"#utility.yul\":949:1002   */\n      tag_52\n      jump\t// in\n    tag_122:\n        /* \"#utility.yul\":939:1002   */\n      swap2\n      pop\n        /* \"#utility.yul\":895:1012   */\n      pop\n        /* \"#utility.yul\":690:1019   */\n      swap3\n      swap2\n      pop\n      pop\n      jump\t// out\n        /* \"#utility.yul\":1025:1143   */\n    tag_53:\n        /* \"#utility.yul\":1112:1136   */\n      tag_124\n        /* \"#utility.yul\":1130:1135   */\n      dup2\n        /* \"#utility.yul\":1112:1136   */\n      tag_50\n      jump\t// in\n    tag_124:\n        /* \"#utility.yul\":1107:1110   */\n      dup3\n        /* \"#utility.yul\":1100:1137   */\n      mstore\n        /* \"#utility.yul\":1025:1143   */\n      pop\n      pop\n      jump\t// out\n        /* \"#utility.yul\":1149:1248   */\n    tag_54:\n        /* \"#utility.yul\":1201:1207   */\n      0x00\n        /* \"#utility.yul\":1235:1240   */\n      dup2\n        /* \"#utility.yul\":1229:1241   */\n      mload\n        /* \"#utility.yul\":1219:1241   */\n      swap1\n      pop\n        /* \"#utility.yul\":1149:1248   */\n      swap2\n      swap1\n      pop\n      jump\t// out\n        /* \"#utility.yul\":1254:1423   */\n    tag_55:\n        /* \"#utility.yul\":1338:1349   */\n      0x00\n        /* \"#utility.yul\":1372:1378   */\n      dup3\n        /* \"#utility.yul\":1367:1370   */\n      dup3\n        /* \"#utility.yul\":1360:1379   */\n      mstore\n        /* \"#utility.yul\":1412:1416   */\n      0x20\n        /* \"#utility.yul\":1407:1410   */\n      dup3\n        /* \"#utility.yul\":1403:1417   */\n      add\n        /* \"#utility.yul\":1388:1417   */\n      swap1\n      pop\n        /* \"#utility.yul\":1254:1423   */\n      swap3\n      swap2\n      pop\n      pop\n      jump\t// out\n        /* \"#utility.yul\":1429:1568   */\n    tag_56:\n        /* \"#utility.yul\":1518:1524   */\n      dup3\n        /* \"#utility.yul\":1513:1516   */\n      dup2\n        /* \"#utility.yul\":1508:1511   */\n      dup4\n        /* \"#utility.yul\":1502:1525   */\n      mcopy\n        /* \"#utility.yul\":1559:1560   */\n      0x00\n        /* \"#utility.yul\":1550:1556   */\n      dup4\n        /* \"#utility.yul\":1545:1548   */\n      dup4\n        /* \"#utility.yul\":1541:1557   */\n      add\n        /* \"#utility.yul\":1534:1561   */\n      mstore\n        /* \"#utility.yul\":1429:1568   */\n      pop\n      pop\n      pop\n      jump\t// out\n        /* \"#utility.yul\":1574:1676   */\n    tag_57:\n        /* \"#utility.yul\":1615:1621   */\n      0x00\n        /* \"#utility.yul\":1666:1668   */\n      0x1f\n        /* \"#utility.yul\":1662:1669   */\n      not\n        /* \"#utility.yul\":1657:1659   */\n      0x1f\n        /* \"#utility.yul\":1650:1655   */\n      dup4\n        /* \"#utility.yul\":1646:1660   */\n      add\n        /* \"#utility.yul\":1642:1670   */\n      and\n        /* \"#utility.yul\":1632:1670   */\n      swap1\n      pop\n        /* \"#utility.yul\":1574:1676   */\n      swap2\n      swap1\n      pop\n      jump\t// out\n        /* \"#utility.yul\":1682:2059   */\n    tag_58:\n        /* \"#utility.yul\":1770:1773   */\n      0x00\n        /* \"#utility.yul\":1798:1837   */\n      tag_130\n        /* \"#utility.yul\":1831:1836   */\n      dup3\n        /* \"#utility.yul\":1798:1837   */\n      tag_54\n      jump\t// in\n    tag_130:\n        /* \"#utility.yul\":1853:1924   */\n      tag_131\n        /* \"#utility.yul\":1917:1923   */\n      dup2\n        /* \"#utility.yul\":1912:1915   */\n      dup6\n        /* \"#utility.yul\":1853:1924   */\n      tag_55\n      jump\t// in\n    tag_131:\n        /* \"#utility.yul\":1846:1924   */\n      swap4\n      pop\n        /* \"#utility.yul\":1933:1998   */\n      tag_132\n        /* \"#utility.yul\":1991:1997   */\n      dup2\n        /* \"#utility.yul\":1986:1989   */\n      dup6\n        /* \"#utility.yul\":1979:1983   */\n      0x20\n        /* \"#utility.yul\":1972:1977   */\n      dup7\n        /* \"#utility.yul\":1968:1984   */\n      add\n        /* \"#utility.yul\":1933:1998   */\n      tag_56\n      jump\t// in\n    tag_132:\n        /* \"#utility.yul\":2023:2052   */\n      tag_133\n        /* \"#utility.yul\":2045:2051   */\n      dup2\n        /* \"#utility.yul\":2023:2052   */\n      tag_57\n      jump\t// in\n    tag_133:\n        /* \"#utility.yul\":2018:2021   */\n      dup5\n        /* \"#utility.yul\":2014:2053   */\n      add\n        /* \"#utility.yul\":2007:2053   */\n      swap2\n      pop\n        /* \"#utility.yul\":1774:2059   */\n      pop\n        /* \"#utility.yul\":1682:2059   */\n      swap3\n      swap2\n      pop\n      pop\n      jump\t// out\n        /* \"#utility.yul\":2065:2142   */\n    tag_59:\n        /* \"#utility.yul\":2102:2109   */\n      0x00\n        /* \"#utility.yul\":2131:2136   */\n      dup2\n        /* \"#utility.yul\":2120:2136   */\n      swap1\n      pop\n        /* \"#utility.yul\":2065:2142   */\n      swap2\n      swap1\n      pop\n      jump\t// out\n        /* \"#utility.yul\":2148:2266   */\n    tag_60:\n        /* \"#utility.yul\":2235:2259   */\n      tag_136\n        /* \"#utility.yul\":2253:2258   */\n      dup2\n        /* \"#utility.yul\":2235:2259   */\n      tag_59\n      jump\t// in\n    tag_136:\n        /* \"#utility.yul\":2230:2233   */\n      dup3\n        /* \"#utility.yul\":2223:2260   */\n      mstore\n        /* \"#utility.yul\":2148:2266   */\n      pop\n      pop\n      jump\t// out\n        /* \"#utility.yul\":2272:2398   */\n    tag_61:\n        /* \"#utility.yul\":2309:2316   */\n      0x00\n        /* \"#utility.yul\":2349:2391   */\n      0xffffffffffffffffffffffffffffffffffffffff\n        /* \"#utility.yul\":2342:2347   */\n      dup3\n        /* \"#utility.yul\":2338:2392   */\n      and\n        /* \"#utility.yul\":2327:2392   */\n      swap1\n      pop\n        /* \"#utility.yul\":2272:2398   */\n      swap2\n      swap1\n      pop\n      jump\t// out\n        /* \"#utility.yul\":2404:2500   */\n    tag_62:\n        /* \"#utility.yul\":2441:2448   */\n      0x00\n        /* \"#utility.yul\":2470:2494   */\n      tag_139\n        /* \"#utility.yul\":2488:2493   */\n      dup3\n        /* \"#utility.yul\":2470:2494   */\n      tag_61\n      jump\t// in\n    tag_139:\n        /* \"#utility.yul\":2459:2494   */\n      swap1\n      pop\n        /* \"#utility.yul\":2404:2500   */\n      swap2\n      swap1\n      pop\n      jump\t// out\n        /* \"#utility.yul\":2506:2624   */\n    tag_63:\n        /* \"#utility.yul\":2593:2617   */\n      tag_141\n        /* \"#utility.yul\":2611:2616   */\n      dup2\n        /* \"#utility.yul\":2593:2617   */\n      tag_62\n      jump\t// in\n    tag_141:\n        /* \"#utility.yul\":2588:2591   */\n      dup3\n        /* \"#utility.yul\":2581:2618   */\n      mstore\n        /* \"#utility.yul\":2506:2624   */\n      pop\n      pop\n      jump\t// out\n        /* \"#utility.yul\":2630:3274   */\n    tag_11:\n        /* \"#utility.yul\":2827:2831   */\n      0x00\n        /* \"#utility.yul\":2865:2868   */\n      0x80\n        /* \"#utility.yul\":2854:2863   */\n      dup3\n        /* \"#utility.yul\":2850:2869   */\n      add\n        /* \"#utility.yul\":2842:2869   */\n      swap1\n      pop\n        /* \"#utility.yul\":2879:2950   */\n      tag_143\n        /* \"#utility.yul\":2947:2948   */\n      0x00\n        /* \"#utility.yul\":2936:2945   */\n      dup4\n        /* \"#utility.yul\":2932:2949   */\n      add\n        /* \"#utility.yul\":2923:2929   */\n      dup8\n        /* \"#utility.yul\":2879:2950   */\n      tag_53\n      jump\t// in\n    tag_143:\n        /* \"#utility.yul\":2997:3006   */\n      dup2\n        /* \"#utility.yul\":2991:2995   */\n      dup2\n        /* \"#utility.yul\":2987:3007   */\n      sub\n        /* \"#utility.yul\":2982:2984   */\n      0x20\n        /* \"#utility.yul\":2971:2980   */\n      dup4\n        /* \"#utility.yul\":2967:2985   */\n      add\n        /* \"#utility.yul\":2960:3008   */\n      mstore\n        /* \"#utility.yul\":3025:3103   */\n      tag_144\n        /* \"#utility.yul\":3098:3102   */\n      dup2\n        /* \"#utility.yul\":3089:3095   */\n      dup7\n        /* \"#utility.yul\":3025:3103   */\n      tag_58\n      jump\t// in\n    tag_144:\n        /* \"#utility.yul\":3017:3103   */\n      swap1\n      pop\n        /* \"#utility.yul\":3113:3185   */\n      tag_145\n        /* \"#utility.yul\":3181:3183   */\n      0x40\n        /* \"#utility.yul\":3170:3179   */\n      dup4\n        /* \"#utility.yul\":3166:3184   */\n      add\n        /* \"#utility.yul\":3157:3163   */\n      dup6\n        /* \"#utility.yul\":3113:3185   */\n      tag_60\n      jump\t// in\n    tag_145:\n        /* \"#utility.yul\":3195:3267   */\n      tag_146\n        /* \"#utility.yul\":3263:3265   */\n      0x60\n        /* \"#utility.yul\":3252:3261   */\n      dup4\n        /* \"#utility.yul\":3248:3266   */\n      add\n        /* \"#utility.yul\":3239:3245   */\n      dup5\n        /* \"#utility.yul\":3195:3267   */\n      tag_63\n      jump\t// in\n    tag_146:\n        /* \"#utility.yul\":2630:3274   */\n      swap6\n      swap5\n      pop\n      pop\n      pop\n      pop\n      pop\n      jump\t// out\n        /* \"#utility.yul\":3280:3397   */\n    tag_64:\n        /* \"#utility.yul\":3389:3390   */\n      0x00\n        /* \"#utility.yul\":3386:3387   */\n      dup1\n        /* \"#utility.yul\":3379:3391   */\n      revert\n        /* \"#utility.yul\":3403:3520   */\n    tag_65:\n        /* \"#utility.yul\":3512:3513   */\n      0x00\n        /* \"#utility.yul\":3509:3510   */\n      dup1\n        /* \"#utility.yul\":3502:3514   */\n      revert\n        /* \"#utility.yul\":3526:3706   */\n    tag_66:\n        /* \"#utility.yul\":3574:3651   */\n      0x4e487b7100000000000000000000000000000000000000000000000000000000\n        /* \"#utility.yul\":3571:3572   */\n      0x00\n        /* \"#utility.yul\":3564:3652   */\n      mstore\n        /* \"#utility.yul\":3671:3675   */\n      0x41\n        /* \"#utility.yul\":3668:3669   */\n      0x04\n        /* \"#utility.yul\":3661:3676   */\n      mstore\n        /* \"#utility.yul\":3695:3699   */\n      0x24\n        /* \"#utility.yul\":3692:3693   */\n      0x00\n        /* \"#utility.yul\":3685:3700   */\n      revert\n        /* \"#utility.yul\":3712:3993   */\n    tag_67:\n        /* \"#utility.yul\":3795:3822   */\n      tag_151\n        /* \"#utility.yul\":3817:3821   */\n      dup3\n        /* \"#utility.yul\":3795:3822   */\n      tag_57\n      jump\t// in\n    tag_151:\n        /* \"#utility.yul\":3787:3793   */\n      dup2\n        /* \"#utility.yul\":3783:3823   */\n      add\n        /* \"#utility.yul\":3925:3931   */\n      dup2\n        /* \"#utility.yul\":3913:3923   */\n      dup2\n        /* \"#utility.yul\":3910:3932   */\n      lt\n        /* \"#utility.yul\":3889:3907   */\n      0xffffffffffffffff\n        /* \"#utility.yul\":3877:3887   */\n      dup3\n        /* \"#utility.yul\":3874:3908   */\n      gt\n        /* \"#utility.yul\":3871:3933   */\n      or\n        /* \"#utility.yul\":3868:3956   */\n      iszero\n      tag_152\n      jumpi\n        /* \"#utility.yul\":3936:3954   */\n      tag_153\n      tag_66\n      jump\t// in\n    tag_153:\n        /* \"#utility.yul\":3868:3956   */\n    tag_152:\n        /* \"#utility.yul\":3976:3986   */\n      dup1\n        /* \"#utility.yul\":3972:3974   */\n      0x40\n        /* \"#utility.yul\":3965:3987   */\n      mstore\n        /* \"#utility.yul\":3755:3993   */\n      pop\n        /* \"#utility.yul\":3712:3993   */\n      pop\n      pop\n      jump\t// out\n        /* \"#utility.yul\":3999:4128   */\n    tag_68:\n        /* \"#utility.yul\":4033:4039   */\n      0x00\n        /* \"#utility.yul\":4060:4080   */\n      tag_155\n      tag_47\n      jump\t// in\n    tag_155:\n        /* \"#utility.yul\":4050:4080   */\n      swap1\n      pop\n        /* \"#utility.yul\":4089:4122   */\n      tag_156\n        /* \"#utility.yul\":4117:4121   */\n      dup3\n        /* \"#utility.yul\":4109:4115   */\n      dup3\n        /* \"#utility.yul\":4089:4122   */\n      tag_67\n      jump\t// in\n    tag_156:\n        /* \"#utility.yul\":3999:4128   */\n      swap2\n      swap1\n      pop\n      jump\t// out\n        /* \"#utility.yul\":4134:4442   */\n    tag_69:\n        /* \"#utility.yul\":4196:4200   */\n      0x00\n        /* \"#utility.yul\":4286:4304   */\n      0xffffffffffffffff\n        /* \"#utility.yul\":4278:4284   */\n      dup3\n        /* \"#utility.yul\":4275:4305   */\n      gt\n        /* \"#utility.yul\":4272:4328   */\n      iszero\n      tag_158\n      jumpi\n        /* \"#utility.yul\":4308:4326   */\n      tag_159\n      tag_66\n      jump\t// in\n    tag_159:\n        /* \"#utility.yul\":4272:4328   */\n    tag_158:\n        /* \"#utility.yul\":4346:4375   */\n      tag_160\n        /* \"#utility.yul\":4368:4374   */\n      dup3\n        /* \"#utility.yul\":4346:4375   */\n      tag_57\n      jump\t// in\n    tag_160:\n        /* \"#utility.yul\":4338:4375   */\n      swap1\n      pop\n        /* \"#utility.yul\":4430:4434   */\n      0x20\n        /* \"#utility.yul\":4424:4428   */\n      dup2\n        /* \"#utility.yul\":4420:4435   */\n      add\n        /* \"#utility.yul\":4412:4435   */\n      swap1\n      pop\n        /* \"#utility.yul\":4134:4442   */\n      swap2\n      swap1\n      pop\n      jump\t// out\n        /* \"#utility.yul\":4448:4596   */\n    tag_70:\n        /* \"#utility.yul\":4546:4552   */\n      dup3\n        /* \"#utility.yul\":4541:4544   */\n      dup2\n        /* \"#utility.yul\":4536:4539   */\n      dup4\n        /* \"#utility.yul\":4523:4553   */\n      calldatacopy\n        /* \"#utility.yul\":4587:4588   */\n      0x00\n        /* \"#utility.yul\":4578:4584   */\n      dup4\n        /* \"#utility.yul\":4573:4576   */\n      dup4\n        /* \"#utility.yul\":4569:4585   */\n      add\n        /* \"#utility.yul\":4562:4589   */\n      mstore\n        /* \"#utility.yul\":4448:4596   */\n      pop\n      pop\n      pop\n      jump\t// out\n        /* \"#utility.yul\":4602:5027   */\n    tag_71:\n        /* \"#utility.yul\":4680:4685   */\n      0x00\n        /* \"#utility.yul\":4705:4771   */\n      tag_163\n        /* \"#utility.yul\":4721:4770   */\n      tag_164\n        /* \"#utility.yul\":4763:4769   */\n      dup5\n        /* \"#utility.yul\":4721:4770   */\n      tag_69\n      jump\t// in\n    tag_164:\n        /* \"#utility.yul\":4705:4771   */\n      tag_68\n      jump\t// in\n    tag_163:\n        /* \"#utility.yul\":4696:4771   */\n      swap1\n      pop\n        /* \"#utility.yul\":4794:4800   */\n      dup3\n        /* \"#utility.yul\":4787:4792   */\n      dup2\n        /* \"#utility.yul\":4780:4801   */\n      mstore\n        /* \"#utility.yul\":4832:4836   */\n      0x20\n        /* \"#utility.yul\":4825:4830   */\n      dup2\n        /* \"#utility.yul\":4821:4837   */\n      add\n        /* \"#utility.yul\":4870:4873   */\n      dup5\n        /* \"#utility.yul\":4861:4867   */\n      dup5\n        /* \"#utility.yul\":4856:4859   */\n      dup5\n        /* \"#utility.yul\":4852:4868   */\n      add\n        /* \"#utility.yul\":4849:4874   */\n      gt\n        /* \"#utility.yul\":4846:4958   */\n      iszero\n      tag_165\n      jumpi\n        /* \"#utility.yul\":4877:4956   */\n      tag_166\n      tag_65\n      jump\t// in\n    tag_166:\n        /* \"#utility.yul\":4846:4958   */\n    tag_165:\n        /* \"#utility.yul\":4967:5021   */\n      tag_167\n        /* \"#utility.yul\":5014:5020   */\n      dup5\n        /* \"#utility.yul\":5009:5012   */\n      dup3\n        /* \"#utility.yul\":5004:5007   */\n      dup6\n        /* \"#utility.yul\":4967:5021   */\n      tag_70\n      jump\t// in\n    tag_167:\n        /* \"#utility.yul\":4686:5027   */\n      pop\n        /* \"#utility.yul\":4602:5027   */\n      swap4\n      swap3\n      pop\n      pop\n      pop\n      jump\t// out\n        /* \"#utility.yul\":5047:5387   */\n    tag_72:\n        /* \"#utility.yul\":5103:5108   */\n      0x00\n        /* \"#utility.yul\":5152:5155   */\n      dup3\n        /* \"#utility.yul\":5145:5149   */\n      0x1f\n        /* \"#utility.yul\":5137:5143   */\n      dup4\n        /* \"#utility.yul\":5133:5150   */\n      add\n        /* \"#utility.yul\":5129:5156   */\n      slt\n        /* \"#utility.yul\":5119:5241   */\n      tag_169\n      jumpi\n        /* \"#utility.yul\":5160:5239   */\n      tag_170\n      tag_64\n      jump\t// in\n    tag_170:\n        /* \"#utility.yul\":5119:5241   */\n    tag_169:\n        /* \"#utility.yul\":5277:5283   */\n      dup2\n        /* \"#utility.yul\":5264:5284   */\n      calldataload\n        /* \"#utility.yul\":5302:5381   */\n      tag_171\n        /* \"#utility.yul\":5377:5380   */\n      dup5\n        /* \"#utility.yul\":5369:5375   */\n      dup3\n        /* \"#utility.yul\":5362:5366   */\n      0x20\n        /* \"#utility.yul\":5354:5360   */\n      dup7\n        /* \"#utility.yul\":5350:5367   */\n      add\n        /* \"#utility.yul\":5302:5381   */\n      tag_71\n      jump\t// in\n    tag_171:\n        /* \"#utility.yul\":5293:5381   */\n      swap2\n      pop\n        /* \"#utility.yul\":5109:5387   */\n      pop\n        /* \"#utility.yul\":5047:5387   */\n      swap3\n      swap2\n      pop\n      pop\n      jump\t// out\n        /* \"#utility.yul\":5393:5515   */\n    tag_73:\n        /* \"#utility.yul\":5466:5490   */\n      tag_173\n        /* \"#utility.yul\":5484:5489   */\n      dup2\n        /* \"#utility.yul\":5466:5490   */\n      tag_59\n      jump\t// in\n    tag_173:\n        /* \"#utility.yul\":5459:5464   */\n      dup2\n        /* \"#utility.yul\":5456:5491   */\n      eq\n        /* \"#utility.yul\":5446:5509   */\n      tag_174\n      jumpi\n        /* \"#utility.yul\":5505:5506   */\n      0x00\n        /* \"#utility.yul\":5502:5503   */\n      dup1\n        /* \"#utility.yul\":5495:5507   */\n      revert\n        /* \"#utility.yul\":5446:5509   */\n    tag_174:\n        /* \"#utility.yul\":5393:5515   */\n      pop\n      jump\t// out\n        /* \"#utility.yul\":5521:5660   */\n    tag_74:\n        /* \"#utility.yul\":5567:5572   */\n      0x00\n        /* \"#utility.yul\":5605:5611   */\n      dup2\n        /* \"#utility.yul\":5592:5612   */\n      calldataload\n        /* \"#utility.yul\":5583:5612   */\n      swap1\n      pop\n        /* \"#utility.yul\":5621:5654   */\n      tag_176\n        /* \"#utility.yul\":5648:5653   */\n      dup2\n        /* \"#utility.yul\":5621:5654   */\n      tag_73\n      jump\t// in\n    tag_176:\n        /* \"#utility.yul\":5521:5660   */\n      swap3\n      swap2\n      pop\n      pop\n      jump\t// out\n        /* \"#utility.yul\":5666:6320   */\n    tag_14:\n        /* \"#utility.yul\":5744:5750   */\n      0x00\n        /* \"#utility.yul\":5752:5758   */\n      dup1\n        /* \"#utility.yul\":5801:5803   */\n      0x40\n        /* \"#utility.yul\":5789:5798   */\n      dup4\n        /* \"#utility.yul\":5780:5787   */\n      dup6\n        /* \"#utility.yul\":5776:5799   */\n      sub\n        /* \"#utility.yul\":5772:5804   */\n      slt\n        /* \"#utility.yul\":5769:5888   */\n      iszero\n      tag_178\n      jumpi\n        /* \"#utility.yul\":5807:5886   */\n      tag_179\n      tag_48\n      jump\t// in\n    tag_179:\n        /* \"#utility.yul\":5769:5888   */\n    tag_178:\n        /* \"#utility.yul\":5955:5956   */\n      0x00\n        /* \"#utility.yul\":5944:5953   */\n      dup4\n        /* \"#utility.yul\":5940:5957   */\n      add\n        /* \"#utility.yul\":5927:5958   */\n      calldataload\n        /* \"#utility.yul\":5985:6003   */\n      0xffffffffffffffff\n        /* \"#utility.yul\":5977:5983   */\n      dup2\n        /* \"#utility.yul\":5974:6004   */\n      gt\n        /* \"#utility.yul\":5971:6088   */\n      iszero\n      tag_180\n      jumpi\n        /* \"#utility.yul\":6007:6086   */\n      tag_181\n      tag_49\n      jump\t// in\n    tag_181:\n        /* \"#utility.yul\":5971:6088   */\n    tag_180:\n        /* \"#utility.yul\":6112:6175   */\n      tag_182\n        /* \"#utility.yul\":6167:6174   */\n      dup6\n        /* \"#utility.yul\":6158:6164   */\n      dup3\n        /* \"#utility.yul\":6147:6156   */\n      dup7\n        /* \"#utility.yul\":6143:6165   */\n      add\n        /* \"#utility.yul\":6112:6175   */\n      tag_72\n      jump\t// in\n    tag_182:\n        /* \"#utility.yul\":6102:6175   */\n      swap3\n      pop\n        /* \"#utility.yul\":5898:6185   */\n      pop\n        /* \"#utility.yul\":6224:6226   */\n      0x20\n        /* \"#utility.yul\":6250:6303   */\n      tag_183\n        /* \"#utility.yul\":6295:6302   */\n      dup6\n        /* \"#utility.yul\":6286:6292   */\n      dup3\n        /* \"#utility.yul\":6275:6284   */\n      dup7\n        /* \"#utility.yul\":6271:6293   */\n      add\n        /* \"#utility.yul\":6250:6303   */\n      tag_74\n      jump\t// in\n    tag_183:\n        /* \"#utility.yul\":6240:6303   */\n      swap2\n      pop\n        /* \"#utility.yul\":6195:6313   */\n      pop\n        /* \"#utility.yul\":5666:6320   */\n      swap3\n      pop\n      swap3\n      swap1\n      pop\n      jump\t// out\n        /* \"#utility.yul\":6326:6434   */\n    tag_75:\n        /* \"#utility.yul\":6403:6427   */\n      tag_185\n        /* \"#utility.yul\":6421:6426   */\n      dup2\n        /* \"#utility.yul\":6403:6427   */\n      tag_50\n      jump\t// in\n    tag_185:\n        /* \"#utility.yul\":6398:6401   */\n      dup3\n        /* \"#utility.yul\":6391:6428   */\n      mstore\n        /* \"#utility.yul\":6326:6434   */\n      pop\n      pop\n      jump\t// out\n        /* \"#utility.yul\":6440:6599   */\n    tag_76:\n        /* \"#utility.yul\":6514:6525   */\n      0x00\n        /* \"#utility.yul\":6548:6554   */\n      dup3\n        /* \"#utility.yul\":6543:6546   */\n      dup3\n        /* \"#utility.yul\":6536:6555   */\n      mstore\n        /* \"#utility.yul\":6588:6592   */\n      0x20\n        /* \"#utility.yul\":6583:6586   */\n      dup3\n        /* \"#utility.yul\":6579:6593   */\n      add\n        /* \"#utility.yul\":6564:6593   */\n      swap1\n      pop\n        /* \"#utility.yul\":6440:6599   */\n      swap3\n      swap2\n      pop\n      pop\n      jump\t// out\n        /* \"#utility.yul\":6605:6962   */\n    tag_77:\n        /* \"#utility.yul\":6683:6686   */\n      0x00\n        /* \"#utility.yul\":6711:6750   */\n      tag_188\n        /* \"#utility.yul\":6744:6749   */\n      dup3\n        /* \"#utility.yul\":6711:6750   */\n      tag_54\n      jump\t// in\n    tag_188:\n        /* \"#utility.yul\":6766:6827   */\n      tag_189\n        /* \"#utility.yul\":6820:6826   */\n      dup2\n        /* \"#utility.yul\":6815:6818   */\n      dup6\n        /* \"#utility.yul\":6766:6827   */\n      tag_76\n      jump\t// in\n    tag_189:\n        /* \"#utility.yul\":6759:6827   */\n      swap4\n      pop\n        /* \"#utility.yul\":6836:6901   */\n      tag_190\n        /* \"#utility.yul\":6894:6900   */\n      dup2\n        /* \"#utility.yul\":6889:6892   */\n      dup6\n        /* \"#utility.yul\":6882:6886   */\n      0x20\n        /* \"#utility.yul\":6875:6880   */\n      dup7\n        /* \"#utility.yul\":6871:6887   */\n      add\n        /* \"#utility.yul\":6836:6901   */\n      tag_56\n      jump\t// in\n    tag_190:\n        /* \"#utility.yul\":6926:6955   */\n      tag_191\n        /* \"#utility.yul\":6948:6954   */\n      dup2\n        /* \"#utility.yul\":6926:6955   */\n      tag_57\n      jump\t// in\n    tag_191:\n        /* \"#utility.yul\":6921:6924   */\n      dup5\n        /* \"#utility.yul\":6917:6956   */\n      add\n        /* \"#utility.yul\":6910:6956   */\n      swap2\n      pop\n        /* \"#utility.yul\":6687:6962   */\n      pop\n        /* \"#utility.yul\":6605:6962   */\n      swap3\n      swap2\n      pop\n      pop\n      jump\t// out\n        /* \"#utility.yul\":6968:7076   */\n    tag_78:\n        /* \"#utility.yul\":7045:7069   */\n      tag_193\n        /* \"#utility.yul\":7063:7068   */\n      dup2\n        /* \"#utility.yul\":7045:7069   */\n      tag_59\n      jump\t// in\n    tag_193:\n        /* \"#utility.yul\":7040:7043   */\n      dup3\n        /* \"#utility.yul\":7033:7070   */\n      mstore\n        /* \"#utility.yul\":6968:7076   */\n      pop\n      pop\n      jump\t// out\n        /* \"#utility.yul\":7082:7190   */\n    tag_79:\n        /* \"#utility.yul\":7159:7183   */\n      tag_195\n        /* \"#utility.yul\":7177:7182   */\n      dup2\n        /* \"#utility.yul\":7159:7183   */\n      tag_62\n      jump\t// in\n    tag_195:\n        /* \"#utility.yul\":7154:7157   */\n      dup3\n        /* \"#utility.yul\":7147:7184   */\n      mstore\n        /* \"#utility.yul\":7082:7190   */\n      pop\n      pop\n      jump\t// out\n        /* \"#utility.yul\":7254:8201   */\n    tag_80:\n        /* \"#utility.yul\":7363:7366   */\n      0x00\n        /* \"#utility.yul\":7399:7403   */\n      0x80\n        /* \"#utility.yul\":7394:7397   */\n      dup4\n        /* \"#utility.yul\":7390:7404   */\n      add\n        /* \"#utility.yul\":7484:7488   */\n      0x00\n        /* \"#utility.yul\":7477:7482   */\n      dup4\n        /* \"#utility.yul\":7473:7489   */\n      add\n        /* \"#utility.yul\":7467:7490   */\n      mload\n        /* \"#utility.yul\":7503:7566   */\n      tag_197\n        /* \"#utility.yul\":7560:7564   */\n      0x00\n        /* \"#utility.yul\":7555:7558   */\n      dup7\n        /* \"#utility.yul\":7551:7565   */\n      add\n        /* \"#utility.yul\":7537:7549   */\n      dup3\n        /* \"#utility.yul\":7503:7566   */\n      tag_75\n      jump\t// in\n    tag_197:\n        /* \"#utility.yul\":7414:7576   */\n      pop\n        /* \"#utility.yul\":7658:7662   */\n      0x20\n        /* \"#utility.yul\":7651:7656   */\n      dup4\n        /* \"#utility.yul\":7647:7663   */\n      add\n        /* \"#utility.yul\":7641:7664   */\n      mload\n        /* \"#utility.yul\":7711:7714   */\n      dup5\n        /* \"#utility.yul\":7705:7709   */\n      dup3\n        /* \"#utility.yul\":7701:7715   */\n      sub\n        /* \"#utility.yul\":7694:7698   */\n      0x20\n        /* \"#utility.yul\":7689:7692   */\n      dup7\n        /* \"#utility.yul\":7685:7699   */\n      add\n        /* \"#utility.yul\":7678:7716   */\n      mstore\n        /* \"#utility.yul\":7737:7810   */\n      tag_198\n        /* \"#utility.yul\":7805:7809   */\n      dup3\n        /* \"#utility.yul\":7791:7803   */\n      dup3\n        /* \"#utility.yul\":7737:7810   */\n      tag_77\n      jump\t// in\n    tag_198:\n        /* \"#utility.yul\":7729:7810   */\n      swap2\n      pop\n        /* \"#utility.yul\":7586:7821   */\n      pop\n        /* \"#utility.yul\":7907:7911   */\n      0x40\n        /* \"#utility.yul\":7900:7905   */\n      dup4\n        /* \"#utility.yul\":7896:7912   */\n      add\n        /* \"#utility.yul\":7890:7913   */\n      mload\n        /* \"#utility.yul\":7926:7989   */\n      tag_199\n        /* \"#utility.yul\":7983:7987   */\n      0x40\n        /* \"#utility.yul\":7978:7981   */\n      dup7\n        /* \"#utility.yul\":7974:7988   */\n      add\n        /* \"#utility.yul\":7960:7972   */\n      dup3\n        /* \"#utility.yul\":7926:7989   */\n      tag_78\n      jump\t// in\n    tag_199:\n        /* \"#utility.yul\":7831:7999   */\n      pop\n        /* \"#utility.yul\":8082:8086   */\n      0x60\n        /* \"#utility.yul\":8075:8080   */\n      dup4\n        /* \"#utility.yul\":8071:8087   */\n      add\n        /* \"#utility.yul\":8065:8088   */\n      mload\n        /* \"#utility.yul\":8101:8164   */\n      tag_200\n        /* \"#utility.yul\":8158:8162   */\n      0x60\n        /* \"#utility.yul\":8153:8156   */\n      dup7\n        /* \"#utility.yul\":8149:8163   */\n      add\n        /* \"#utility.yul\":8135:8147   */\n      dup3\n        /* \"#utility.yul\":8101:8164   */\n      tag_79\n      jump\t// in\n    tag_200:\n        /* \"#utility.yul\":8009:8174   */\n      pop\n        /* \"#utility.yul\":8191:8195   */\n      dup1\n        /* \"#utility.yul\":8184:8195   */\n      swap2\n      pop\n        /* \"#utility.yul\":7368:8201   */\n      pop\n        /* \"#utility.yul\":7254:8201   */\n      swap3\n      swap2\n      pop\n      pop\n      jump\t// out\n        /* \"#utility.yul\":8207:8560   */\n    tag_20:\n        /* \"#utility.yul\":8340:8344   */\n      0x00\n        /* \"#utility.yul\":8378:8380   */\n      0x20\n        /* \"#utility.yul\":8367:8376   */\n      dup3\n        /* \"#utility.yul\":8363:8381   */\n      add\n        /* \"#utility.yul\":8355:8381   */\n      swap1\n      pop\n        /* \"#utility.yul\":8427:8436   */\n      dup2\n        /* \"#utility.yul\":8421:8425   */\n      dup2\n        /* \"#utility.yul\":8417:8437   */\n      sub\n        /* \"#utility.yul\":8413:8414   */\n      0x00\n        /* \"#utility.yul\":8402:8411   */\n      dup4\n        /* \"#utility.yul\":8398:8415   */\n      add\n        /* \"#utility.yul\":8391:8438   */\n      mstore\n        /* \"#utility.yul\":8455:8553   */\n      tag_202\n        /* \"#utility.yul\":8548:8552   */\n      dup2\n        /* \"#utility.yul\":8539:8545   */\n      dup5\n        /* \"#utility.yul\":8455:8553   */\n      tag_80\n      jump\t// in\n    tag_202:\n        /* \"#utility.yul\":8447:8553   */\n      swap1\n      pop\n        /* \"#utility.yul\":8207:8560   */\n      swap3\n      swap2\n      pop\n      pop\n      jump\t// out\n        /* \"#utility.yul\":8566:8746   */\n    tag_81:\n        /* \"#utility.yul\":8614:8691   */\n      0x4e487b7100000000000000000000000000000000000000000000000000000000\n        /* \"#utility.yul\":8611:8612   */\n      0x00\n        /* \"#utility.yul\":8604:8692   */\n      mstore\n        /* \"#utility.yul\":8711:8715   */\n      0x22\n        /* \"#utility.yul\":8708:8709   */\n      0x04\n        /* \"#utility.yul\":8701:8716   */\n      mstore\n        /* \"#utility.yul\":8735:8739   */\n      0x24\n        /* \"#utility.yul\":8732:8733   */\n      0x00\n        /* \"#utility.yul\":8725:8740   */\n      revert\n        /* \"#utility.yul\":8752:9072   */\n    tag_22:\n        /* \"#utility.yul\":8796:8802   */\n      0x00\n        /* \"#utility.yul\":8833:8834   */\n      0x02\n        /* \"#utility.yul\":8827:8831   */\n      dup3\n        /* \"#utility.yul\":8823:8835   */\n      div\n        /* \"#utility.yul\":8813:8835   */\n      swap1\n      pop\n        /* \"#utility.yul\":8880:8881   */\n      0x01\n        /* \"#utility.yul\":8874:8878   */\n      dup3\n        /* \"#utility.yul\":8870:8882   */\n      and\n        /* \"#utility.yul\":8901:8919   */\n      dup1\n        /* \"#utility.yul\":8891:8972   */\n      tag_205\n      jumpi\n        /* \"#utility.yul\":8957:8961   */\n      0x7f\n        /* \"#utility.yul\":8949:8955   */\n      dup3\n        /* \"#utility.yul\":8945:8962   */\n      and\n        /* \"#utility.yul\":8935:8962   */\n      swap2\n      pop\n        /* \"#utility.yul\":8891:8972   */\n    tag_205:\n        /* \"#utility.yul\":9019:9021   */\n      0x20\n        /* \"#utility.yul\":9011:9017   */\n      dup3\n        /* \"#utility.yul\":9008:9022   */\n      lt\n        /* \"#utility.yul\":8988:9006   */\n      dup2\n        /* \"#utility.yul\":8985:9023   */\n      sub\n        /* \"#utility.yul\":8982:9066   */\n      tag_206\n      jumpi\n        /* \"#utility.yul\":9038:9056   */\n      tag_207\n      tag_81\n      jump\t// in\n    tag_207:\n        /* \"#utility.yul\":8982:9066   */\n    tag_206:\n        /* \"#utility.yul\":8803:9072   */\n      pop\n        /* \"#utility.yul\":8752:9072   */\n      swap2\n      swap1\n      pop\n      jump\t// out\n        /* \"#utility.yul\":9078:9226   */\n    tag_82:\n        /* \"#utility.yul\":9180:9191   */\n      0x00\n        /* \"#utility.yul\":9217:9220   */\n      dup2\n        /* \"#utility.yul\":9202:9220   */\n      swap1\n      pop\n        /* \"#utility.yul\":9078:9226   */\n      swap3\n      swap2\n      pop\n      pop\n      jump\t// out\n        /* \"#utility.yul\":9232:9622   */\n    tag_83:\n        /* \"#utility.yul\":9338:9341   */\n      0x00\n        /* \"#utility.yul\":9366:9405   */\n      tag_210\n        /* \"#utility.yul\":9399:9404   */\n      dup3\n        /* \"#utility.yul\":9366:9405   */\n      tag_54\n      jump\t// in\n    tag_210:\n        /* \"#utility.yul\":9421:9510   */\n      tag_211\n        /* \"#utility.yul\":9503:9509   */\n      dup2\n        /* \"#utility.yul\":9498:9501   */\n      dup6\n        /* \"#utility.yul\":9421:9510   */\n      tag_82\n      jump\t// in\n    tag_211:\n        /* \"#utility.yul\":9414:9510   */\n      swap4\n      pop\n        /* \"#utility.yul\":9519:9584   */\n      tag_212\n        /* \"#utility.yul\":9577:9583   */\n      dup2\n        /* \"#utility.yul\":9572:9575   */\n      dup6\n        /* \"#utility.yul\":9565:9569   */\n      0x20\n        /* \"#utility.yul\":9558:9563   */\n      dup7\n        /* \"#utility.yul\":9554:9570   */\n      add\n        /* \"#utility.yul\":9519:9584   */\n      tag_56\n      jump\t// in\n    tag_212:\n        /* \"#utility.yul\":9609:9615   */\n      dup1\n        /* \"#utility.yul\":9604:9607   */\n      dup5\n        /* \"#utility.yul\":9600:9616   */\n      add\n        /* \"#utility.yul\":9593:9616   */\n      swap2\n      pop\n        /* \"#utility.yul\":9342:9622   */\n      pop\n        /* \"#utility.yul\":9232:9622   */\n      swap3\n      swap2\n      pop\n      pop\n      jump\t// out\n        /* \"#utility.yul\":9628:9707   */\n    tag_84:\n        /* \"#utility.yul\":9667:9674   */\n      0x00\n        /* \"#utility.yul\":9696:9701   */\n      dup2\n        /* \"#utility.yul\":9685:9701   */\n      swap1\n      pop\n        /* \"#utility.yul\":9628:9707   */\n      swap2\n      swap1\n      pop\n      jump\t// out\n        /* \"#utility.yul\":9713:9870   */\n    tag_85:\n        /* \"#utility.yul\":9818:9863   */\n      tag_215\n        /* \"#utility.yul\":9838:9862   */\n      tag_216\n        /* \"#utility.yul\":9856:9861   */\n      dup3\n        /* \"#utility.yul\":9838:9862   */\n      tag_59\n      jump\t// in\n    tag_216:\n        /* \"#utility.yul\":9818:9863   */\n      tag_84\n      jump\t// in\n    tag_215:\n        /* \"#utility.yul\":9813:9816   */\n      dup3\n        /* \"#utility.yul\":9806:9864   */\n      mstore\n        /* \"#utility.yul\":9713:9870   */\n      pop\n      pop\n      jump\t// out\n        /* \"#utility.yul\":9876:9970   */\n    tag_86:\n        /* \"#utility.yul\":9909:9917   */\n      0x00\n        /* \"#utility.yul\":9957:9962   */\n      dup2\n        /* \"#utility.yul\":9953:9955   */\n      0x60\n        /* \"#utility.yul\":9949:9963   */\n      shl\n        /* \"#utility.yul\":9928:9963   */\n      swap1\n      pop\n        /* \"#utility.yul\":9876:9970   */\n      swap2\n      swap1\n      pop\n      jump\t// out\n        /* \"#utility.yul\":9976:10070   */\n    tag_87:\n        /* \"#utility.yul\":10015:10022   */\n      0x00\n        /* \"#utility.yul\":10044:10064   */\n      tag_219\n        /* \"#utility.yul\":10058:10063   */\n      dup3\n        /* \"#utility.yul\":10044:10064   */\n      tag_86\n      jump\t// in\n    tag_219:\n        /* \"#utility.yul\":10033:10064   */\n      swap1\n      pop\n        /* \"#utility.yul\":9976:10070   */\n      swap2\n      swap1\n      pop\n      jump\t// out\n        /* \"#utility.yul\":10076:10176   */\n    tag_88:\n        /* \"#utility.yul\":10115:10122   */\n      0x00\n        /* \"#utility.yul\":10144:10170   */\n      tag_221\n        /* \"#utility.yul\":10164:10169   */\n      dup3\n        /* \"#utility.yul\":10144:10170   */\n      tag_87\n      jump\t// in\n    tag_221:\n        /* \"#utility.yul\":10133:10170   */\n      swap1\n      pop\n        /* \"#utility.yul\":10076:10176   */\n      swap2\n      swap1\n      pop\n      jump\t// out\n        /* \"#utility.yul\":10182:10339   */\n    tag_89:\n        /* \"#utility.yul\":10287:10332   */\n      tag_223\n        /* \"#utility.yul\":10307:10331   */\n      tag_224\n        /* \"#utility.yul\":10325:10330   */\n      dup3\n        /* \"#utility.yul\":10307:10331   */\n      tag_62\n      jump\t// in\n    tag_224:\n        /* \"#utility.yul\":10287:10332   */\n      tag_88\n      jump\t// in\n    tag_223:\n        /* \"#utility.yul\":10282:10285   */\n      dup3\n        /* \"#utility.yul\":10275:10333   */\n      mstore\n        /* \"#utility.yul\":10182:10339   */\n      pop\n      pop\n      jump\t// out\n        /* \"#utility.yul\":10345:11043   */\n    tag_29:\n        /* \"#utility.yul\":10561:10564   */\n      0x00\n        /* \"#utility.yul\":10583:10678   */\n      tag_226\n        /* \"#utility.yul\":10674:10677   */\n      dup3\n        /* \"#utility.yul\":10665:10671   */\n      dup8\n        /* \"#utility.yul\":10583:10678   */\n      tag_83\n      jump\t// in\n    tag_226:\n        /* \"#utility.yul\":10576:10678   */\n      swap2\n      pop\n        /* \"#utility.yul\":10688:10763   */\n      tag_227\n        /* \"#utility.yul\":10759:10762   */\n      dup3\n        /* \"#utility.yul\":10750:10756   */\n      dup7\n        /* \"#utility.yul\":10688:10763   */\n      tag_85\n      jump\t// in\n    tag_227:\n        /* \"#utility.yul\":10788:10790   */\n      0x20\n        /* \"#utility.yul\":10783:10786   */\n      dup3\n        /* \"#utility.yul\":10779:10791   */\n      add\n        /* \"#utility.yul\":10772:10791   */\n      swap2\n      pop\n        /* \"#utility.yul\":10801:10876   */\n      tag_228\n        /* \"#utility.yul\":10872:10875   */\n      dup3\n        /* \"#utility.yul\":10863:10869   */\n      dup6\n        /* \"#utility.yul\":10801:10876   */\n      tag_89\n      jump\t// in\n    tag_228:\n        /* \"#utility.yul\":10901:10903   */\n      0x14\n        /* \"#utility.yul\":10896:10899   */\n      dup3\n        /* \"#utility.yul\":10892:10904   */\n      add\n        /* \"#utility.yul\":10885:10904   */\n      swap2\n      pop\n        /* \"#utility.yul\":10914:10989   */\n      tag_229\n        /* \"#utility.yul\":10985:10988   */\n      dup3\n        /* \"#utility.yul\":10976:10982   */\n      dup5\n        /* \"#utility.yul\":10914:10989   */\n      tag_85\n      jump\t// in\n    tag_229:\n        /* \"#utility.yul\":11014:11016   */\n      0x20\n        /* \"#utility.yul\":11009:11012   */\n      dup3\n        /* \"#utility.yul\":11005:11017   */\n      add\n        /* \"#utility.yul\":10998:11017   */\n      swap2\n      pop\n        /* \"#utility.yul\":11034:11037   */\n      dup2\n        /* \"#utility.yul\":11027:11037   */\n      swap1\n      pop\n        /* \"#utility.yul\":10345:11043   */\n      swap6\n      swap5\n      pop\n      pop\n      pop\n      pop\n      pop\n      jump\t// out\n        /* \"#utility.yul\":11049:11218   */\n    tag_90:\n        /* \"#utility.yul\":11189:11210   */\n      0x4974656d20616c72656164792065786973747300000000000000000000000000\n        /* \"#utility.yul\":11185:11186   */\n      0x00\n        /* \"#utility.yul\":11177:11183   */\n      dup3\n        /* \"#utility.yul\":11173:11187   */\n      add\n        /* \"#utility.yul\":11166:11211   */\n      mstore\n        /* \"#utility.yul\":11049:11218   */\n      pop\n      jump\t// out\n        /* \"#utility.yul\":11224:11590   */\n    tag_91:\n        /* \"#utility.yul\":11366:11369   */\n      0x00\n        /* \"#utility.yul\":11387:11454   */\n      tag_232\n        /* \"#utility.yul\":11451:11453   */\n      0x13\n        /* \"#utility.yul\":11446:11449   */\n      dup4\n        /* \"#utility.yul\":11387:11454   */\n      tag_55\n      jump\t// in\n    tag_232:\n        /* \"#utility.yul\":11380:11454   */\n      swap2\n      pop\n        /* \"#utility.yul\":11463:11556   */\n      tag_233\n        /* \"#utility.yul\":11552:11555   */\n      dup3\n        /* \"#utility.yul\":11463:11556   */\n      tag_90\n      jump\t// in\n    tag_233:\n        /* \"#utility.yul\":11581:11583   */\n      0x20\n        /* \"#utility.yul\":11576:11579   */\n      dup3\n        /* \"#utility.yul\":11572:11584   */\n      add\n        /* \"#utility.yul\":11565:11584   */\n      swap1\n      pop\n        /* \"#utility.yul\":11224:11590   */\n      swap2\n      swap1\n      pop\n      jump\t// out\n        /* \"#utility.yul\":11596:12015   */\n    tag_32:\n        /* \"#utility.yul\":11762:11766   */\n      0x00\n        /* \"#utility.yul\":11800:11802   */\n      0x20\n        /* \"#utility.yul\":11789:11798   */\n      dup3\n        /* \"#utility.yul\":11785:11803   */\n      add\n        /* \"#utility.yul\":11777:11803   */\n      swap1\n      pop\n        /* \"#utility.yul\":11849:11858   */\n      dup2\n        /* \"#utility.yul\":11843:11847   */\n      dup2\n        /* \"#utility.yul\":11839:11859   */\n      sub\n        /* \"#utility.yul\":11835:11836   */\n      0x00\n        /* \"#utility.yul\":11824:11833   */\n      dup4\n        /* \"#utility.yul\":11820:11837   */\n      add\n        /* \"#utility.yul\":11813:11860   */\n      mstore\n        /* \"#utility.yul\":11877:12008   */\n      tag_235\n        /* \"#utility.yul\":12003:12007   */\n      dup2\n        /* \"#utility.yul\":11877:12008   */\n      tag_91\n      jump\t// in\n    tag_235:\n        /* \"#utility.yul\":11869:12008   */\n      swap1\n      pop\n        /* \"#utility.yul\":11596:12015   */\n      swap2\n      swap1\n      pop\n      jump\t// out\n        /* \"#utility.yul\":12021:12162   */\n    tag_92:\n        /* \"#utility.yul\":12070:12074   */\n      0x00\n        /* \"#utility.yul\":12093:12096   */\n      dup2\n        /* \"#utility.yul\":12085:12096   */\n      swap1\n      pop\n        /* \"#utility.yul\":12116:12119   */\n      dup2\n        /* \"#utility.yul\":12113:12114   */\n      0x00\n        /* \"#utility.yul\":12106:12120   */\n      mstore\n        /* \"#utility.yul\":12150:12154   */\n      0x20\n        /* \"#utility.yul\":12147:12148   */\n      0x00\n        /* \"#utility.yul\":12137:12155   */\n      keccak256\n        /* \"#utility.yul\":12129:12155   */\n      swap1\n      pop\n        /* \"#utility.yul\":12021:12162   */\n      swap2\n      swap1\n      pop\n      jump\t// out\n        /* \"#utility.yul\":12168:12261   */\n    tag_93:\n        /* \"#utility.yul\":12205:12211   */\n      0x00\n        /* \"#utility.yul\":12252:12254   */\n      0x20\n        /* \"#utility.yul\":12247:12249   */\n      0x1f\n        /* \"#utility.yul\":12240:12245   */\n      dup4\n        /* \"#utility.yul\":12236:12250   */\n      add\n        /* \"#utility.yul\":12232:12255   */\n      div\n        /* \"#utility.yul\":12222:12255   */\n      swap1\n      pop\n        /* \"#utility.yul\":12168:12261   */\n      swap2\n      swap1\n      pop\n      jump\t// out\n        /* \"#utility.yul\":12267:12374   */\n    tag_94:\n        /* \"#utility.yul\":12311:12319   */\n      0x00\n        /* \"#utility.yul\":12361:12366   */\n      dup3\n        /* \"#utility.yul\":12355:12359   */\n      dup3\n        /* \"#utility.yul\":12351:12367   */\n      shl\n        /* \"#utility.yul\":12330:12367   */\n      swap1\n      pop\n        /* \"#utility.yul\":12267:12374   */\n      swap3\n      swap2\n      pop\n      pop\n      jump\t// out\n        /* \"#utility.yul\":12380:12773   */\n    tag_95:\n        /* \"#utility.yul\":12449:12455   */\n      0x00\n        /* \"#utility.yul\":12499:12500   */\n      0x08\n        /* \"#utility.yul\":12487:12497   */\n      dup4\n        /* \"#utility.yul\":12483:12501   */\n      mul\n        /* \"#utility.yul\":12522:12619   */\n      tag_240\n        /* \"#utility.yul\":12552:12618   */\n      0xffffffffffffffffffffffffffffffffffffffffffffffffffffffffffffffff\n        /* \"#utility.yul\":12541:12550   */\n      dup3\n        /* \"#utility.yul\":12522:12619   */\n      tag_94\n      jump\t// in\n    tag_240:\n        /* \"#utility.yul\":12640:12679   */\n      tag_241\n        /* \"#utility.yul\":12670:12678   */\n      dup7\n        /* \"#utility.yul\":12659:12668   */\n      dup4\n        /* \"#utility.yul\":12640:12679   */\n      tag_94\n      jump\t// in\n    tag_241:\n        /* \"#utility.yul\":12628:12679   */\n      swap6\n      pop\n        /* \"#utility.yul\":12712:12716   */\n      dup1\n        /* \"#utility.yul\":12708:12717   */\n      not\n        /* \"#utility.yul\":12701:12706   */\n      dup5\n        /* \"#utility.yul\":12697:12718   */\n      and\n        /* \"#utility.yul\":12688:12718   */\n      swap4\n      pop\n        /* \"#utility.yul\":12761:12765   */\n      dup1\n        /* \"#utility.yul\":12751:12759   */\n      dup7\n        /* \"#utility.yul\":12747:12766   */\n      and\n        /* \"#utility.yul\":12740:12745   */\n      dup5\n        /* \"#utility.yul\":12737:12767   */\n      or\n        /* \"#utility.yul\":12727:12767   */\n      swap3\n      pop\n        /* \"#utility.yul\":12456:12773   */\n      pop\n      pop\n        /* \"#utility.yul\":12380:12773   */\n      swap4\n      swap3\n      pop\n      pop\n      pop\n      jump\t// out\n        /* \"#utility.yul\":12779:12839   */\n    tag_96:\n        /* \"#utility.yul\":12807:12810   */\n      0x00\n        /* \"#utility.yul\":12828:12833   */\n      dup2\n        /* \"#utility.yul\":12821:12833   */\n      swap1\n      pop\n        /* \"#utility.yul\":12779:12839   */\n      swap2\n      swap1\n      pop\n      jump\t// out\n        /* \"#utility.yul\":12845:12987   */\n    tag_97:\n        /* \"#utility.yul\":12895:12904   */\n      0x00\n        /* \"#utility.yul\":12928:12981   */\n      tag_244\n        /* \"#utility.yul\":12946:12980   */\n      tag_245\n        /* \"#utility.yul\":12955:12979   */\n      tag_246\n        /* \"#utility.yul\":12973:12978   */\n      dup5\n        /* \"#utility.yul\":12955:12979   */\n      tag_59\n      jump\t// in\n    tag_246:\n        /* \"#utility.yul\":12946:12980   */\n      tag_96\n      jump\t// in\n    tag_245:\n        /* \"#utility.yul\":12928:12981   */\n      tag_59\n      jump\t// in\n    tag_244:\n        /* \"#utility.yul\":12915:12981   */\n      swap1\n      pop\n        /* \"#utility.yul\":12845:12987   */\n      swap2\n      swap1\n      pop\n      jump\t// out\n        /* \"#utility.yul\":12993:13068   */\n    tag_98:\n        /* \"#utility.yul\":13036:13039   */\n      0x00\n        /* \"#utility.yul\":13057:13062   */\n      dup2\n        /* \"#utility.yul\":13050:13062   */\n      swap1\n      pop\n        /* \"#utility.yul\":12993:13068   */\n      swap2\n      swap1\n      pop\n      jump\t// out\n        /* \"#utility.yul\":13074:13343   */\n    tag_99:\n        /* \"#utility.yul\":13184:13223   */\n      tag_249\n        /* \"#utility.yul\":13215:13222   */\n      dup4\n        /* \"#utility.yul\":13184:13223   */\n      tag_97\n      jump\t// in\n    tag_249:\n        /* \"#utility.yul\":13245:13336   */\n      tag_250\n        /* \"#utility.yul\":13294:13335   */\n      tag_251\n        /* \"#utility.yul\":13318:13334   */\n      dup3\n        /* \"#utility.yul\":13294:13335   */\n      tag_98\n      jump\t// in\n    tag_251:\n        /* \"#utility.yul\":13286:13292   */\n      dup5\n        /* \"#utility.yul\":13279:13283   */\n      dup5\n        /* \"#utility.yul\":13273:13284   */\n      sload\n        /* \"#utility.yul\":13245:13336   */\n      tag_95\n      jump\t// in\n    tag_250:\n        /* \"#utility.yul\":13239:13243   */\n      dup3\n        /* \"#utility.yul\":13232:13337   */\n      sstore\n        /* \"#utility.yul\":13150:13343   */\n      pop\n        /* \"#utility.yul\":13074:13343   */\n      pop\n      pop\n      pop\n      jump\t// out\n        /* \"#utility.yul\":13349:13422   */\n    tag_100:\n        /* \"#utility.yul\":13394:13397   */\n      0x00\n        /* \"#utility.yul\":13349:13422   */\n      swap1\n      jump\t// out\n        /* \"#utility.yul\":13428:13617   */\n    tag_101:\n        /* \"#utility.yul\":13505:13537   */\n      tag_254\n      tag_100\n      jump\t// in\n    tag_254:\n        /* \"#utility.yul\":13546:13611   */\n      tag_255\n        /* \"#utility.yul\":13604:13610   */\n      dup2\n        /* \"#utility.yul\":13596:13602   */\n      dup5\n        /* \"#utility.yul\":13590:13594   */\n      dup5\n        /* \"#utility.yul\":13546:13611   */\n      tag_99\n      jump\t// in\n    tag_255:\n        /* \"#utility.yul\":13481:13617   */\n      pop\n        /* \"#utility.yul\":13428:13617   */\n      pop\n      pop\n      jump\t// out\n        /* \"#utility.yul\":13623:13809   */\n    tag_102:\n        /* \"#utility.yul\":13683:13803   */\n    tag_257:\n        /* \"#utility.yul\":13700:13703   */\n      dup2\n        /* \"#utility.yul\":13693:13698   */\n      dup2\n        /* \"#utility.yul\":13690:13704   */\n      lt\n        /* \"#utility.yul\":13683:13803   */\n      iszero\n      tag_259\n      jumpi\n        /* \"#utility.yul\":13754:13793   */\n      tag_260\n        /* \"#utility.yul\":13791:13792   */\n      0x00\n        /* \"#utility.yul\":13784:13789   */\n      dup3\n        /* \"#utility.yul\":13754:13793   */\n      tag_101\n      jump\t// in\n    tag_260:\n        /* \"#utility.yul\":13727:13728   */\n      0x01\n        /* \"#utility.yul\":13720:13725   */\n      dup2\n        /* \"#utility.yul\":13716:13729   */\n      add\n        /* \"#utility.yul\":13707:13729   */\n      swap1\n      pop\n        /* \"#utility.yul\":13683:13803   */\n      jump(tag_257)\n    tag_259:\n        /* \"#utility.yul\":13623:13809   */\n      pop\n      pop\n      jump\t// out\n        /* \"#utility.yul\":13815:14358   */\n    tag_103:\n        /* \"#utility.yul\":13916:13918   */\n      0x1f\n        /* \"#utility.yul\":13911:13914   */\n      dup3\n        /* \"#utility.yul\":13908:13919   */\n      gt\n        /* \"#utility.yul\":13905:14351   */\n      iszero\n      tag_262\n      jumpi\n        /* \"#utility.yul\":13950:13988   */\n      tag_263\n        /* \"#utility.yul\":13982:13987   */\n      dup2\n        /* \"#utility.yul\":13950:13988   */\n      tag_92\n      jump\t// in\n    tag_263:\n        /* \"#utility.yul\":14034:14063   */\n      tag_264\n        /* \"#utility.yul\":14052:14062   */\n      dup5\n        /* \"#utility.yul\":14034:14063   */\n      tag_93\n      jump\t// in\n    tag_264:\n        /* \"#utility.yul\":14024:14032   */\n      dup2\n        /* \"#utility.yul\":14020:14064   */\n      add\n        /* \"#utility.yul\":14217:14219   */\n      0x20\n        /* \"#utility.yul\":14205:14215   */\n      dup6\n        /* \"#utility.yul\":14202:14220   */\n      lt\n        /* \"#utility.yul\":14199:14248   */\n      iszero\n      tag_265\n      jumpi\n        /* \"#utility.yul\":14238:14246   */\n      dup2\n        /* \"#utility.yul\":14223:14246   */\n      swap1\n      pop\n        /* \"#utility.yul\":14199:14248   */\n    tag_265:\n        /* \"#utility.yul\":14261:14341   */\n      tag_266\n        /* \"#utility.yul\":14317:14339   */\n      tag_267\n        /* \"#utility.yul\":14335:14338   */\n      dup6\n        /* \"#utility.yul\":14317:14339   */\n      tag_93\n      jump\t// in\n    tag_267:\n        /* \"#utility.yul\":14307:14315   */\n      dup4\n        /* \"#utility.yul\":14303:14340   */\n      add\n        /* \"#utility.yul\":14290:14301   */\n      dup3\n        /* \"#utility.yul\":14261:14341   */\n      tag_102\n      jump\t// in\n    tag_266:\n        /* \"#utility.yul\":13920:14351   */\n      pop\n      pop\n        /* \"#utility.yul\":13905:14351   */\n    tag_262:\n        /* \"#utility.yul\":13815:14358   */\n      pop\n      pop\n      pop\n      jump\t// out\n        /* \"#utility.yul\":14364:14481   */\n    tag_104:\n        /* \"#utility.yul\":14418:14426   */\n      0x00\n        /* \"#utility.yul\":14468:14473   */\n      dup3\n        /* \"#utility.yul\":14462:14466   */\n      dup3\n        /* \"#utility.yul\":14458:14474   */\n      shr\n        /* \"#utility.yul\":14437:14474   */\n      swap1\n      pop\n        /* \"#utility.yul\":14364:14481   */\n      swap3\n      swap2\n      pop\n      pop\n      jump\t// out\n        /* \"#utility.yul\":14487:14656   */\n    tag_105:\n        /* \"#utility.yul\":14531:14537   */\n      0x00\n        /* \"#utility.yul\":14564:14615   */\n      tag_270\n        /* \"#utility.yul\":14612:14613   */\n      0x00\n        /* \"#utility.yul\":14608:14614   */\n      not\n        /* \"#utility.yul\":14600:14605   */\n      dup5\n        /* \"#utility.yul\":14597:14598   */\n      0x08\n        /* \"#utility.yul\":14593:14606   */\n      mul\n        /* \"#utility.yul\":14564:14615   */\n      tag_104\n      jump\t// in\n    tag_270:\n        /* \"#utility.yul\":14560:14616   */\n      not\n        /* \"#utility.yul\":14645:14649   */\n      dup1\n        /* \"#utility.yul\":14639:14643   */\n      dup4\n        /* \"#utility.yul\":14635:14650   */\n      and\n        /* \"#utility.yul\":14625:14650   */\n      swap2\n      pop\n        /* \"#utility.yul\":14538:14656   */\n      pop\n        /* \"#utility.yul\":14487:14656   */\n      swap3\n      swap2\n      pop\n      pop\n      jump\t// out\n        /* \"#utility.yul\":14661:14956   */\n    tag_106:\n        /* \"#utility.yul\":14737:14741   */\n      0x00\n        /* \"#utility.yul\":14883:14912   */\n      tag_272\n        /* \"#utility.yul\":14908:14911   */\n      dup4\n        /* \"#utility.yul\":14902:14906   */\n      dup4\n        /* \"#utility.yul\":14883:14912   */\n      tag_105\n      jump\t// in\n    tag_272:\n        /* \"#utility.yul\":14875:14912   */\n      swap2\n      pop\n        /* \"#utility.yul\":14945:14948   */\n      dup3\n        /* \"#utility.yul\":14942:14943   */\n      0x02\n        /* \"#utility.yul\":14938:14949   */\n      mul\n        /* \"#utility.yul\":14932:14936   */\n      dup3\n        /* \"#utility.yul\":14929:14950   */\n      or\n        /* \"#utility.yul\":14921:14950   */\n      swap1\n      pop\n        /* \"#utility.yul\":14661:14956   */\n      swap3\n      swap2\n      pop\n      pop\n      jump\t// out\n        /* \"#utility.yul\":14961:16356   */\n    tag_34:\n        /* \"#utility.yul\":15078:15115   */\n      tag_274\n        /* \"#utility.yul\":15111:15114   */\n      dup3\n        /* \"#utility.yul\":15078:15115   */\n      tag_54\n      jump\t// in\n    tag_274:\n        /* \"#utility.yul\":15180:15198   */\n      0xffffffffffffffff\n        /* \"#utility.yul\":15172:15178   */\n      dup2\n        /* \"#utility.yul\":15169:15199   */\n      gt\n        /* \"#utility.yul\":15166:15222   */\n      iszero\n      tag_275\n      jumpi\n        /* \"#utility.yul\":15202:15220   */\n      tag_276\n      tag_66\n      jump\t// in\n    tag_276:\n        /* \"#utility.yul\":15166:15222   */\n    tag_275:\n        /* \"#utility.yul\":15246:15284   */\n      tag_277\n        /* \"#utility.yul\":15278:15282   */\n      dup3\n        /* \"#utility.yul\":15272:15283   */\n      sload\n        /* \"#utility.yul\":15246:15284   */\n      tag_22\n      jump\t// in\n    tag_277:\n        /* \"#utility.yul\":15331:15398   */\n      tag_278\n        /* \"#utility.yul\":15391:15397   */\n      dup3\n        /* \"#utility.yul\":15383:15389   */\n      dup3\n        /* \"#utility.yul\":15377:15381   */\n      dup6\n        /* \"#utility.yul\":15331:15398   */\n      tag_103\n      jump\t// in\n    tag_278:\n        /* \"#utility.yul\":15425:15426   */\n      0x00\n        /* \"#utility.yul\":15449:15453   */\n      0x20\n        /* \"#utility.yul\":15436:15453   */\n      swap1\n      pop\n        /* \"#utility.yul\":15481:15483   */\n      0x1f\n        /* \"#utility.yul\":15473:15479   */\n      dup4\n        /* \"#utility.yul\":15470:15484   */\n      gt\n        /* \"#utility.yul\":15498:15499   */\n      0x01\n        /* \"#utility.yul\":15493:16111   */\n      dup2\n      eq\n      tag_280\n      jumpi\n        /* \"#utility.yul\":16155:16156   */\n      0x00\n        /* \"#utility.yul\":16172:16178   */\n      dup5\n        /* \"#utility.yul\":16169:16246   */\n      iszero\n      tag_281\n      jumpi\n        /* \"#utility.yul\":16221:16230   */\n      dup3\n        /* \"#utility.yul\":16216:16219   */\n      dup8\n        /* \"#utility.yul\":16212:16231   */\n      add\n        /* \"#utility.yul\":16206:16232   */\n      mload\n        /* \"#utility.yul\":16197:16232   */\n      swap1\n      pop\n        /* \"#utility.yul\":16169:16246   */\n    tag_281:\n        /* \"#utility.yul\":16272:16339   */\n      tag_282\n        /* \"#utility.yul\":16332:16338   */\n      dup6\n        /* \"#utility.yul\":16325:16330   */\n      dup3\n        /* \"#utility.yul\":16272:16339   */\n      tag_106\n      jump\t// in\n    tag_282:\n        /* \"#utility.yul\":16266:16270   */\n      dup7\n        /* \"#utility.yul\":16259:16340   */\n      sstore\n        /* \"#utility.yul\":16128:16350   */\n      pop\n        /* \"#utility.yul\":15463:16350   */\n      jump(tag_279)\n        /* \"#utility.yul\":15493:16111   */\n    tag_280:\n        /* \"#utility.yul\":15545:15549   */\n      0x1f\n        /* \"#utility.yul\":15541:15550   */\n      not\n        /* \"#utility.yul\":15533:15539   */\n      dup5\n        /* \"#utility.yul\":15529:15551   */\n      and\n        /* \"#utility.yul\":15579:15616   */\n      tag_283\n        /* \"#utility.yul\":15611:15615   */\n      dup7\n        /* \"#utility.yul\":15579:15616   */\n      tag_92\n      jump\t// in\n    tag_283:\n        /* \"#utility.yul\":15638:15639   */\n      0x00\n        /* \"#utility.yul\":15652:15860   */\n    tag_284:\n        /* \"#utility.yul\":15666:15673   */\n      dup3\n        /* \"#utility.yul\":15663:15664   */\n      dup2\n        /* \"#utility.yul\":15660:15674   */\n      lt\n        /* \"#utility.yul\":15652:15860   */\n      iszero\n      tag_286\n      jumpi\n        /* \"#utility.yul\":15745:15754   */\n      dup5\n        /* \"#utility.yul\":15740:15743   */\n      dup10\n        /* \"#utility.yul\":15736:15755   */\n      add\n        /* \"#utility.yul\":15730:15756   */\n      mload\n        /* \"#utility.yul\":15722:15728   */\n      dup3\n        /* \"#utility.yul\":15715:15757   */\n      sstore\n        /* \"#utility.yul\":15796:15797   */\n      0x01\n        /* \"#utility.yul\":15788:15794   */\n      dup3\n        /* \"#utility.yul\":15784:15798   */\n      add\n        /* \"#utility.yul\":15774:15798   */\n      swap2\n      pop\n        /* \"#utility.yul\":15843:15845   */\n      0x20\n        /* \"#utility.yul\":15832:15841   */\n      dup6\n        /* \"#utility.yul\":15828:15846   */\n      add\n        /* \"#utility.yul\":15815:15846   */\n      swap5\n      pop\n        /* \"#utility.yul\":15689:15693   */\n      0x20\n        /* \"#utility.yul\":15686:15687   */\n      dup2\n        /* \"#utility.yul\":15682:15694   */\n      add\n        /* \"#utility.yul\":15677:15694   */\n      swap1\n      pop\n        /* \"#utility.yul\":15652:15860   */\n      jump(tag_284)\n    tag_286:\n        /* \"#utility.yul\":15888:15894   */\n      dup7\n        /* \"#utility.yul\":15879:15886   */\n      dup4\n        /* \"#utility.yul\":15876:15895   */\n      lt\n        /* \"#utility.yul\":15873:16052   */\n      iszero\n      tag_287\n      jumpi\n        /* \"#utility.yul\":15946:15955   */\n      dup5\n        /* \"#utility.yul\":15941:15944   */\n      dup10\n        /* \"#utility.yul\":15937:15956   */\n      add\n        /* \"#utility.yul\":15931:15957   */\n      mload\n        /* \"#utility.yul\":15989:16037   */\n      tag_288\n        /* \"#utility.yul\":16031:16035   */\n      0x1f\n        /* \"#utility.yul\":16023:16029   */\n      dup10\n        /* \"#utility.yul\":16019:16036   */\n      and\n        /* \"#utility.yul\":16008:16017   */\n      dup3\n        /* \"#utility.yul\":15989:16037   */\n      tag_105\n      jump\t// in\n    tag_288:\n        /* \"#utility.yul\":15981:15987   */\n      dup4\n        /* \"#utility.yul\":15974:16038   */\n      sstore\n        /* \"#utility.yul\":15896:16052   */\n      pop\n        /* \"#utility.yul\":15873:16052   */\n    tag_287:\n        /* \"#utility.yul\":16098:16099   */\n      0x01\n        /* \"#utility.yul\":16094:16095   */\n      0x02\n        /* \"#utility.yul\":16086:16092   */\n      dup9\n        /* \"#utility.yul\":16082:16096   */\n      mul\n        /* \"#utility.yul\":16078:16100   */\n      add\n        /* \"#utility.yul\":16072:16076   */\n      dup9\n        /* \"#utility.yul\":16065:16101   */\n      sstore\n        /* \"#utility.yul\":15500:16111   */\n      pop\n      pop\n      pop\n        /* \"#utility.yul\":15463:16350   */\n    tag_279:\n      pop\n        /* \"#utility.yul\":15053:16356   */\n      pop\n      pop\n      pop\n        /* \"#utility.yul\":14961:16356   */\n      pop\n      pop\n      jump\t// out\n        /* \"#utility.yul\":16362:16531   */\n    tag_107:\n        /* \"#utility.yul\":16502:16523   */\n      0x4974656d20646f6573206e6f7420657869737400000000000000000000000000\n        /* \"#utility.yul\":16498:16499   */\n      0x00\n        /* \"#utility.yul\":16490:16496   */\n      dup3\n        /* \"#utility.yul\":16486:16500   */\n      add\n        /* \"#utility.yul\":16479:16524   */\n      mstore\n        /* \"#utility.yul\":16362:16531   */\n      pop\n      jump\t// out\n        /* \"#utility.yul\":16537:16903   */\n    tag_108:\n        /* \"#utility.yul\":16679:16682   */\n      0x00\n        /* \"#utility.yul\":16700:16767   */\n      tag_291\n        /* \"#utility.yul\":16764:16766   */\n      0x13\n        /* \"#utility.yul\":16759:16762   */\n      dup4\n        /* \"#utility.yul\":16700:16767   */\n      tag_55\n      jump\t// in\n    tag_291:\n        /* \"#utility.yul\":16693:16767   */\n      swap2\n      pop\n        /* \"#utility.yul\":16776:16869   */\n      tag_292\n        /* \"#utility.yul\":16865:16868   */\n      dup3\n        /* \"#utility.yul\":16776:16869   */\n      tag_107\n      jump\t// in\n    tag_292:\n        /* \"#utility.yul\":16894:16896   */\n      0x20\n        /* \"#utility.yul\":16889:16892   */\n      dup3\n        /* \"#utility.yul\":16885:16897   */\n      add\n        /* \"#utility.yul\":16878:16897   */\n      swap1\n      pop\n        /* \"#utility.yul\":16537:16903   */\n      swap2\n      swap1\n      pop\n      jump\t// out\n        /* \"#utility.yul\":16909:17328   */\n    tag_41:\n        /* \"#utility.yul\":17075:17079   */\n      0x00\n        /* \"#utility.yul\":17113:17115   */\n      0x20\n        /* \"#utility.yul\":17102:17111   */\n      dup3\n        /* \"#utility.yul\":17098:17116   */\n      add\n        /* \"#utility.yul\":17090:17116   */\n      swap1\n      pop\n        /* \"#utility.yul\":17162:17171   */\n      dup2\n        /* \"#utility.yul\":17156:17160   */\n      dup2\n        /* \"#utility.yul\":17152:17172   */\n      sub\n        /* \"#utility.yul\":17148:17149   */\n      0x00\n        /* \"#utility.yul\":17137:17146   */\n      dup4\n        /* \"#utility.yul\":17133:17150   */\n      add\n        /* \"#utility.yul\":17126:17173   */\n      mstore\n        /* \"#utility.yul\":17190:17321   */\n      tag_294\n        /* \"#utility.yul\":17316:17320   */\n      dup2\n        /* \"#utility.yul\":17190:17321   */\n      tag_108\n      jump\t// in\n    tag_294:\n        /* \"#utility.yul\":17182:17321   */\n      swap1\n      pop\n        /* \"#utility.yul\":16909:17328   */\n      swap2\n      swap1\n      pop\n      jump\t// out\n\n    auxdata: 0xa2646970667358221220ebe4e5060be4b3c0c6e5108985c08002199bc4c1905cf9cf4ea1ad1dfba3cae564736f6c634300081a0033\n}\n",
				"bytecode": {
					"linkReferences": {},
					"object": "6080604052348015600e575f80fd5b50610db38061001c5f395ff3fe608060405234801561000f575f80fd5b506004361061003f575f3560e01c806348f343f3146100435780638c55174214610076578063aa0372e714610092575b5f80fd5b61005d6004803603810190610058919061050c565b6100c2565b60405161006d949392919061060d565b60405180910390f35b610090600480360381019061008b91906107ad565b610192565b005b6100ac60048036038101906100a7919061050c565b610312565b6040516100b991906108dc565b60405180910390f35b5f602052805f5260405f205f91509050805f0154908060010180546100e690610929565b80601f016020809104026020016040519081016040528092919081815260200182805461011290610929565b801561015d5780601f106101345761010080835404028352916020019161015d565b820191905f5260205f20905b81548152906001019060200180831161014057829003601f168201915b505050505090806002015490806003015f9054906101000a900473ffffffffffffffffffffffffffffffffffffffff16905084565b5f828233426040516020016101aa94939291906109f8565b6040516020818303038152906040528051906020012090505f801b5f808381526020019081526020015f205f015414610218576040517f08c379a000000000000000000000000000000000000000000000000000000000815260040161020f90610a8b565b60405180910390fd5b60405180608001604052808281526020018481526020018381526020013373ffffffffffffffffffffffffffffffffffffffff168152505f808381526020019081526020015f205f820151815f0155602082015181600101908161027c9190610c46565b50604082015181600201556060820151816003015f6101000a81548173ffffffffffffffffffffffffffffffffffffffff021916908373ffffffffffffffffffffffffffffffffffffffff1602179055509050507fc89fc6756df9c3af548ff04edb102cf22bc263027d269ca54f6fbffa731d283a81848433604051610305949392919061060d565b60405180910390a1505050565b61031a61048a565b5f801b5f808481526020019081526020015f205f015403610370576040517f08c379a000000000000000000000000000000000000000000000000000000000815260040161036790610d5f565b60405180910390fd5b5f808381526020019081526020015f206040518060800160405290815f82015481526020016001820180546103a490610929565b80601f01602080910402602001604051908101604052809291908181526020018280546103d090610929565b801561041b5780601f106103f25761010080835404028352916020019161041b565b820191905f5260205f20905b8154815290600101906020018083116103fe57829003601f168201915b5050505050815260200160028201548152602001600382015f9054906101000a900473ffffffffffffffffffffffffffffffffffffffff1673ffffffffffffffffffffffffffffffffffffffff1673ffffffffffffffffffffffffffffffffffffffff16815250509050919050565b60405180608001604052805f8019168152602001606081526020015f81526020015f73ffffffffffffffffffffffffffffffffffffffff1681525090565b5f604051905090565b5f80fd5b5f80fd5b5f819050919050565b6104eb816104d9565b81146104f5575f80fd5b50565b5f81359050610506816104e2565b92915050565b5f60208284031215610521576105206104d1565b5b5f61052e848285016104f8565b91505092915050565b610540816104d9565b82525050565b5f81519050919050565b5f82825260208201905092915050565b8281835e5f83830152505050565b5f601f19601f8301169050919050565b5f61058882610546565b6105928185610550565b93506105a2818560208601610560565b6105ab8161056e565b840191505092915050565b5f819050919050565b6105c8816105b6565b82525050565b5f73ffffffffffffffffffffffffffffffffffffffff82169050919050565b5f6105f7826105ce565b9050919050565b610607816105ed565b82525050565b5f6080820190506106205f830187610537565b8181036020830152610632818661057e565b905061064160408301856105bf565b61064e60608301846105fe565b95945050505050565b5f80fd5b5f80fd5b7f4e487b71000000000000000000000000000000000000000000000000000000005f52604160045260245ffd5b6106958261056e565b810181811067ffffffffffffffff821117156106b4576106b361065f565b5b80604052505050565b5f6106c66104c8565b90506106d2828261068c565b919050565b5f67ffffffffffffffff8211156106f1576106f061065f565b5b6106fa8261056e565b9050602081019050919050565b828183375f83830152505050565b5f610727610722846106d7565b6106bd565b9050828152602081018484840111156107435761074261065b565b5b61074e848285610707565b509392505050565b5f82601f83011261076a57610769610657565b5b813561077a848260208601610715565b91505092915050565b61078c816105b6565b8114610796575f80fd5b50565b5f813590506107a781610783565b92915050565b5f80604083850312156107c3576107c26104d1565b5b5f83013567ffffffffffffffff8111156107e0576107df6104d5565b5b6107ec85828601610756565b92505060206107fd85828601610799565b9150509250929050565b610810816104d9565b82525050565b5f82825260208201905092915050565b5f61083082610546565b61083a8185610816565b935061084a818560208601610560565b6108538161056e565b840191505092915050565b610867816105b6565b82525050565b610876816105ed565b82525050565b5f608083015f8301516108915f860182610807565b50602083015184820360208601526108a98282610826565b91505060408301516108be604086018261085e565b5060608301516108d1606086018261086d565b508091505092915050565b5f6020820190508181035f8301526108f4818461087c565b905092915050565b7f4e487b71000000000000000000000000000000000000000000000000000000005f52602260045260245ffd5b5f600282049050600182168061094057607f821691505b602082108103610953576109526108fc565b5b50919050565b5f81905092915050565b5f61096d82610546565b6109778185610959565b9350610987818560208601610560565b80840191505092915050565b5f819050919050565b6109ad6109a8826105b6565b610993565b82525050565b5f8160601b9050919050565b5f6109c9826109b3565b9050919050565b5f6109da826109bf565b9050919050565b6109f26109ed826105ed565b6109d0565b82525050565b5f610a038287610963565b9150610a0f828661099c565b602082019150610a1f82856109e1565b601482019150610a2f828461099c565b60208201915081905095945050505050565b7f4974656d20616c726561647920657869737473000000000000000000000000005f82015250565b5f610a75601383610550565b9150610a8082610a41565b602082019050919050565b5f6020820190508181035f830152610aa281610a69565b9050919050565b5f819050815f5260205f209050919050565b5f6020601f8301049050919050565b5f82821b905092915050565b5f60088302610b057fffffffffffffffffffffffffffffffffffffffffffffffffffffffffffffffff82610aca565b610b0f8683610aca565b95508019841693508086168417925050509392505050565b5f819050919050565b5f610b4a610b45610b40846105b6565b610b27565b6105b6565b9050919050565b5f819050919050565b610b6383610b30565b610b77610b6f82610b51565b848454610ad6565b825550505050565b5f90565b610b8b610b7f565b610b96818484610b5a565b505050565b5b81811015610bb957610bae5f82610b83565b600181019050610b9c565b5050565b601f821115610bfe57610bcf81610aa9565b610bd884610abb565b81016020851015610be7578190505b610bfb610bf385610abb565b830182610b9b565b50505b505050565b5f82821c905092915050565b5f610c1e5f1984600802610c03565b1980831691505092915050565b5f610c368383610c0f565b9150826002028217905092915050565b610c4f82610546565b67ffffffffffffffff811115610c6857610c6761065f565b5b610c728254610929565b610c7d828285610bbd565b5f60209050601f831160018114610cae575f8415610c9c578287015190505b610ca68582610c2b565b865550610d0d565b601f198416610cbc86610aa9565b5f5b82811015610ce357848901518255600182019150602085019450602081019050610cbe565b86831015610d005784890151610cfc601f891682610c0f565b8355505b6001600288020188555050505b505050505050565b7f4974656d20646f6573206e6f74206578697374000000000000000000000000005f82015250565b5f610d49601383610550565b9150610d5482610d15565b602082019050919050565b5f6020820190508181035f830152610d7681610d3d565b905091905056fea2646970667358221220ebe4e5060be4b3c0c6e5108985c08002199bc4c1905cf9cf4ea1ad1dfba3cae564736f6c634300081a0033",
					"opcodes": "PUSH1 0x80 PUSH1 0x40 MSTORE CALLVALUE DUP1 ISZERO PUSH1 0xE JUMPI PUSH0 DUP1 REVERT JUMPDEST POP PUSH2 0xDB3 DUP1 PUSH2 0x1C PUSH0 CODECOPY PUSH0 RETURN INVALID PUSH1 0x80 PUSH1 0x40 MSTORE CALLVALUE DUP1 ISZERO PUSH2 0xF JUMPI PUSH0 DUP1 REVERT JUMPDEST POP PUSH1 0x4 CALLDATASIZE LT PUSH2 0x3F JUMPI PUSH0 CALLDATALOAD PUSH1 0xE0 SHR DUP1 PUSH4 0x48F343F3 EQ PUSH2 0x43 JUMPI DUP1 PUSH4 0x8C551742 EQ PUSH2 0x76 JUMPI DUP1 PUSH4 0xAA0372E7 EQ PUSH2 0x92 JUMPI JUMPDEST PUSH0 DUP1 REVERT JUMPDEST PUSH2 0x5D PUSH1 0x4 DUP1 CALLDATASIZE SUB DUP2 ADD SWAP1 PUSH2 0x58 SWAP2 SWAP1 PUSH2 0x50C JUMP JUMPDEST PUSH2 0xC2 JUMP JUMPDEST PUSH1 0x40 MLOAD PUSH2 0x6D SWAP5 SWAP4 SWAP3 SWAP2 SWAP1 PUSH2 0x60D JUMP JUMPDEST PUSH1 0x40 MLOAD DUP1 SWAP2 SUB SWAP1 RETURN JUMPDEST PUSH2 0x90 PUSH1 0x4 DUP1 CALLDATASIZE SUB DUP2 ADD SWAP1 PUSH2 0x8B SWAP2 SWAP1 PUSH2 0x7AD JUMP JUMPDEST PUSH2 0x192 JUMP JUMPDEST STOP JUMPDEST PUSH2 0xAC PUSH1 0x4 DUP1 CALLDATASIZE SUB DUP2 ADD SWAP1 PUSH2 0xA7 SWAP2 SWAP1 PUSH2 0x50C JUMP JUMPDEST PUSH2 0x312 JUMP JUMPDEST PUSH1 0x40 MLOAD PUSH2 0xB9 SWAP2 SWAP1 PUSH2 0x8DC JUMP JUMPDEST PUSH1 0x40 MLOAD DUP1 SWAP2 SUB SWAP1 RETURN JUMPDEST PUSH0 PUSH1 0x20 MSTORE DUP1 PUSH0 MSTORE PUSH1 0x40 PUSH0 KECCAK256 PUSH0 SWAP2 POP SWAP1 POP DUP1 PUSH0 ADD SLOAD SWAP1 DUP1 PUSH1 0x1 ADD DUP1 SLOAD PUSH2 0xE6 SWAP1 PUSH2 0x929 JUMP JUMPDEST DUP1 PUSH1 0x1F ADD PUSH1 0x20 DUP1 SWAP2 DIV MUL PUSH1 0x20 ADD PUSH1 0x40 MLOAD SWAP1 DUP2 ADD PUSH1 0x40 MSTORE DUP1 SWAP3 SWAP2 SWAP1 DUP2 DUP2 MSTORE PUSH1 0x20 ADD DUP3 DUP1 SLOAD PUSH2 0x112 SWAP1 PUSH2 0x929 JUMP JUMPDEST DUP1 ISZERO PUSH2 0x15D JUMPI DUP1 PUSH1 0x1F LT PUSH2 0x134 JUMPI PUSH2 0x100 DUP1 DUP4 SLOAD DIV MUL DUP4 MSTORE SWAP2 PUSH1 0x20 ADD SWAP2 PUSH2 0x15D JUMP JUMPDEST DUP3 ADD SWAP2 SWAP1 PUSH0 MSTORE PUSH1 0x20 PUSH0 KECCAK256 SWAP1 JUMPDEST DUP2 SLOAD DUP2 MSTORE SWAP1 PUSH1 0x1 ADD SWAP1 PUSH1 0x20 ADD DUP1 DUP4 GT PUSH2 0x140 JUMPI DUP3 SWAP1 SUB PUSH1 0x1F AND DUP3 ADD SWAP2 JUMPDEST POP POP POP POP POP SWAP1 DUP1 PUSH1 0x2 ADD SLOAD SWAP1 DUP1 PUSH1 0x3 ADD PUSH0 SWAP1 SLOAD SWAP1 PUSH2 0x100 EXP SWAP1 DIV PUSH20 0xFFFFFFFFFFFFFFFFFFFFFFFFFFFFFFFFFFFFFFFF AND SWAP1 POP DUP5 JUMP JUMPDEST PUSH0 DUP3 DUP3 CALLER TIMESTAMP PUSH1 0x40 MLOAD PUSH1 0x20 ADD PUSH2 0x1AA SWAP5 SWAP4 SWAP3 SWAP2 SWAP1 PUSH2 0x9F8 JUMP JUMPDEST PUSH1 0x40 MLOAD PUSH1 0x20 DUP2 DUP4 SUB SUB DUP2 MSTORE SWAP1 PUSH1 0x40 MSTORE DUP1 MLOAD SWAP1 PUSH1 0x20 ADD KECCAK256 SWAP1 POP PUSH0 DUP1 SHL PUSH0 DUP1 DUP4 DUP2 MSTORE PUSH1 0x20 ADD SWAP1 DUP2 MSTORE PUSH1 0x20 ADD PUSH0 KECCAK256 PUSH0 ADD SLOAD EQ PUSH2 0x218 JUMPI PUSH1 0x40 MLOAD PUSH32 0x8C379A000000000000000000000000000000000000000000000000000000000 DUP2 MSTORE PUSH1 0x4 ADD PUSH2 0x20F SWAP1 PUSH2 0xA8B JUMP JUMPDEST PUSH1 0x40 MLOAD DUP1 SWAP2 SUB SWAP1 REVERT JUMPDEST PUSH1 0x40 MLOAD DUP1 PUSH1 0x80 ADD PUSH1 0x40 MSTORE DUP1 DUP3 DUP2 MSTORE PUSH1 0x20 ADD DUP5 DUP2 MSTORE PUSH1 0x20 ADD DUP4 DUP2 MSTORE PUSH1 0x20 ADD CALLER PUSH20 0xFFFFFFFFFFFFFFFFFFFFFFFFFFFFFFFFFFFFFFFF AND DUP2 MSTORE POP PUSH0 DUP1 DUP4 DUP2 MSTORE PUSH1 0x20 ADD SWAP1 DUP2 MSTORE PUSH1 0x20 ADD PUSH0 KECCAK256 PUSH0 DUP3 ADD MLOAD DUP2 PUSH0 ADD SSTORE PUSH1 0x20 DUP3 ADD MLOAD DUP2 PUSH1 0x1 ADD SWAP1 DUP2 PUSH2 0x27C SWAP2 SWAP1 PUSH2 0xC46 JUMP JUMPDEST POP PUSH1 0x40 DUP3 ADD MLOAD DUP2 PUSH1 0x2 ADD SSTORE PUSH1 0x60 DUP3 ADD MLOAD DUP2 PUSH1 0x3 ADD PUSH0 PUSH2 0x100 EXP DUP2 SLOAD DUP2 PUSH20 0xFFFFFFFFFFFFFFFFFFFFFFFFFFFFFFFFFFFFFFFF MUL NOT AND SWAP1 DUP4 PUSH20 0xFFFFFFFFFFFFFFFFFFFFFFFFFFFFFFFFFFFFFFFF AND MUL OR SWAP1 SSTORE POP SWAP1 POP POP PUSH32 0xC89FC6756DF9C3AF548FF04EDB102CF22BC263027D269CA54F6FBFFA731D283A DUP2 DUP5 DUP5 CALLER PUSH1 0x40 MLOAD PUSH2 0x305 SWAP5 SWAP4 SWAP3 SWAP2 SWAP1 PUSH2 0x60D JUMP JUMPDEST PUSH1 0x40 MLOAD DUP1 SWAP2 SUB SWAP1 LOG1 POP POP POP JUMP JUMPDEST PUSH2 0x31A PUSH2 0x48A JUMP JUMPDEST PUSH0 DUP1 SHL PUSH0 DUP1 DUP5 DUP2 MSTORE PUSH1 0x20 ADD SWAP1 DUP2 MSTORE PUSH1 0x20 ADD PUSH0 KECCAK256 PUSH0 ADD SLOAD SUB PUSH2 0x370 JUMPI PUSH1 0x40 MLOAD PUSH32 0x8C379A000000000000000000000000000000000000000000000000000000000 DUP2 MSTORE PUSH1 0x4 ADD PUSH2 0x367 SWAP1 PUSH2 0xD5F JUMP JUMPDEST PUSH1 0x40 MLOAD DUP1 SWAP2 SUB SWAP1 REVERT JUMPDEST PUSH0 DUP1 DUP4 DUP2 MSTORE PUSH1 0x20 ADD SWAP1 DUP2 MSTORE PUSH1 0x20 ADD PUSH0 KECCAK256 PUSH1 0x40 MLOAD DUP1 PUSH1 0x80 ADD PUSH1 0x40 MSTORE SWAP1 DUP2 PUSH0 DUP3 ADD SLOAD DUP2 MSTORE PUSH1 0x20 ADD PUSH1 0x1 DUP3 ADD DUP1 SLOAD PUSH2 0x3A4 SWAP1 PUSH2 0x929 JUMP JUMPDEST DUP1 PUSH1 0x1F ADD PUSH1 0x20 DUP1 SWAP2 DIV MUL PUSH1 0x20 ADD PUSH1 0x40 MLOAD SWAP1 DUP2 ADD PUSH1 0x40 MSTORE DUP1 SWAP3 SWAP2 SWAP1 DUP2 DUP2 MSTORE PUSH1 0x20 ADD DUP3 DUP1 SLOAD PUSH2 0x3D0 SWAP1 PUSH2 0x929 JUMP JUMPDEST DUP1 ISZERO PUSH2 0x41B JUMPI DUP1 PUSH1 0x1F LT PUSH2 0x3F2 JUMPI PUSH2 0x100 DUP1 DUP4 SLOAD DIV MUL DUP4 MSTORE SWAP2 PUSH1 0x20 ADD SWAP2 PUSH2 0x41B JUMP JUMPDEST DUP3 ADD SWAP2 SWAP1 PUSH0 MSTORE PUSH1 0x20 PUSH0 KECCAK256 SWAP1 JUMPDEST DUP2 SLOAD DUP2 MSTORE SWAP1 PUSH1 0x1 ADD SWAP1 PUSH1 0x20 ADD DUP1 DUP4 GT PUSH2 0x3FE JUMPI DUP3 SWAP1 SUB PUSH1 0x1F AND DUP3 ADD SWAP2 JUMPDEST POP POP POP POP POP DUP2 MSTORE PUSH1 0x20 ADD PUSH1 0x2 DUP3 ADD SLOAD DUP2 MSTORE PUSH1 0x20 ADD PUSH1 0x3 DUP3 ADD PUSH0 SWAP1 SLOAD SWAP1 PUSH2 0x100 EXP SWAP1 DIV PUSH20 0xFFFFFFFFFFFFFFFFFFFFFFFFFFFFFFFFFFFFFFFF AND PUSH20 0xFFFFFFFFFFFFFFFFFFFFFFFFFFFFFFFFFFFFFFFF AND PUSH20 0xFFFFFFFFFFFFFFFFFFFFFFFFFFFFFFFFFFFFFFFF AND DUP2 MSTORE POP POP SWAP1 POP SWAP2 SWAP1 POP JUMP JUMPDEST PUSH1 0x40 MLOAD DUP1 PUSH1 0x80 ADD PUSH1 0x40 MSTORE DUP1 PUSH0 DUP1 NOT AND DUP2 MSTORE PUSH1 0x20 ADD PUSH1 0x60 DUP2 MSTORE PUSH1 0x20 ADD PUSH0 DUP2 MSTORE PUSH1 0x20 ADD PUSH0 PUSH20 0xFFFFFFFFFFFFFFFFFFFFFFFFFFFFFFFFFFFFFFFF AND DUP2 MSTORE POP SWAP1 JUMP JUMPDEST PUSH0 PUSH1 0x40 MLOAD SWAP1 POP SWAP1 JUMP JUMPDEST PUSH0 DUP1 REVERT JUMPDEST PUSH0 DUP1 REVERT JUMPDEST PUSH0 DUP2 SWAP1 POP SWAP2 SWAP1 POP JUMP JUMPDEST PUSH2 0x4EB DUP2 PUSH2 0x4D9 JUMP JUMPDEST DUP2 EQ PUSH2 0x4F5 JUMPI PUSH0 DUP1 REVERT JUMPDEST POP JUMP JUMPDEST PUSH0 DUP2 CALLDATALOAD SWAP1 POP PUSH2 0x506 DUP2 PUSH2 0x4E2 JUMP JUMPDEST SWAP3 SWAP2 POP POP JUMP JUMPDEST PUSH0 PUSH1 0x20 DUP3 DUP5 SUB SLT ISZERO PUSH2 0x521 JUMPI PUSH2 0x520 PUSH2 0x4D1 JUMP JUMPDEST JUMPDEST PUSH0 PUSH2 0x52E DUP5 DUP3 DUP6 ADD PUSH2 0x4F8 JUMP JUMPDEST SWAP2 POP POP SWAP3 SWAP2 POP POP JUMP JUMPDEST PUSH2 0x540 DUP2 PUSH2 0x4D9 JUMP JUMPDEST DUP3 MSTORE POP POP JUMP JUMPDEST PUSH0 DUP2 MLOAD SWAP1 POP SWAP2 SWAP1 POP JUMP JUMPDEST PUSH0 DUP3 DUP3 MSTORE PUSH1 0x20 DUP3 ADD SWAP1 POP SWAP3 SWAP2 POP POP JUMP JUMPDEST DUP3 DUP2 DUP4 MCOPY PUSH0 DUP4 DUP4 ADD MSTORE POP POP POP JUMP JUMPDEST PUSH0 PUSH1 0x1F NOT PUSH1 0x1F DUP4 ADD AND SWAP1 POP SWAP2 SWAP1 POP JUMP JUMPDEST PUSH0 PUSH2 0x588 DUP3 PUSH2 0x546 JUMP JUMPDEST PUSH2 0x592 DUP2 DUP6 PUSH2 0x550 JUMP JUMPDEST SWAP4 POP PUSH2 0x5A2 DUP2 DUP6 PUSH1 0x20 DUP7 ADD PUSH2 0x560 JUMP JUMPDEST PUSH2 0x5AB DUP2 PUSH2 0x56E JUMP JUMPDEST DUP5 ADD SWAP2 POP POP SWAP3 SWAP2 POP POP JUMP JUMPDEST PUSH0 DUP2 SWAP1 POP SWAP2 SWAP1 POP JUMP JUMPDEST PUSH2 0x5C8 DUP2 PUSH2 0x5B6 JUMP JUMPDEST DUP3 MSTORE POP POP JUMP JUMPDEST PUSH0 PUSH20 0xFFFFFFFFFFFFFFFFFFFFFFFFFFFFFFFFFFFFFFFF DUP3 AND SWAP1 POP SWAP2 SWAP1 POP JUMP JUMPDEST PUSH0 PUSH2 0x5F7 DUP3 PUSH2 0x5CE JUMP JUMPDEST SWAP1 POP SWAP2 SWAP1 POP JUMP JUMPDEST PUSH2 0x607 DUP2 PUSH2 0x5ED JUMP JUMPDEST DUP3 MSTORE POP POP JUMP JUMPDEST PUSH0 PUSH1 0x80 DUP3 ADD SWAP1 POP PUSH2 0x620 PUSH0 DUP4 ADD DUP8 PUSH2 0x537 JUMP JUMPDEST DUP2 DUP2 SUB PUSH1 0x20 DUP4 ADD MSTORE PUSH2 0x632 DUP2 DUP7 PUSH2 0x57E JUMP JUMPDEST SWAP1 POP PUSH2 0x641 PUSH1 0x40 DUP4 ADD DUP6 PUSH2 0x5BF JUMP JUMPDEST PUSH2 0x64E PUSH1 0x60 DUP4 ADD DUP5 PUSH2 0x5FE JUMP JUMPDEST SWAP6 SWAP5 POP POP POP POP POP JUMP JUMPDEST PUSH0 DUP1 REVERT JUMPDEST PUSH0 DUP1 REVERT JUMPDEST PUSH32 0x4E487B7100000000000000000000000000000000000000000000000000000000 PUSH0 MSTORE PUSH1 0x41 PUSH1 0x4 MSTORE PUSH1 0x24 PUSH0 REVERT JUMPDEST PUSH2 0x695 DUP3 PUSH2 0x56E JUMP JUMPDEST DUP2 ADD DUP2 DUP2 LT PUSH8 0xFFFFFFFFFFFFFFFF DUP3 GT OR ISZERO PUSH2 0x6B4 JUMPI PUSH2 0x6B3 PUSH2 0x65F JUMP JUMPDEST JUMPDEST DUP1 PUSH1 0x40 MSTORE POP POP POP JUMP JUMPDEST PUSH0 PUSH2 0x6C6 PUSH2 0x4C8 JUMP JUMPDEST SWAP1 POP PUSH2 0x6D2 DUP3 DUP3 PUSH2 0x68C JUMP JUMPDEST SWAP2 SWAP1 POP JUMP JUMPDEST PUSH0 PUSH8 0xFFFFFFFFFFFFFFFF DUP3 GT ISZERO PUSH2 0x6F1 JUMPI PUSH2 0x6F0 PUSH2 0x65F JUMP JUMPDEST JUMPDEST PUSH2 0x6FA DUP3 PUSH2 0x56E JUMP JUMPDEST SWAP1 POP PUSH1 0x20 DUP2 ADD SWAP1 POP SWAP2 SWAP1 POP JUMP JUMPDEST DUP3 DUP2 DUP4 CALLDATACOPY PUSH0 DUP4 DUP4 ADD MSTORE POP POP POP JUMP JUMPDEST PUSH0 PUSH2 0x727 PUSH2 0x722 DUP5 PUSH2 0x6D7 JUMP JUMPDEST PUSH2 0x6BD JUMP JUMPDEST SWAP1 POP DUP3 DUP2 MSTORE PUSH1 0x20 DUP2 ADD DUP5 DUP5 DUP5 ADD GT ISZERO PUSH2 0x743 JUMPI PUSH2 0x742 PUSH2 0x65B JUMP JUMPDEST JUMPDEST PUSH2 0x74E DUP5 DUP3 DUP6 PUSH2 0x707 JUMP JUMPDEST POP SWAP4 SWAP3 POP POP POP JUMP JUMPDEST PUSH0 DUP3 PUSH1 0x1F DUP4 ADD SLT PUSH2 0x76A JUMPI PUSH2 0x769 PUSH2 0x657 JUMP JUMPDEST JUMPDEST DUP2 CALLDATALOAD PUSH2 0x77A DUP5 DUP3 PUSH1 0x20 DUP7 ADD PUSH2 0x715 JUMP JUMPDEST SWAP2 POP POP SWAP3 SWAP2 POP POP JUMP JUMPDEST PUSH2 0x78C DUP2 PUSH2 0x5B6 JUMP JUMPDEST DUP2 EQ PUSH2 0x796 JUMPI PUSH0 DUP1 REVERT JUMPDEST POP JUMP JUMPDEST PUSH0 DUP2 CALLDATALOAD SWAP1 POP PUSH2 0x7A7 DUP2 PUSH2 0x783 JUMP JUMPDEST SWAP3 SWAP2 POP POP JUMP JUMPDEST PUSH0 DUP1 PUSH1 0x40 DUP4 DUP6 SUB SLT ISZERO PUSH2 0x7C3 JUMPI PUSH2 0x7C2 PUSH2 0x4D1 JUMP JUMPDEST JUMPDEST PUSH0 DUP4 ADD CALLDATALOAD PUSH8 0xFFFFFFFFFFFFFFFF DUP2 GT ISZERO PUSH2 0x7E0 JUMPI PUSH2 0x7DF PUSH2 0x4D5 JUMP JUMPDEST JUMPDEST PUSH2 0x7EC DUP6 DUP3 DUP7 ADD PUSH2 0x756 JUMP JUMPDEST SWAP3 POP POP PUSH1 0x20 PUSH2 0x7FD DUP6 DUP3 DUP7 ADD PUSH2 0x799 JUMP JUMPDEST SWAP2 POP POP SWAP3 POP SWAP3 SWAP1 POP JUMP JUMPDEST PUSH2 0x810 DUP2 PUSH2 0x4D9 JUMP JUMPDEST DUP3 MSTORE POP POP JUMP JUMPDEST PUSH0 DUP3 DUP3 MSTORE PUSH1 0x20 DUP3 ADD SWAP1 POP SWAP3 SWAP2 POP POP JUMP JUMPDEST PUSH0 PUSH2 0x830 DUP3 PUSH2 0x546 JUMP JUMPDEST PUSH2 0x83A DUP2 DUP6 PUSH2 0x816 JUMP JUMPDEST SWAP4 POP PUSH2 0x84A DUP2 DUP6 PUSH1 0x20 DUP7 ADD PUSH2 0x560 JUMP JUMPDEST PUSH2 0x853 DUP2 PUSH2 0x56E JUMP JUMPDEST DUP5 ADD SWAP2 POP POP SWAP3 SWAP2 POP POP JUMP JUMPDEST PUSH2 0x867 DUP2 PUSH2 0x5B6 JUMP JUMPDEST DUP3 MSTORE POP POP JUMP JUMPDEST PUSH2 0x876 DUP2 PUSH2 0x5ED JUMP JUMPDEST DUP3 MSTORE POP POP JUMP JUMPDEST PUSH0 PUSH1 0x80 DUP4 ADD PUSH0 DUP4 ADD MLOAD PUSH2 0x891 PUSH0 DUP7 ADD DUP3 PUSH2 0x807 JUMP JUMPDEST POP PUSH1 0x20 DUP4 ADD MLOAD DUP5 DUP3 SUB PUSH1 0x20 DUP7 ADD MSTORE PUSH2 0x8A9 DUP3 DUP3 PUSH2 0x826 JUMP JUMPDEST SWAP2 POP POP PUSH1 0x40 DUP4 ADD MLOAD PUSH2 0x8BE PUSH1 0x40 DUP7 ADD DUP3 PUSH2 0x85E JUMP JUMPDEST POP PUSH1 0x60 DUP4 ADD MLOAD PUSH2 0x8D1 PUSH1 0x60 DUP7 ADD DUP3 PUSH2 0x86D JUMP JUMPDEST POP DUP1 SWAP2 POP POP SWAP3 SWAP2 POP POP JUMP JUMPDEST PUSH0 PUSH1 0x20 DUP3 ADD SWAP1 POP DUP2 DUP2 SUB PUSH0 DUP4 ADD MSTORE PUSH2 0x8F4 DUP2 DUP5 PUSH2 0x87C JUMP JUMPDEST SWAP1 POP SWAP3 SWAP2 POP POP JUMP JUMPDEST PUSH32 0x4E487B7100000000000000000000000000000000000000000000000000000000 PUSH0 MSTORE PUSH1 0x22 PUSH1 0x4 MSTORE PUSH1 0x24 PUSH0 REVERT JUMPDEST PUSH0 PUSH1 0x2 DUP3 DIV SWAP1 POP PUSH1 0x1 DUP3 AND DUP1 PUSH2 0x940 JUMPI PUSH1 0x7F DUP3 AND SWAP2 POP JUMPDEST PUSH1 0x20 DUP3 LT DUP2 SUB PUSH2 0x953 JUMPI PUSH2 0x952 PUSH2 0x8FC JUMP JUMPDEST JUMPDEST POP SWAP2 SWAP1 POP JUMP JUMPDEST PUSH0 DUP2 SWAP1 POP SWAP3 SWAP2 POP POP JUMP JUMPDEST PUSH0 PUSH2 0x96D DUP3 PUSH2 0x546 JUMP JUMPDEST PUSH2 0x977 DUP2 DUP6 PUSH2 0x959 JUMP JUMPDEST SWAP4 POP PUSH2 0x987 DUP2 DUP6 PUSH1 0x20 DUP7 ADD PUSH2 0x560 JUMP JUMPDEST DUP1 DUP5 ADD SWAP2 POP POP SWAP3 SWAP2 POP POP JUMP JUMPDEST PUSH0 DUP2 SWAP1 POP SWAP2 SWAP1 POP JUMP JUMPDEST PUSH2 0x9AD PUSH2 0x9A8 DUP3 PUSH2 0x5B6 JUMP JUMPDEST PUSH2 0x993 JUMP JUMPDEST DUP3 MSTORE POP POP JUMP JUMPDEST PUSH0 DUP2 PUSH1 0x60 SHL SWAP1 POP SWAP2 SWAP1 POP JUMP JUMPDEST PUSH0 PUSH2 0x9C9 DUP3 PUSH2 0x9B3 JUMP JUMPDEST SWAP1 POP SWAP2 SWAP1 POP JUMP JUMPDEST PUSH0 PUSH2 0x9DA DUP3 PUSH2 0x9BF JUMP JUMPDEST SWAP1 POP SWAP2 SWAP1 POP JUMP JUMPDEST PUSH2 0x9F2 PUSH2 0x9ED DUP3 PUSH2 0x5ED JUMP JUMPDEST PUSH2 0x9D0 JUMP JUMPDEST DUP3 MSTORE POP POP JUMP JUMPDEST PUSH0 PUSH2 0xA03 DUP3 DUP8 PUSH2 0x963 JUMP JUMPDEST SWAP2 POP PUSH2 0xA0F DUP3 DUP7 PUSH2 0x99C JUMP JUMPDEST PUSH1 0x20 DUP3 ADD SWAP2 POP PUSH2 0xA1F DUP3 DUP6 PUSH2 0x9E1 JUMP JUMPDEST PUSH1 0x14 DUP3 ADD SWAP2 POP PUSH2 0xA2F DUP3 DUP5 PUSH2 0x99C JUMP JUMPDEST PUSH1 0x20 DUP3 ADD SWAP2 POP DUP2 SWAP1 POP SWAP6 SWAP5 POP POP POP POP POP JUMP JUMPDEST PUSH32 0x4974656D20616C72656164792065786973747300000000000000000000000000 PUSH0 DUP3 ADD MSTORE POP JUMP JUMPDEST PUSH0 PUSH2 0xA75 PUSH1 0x13 DUP4 PUSH2 0x550 JUMP JUMPDEST SWAP2 POP PUSH2 0xA80 DUP3 PUSH2 0xA41 JUMP JUMPDEST PUSH1 0x20 DUP3 ADD SWAP1 POP SWAP2 SWAP1 POP JUMP JUMPDEST PUSH0 PUSH1 0x20 DUP3 ADD SWAP1 POP DUP2 DUP2 SUB PUSH0 DUP4 ADD MSTORE PUSH2 0xAA2 DUP2 PUSH2 0xA69 JUMP JUMPDEST SWAP1 POP SWAP2 SWAP1 POP JUMP JUMPDEST PUSH0 DUP2 SWAP1 POP DUP2 PUSH0 MSTORE PUSH1 0x20 PUSH0 KECCAK256 SWAP1 POP SWAP2 SWAP1 POP JUMP JUMPDEST PUSH0 PUSH1 0x20 PUSH1 0x1F DUP4 ADD DIV SWAP1 POP SWAP2 SWAP1 POP JUMP JUMPDEST PUSH0 DUP3 DUP3 SHL SWAP1 POP SWAP3 SWAP2 POP POP JUMP JUMPDEST PUSH0 PUSH1 0x8 DUP4 MUL PUSH2 0xB05 PUSH32 0xFFFFFFFFFFFFFFFFFFFFFFFFFFFFFFFFFFFFFFFFFFFFFFFFFFFFFFFFFFFFFFFF DUP3 PUSH2 0xACA JUMP JUMPDEST PUSH2 0xB0F DUP7 DUP4 PUSH2 0xACA JUMP JUMPDEST SWAP6 POP DUP1 NOT DUP5 AND SWAP4 POP DUP1 DUP7 AND DUP5 OR SWAP3 POP POP POP SWAP4 SWAP3 POP POP POP JUMP JUMPDEST PUSH0 DUP2 SWAP1 POP SWAP2 SWAP1 POP JUMP JUMPDEST PUSH0 PUSH2 0xB4A PUSH2 0xB45 PUSH2 0xB40 DUP5 PUSH2 0x5B6 JUMP JUMPDEST PUSH2 0xB27 JUMP JUMPDEST PUSH2 0x5B6 JUMP JUMPDEST SWAP1 POP SWAP2 SWAP1 POP JUMP JUMPDEST PUSH0 DUP2 SWAP1 POP SWAP2 SWAP1 POP JUMP JUMPDEST PUSH2 0xB63 DUP4 PUSH2 0xB30 JUMP JUMPDEST PUSH2 0xB77 PUSH2 0xB6F DUP3 PUSH2 0xB51 JUMP JUMPDEST DUP5 DUP5 SLOAD PUSH2 0xAD6 JUMP JUMPDEST DUP3 SSTORE POP POP POP POP JUMP JUMPDEST PUSH0 SWAP1 JUMP JUMPDEST PUSH2 0xB8B PUSH2 0xB7F JUMP JUMPDEST PUSH2 0xB96 DUP2 DUP5 DUP5 PUSH2 0xB5A JUMP JUMPDEST POP POP POP JUMP JUMPDEST JUMPDEST DUP2 DUP2 LT ISZERO PUSH2 0xBB9 JUMPI PUSH2 0xBAE PUSH0 DUP3 PUSH2 0xB83 JUMP JUMPDEST PUSH1 0x1 DUP2 ADD SWAP1 POP PUSH2 0xB9C JUMP JUMPDEST POP POP JUMP JUMPDEST PUSH1 0x1F DUP3 GT ISZERO PUSH2 0xBFE JUMPI PUSH2 0xBCF DUP2 PUSH2 0xAA9 JUMP JUMPDEST PUSH2 0xBD8 DUP5 PUSH2 0xABB JUMP JUMPDEST DUP2 ADD PUSH1 0x20 DUP6 LT ISZERO PUSH2 0xBE7 JUMPI DUP2 SWAP1 POP JUMPDEST PUSH2 0xBFB PUSH2 0xBF3 DUP6 PUSH2 0xABB JUMP JUMPDEST DUP4 ADD DUP3 PUSH2 0xB9B JUMP JUMPDEST POP POP JUMPDEST POP POP POP JUMP JUMPDEST PUSH0 DUP3 DUP3 SHR SWAP1 POP SWAP3 SWAP2 POP POP JUMP JUMPDEST PUSH0 PUSH2 0xC1E PUSH0 NOT DUP5 PUSH1 0x8 MUL PUSH2 0xC03 JUMP JUMPDEST NOT DUP1 DUP4 AND SWAP2 POP POP SWAP3 SWAP2 POP POP JUMP JUMPDEST PUSH0 PUSH2 0xC36 DUP4 DUP4 PUSH2 0xC0F JUMP JUMPDEST SWAP2 POP DUP3 PUSH1 0x2 MUL DUP3 OR SWAP1 POP SWAP3 SWAP2 POP POP JUMP JUMPDEST PUSH2 0xC4F DUP3 PUSH2 0x546 JUMP JUMPDEST PUSH8 0xFFFFFFFFFFFFFFFF DUP2 GT ISZERO PUSH2 0xC68 JUMPI PUSH2 0xC67 PUSH2 0x65F JUMP JUMPDEST JUMPDEST PUSH2 0xC72 DUP3 SLOAD PUSH2 0x929 JUMP JUMPDEST PUSH2 0xC7D DUP3 DUP3 DUP6 PUSH2 0xBBD JUMP JUMPDEST PUSH0 PUSH1 0x20 SWAP1 POP PUSH1 0x1F DUP4 GT PUSH1 0x1 DUP2 EQ PUSH2 0xCAE JUMPI PUSH0 DUP5 ISZERO PUSH2 0xC9C JUMPI DUP3 DUP8 ADD MLOAD SWAP1 POP JUMPDEST PUSH2 0xCA6 DUP6 DUP3 PUSH2 0xC2B JUMP JUMPDEST DUP7 SSTORE POP PUSH2 0xD0D JUMP JUMPDEST PUSH1 0x1F NOT DUP5 AND PUSH2 0xCBC DUP7 PUSH2 0xAA9 JUMP JUMPDEST PUSH0 JUMPDEST DUP3 DUP2 LT ISZERO PUSH2 0xCE3 JUMPI DUP5 DUP10 ADD MLOAD DUP3 SSTORE PUSH1 0x1 DUP3 ADD SWAP2 POP PUSH1 0x20 DUP6 ADD SWAP5 POP PUSH1 0x20 DUP2 ADD SWAP1 POP PUSH2 0xCBE JUMP JUMPDEST DUP7 DUP4 LT ISZERO PUSH2 0xD00 JUMPI DUP5 DUP10 ADD MLOAD PUSH2 0xCFC PUSH1 0x1F DUP10 AND DUP3 PUSH2 0xC0F JUMP JUMPDEST DUP4 SSTORE POP JUMPDEST PUSH1 0x1 PUSH1 0x2 DUP9 MUL ADD DUP9 SSTORE POP POP POP JUMPDEST POP POP POP POP POP POP JUMP JUMPDEST PUSH32 0x4974656D20646F6573206E6F7420657869737400000000000000000000000000 PUSH0 DUP3 ADD MSTORE POP JUMP JUMPDEST PUSH0 PUSH2 0xD49 PUSH1 0x13 DUP4 PUSH2 0x550 JUMP JUMPDEST SWAP2 POP PUSH2 0xD54 DUP3 PUSH2 0xD15 JUMP JUMPDEST PUSH1 0x20 DUP3 ADD SWAP1 POP SWAP2 SWAP1 POP JUMP JUMPDEST PUSH0 PUSH1 0x20 DUP3 ADD SWAP1 POP DUP2 DUP2 SUB PUSH0 DUP4 ADD MSTORE PUSH2 0xD76 DUP2 PUSH2 0xD3D JUMP JUMPDEST SWAP1 POP SWAP2 SWAP1 POP JUMP INVALID LOG2 PUSH5 0x6970667358 0x22 SLT KECCAK256 0xEB 0xE4 0xE5 MOD SIGNEXTEND 0xE4 0xB3 0xC0 0xC6 0xE5 LT DUP10 DUP6 0xC0 DUP1 MUL NOT SWAP12 0xC4 0xC1 SWAP1 TLOAD 0xF9 0xCF 0x4E LOG1 0xAD SAR 0xFB LOG3 0xCA 0xE5 PUSH5 0x736F6C6343 STOP ADDMOD BYTE STOP CALLER "
				},
				"gasEstimates": {
					"creation": {
						"codeDepositCost": "701400",
						"executionCost": "732",
						"totalCost": "702132"
					},
					"external": {
						"createItem(string,uint256)": "infinite",
						"getItem(bytes32)": "infinite",
						"items(bytes32)": "infinite"
					}
				},
				"methodIdentifiers": {
					"createItem(string,uint256)": "8c551742",
					"getItem(bytes32)": "aa0372e7",
					"items(bytes32)": "48f343f3"
				}
			},
			"storageLayout": {
				"storage": [
					{
						"astId": 15,
						"contract": "contracts/HashingwithKeccak256.sol:SupplyChain",
						"label": "items",
						"offset": 0,
						"slot": "0",
						"type": "t_mapping(t_bytes32,t_struct(Item)10_storage)"
					}
				],
				"types": {
					"t_address": {
						"encoding": "inplace",
						"label": "address",
						"numberOfBytes": "20"
					},
					"t_bytes32": {
						"encoding": "inplace",
						"label": "bytes32",
						"numberOfBytes": "32"
					},
					"t_mapping(t_bytes32,t_struct(Item)10_storage)": {
						"encoding": "mapping",
						"key": "t_bytes32",
						"label": "mapping(bytes32 => struct SupplyChain.Item)",
						"numberOfBytes": "32",
						"value": "t_struct(Item)10_storage"
					},
					"t_string_storage": {
						"encoding": "bytes",
						"label": "string",
						"numberOfBytes": "32"
					},
					"t_struct(Item)10_storage": {
						"encoding": "inplace",
						"label": "struct SupplyChain.Item",
						"members": [
							{
								"astId": 3,
								"contract": "contracts/HashingwithKeccak256.sol:SupplyChain",
								"label": "id",
								"offset": 0,
								"slot": "0",
								"type": "t_bytes32"
							},
							{
								"astId": 5,
								"contract": "contracts/HashingwithKeccak256.sol:SupplyChain",
								"label": "name",
								"offset": 0,
								"slot": "1",
								"type": "t_string_storage"
							},
							{
								"astId": 7,
								"contract": "contracts/HashingwithKeccak256.sol:SupplyChain",
								"label": "quantity",
								"offset": 0,
								"slot": "2",
								"type": "t_uint256"
							},
							{
								"astId": 9,
								"contract": "contracts/HashingwithKeccak256.sol:SupplyChain",
								"label": "owner",
								"offset": 0,
								"slot": "3",
								"type": "t_address"
							}
						],
						"numberOfBytes": "128"
					},
					"t_uint256": {
						"encoding": "inplace",
						"label": "uint256",
						"numberOfBytes": "32"
					}
				}
			},
			"userdoc": {
				"kind": "user",
				"methods": {},
				"version": 1
			}
		}
	}
}