{
	"data": {
		"bytecode": {
			"linkReferences": {},
			"object": "6080604052348015600e575f80fd5b50610a538061001c5f395ff3fe608060405234801561000f575f80fd5b506004361061003f575f3560e01c8063795be10314610043578063a87430ba1461005f578063ffc9896b14610091575b5f80fd5b61005d600480360381019061005891906104ca565b6100c3565b005b61007960048036038101906100749190610590565b61014a565b6040516100889392919061062a565b60405180910390f35b6100ab60048036038101906100a69190610590565b6101f5565b6040516100ba9392919061062a565b60405180910390f35b6040518060600160405280848152602001838152602001828152505f803373ffffffffffffffffffffffffffffffffffffffff1673ffffffffffffffffffffffffffffffffffffffff1681526020019081526020015f205f820151815f01908161012d9190610860565b506020820151816001015560408201518160020155905050505050565b5f602052805f5260405f205f91509050805f01805461016890610693565b80601f016020809104026020016040519081016040528092919081815260200182805461019490610693565b80156101df5780601f106101b6576101008083540402835291602001916101df565b820191905f5260205f20905b8154815290600101906020018083116101c257829003601f168201915b5050505050908060010154908060020154905083565b60605f805f805f8673ffffffffffffffffffffffffffffffffffffffff1673ffffffffffffffffffffffffffffffffffffffff1681526020019081526020015f206040518060600160405290815f8201805461025090610693565b80601f016020809104026020016040519081016040528092919081815260200182805461027c90610693565b80156102c75780601f1061029e576101008083540402835291602001916102c7565b820191905f5260205f20905b8154815290600101906020018083116102aa57829003601f168201915b505050505081526020016001820154815260200160028201548152505090505f815f0151826020015183604001516040516020016103079392919061062a565b60405160208183030381529060405290505f805f8380602001905181019061032f91906109b1565b92509250925082828297509750975050505050509193909250565b5f604051905090565b5f80fd5b5f80fd5b5f80fd5b5f80fd5b5f601f19601f8301169050919050565b7f4e487b71000000000000000000000000000000000000000000000000000000005f52604160045260245ffd5b6103a982610363565b810181811067ffffffffffffffff821117156103c8576103c7610373565b5b80604052505050565b5f6103da61034a565b90506103e682826103a0565b919050565b5f67ffffffffffffffff82111561040557610404610373565b5b61040e82610363565b9050602081019050919050565b828183375f83830152505050565b5f61043b610436846103eb565b6103d1565b9050828152602081018484840111156104575761045661035f565b5b61046284828561041b565b509392505050565b5f82601f83011261047e5761047d61035b565b5b813561048e848260208601610429565b91505092915050565b5f819050919050565b6104a981610497565b81146104b3575f80fd5b50565b5f813590506104c4816104a0565b92915050565b5f805f606084860312156104e1576104e0610353565b5b5f84013567ffffffffffffffff8111156104fe576104fd610357565b5b61050a8682870161046a565b935050602061051b868287016104b6565b925050604061052c868287016104b6565b9150509250925092565b5f73ffffffffffffffffffffffffffffffffffffffff82169050919050565b5f61055f82610536565b9050919050565b61056f81610555565b8114610579575f80fd5b50565b5f8135905061058a81610566565b92915050565b5f602082840312156105a5576105a4610353565b5b5f6105b28482850161057c565b91505092915050565b5f81519050919050565b5f82825260208201905092915050565b8281835e5f83830152505050565b5f6105ed826105bb565b6105f781856105c5565b93506106078185602086016105d5565b61061081610363565b840191505092915050565b61062481610497565b82525050565b5f6060820190508181035f83015261064281866105e3565b9050610651602083018561061b565b61065e604083018461061b565b949350505050565b7f4e487b71000000000000000000000000000000000000000000000000000000005f52602260045260245ffd5b5f60028204905060018216806106aa57607f821691505b6020821081036106bd576106bc610666565b5b50919050565b5f819050815f5260205f209050919050565b5f6020601f8301049050919050565b5f82821b905092915050565b5f6008830261071f7fffffffffffffffffffffffffffffffffffffffffffffffffffffffffffffffff826106e4565b61072986836106e4565b95508019841693508086168417925050509392505050565b5f819050919050565b5f61076461075f61075a84610497565b610741565b610497565b9050919050565b5f819050919050565b61077d8361074a565b6107916107898261076b565b8484546106f0565b825550505050565b5f90565b6107a5610799565b6107b0818484610774565b505050565b5b818110156107d3576107c85f8261079d565b6001810190506107b6565b5050565b601f821115610818576107e9816106c3565b6107f2846106d5565b81016020851015610801578190505b61081561080d856106d5565b8301826107b5565b50505b505050565b5f82821c905092915050565b5f6108385f198460080261081d565b1980831691505092915050565b5f6108508383610829565b9150826002028217905092915050565b610869826105bb565b67ffffffffffffffff81111561088257610881610373565b5b61088c8254610693565b6108978282856107d7565b5f60209050601f8311600181146108c8575f84156108b6578287015190505b6108c08582610845565b865550610927565b601f1984166108d6866106c3565b5f5b828110156108fd578489015182556001820191506020850194506020810190506108d8565b8683101561091a5784890151610916601f891682610829565b8355505b6001600288020188555050505b505050505050565b5f61094161093c846103eb565b6103d1565b90508281526020810184848401111561095d5761095c61035f565b5b6109688482856105d5565b509392505050565b5f82601f8301126109845761098361035b565b5b815161099484826020860161092f565b91505092915050565b5f815190506109ab816104a0565b92915050565b5f805f606084860312156109c8576109c7610353565b5b5f84015167ffffffffffffffff8111156109e5576109e4610357565b5b6109f186828701610970565b9350506020610a028682870161099d565b9250506040610a138682870161099d565b915050925092509256fea2646970667358221220414ca09ceb478a3a160347bd6e5b543834477379c96c5fb64b2564c4b916a5e564736f6c634300081a0033",
			"opcodes": "PUSH1 0x80 PUSH1 0x40 MSTORE CALLVALUE DUP1 ISZERO PUSH1 0xE JUMPI PUSH0 DUP1 REVERT JUMPDEST POP PUSH2 0xA53 DUP1 PUSH2 0x1C PUSH0 CODECOPY PUSH0 RETURN INVALID PUSH1 0x80 PUSH1 0x40 MSTORE CALLVALUE DUP1 ISZERO PUSH2 0xF JUMPI PUSH0 DUP1 REVERT JUMPDEST POP PUSH1 0x4 CALLDATASIZE LT PUSH2 0x3F JUMPI PUSH0 CALLDATALOAD PUSH1 0xE0 SHR DUP1 PUSH4 0x795BE103 EQ PUSH2 0x43 JUMPI DUP1 PUSH4 0xA87430BA EQ PUSH2 0x5F JUMPI DUP1 PUSH4 0xFFC9896B EQ PUSH2 0x91 JUMPI JUMPDEST PUSH0 DUP1 REVERT JUMPDEST PUSH2 0x5D PUSH1 0x4 DUP1 CALLDATASIZE SUB DUP2 ADD SWAP1 PUSH2 0x58 SWAP2 SWAP1 PUSH2 0x4CA JUMP JUMPDEST PUSH2 0xC3 JUMP JUMPDEST STOP JUMPDEST PUSH2 0x79 PUSH1 0x4 DUP1 CALLDATASIZE SUB DUP2 ADD SWAP1 PUSH2 0x74 SWAP2 SWAP1 PUSH2 0x590 JUMP JUMPDEST PUSH2 0x14A JUMP JUMPDEST PUSH1 0x40 MLOAD PUSH2 0x88 SWAP4 SWAP3 SWAP2 SWAP1 PUSH2 0x62A JUMP JUMPDEST PUSH1 0x40 MLOAD DUP1 SWAP2 SUB SWAP1 RETURN JUMPDEST PUSH2 0xAB PUSH1 0x4 DUP1 CALLDATASIZE SUB DUP2 ADD SWAP1 PUSH2 0xA6 SWAP2 SWAP1 PUSH2 0x590 JUMP JUMPDEST PUSH2 0x1F5 JUMP JUMPDEST PUSH1 0x40 MLOAD PUSH2 0xBA SWAP4 SWAP3 SWAP2 SWAP1 PUSH2 0x62A JUMP JUMPDEST PUSH1 0x40 MLOAD DUP1 SWAP2 SUB SWAP1 RETURN JUMPDEST PUSH1 0x40 MLOAD DUP1 PUSH1 0x60 ADD PUSH1 0x40 MSTORE DUP1 DUP5 DUP2 MSTORE PUSH1 0x20 ADD DUP4 DUP2 MSTORE PUSH1 0x20 ADD DUP3 DUP2 MSTORE POP PUSH0 DUP1 CALLER PUSH20 0xFFFFFFFFFFFFFFFFFFFFFFFFFFFFFFFFFFFFFFFF AND PUSH20 0xFFFFFFFFFFFFFFFFFFFFFFFFFFFFFFFFFFFFFFFF AND DUP2 MSTORE PUSH1 0x20 ADD SWAP1 DUP2 MSTORE PUSH1 0x20 ADD PUSH0 KECCAK256 PUSH0 DUP3 ADD MLOAD DUP2 PUSH0 ADD SWAP1 DUP2 PUSH2 0x12D SWAP2 SWAP1 PUSH2 0x860 JUMP JUMPDEST POP PUSH1 0x20 DUP3 ADD MLOAD DUP2 PUSH1 0x1 ADD SSTORE PUSH1 0x40 DUP3 ADD MLOAD DUP2 PUSH1 0x2 ADD SSTORE SWAP1 POP POP POP POP POP JUMP JUMPDEST PUSH0 PUSH1 0x20 MSTORE DUP1 PUSH0 MSTORE PUSH1 0x40 PUSH0 KECCAK256 PUSH0 SWAP2 POP SWAP1 POP DUP1 PUSH0 ADD DUP1 SLOAD PUSH2 0x168 SWAP1 PUSH2 0x693 JUMP JUMPDEST DUP1 PUSH1 0x1F ADD PUSH1 0x20 DUP1 SWAP2 DIV MUL PUSH1 0x20 ADD PUSH1 0x40 MLOAD SWAP1 DUP2 ADD PUSH1 0x40 MSTORE DUP1 SWAP3 SWAP2 SWAP1 DUP2 DUP2 MSTORE PUSH1 0x20 ADD DUP3 DUP1 SLOAD PUSH2 0x194 SWAP1 PUSH2 0x693 JUMP JUMPDEST DUP1 ISZERO PUSH2 0x1DF JUMPI DUP1 PUSH1 0x1F LT PUSH2 0x1B6 JUMPI PUSH2 0x100 DUP1 DUP4 SLOAD DIV MUL DUP4 MSTORE SWAP2 PUSH1 0x20 ADD SWAP2 PUSH2 0x1DF JUMP JUMPDEST DUP3 ADD SWAP2 SWAP1 PUSH0 MSTORE PUSH1 0x20 PUSH0 KECCAK256 SWAP1 JUMPDEST DUP2 SLOAD DUP2 MSTORE SWAP1 PUSH1 0x1 ADD SWAP1 PUSH1 0x20 ADD DUP1 DUP4 GT PUSH2 0x1C2 JUMPI DUP3 SWAP1 SUB PUSH1 0x1F AND DUP3 ADD SWAP2 JUMPDEST POP POP POP POP POP SWAP1 DUP1 PUSH1 0x1 ADD SLOAD SWAP1 DUP1 PUSH1 0x2 ADD SLOAD SWAP1 POP DUP4 JUMP JUMPDEST PUSH1 0x60 PUSH0 DUP1 PUSH0 DUP1 PUSH0 DUP7 PUSH20 0xFFFFFFFFFFFFFFFFFFFFFFFFFFFFFFFFFFFFFFFF AND PUSH20 0xFFFFFFFFFFFFFFFFFFFFFFFFFFFFFFFFFFFFFFFF AND DUP2 MSTORE PUSH1 0x20 ADD SWAP1 DUP2 MSTORE PUSH1 0x20 ADD PUSH0 KECCAK256 PUSH1 0x40 MLOAD DUP1 PUSH1 0x60 ADD PUSH1 0x40 MSTORE SWAP1 DUP2 PUSH0 DUP3 ADD DUP1 SLOAD PUSH2 0x250 SWAP1 PUSH2 0x693 JUMP JUMPDEST DUP1 PUSH1 0x1F ADD PUSH1 0x20 DUP1 SWAP2 DIV MUL PUSH1 0x20 ADD PUSH1 0x40 MLOAD SWAP1 DUP2 ADD PUSH1 0x40 MSTORE DUP1 SWAP3 SWAP2 SWAP1 DUP2 DUP2 MSTORE PUSH1 0x20 ADD DUP3 DUP1 SLOAD PUSH2 0x27C SWAP1 PUSH2 0x693 JUMP JUMPDEST DUP1 ISZERO PUSH2 0x2C7 JUMPI DUP1 PUSH1 0x1F LT PUSH2 0x29E JUMPI PUSH2 0x100 DUP1 DUP4 SLOAD DIV MUL DUP4 MSTORE SWAP2 PUSH1 0x20 ADD SWAP2 PUSH2 0x2C7 JUMP JUMPDEST DUP3 ADD SWAP2 SWAP1 PUSH0 MSTORE PUSH1 0x20 PUSH0 KECCAK256 SWAP1 JUMPDEST DUP2 SLOAD DUP2 MSTORE SWAP1 PUSH1 0x1 ADD SWAP1 PUSH1 0x20 ADD DUP1 DUP4 GT PUSH2 0x2AA JUMPI DUP3 SWAP1 SUB PUSH1 0x1F AND DUP3 ADD SWAP2 JUMPDEST POP POP POP POP POP DUP2 MSTORE PUSH1 0x20 ADD PUSH1 0x1 DUP3 ADD SLOAD DUP2 MSTORE PUSH1 0x20 ADD PUSH1 0x2 DUP3 ADD SLOAD DUP2 MSTORE POP POP SWAP1 POP PUSH0 DUP2 PUSH0 ADD MLOAD DUP3 PUSH1 0x20 ADD MLOAD DUP4 PUSH1 0x40 ADD MLOAD PUSH1 0x40 MLOAD PUSH1 0x20 ADD PUSH2 0x307 SWAP4 SWAP3 SWAP2 SWAP1 PUSH2 0x62A JUMP JUMPDEST PUSH1 0x40 MLOAD PUSH1 0x20 DUP2 DUP4 SUB SUB DUP2 MSTORE SWAP1 PUSH1 0x40 MSTORE SWAP1 POP PUSH0 DUP1 PUSH0 DUP4 DUP1 PUSH1 0x20 ADD SWAP1 MLOAD DUP2 ADD SWAP1 PUSH2 0x32F SWAP2 SWAP1 PUSH2 0x9B1 JUMP JUMPDEST SWAP3 POP SWAP3 POP SWAP3 POP DUP3 DUP3 DUP3 SWAP8 POP SWAP8 POP SWAP8 POP POP POP POP POP POP SWAP2 SWAP4 SWAP1 SWAP3 POP JUMP JUMPDEST PUSH0 PUSH1 0x40 MLOAD SWAP1 POP SWAP1 JUMP JUMPDEST PUSH0 DUP1 REVERT JUMPDEST PUSH0 DUP1 REVERT JUMPDEST PUSH0 DUP1 REVERT JUMPDEST PUSH0 DUP1 REVERT JUMPDEST PUSH0 PUSH1 0x1F NOT PUSH1 0x1F DUP4 ADD AND SWAP1 POP SWAP2 SWAP1 POP JUMP JUMPDEST PUSH32 0x4E487B7100000000000000000000000000000000000000000000000000000000 PUSH0 MSTORE PUSH1 0x41 PUSH1 0x4 MSTORE PUSH1 0x24 PUSH0 REVERT JUMPDEST PUSH2 0x3A9 DUP3 PUSH2 0x363 JUMP JUMPDEST DUP2 ADD DUP2 DUP2 LT PUSH8 0xFFFFFFFFFFFFFFFF DUP3 GT OR ISZERO PUSH2 0x3C8 JUMPI PUSH2 0x3C7 PUSH2 0x373 JUMP JUMPDEST JUMPDEST DUP1 PUSH1 0x40 MSTORE POP POP POP JUMP JUMPDEST PUSH0 PUSH2 0x3DA PUSH2 0x34A JUMP JUMPDEST SWAP1 POP PUSH2 0x3E6 DUP3 DUP3 PUSH2 0x3A0 JUMP JUMPDEST SWAP2 SWAP1 POP JUMP JUMPDEST PUSH0 PUSH8 0xFFFFFFFFFFFFFFFF DUP3 GT ISZERO PUSH2 0x405 JUMPI PUSH2 0x404 PUSH2 0x373 JUMP JUMPDEST JUMPDEST PUSH2 0x40E DUP3 PUSH2 0x363 JUMP JUMPDEST SWAP1 POP PUSH1 0x20 DUP2 ADD SWAP1 POP SWAP2 SWAP1 POP JUMP JUMPDEST DUP3 DUP2 DUP4 CALLDATACOPY PUSH0 DUP4 DUP4 ADD MSTORE POP POP POP JUMP JUMPDEST PUSH0 PUSH2 0x43B PUSH2 0x436 DUP5 PUSH2 0x3EB JUMP JUMPDEST PUSH2 0x3D1 JUMP JUMPDEST SWAP1 POP DUP3 DUP2 MSTORE PUSH1 0x20 DUP2 ADD DUP5 DUP5 DUP5 ADD GT ISZERO PUSH2 0x457 JUMPI PUSH2 0x456 PUSH2 0x35F JUMP JUMPDEST JUMPDEST PUSH2 0x462 DUP5 DUP3 DUP6 PUSH2 0x41B JUMP JUMPDEST POP SWAP4 SWAP3 POP POP POP JUMP JUMPDEST PUSH0 DUP3 PUSH1 0x1F DUP4 ADD SLT PUSH2 0x47E JUMPI PUSH2 0x47D PUSH2 0x35B JUMP JUMPDEST JUMPDEST DUP2 CALLDATALOAD PUSH2 0x48E DUP5 DUP3 PUSH1 0x20 DUP7 ADD PUSH2 0x429 JUMP JUMPDEST SWAP2 POP POP SWAP3 SWAP2 POP POP JUMP JUMPDEST PUSH0 DUP2 SWAP1 POP SWAP2 SWAP1 POP JUMP JUMPDEST PUSH2 0x4A9 DUP2 PUSH2 0x497 JUMP JUMPDEST DUP2 EQ PUSH2 0x4B3 JUMPI PUSH0 DUP1 REVERT JUMPDEST POP JUMP JUMPDEST PUSH0 DUP2 CALLDATALOAD SWAP1 POP PUSH2 0x4C4 DUP2 PUSH2 0x4A0 JUMP JUMPDEST SWAP3 SWAP2 POP POP JUMP JUMPDEST PUSH0 DUP1 PUSH0 PUSH1 0x60 DUP5 DUP7 SUB SLT ISZERO PUSH2 0x4E1 JUMPI PUSH2 0x4E0 PUSH2 0x353 JUMP JUMPDEST JUMPDEST PUSH0 DUP5 ADD CALLDATALOAD PUSH8 0xFFFFFFFFFFFFFFFF DUP2 GT ISZERO PUSH2 0x4FE JUMPI PUSH2 0x4FD PUSH2 0x357 JUMP JUMPDEST JUMPDEST PUSH2 0x50A DUP7 DUP3 DUP8 ADD PUSH2 0x46A JUMP JUMPDEST SWAP4 POP POP PUSH1 0x20 PUSH2 0x51B DUP7 DUP3 DUP8 ADD PUSH2 0x4B6 JUMP JUMPDEST SWAP3 POP POP PUSH1 0x40 PUSH2 0x52C DUP7 DUP3 DUP8 ADD PUSH2 0x4B6 JUMP JUMPDEST SWAP2 POP POP SWAP3 POP SWAP3 POP SWAP3 JUMP JUMPDEST PUSH0 PUSH20 0xFFFFFFFFFFFFFFFFFFFFFFFFFFFFFFFFFFFFFFFF DUP3 AND SWAP1 POP SWAP2 SWAP1 POP JUMP JUMPDEST PUSH0 PUSH2 0x55F DUP3 PUSH2 0x536 JUMP JUMPDEST SWAP1 POP SWAP2 SWAP1 POP JUMP JUMPDEST PUSH2 0x56F DUP2 PUSH2 0x555 JUMP JUMPDEST DUP2 EQ PUSH2 0x579 JUMPI PUSH0 DUP1 REVERT JUMPDEST POP JUMP JUMPDEST PUSH0 DUP2 CALLDATALOAD SWAP1 POP PUSH2 0x58A DUP2 PUSH2 0x566 JUMP JUMPDEST SWAP3 SWAP2 POP POP JUMP JUMPDEST PUSH0 PUSH1 0x20 DUP3 DUP5 SUB SLT ISZERO PUSH2 0x5A5 JUMPI PUSH2 0x5A4 PUSH2 0x353 JUMP JUMPDEST JUMPDEST PUSH0 PUSH2 0x5B2 DUP5 DUP3 DUP6 ADD PUSH2 0x57C JUMP JUMPDEST SWAP2 POP POP SWAP3 SWAP2 POP POP JUMP JUMPDEST PUSH0 DUP2 MLOAD SWAP1 POP SWAP2 SWAP1 POP JUMP JUMPDEST PUSH0 DUP3 DUP3 MSTORE PUSH1 0x20 DUP3 ADD SWAP1 POP SWAP3 SWAP2 POP POP JUMP JUMPDEST DUP3 DUP2 DUP4 MCOPY PUSH0 DUP4 DUP4 ADD MSTORE POP POP POP JUMP JUMPDEST PUSH0 PUSH2 0x5ED DUP3 PUSH2 0x5BB JUMP JUMPDEST PUSH2 0x5F7 DUP2 DUP6 PUSH2 0x5C5 JUMP JUMPDEST SWAP4 POP PUSH2 0x607 DUP2 DUP6 PUSH1 0x20 DUP7 ADD PUSH2 0x5D5 JUMP JUMPDEST PUSH2 0x610 DUP2 PUSH2 0x363 JUMP JUMPDEST DUP5 ADD SWAP2 POP POP SWAP3 SWAP2 POP POP JUMP JUMPDEST PUSH2 0x624 DUP2 PUSH2 0x497 JUMP JUMPDEST DUP3 MSTORE POP POP JUMP JUMPDEST PUSH0 PUSH1 0x60 DUP3 ADD SWAP1 POP DUP2 DUP2 SUB PUSH0 DUP4 ADD MSTORE PUSH2 0x642 DUP2 DUP7 PUSH2 0x5E3 JUMP JUMPDEST SWAP1 POP PUSH2 0x651 PUSH1 0x20 DUP4 ADD DUP6 PUSH2 0x61B JUMP JUMPDEST PUSH2 0x65E PUSH1 0x40 DUP4 ADD DUP5 PUSH2 0x61B JUMP JUMPDEST SWAP5 SWAP4 POP POP POP POP JUMP JUMPDEST PUSH32 0x4E487B7100000000000000000000000000000000000000000000000000000000 PUSH0 MSTORE PUSH1 0x22 PUSH1 0x4 MSTORE PUSH1 0x24 PUSH0 REVERT JUMPDEST PUSH0 PUSH1 0x2 DUP3 DIV SWAP1 POP PUSH1 0x1 DUP3 AND DUP1 PUSH2 0x6AA JUMPI PUSH1 0x7F DUP3 AND SWAP2 POP JUMPDEST PUSH1 0x20 DUP3 LT DUP2 SUB PUSH2 0x6BD JUMPI PUSH2 0x6BC PUSH2 0x666 JUMP JUMPDEST JUMPDEST POP SWAP2 SWAP1 POP JUMP JUMPDEST PUSH0 DUP2 SWAP1 POP DUP2 PUSH0 MSTORE PUSH1 0x20 PUSH0 KECCAK256 SWAP1 POP SWAP2 SWAP1 POP JUMP JUMPDEST PUSH0 PUSH1 0x20 PUSH1 0x1F DUP4 ADD DIV SWAP1 POP SWAP2 SWAP1 POP JUMP JUMPDEST PUSH0 DUP3 DUP3 SHL SWAP1 POP SWAP3 SWAP2 POP POP JUMP JUMPDEST PUSH0 PUSH1 0x8 DUP4 MUL PUSH2 0x71F PUSH32 0xFFFFFFFFFFFFFFFFFFFFFFFFFFFFFFFFFFFFFFFFFFFFFFFFFFFFFFFFFFFFFFFF DUP3 PUSH2 0x6E4 JUMP JUMPDEST PUSH2 0x729 DUP7 DUP4 PUSH2 0x6E4 JUMP JUMPDEST SWAP6 POP DUP1 NOT DUP5 AND SWAP4 POP DUP1 DUP7 AND DUP5 OR SWAP3 POP POP POP SWAP4 SWAP3 POP POP POP JUMP JUMPDEST PUSH0 DUP2 SWAP1 POP SWAP2 SWAP1 POP JUMP JUMPDEST PUSH0 PUSH2 0x764 PUSH2 0x75F PUSH2 0x75A DUP5 PUSH2 0x497 JUMP JUMPDEST PUSH2 0x741 JUMP JUMPDEST PUSH2 0x497 JUMP JUMPDEST SWAP1 POP SWAP2 SWAP1 POP JUMP JUMPDEST PUSH0 DUP2 SWAP1 POP SWAP2 SWAP1 POP JUMP JUMPDEST PUSH2 0x77D DUP4 PUSH2 0x74A JUMP JUMPDEST PUSH2 0x791 PUSH2 0x789 DUP3 PUSH2 0x76B JUMP JUMPDEST DUP5 DUP5 SLOAD PUSH2 0x6F0 JUMP JUMPDEST DUP3 SSTORE POP POP POP POP JUMP JUMPDEST PUSH0 SWAP1 JUMP JUMPDEST PUSH2 0x7A5 PUSH2 0x799 JUMP JUMPDEST PUSH2 0x7B0 DUP2 DUP5 DUP5 PUSH2 0x774 JUMP JUMPDEST POP POP POP JUMP JUMPDEST JUMPDEST DUP2 DUP2 LT ISZERO PUSH2 0x7D3 JUMPI PUSH2 0x7C8 PUSH0 DUP3 PUSH2 0x79D JUMP JUMPDEST PUSH1 0x1 DUP2 ADD SWAP1 POP PUSH2 0x7B6 JUMP JUMPDEST POP POP JUMP JUMPDEST PUSH1 0x1F DUP3 GT ISZERO PUSH2 0x818 JUMPI PUSH2 0x7E9 DUP2 PUSH2 0x6C3 JUMP JUMPDEST PUSH2 0x7F2 DUP5 PUSH2 0x6D5 JUMP JUMPDEST DUP2 ADD PUSH1 0x20 DUP6 LT ISZERO PUSH2 0x801 JUMPI DUP2 SWAP1 POP JUMPDEST PUSH2 0x815 PUSH2 0x80D DUP6 PUSH2 0x6D5 JUMP JUMPDEST DUP4 ADD DUP3 PUSH2 0x7B5 JUMP JUMPDEST POP POP JUMPDEST POP POP POP JUMP JUMPDEST PUSH0 DUP3 DUP3 SHR SWAP1 POP SWAP3 SWAP2 POP POP JUMP JUMPDEST PUSH0 PUSH2 0x838 PUSH0 NOT DUP5 PUSH1 0x8 MUL PUSH2 0x81D JUMP JUMPDEST NOT DUP1 DUP4 AND SWAP2 POP POP SWAP3 SWAP2 POP POP JUMP JUMPDEST PUSH0 PUSH2 0x850 DUP4 DUP4 PUSH2 0x829 JUMP JUMPDEST SWAP2 POP DUP3 PUSH1 0x2 MUL DUP3 OR SWAP1 POP SWAP3 SWAP2 POP POP JUMP JUMPDEST PUSH2 0x869 DUP3 PUSH2 0x5BB JUMP JUMPDEST PUSH8 0xFFFFFFFFFFFFFFFF DUP2 GT ISZERO PUSH2 0x882 JUMPI PUSH2 0x881 PUSH2 0x373 JUMP JUMPDEST JUMPDEST PUSH2 0x88C DUP3 SLOAD PUSH2 0x693 JUMP JUMPDEST PUSH2 0x897 DUP3 DUP3 DUP6 PUSH2 0x7D7 JUMP JUMPDEST PUSH0 PUSH1 0x20 SWAP1 POP PUSH1 0x1F DUP4 GT PUSH1 0x1 DUP2 EQ PUSH2 0x8C8 JUMPI PUSH0 DUP5 ISZERO PUSH2 0x8B6 JUMPI DUP3 DUP8 ADD MLOAD SWAP1 POP JUMPDEST PUSH2 0x8C0 DUP6 DUP3 PUSH2 0x845 JUMP JUMPDEST DUP7 SSTORE POP PUSH2 0x927 JUMP JUMPDEST PUSH1 0x1F NOT DUP5 AND PUSH2 0x8D6 DUP7 PUSH2 0x6C3 JUMP JUMPDEST PUSH0 JUMPDEST DUP3 DUP2 LT ISZERO PUSH2 0x8FD JUMPI DUP5 DUP10 ADD MLOAD DUP3 SSTORE PUSH1 0x1 DUP3 ADD SWAP2 POP PUSH1 0x20 DUP6 ADD SWAP5 POP PUSH1 0x20 DUP2 ADD SWAP1 POP PUSH2 0x8D8 JUMP JUMPDEST DUP7 DUP4 LT ISZERO PUSH2 0x91A JUMPI DUP5 DUP10 ADD MLOAD PUSH2 0x916 PUSH1 0x1F DUP10 AND DUP3 PUSH2 0x829 JUMP JUMPDEST DUP4 SSTORE POP JUMPDEST PUSH1 0x1 PUSH1 0x2 DUP9 MUL ADD DUP9 SSTORE POP POP POP JUMPDEST POP POP POP POP POP POP JUMP JUMPDEST PUSH0 PUSH2 0x941 PUSH2 0x93C DUP5 PUSH2 0x3EB JUMP JUMPDEST PUSH2 0x3D1 JUMP JUMPDEST SWAP1 POP DUP3 DUP2 MSTORE PUSH1 0x20 DUP2 ADD DUP5 DUP5 DUP5 ADD GT ISZERO PUSH2 0x95D JUMPI PUSH2 0x95C PUSH2 0x35F JUMP JUMPDEST JUMPDEST PUSH2 0x968 DUP5 DUP3 DUP6 PUSH2 0x5D5 JUMP JUMPDEST POP SWAP4 SWAP3 POP POP POP JUMP JUMPDEST PUSH0 DUP3 PUSH1 0x1F DUP4 ADD SLT PUSH2 0x984 JUMPI PUSH2 0x983 PUSH2 0x35B JUMP JUMPDEST JUMPDEST DUP2 MLOAD PUSH2 0x994 DUP5 DUP3 PUSH1 0x20 DUP7 ADD PUSH2 0x92F JUMP JUMPDEST SWAP2 POP POP SWAP3 SWAP2 POP POP JUMP JUMPDEST PUSH0 DUP2 MLOAD SWAP1 POP PUSH2 0x9AB DUP2 PUSH2 0x4A0 JUMP JUMPDEST SWAP3 SWAP2 POP POP JUMP JUMPDEST PUSH0 DUP1 PUSH0 PUSH1 0x60 DUP5 DUP7 SUB SLT ISZERO PUSH2 0x9C8 JUMPI PUSH2 0x9C7 PUSH2 0x353 JUMP JUMPDEST JUMPDEST PUSH0 DUP5 ADD MLOAD PUSH8 0xFFFFFFFFFFFFFFFF DUP2 GT ISZERO PUSH2 0x9E5 JUMPI PUSH2 0x9E4 PUSH2 0x357 JUMP JUMPDEST JUMPDEST PUSH2 0x9F1 DUP7 DUP3 DUP8 ADD PUSH2 0x970 JUMP JUMPDEST SWAP4 POP POP PUSH1 0x20 PUSH2 0xA02 DUP7 DUP3 DUP8 ADD PUSH2 0x99D JUMP JUMPDEST SWAP3 POP POP PUSH1 0x40 PUSH2 0xA13 DUP7 DUP3 DUP8 ADD PUSH2 0x99D JUMP JUMPDEST SWAP2 POP POP SWAP3 POP SWAP3 POP SWAP3 JUMP INVALID LOG2 PUSH5 0x6970667358 0x22 SLT KECCAK256 COINBASE 0x4C LOG0 SWAP13 0xEB SELFBALANCE DUP11 GASPRICE AND SUB SELFBALANCE 0xBD PUSH15 0x5B543834477379C96C5FB64B2564C4 0xB9 AND 0xA5 0xE5 PUSH5 0x736F6C6343 STOP ADDMOD BYTE STOP CALLER "
		},
		"gasEstimates": {
			"creation": {
				"codeDepositCost": "528600",
				"executionCost": "560",
				"totalCost": "529160"
			},
			"external": {
				"getUserData(address)": "infinite",
				"storeUserData(string,uint256,uint256)": "infinite",
				"users(address)": "infinite"
			}
		},
		"methodIdentifiers": {
			"getUserData(address)": "ffc9896b",
			"storeUserData(string,uint256,uint256)": "795be103",
			"users(address)": "a87430ba"
		}
	},
	"abi": [
		{
			"inputs": [
				{
					"internalType": "address",
					"name": "_userAddress",
					"type": "address"
				}
			],
			"name": "getUserData",
			"outputs": [
				{
					"internalType": "string",
					"name": "",
					"type": "string"
				},
				{
					"internalType": "uint256",
					"name": "",
					"type": "uint256"
				},
				{
					"internalType": "uint256",
					"name": "",
					"type": "uint256"
				}
			],
			"stateMutability": "view",
			"type": "function"
		},
		{
			"inputs": [
				{
					"internalType": "string",
					"name": "_name",
					"type": "string"
				},
				{
					"internalType": "uint256",
					"name": "_age",
					"type": "uint256"
				},
				{
					"internalType": "uint256",
					"name": "_favoriteNumber",
					"type": "uint256"
				}
			],
			"name": "storeUserData",
			"outputs": [],
			"stateMutability": "nonpayable",
			"type": "function"
		},
		{
			"inputs": [
				{
					"internalType": "address",
					"name": "",
					"type": "address"
				}
			],
			"name": "users",
			"outputs": [
				{
					"internalType": "string",
					"name": "name",
					"type": "string"
				},
				{
					"internalType": "uint256",
					"name": "age",
					"type": "uint256"
				},
				{
					"internalType": "uint256",
					"name": "favoriteNumber",
					"type": "uint256"
				}
			],
			"stateMutability": "view",
			"type": "function"
		}
	]
}